{
	"contracts/03_udemy_andrei_dumitrescu/challenges/02_Auction_Smart_Contract.sol": {
		"Auction": {
			"abi": [
				{
					"inputs": [
						{
							"internalType": "address",
							"name": "eoa",
							"type": "address"
						}
					],
					"stateMutability": "nonpayable",
					"type": "constructor"
				},
				{
					"inputs": [],
					"name": "auctionState",
					"outputs": [
						{
							"internalType": "enum Auction.State",
							"name": "",
							"type": "uint8"
						}
					],
					"stateMutability": "view",
					"type": "function"
				},
				{
					"inputs": [
						{
							"internalType": "address",
							"name": "",
							"type": "address"
						}
					],
					"name": "bids",
					"outputs": [
						{
							"internalType": "uint256",
							"name": "",
							"type": "uint256"
						}
					],
					"stateMutability": "view",
					"type": "function"
				},
				{
					"inputs": [],
					"name": "cancelAuction",
					"outputs": [],
					"stateMutability": "nonpayable",
					"type": "function"
				},
				{
					"inputs": [],
					"name": "endBlock",
					"outputs": [
						{
							"internalType": "uint256",
							"name": "",
							"type": "uint256"
						}
					],
					"stateMutability": "view",
					"type": "function"
				},
				{
					"inputs": [],
					"name": "finalizeAuction",
					"outputs": [],
					"stateMutability": "nonpayable",
					"type": "function"
				},
				{
					"inputs": [],
					"name": "highestBidder",
					"outputs": [
						{
							"internalType": "address payable",
							"name": "",
							"type": "address"
						}
					],
					"stateMutability": "view",
					"type": "function"
				},
				{
					"inputs": [],
					"name": "highestBindingBid",
					"outputs": [
						{
							"internalType": "uint256",
							"name": "",
							"type": "uint256"
						}
					],
					"stateMutability": "view",
					"type": "function"
				},
				{
					"inputs": [],
					"name": "ipfsHash",
					"outputs": [
						{
							"internalType": "string",
							"name": "",
							"type": "string"
						}
					],
					"stateMutability": "view",
					"type": "function"
				},
				{
					"inputs": [],
					"name": "owner",
					"outputs": [
						{
							"internalType": "address payable",
							"name": "",
							"type": "address"
						}
					],
					"stateMutability": "view",
					"type": "function"
				},
				{
					"inputs": [],
					"name": "placeBid",
					"outputs": [],
					"stateMutability": "payable",
					"type": "function"
				},
				{
					"inputs": [],
					"name": "startBlock",
					"outputs": [
						{
							"internalType": "uint256",
							"name": "",
							"type": "uint256"
						}
					],
					"stateMutability": "view",
					"type": "function"
				}
			],
			"devdoc": {
				"kind": "dev",
				"methods": {},
				"version": 1
			},
			"evm": {
				"assembly": "    /* \"contracts/03_udemy_andrei_dumitrescu/challenges/02_Auction_Smart_Contract.sol\":277:4147  contract Auction {\r... */\n  mstore(0x40, 0x80)\n    /* \"contracts/03_udemy_andrei_dumitrescu/challenges/02_Auction_Smart_Contract.sol\":703:1165  constructor(address eoa) { // eoa => externally owned account.\r... */\n  callvalue\n  dup1\n  iszero\n  tag_1\n  jumpi\n  0x00\n  dup1\n  revert\ntag_1:\n  pop\n  mload(0x40)\n  sub(codesize, bytecodeSize)\n  dup1\n  bytecodeSize\n  dup4\n  codecopy\n  dup2\n  dup2\n  add\n  0x40\n  mstore\n  dup2\n  add\n  swap1\n  tag_2\n  swap2\n  swap1\n  tag_3\n  jump\t// in\ntag_2:\n    /* \"contracts/03_udemy_andrei_dumitrescu/challenges/02_Auction_Smart_Contract.sol\":791:794  eoa */\n  dup1\n    /* \"contracts/03_udemy_andrei_dumitrescu/challenges/02_Auction_Smart_Contract.sol\":775:780  owner */\n  0x00\n  dup1\n    /* \"contracts/03_udemy_andrei_dumitrescu/challenges/02_Auction_Smart_Contract.sol\":775:795  owner = payable(eoa) */\n  0x0100\n  exp\n  dup2\n  sload\n  dup2\n  0xffffffffffffffffffffffffffffffffffffffff\n  mul\n  not\n  and\n  swap1\n  dup4\n  0xffffffffffffffffffffffffffffffffffffffff\n  and\n  mul\n  or\n  swap1\n  sstore\n  pop\n    /* \"contracts/03_udemy_andrei_dumitrescu/challenges/02_Auction_Smart_Contract.sol\":821:834  State.Running */\n  0x01\n    /* \"contracts/03_udemy_andrei_dumitrescu/challenges/02_Auction_Smart_Contract.sol\":806:818  auctionState */\n  0x04\n  0x00\n    /* \"contracts/03_udemy_andrei_dumitrescu/challenges/02_Auction_Smart_Contract.sol\":806:834  auctionState = State.Running */\n  0x0100\n  exp\n  dup2\n  sload\n  dup2\n  0xff\n  mul\n  not\n  and\n  swap1\n  dup4\n  0x03\n  dup2\n  gt\n  iszero\n  tag_6\n  jumpi\n  mstore(0x00, 0x4e487b7100000000000000000000000000000000000000000000000000000000)\n  mstore(0x04, 0x21)\n  revert(0x00, 0x24)\ntag_6:\n  mul\n  or\n  swap1\n  sstore\n  pop\n    /* \"contracts/03_udemy_andrei_dumitrescu/challenges/02_Auction_Smart_Contract.sol\":858:870  block.number */\n  number\n    /* \"contracts/03_udemy_andrei_dumitrescu/challenges/02_Auction_Smart_Contract.sol\":845:855  startBlock */\n  0x01\n    /* \"contracts/03_udemy_andrei_dumitrescu/challenges/02_Auction_Smart_Contract.sol\":845:870  startBlock = block.number */\n  dup2\n  swap1\n  sstore\n  pop\n    /* \"contracts/03_udemy_andrei_dumitrescu/challenges/02_Auction_Smart_Contract.sol\":1032:1033  4 */\n  0x04\n    /* \"contracts/03_udemy_andrei_dumitrescu/challenges/02_Auction_Smart_Contract.sol\":1019:1029  startBlock */\n  sload(0x01)\n    /* \"contracts/03_udemy_andrei_dumitrescu/challenges/02_Auction_Smart_Contract.sol\":1019:1033  startBlock + 4 */\n  tag_7\n  swap2\n  swap1\n  tag_8\n  jump\t// in\ntag_7:\n    /* \"contracts/03_udemy_andrei_dumitrescu/challenges/02_Auction_Smart_Contract.sol\":1008:1016  endBlock */\n  0x02\n    /* \"contracts/03_udemy_andrei_dumitrescu/challenges/02_Auction_Smart_Contract.sol\":1008:1033  endBlock = startBlock + 4 */\n  dup2\n  swap1\n  sstore\n  pop\n    /* \"contracts/03_udemy_andrei_dumitrescu/challenges/02_Auction_Smart_Contract.sol\":1044:1057  ipfsHash = \"\" */\n  mload(0x40)\n  dup1\n  0x20\n  add\n  0x40\n  mstore\n  dup1\n  0x00\n  dup2\n  mstore\n  pop\n    /* \"contracts/03_udemy_andrei_dumitrescu/challenges/02_Auction_Smart_Contract.sol\":1044:1052  ipfsHash */\n  0x03\n    /* \"contracts/03_udemy_andrei_dumitrescu/challenges/02_Auction_Smart_Contract.sol\":1044:1057  ipfsHash = \"\" */\n  swap1\n  dup1\n  mload\n  swap1\n  0x20\n  add\n  swap1\n  tag_9\n  swap3\n  swap2\n  swap1\n  tag_10\n  jump\t// in\ntag_9:\n  pop\n    /* \"contracts/03_udemy_andrei_dumitrescu/challenges/02_Auction_Smart_Contract.sol\":1138:1157  1000000000000000000 */\n  0x0de0b6b3a7640000\n    /* \"contracts/03_udemy_andrei_dumitrescu/challenges/02_Auction_Smart_Contract.sol\":1123:1135  bidIncrement */\n  0x08\n    /* \"contracts/03_udemy_andrei_dumitrescu/challenges/02_Auction_Smart_Contract.sol\":1123:1157  bidIncrement = 1000000000000000000 */\n  dup2\n  swap1\n  sstore\n  pop\n    /* \"contracts/03_udemy_andrei_dumitrescu/challenges/02_Auction_Smart_Contract.sol\":703:1165  constructor(address eoa) { // eoa => externally owned account.\r... */\n  pop\n    /* \"contracts/03_udemy_andrei_dumitrescu/challenges/02_Auction_Smart_Contract.sol\":277:4147  contract Auction {\r... */\n  jump(tag_11)\ntag_10:\n  dup3\n  dup1\n  sload\n  tag_12\n  swap1\n  tag_13\n  jump\t// in\ntag_12:\n  swap1\n  0x00\n  mstore\n  keccak256(0x00, 0x20)\n  swap1\n  0x1f\n  add\n  0x20\n  swap1\n  div\n  dup2\n  add\n  swap3\n  dup3\n  tag_15\n  jumpi\n  0x00\n  dup6\n  sstore\n  jump(tag_14)\ntag_15:\n  dup3\n  0x1f\n  lt\n  tag_16\n  jumpi\n  dup1\n  mload\n  not(0xff)\n  and\n  dup4\n  dup1\n  add\n  or\n  dup6\n  sstore\n  jump(tag_14)\ntag_16:\n  dup3\n  dup1\n  add\n  0x01\n  add\n  dup6\n  sstore\n  dup3\n  iszero\n  tag_14\n  jumpi\n  swap2\n  dup3\n  add\ntag_17:\n  dup3\n  dup2\n  gt\n  iszero\n  tag_18\n  jumpi\n  dup3\n  mload\n  dup3\n  sstore\n  swap2\n  0x20\n  add\n  swap2\n  swap1\n  0x01\n  add\n  swap1\n  jump(tag_17)\ntag_18:\ntag_14:\n  pop\n  swap1\n  pop\n  tag_19\n  swap2\n  swap1\n  tag_20\n  jump\t// in\ntag_19:\n  pop\n  swap1\n  jump\t// out\ntag_20:\ntag_21:\n  dup1\n  dup3\n  gt\n  iszero\n  tag_22\n  jumpi\n  0x00\n  dup2\n  0x00\n  swap1\n  sstore\n  pop\n  0x01\n  add\n  jump(tag_21)\ntag_22:\n  pop\n  swap1\n  jump\t// out\n    /* \"#utility.yul\":7:150   */\ntag_24:\n  0x00\n    /* \"#utility.yul\":95:101   */\n  dup2\n    /* \"#utility.yul\":89:102   */\n  mload\n    /* \"#utility.yul\":80:102   */\n  swap1\n  pop\n    /* \"#utility.yul\":111:144   */\n  tag_26\n    /* \"#utility.yul\":138:143   */\n  dup2\n    /* \"#utility.yul\":111:144   */\n  tag_27\n  jump\t// in\ntag_26:\n    /* \"#utility.yul\":70:150   */\n  swap3\n  swap2\n  pop\n  pop\n  jump\t// out\n    /* \"#utility.yul\":156:440   */\ntag_3:\n  0x00\n    /* \"#utility.yul\":275:277   */\n  0x20\n    /* \"#utility.yul\":263:272   */\n  dup3\n    /* \"#utility.yul\":254:261   */\n  dup5\n    /* \"#utility.yul\":250:273   */\n  sub\n    /* \"#utility.yul\":246:278   */\n  slt\n    /* \"#utility.yul\":243:245   */\n  iszero\n  tag_29\n  jumpi\n    /* \"#utility.yul\":291:292   */\n  0x00\n    /* \"#utility.yul\":288:289   */\n  dup1\n    /* \"#utility.yul\":281:293   */\n  revert\n    /* \"#utility.yul\":243:245   */\ntag_29:\n    /* \"#utility.yul\":334:335   */\n  0x00\n    /* \"#utility.yul\":359:423   */\n  tag_30\n    /* \"#utility.yul\":415:422   */\n  dup5\n    /* \"#utility.yul\":406:412   */\n  dup3\n    /* \"#utility.yul\":395:404   */\n  dup6\n    /* \"#utility.yul\":391:413   */\n  add\n    /* \"#utility.yul\":359:423   */\n  tag_24\n  jump\t// in\ntag_30:\n    /* \"#utility.yul\":349:423   */\n  swap2\n  pop\n    /* \"#utility.yul\":305:433   */\n  pop\n    /* \"#utility.yul\":233:440   */\n  swap3\n  swap2\n  pop\n  pop\n  jump\t// out\n    /* \"#utility.yul\":446:751   */\ntag_8:\n  0x00\n    /* \"#utility.yul\":505:525   */\n  tag_32\n    /* \"#utility.yul\":523:524   */\n  dup3\n    /* \"#utility.yul\":505:525   */\n  tag_33\n  jump\t// in\ntag_32:\n    /* \"#utility.yul\":500:525   */\n  swap2\n  pop\n    /* \"#utility.yul\":539:559   */\n  tag_34\n    /* \"#utility.yul\":557:558   */\n  dup4\n    /* \"#utility.yul\":539:559   */\n  tag_33\n  jump\t// in\ntag_34:\n    /* \"#utility.yul\":534:559   */\n  swap3\n  pop\n    /* \"#utility.yul\":693:694   */\n  dup3\n    /* \"#utility.yul\":625:691   */\n  0xffffffffffffffffffffffffffffffffffffffffffffffffffffffffffffffff\n    /* \"#utility.yul\":621:695   */\n  sub\n    /* \"#utility.yul\":618:619   */\n  dup3\n    /* \"#utility.yul\":615:696   */\n  gt\n    /* \"#utility.yul\":612:614   */\n  iszero\n  tag_35\n  jumpi\n    /* \"#utility.yul\":699:717   */\n  tag_36\n  tag_37\n  jump\t// in\ntag_36:\n    /* \"#utility.yul\":612:614   */\ntag_35:\n    /* \"#utility.yul\":743:744   */\n  dup3\n    /* \"#utility.yul\":740:741   */\n  dup3\n    /* \"#utility.yul\":736:745   */\n  add\n    /* \"#utility.yul\":729:745   */\n  swap1\n  pop\n    /* \"#utility.yul\":490:751   */\n  swap3\n  swap2\n  pop\n  pop\n  jump\t// out\n    /* \"#utility.yul\":757:853   */\ntag_38:\n  0x00\n    /* \"#utility.yul\":823:847   */\n  tag_40\n    /* \"#utility.yul\":841:846   */\n  dup3\n    /* \"#utility.yul\":823:847   */\n  tag_41\n  jump\t// in\ntag_40:\n    /* \"#utility.yul\":812:847   */\n  swap1\n  pop\n    /* \"#utility.yul\":802:853   */\n  swap2\n  swap1\n  pop\n  jump\t// out\n    /* \"#utility.yul\":859:985   */\ntag_41:\n  0x00\n    /* \"#utility.yul\":936:978   */\n  0xffffffffffffffffffffffffffffffffffffffff\n    /* \"#utility.yul\":929:934   */\n  dup3\n    /* \"#utility.yul\":925:979   */\n  and\n    /* \"#utility.yul\":914:979   */\n  swap1\n  pop\n    /* \"#utility.yul\":904:985   */\n  swap2\n  swap1\n  pop\n  jump\t// out\n    /* \"#utility.yul\":991:1068   */\ntag_33:\n  0x00\n    /* \"#utility.yul\":1057:1062   */\n  dup2\n    /* \"#utility.yul\":1046:1062   */\n  swap1\n  pop\n    /* \"#utility.yul\":1036:1068   */\n  swap2\n  swap1\n  pop\n  jump\t// out\n    /* \"#utility.yul\":1074:1394   */\ntag_13:\n  0x00\n    /* \"#utility.yul\":1155:1156   */\n  0x02\n    /* \"#utility.yul\":1149:1153   */\n  dup3\n    /* \"#utility.yul\":1145:1157   */\n  div\n    /* \"#utility.yul\":1135:1157   */\n  swap1\n  pop\n    /* \"#utility.yul\":1202:1203   */\n  0x01\n    /* \"#utility.yul\":1196:1200   */\n  dup3\n    /* \"#utility.yul\":1192:1204   */\n  and\n    /* \"#utility.yul\":1223:1241   */\n  dup1\n    /* \"#utility.yul\":1213:1215   */\n  tag_45\n  jumpi\n    /* \"#utility.yul\":1279:1283   */\n  0x7f\n    /* \"#utility.yul\":1271:1277   */\n  dup3\n    /* \"#utility.yul\":1267:1284   */\n  and\n    /* \"#utility.yul\":1257:1284   */\n  swap2\n  pop\n    /* \"#utility.yul\":1213:1215   */\ntag_45:\n    /* \"#utility.yul\":1341:1343   */\n  0x20\n    /* \"#utility.yul\":1333:1339   */\n  dup3\n    /* \"#utility.yul\":1330:1344   */\n  lt\n    /* \"#utility.yul\":1310:1328   */\n  dup2\n    /* \"#utility.yul\":1307:1345   */\n  eq\n    /* \"#utility.yul\":1304:1306   */\n  iszero\n  tag_46\n  jumpi\n    /* \"#utility.yul\":1360:1378   */\n  tag_47\n  tag_48\n  jump\t// in\ntag_47:\n    /* \"#utility.yul\":1304:1306   */\ntag_46:\n    /* \"#utility.yul\":1125:1394   */\n  pop\n  swap2\n  swap1\n  pop\n  jump\t// out\n    /* \"#utility.yul\":1400:1580   */\ntag_37:\n    /* \"#utility.yul\":1448:1525   */\n  0x4e487b7100000000000000000000000000000000000000000000000000000000\n    /* \"#utility.yul\":1445:1446   */\n  0x00\n    /* \"#utility.yul\":1438:1526   */\n  mstore\n    /* \"#utility.yul\":1545:1549   */\n  0x11\n    /* \"#utility.yul\":1542:1543   */\n  0x04\n    /* \"#utility.yul\":1535:1550   */\n  mstore\n    /* \"#utility.yul\":1569:1573   */\n  0x24\n    /* \"#utility.yul\":1566:1567   */\n  0x00\n    /* \"#utility.yul\":1559:1574   */\n  revert\n    /* \"#utility.yul\":1586:1766   */\ntag_48:\n    /* \"#utility.yul\":1634:1711   */\n  0x4e487b7100000000000000000000000000000000000000000000000000000000\n    /* \"#utility.yul\":1631:1632   */\n  0x00\n    /* \"#utility.yul\":1624:1712   */\n  mstore\n    /* \"#utility.yul\":1731:1735   */\n  0x22\n    /* \"#utility.yul\":1728:1729   */\n  0x04\n    /* \"#utility.yul\":1721:1736   */\n  mstore\n    /* \"#utility.yul\":1755:1759   */\n  0x24\n    /* \"#utility.yul\":1752:1753   */\n  0x00\n    /* \"#utility.yul\":1745:1760   */\n  revert\n    /* \"#utility.yul\":1772:1894   */\ntag_27:\n    /* \"#utility.yul\":1845:1869   */\n  tag_52\n    /* \"#utility.yul\":1863:1868   */\n  dup2\n    /* \"#utility.yul\":1845:1869   */\n  tag_38\n  jump\t// in\ntag_52:\n    /* \"#utility.yul\":1838:1843   */\n  dup2\n    /* \"#utility.yul\":1835:1870   */\n  eq\n    /* \"#utility.yul\":1825:1827   */\n  tag_53\n  jumpi\n    /* \"#utility.yul\":1884:1885   */\n  0x00\n    /* \"#utility.yul\":1881:1882   */\n  dup1\n    /* \"#utility.yul\":1874:1886   */\n  revert\n    /* \"#utility.yul\":1825:1827   */\ntag_53:\n    /* \"#utility.yul\":1815:1894   */\n  pop\n  jump\t// out\n    /* \"contracts/03_udemy_andrei_dumitrescu/challenges/02_Auction_Smart_Contract.sol\":277:4147  contract Auction {\r... */\ntag_11:\n  dataSize(sub_0)\n  dup1\n  dataOffset(sub_0)\n  0x00\n  codecopy\n  0x00\n  return\nstop\n\nsub_0: assembly {\n        /* \"contracts/03_udemy_andrei_dumitrescu/challenges/02_Auction_Smart_Contract.sol\":277:4147  contract Auction {\r... */\n      mstore(0x40, 0x80)\n      jumpi(tag_1, lt(calldatasize, 0x04))\n      shr(0xe0, calldataload(0x00))\n      dup1\n      0x8fa8b790\n      gt\n      tag_13\n      jumpi\n      dup1\n      0x8fa8b790\n      eq\n      tag_7\n      jumpi\n      dup1\n      0x91f90157\n      eq\n      tag_8\n      jumpi\n      dup1\n      0xc623674f\n      eq\n      tag_9\n      jumpi\n      dup1\n      0xecfc7ecc\n      eq\n      tag_10\n      jumpi\n      dup1\n      0xf5b56c56\n      eq\n      tag_11\n      jumpi\n      dup1\n      0xf77282ab\n      eq\n      tag_12\n      jumpi\n      jump(tag_1)\n    tag_13:\n      dup1\n      0x083c6323\n      eq\n      tag_2\n      jumpi\n      dup1\n      0x48cd4cb1\n      eq\n      tag_3\n      jumpi\n      dup1\n      0x62ea82db\n      eq\n      tag_4\n      jumpi\n      dup1\n      0x7fb45099\n      eq\n      tag_5\n      jumpi\n      dup1\n      0x8da5cb5b\n      eq\n      tag_6\n      jumpi\n    tag_1:\n      0x00\n      dup1\n      revert\n        /* \"contracts/03_udemy_andrei_dumitrescu/challenges/02_Auction_Smart_Contract.sol\":365:385  uint public endBlock */\n    tag_2:\n      callvalue\n      dup1\n      iszero\n      tag_14\n      jumpi\n      0x00\n      dup1\n      revert\n    tag_14:\n      pop\n      tag_15\n      tag_16\n      jump\t// in\n    tag_15:\n      mload(0x40)\n      tag_17\n      swap2\n      swap1\n      tag_18\n      jump\t// in\n    tag_17:\n      mload(0x40)\n      dup1\n      swap2\n      sub\n      swap1\n      return\n        /* \"contracts/03_udemy_andrei_dumitrescu/challenges/02_Auction_Smart_Contract.sol\":336:358  uint public startBlock */\n    tag_3:\n      callvalue\n      dup1\n      iszero\n      tag_19\n      jumpi\n      0x00\n      dup1\n      revert\n    tag_19:\n      pop\n      tag_20\n      tag_21\n      jump\t// in\n    tag_20:\n      mload(0x40)\n      tag_22\n      swap2\n      swap1\n      tag_18\n      jump\t// in\n    tag_22:\n      mload(0x40)\n      dup1\n      swap2\n      sub\n      swap1\n      return\n        /* \"contracts/03_udemy_andrei_dumitrescu/challenges/02_Auction_Smart_Contract.sol\":632:668  mapping(address => uint) public bids */\n    tag_4:\n      callvalue\n      dup1\n      iszero\n      tag_23\n      jumpi\n      0x00\n      dup1\n      revert\n    tag_23:\n      pop\n      tag_24\n      0x04\n      dup1\n      calldatasize\n      sub\n      dup2\n      add\n      swap1\n      tag_25\n      swap2\n      swap1\n      tag_26\n      jump\t// in\n    tag_25:\n      tag_27\n      jump\t// in\n    tag_24:\n      mload(0x40)\n      tag_28\n      swap2\n      swap1\n      tag_18\n      jump\t// in\n    tag_28:\n      mload(0x40)\n      dup1\n      swap2\n      sub\n      swap1\n      return\n        /* \"contracts/03_udemy_andrei_dumitrescu/challenges/02_Auction_Smart_Contract.sol\":517:542  State public auctionState */\n    tag_5:\n      callvalue\n      dup1\n      iszero\n      tag_29\n      jumpi\n      0x00\n      dup1\n      revert\n    tag_29:\n      pop\n      tag_30\n      tag_31\n      jump\t// in\n    tag_30:\n      mload(0x40)\n      tag_32\n      swap2\n      swap1\n      tag_33\n      jump\t// in\n    tag_32:\n      mload(0x40)\n      dup1\n      swap2\n      sub\n      swap1\n      return\n        /* \"contracts/03_udemy_andrei_dumitrescu/challenges/02_Auction_Smart_Contract.sol\":301:329  address payable public owner */\n    tag_6:\n      callvalue\n      dup1\n      iszero\n      tag_34\n      jumpi\n      0x00\n      dup1\n      revert\n    tag_34:\n      pop\n      tag_35\n      tag_36\n      jump\t// in\n    tag_35:\n      mload(0x40)\n      tag_37\n      swap2\n      swap1\n      tag_38\n      jump\t// in\n    tag_37:\n      mload(0x40)\n      dup1\n      swap2\n      sub\n      swap1\n      return\n        /* \"contracts/03_udemy_andrei_dumitrescu/challenges/02_Auction_Smart_Contract.sol\":1649:1740  function cancelAuction() public onlyOwner {\r... */\n    tag_7:\n      callvalue\n      dup1\n      iszero\n      tag_39\n      jumpi\n      0x00\n      dup1\n      revert\n    tag_39:\n      pop\n      tag_40\n      tag_41\n      jump\t// in\n    tag_40:\n      stop\n        /* \"contracts/03_udemy_andrei_dumitrescu/challenges/02_Auction_Smart_Contract.sol\":587:623  address payable public highestBidder */\n    tag_8:\n      callvalue\n      dup1\n      iszero\n      tag_42\n      jumpi\n      0x00\n      dup1\n      revert\n    tag_42:\n      pop\n      tag_43\n      tag_44\n      jump\t// in\n    tag_43:\n      mload(0x40)\n      tag_45\n      swap2\n      swap1\n      tag_38\n      jump\t// in\n    tag_45:\n      mload(0x40)\n      dup1\n      swap2\n      sub\n      swap1\n      return\n        /* \"contracts/03_udemy_andrei_dumitrescu/challenges/02_Auction_Smart_Contract.sol\":392:414  string public ipfsHash */\n    tag_9:\n      callvalue\n      dup1\n      iszero\n      tag_46\n      jumpi\n      0x00\n      dup1\n      revert\n    tag_46:\n      pop\n      tag_47\n      tag_48\n      jump\t// in\n    tag_47:\n      mload(0x40)\n      tag_49\n      swap2\n      swap1\n      tag_50\n      jump\t// in\n    tag_49:\n      mload(0x40)\n      dup1\n      swap2\n      sub\n      swap1\n      return\n        /* \"contracts/03_udemy_andrei_dumitrescu/challenges/02_Auction_Smart_Contract.sol\":1922:2703  function placeBid() public payable notOwner afterStart beforeEnd {\r... */\n    tag_10:\n      tag_51\n      tag_52\n      jump\t// in\n    tag_51:\n      stop\n        /* \"contracts/03_udemy_andrei_dumitrescu/challenges/02_Auction_Smart_Contract.sol\":551:580  uint public highestBindingBid */\n    tag_11:\n      callvalue\n      dup1\n      iszero\n      tag_53\n      jumpi\n      0x00\n      dup1\n      revert\n    tag_53:\n      pop\n      tag_54\n      tag_55\n      jump\t// in\n    tag_54:\n      mload(0x40)\n      tag_56\n      swap2\n      swap1\n      tag_18\n      jump\t// in\n    tag_56:\n      mload(0x40)\n      dup1\n      swap2\n      sub\n      swap1\n      return\n        /* \"contracts/03_udemy_andrei_dumitrescu/challenges/02_Auction_Smart_Contract.sol\":2711:4144  function finalizeAuction() public {\r... */\n    tag_12:\n      callvalue\n      dup1\n      iszero\n      tag_57\n      jumpi\n      0x00\n      dup1\n      revert\n    tag_57:\n      pop\n      tag_58\n      tag_59\n      jump\t// in\n    tag_58:\n      stop\n        /* \"contracts/03_udemy_andrei_dumitrescu/challenges/02_Auction_Smart_Contract.sol\":365:385  uint public endBlock */\n    tag_16:\n      sload(0x02)\n      dup2\n      jump\t// out\n        /* \"contracts/03_udemy_andrei_dumitrescu/challenges/02_Auction_Smart_Contract.sol\":336:358  uint public startBlock */\n    tag_21:\n      sload(0x01)\n      dup2\n      jump\t// out\n        /* \"contracts/03_udemy_andrei_dumitrescu/challenges/02_Auction_Smart_Contract.sol\":632:668  mapping(address => uint) public bids */\n    tag_27:\n      mstore(0x20, 0x07)\n      dup1\n      0x00\n      mstore\n      keccak256(0x00, 0x40)\n      0x00\n      swap2\n      pop\n      swap1\n      pop\n      sload\n      dup2\n      jump\t// out\n        /* \"contracts/03_udemy_andrei_dumitrescu/challenges/02_Auction_Smart_Contract.sol\":517:542  State public auctionState */\n    tag_31:\n      0x04\n      0x00\n      swap1\n      sload\n      swap1\n      0x0100\n      exp\n      swap1\n      div\n      0xff\n      and\n      dup2\n      jump\t// out\n        /* \"contracts/03_udemy_andrei_dumitrescu/challenges/02_Auction_Smart_Contract.sol\":301:329  address payable public owner */\n    tag_36:\n      0x00\n      dup1\n      sload\n      swap1\n      0x0100\n      exp\n      swap1\n      div\n      0xffffffffffffffffffffffffffffffffffffffff\n      and\n      dup2\n      jump\t// out\n        /* \"contracts/03_udemy_andrei_dumitrescu/challenges/02_Auction_Smart_Contract.sol\":1649:1740  function cancelAuction() public onlyOwner {\r... */\n    tag_41:\n        /* \"contracts/03_udemy_andrei_dumitrescu/challenges/02_Auction_Smart_Contract.sol\":1222:1232  msg.sender */\n      caller\n        /* \"contracts/03_udemy_andrei_dumitrescu/challenges/02_Auction_Smart_Contract.sol\":1213:1232  owner == msg.sender */\n      0xffffffffffffffffffffffffffffffffffffffff\n      and\n        /* \"contracts/03_udemy_andrei_dumitrescu/challenges/02_Auction_Smart_Contract.sol\":1213:1218  owner */\n      0x00\n      dup1\n      sload\n      swap1\n      0x0100\n      exp\n      swap1\n      div\n      0xffffffffffffffffffffffffffffffffffffffff\n      and\n        /* \"contracts/03_udemy_andrei_dumitrescu/challenges/02_Auction_Smart_Contract.sol\":1213:1232  owner == msg.sender */\n      0xffffffffffffffffffffffffffffffffffffffff\n      and\n      eq\n        /* \"contracts/03_udemy_andrei_dumitrescu/challenges/02_Auction_Smart_Contract.sol\":1205:1288  require(owner == msg.sender, \"You are the owner. you cannot perform this actions.\") */\n      tag_61\n      jumpi\n      mload(0x40)\n      0x08c379a000000000000000000000000000000000000000000000000000000000\n      dup2\n      mstore\n      0x04\n      add\n      tag_62\n      swap1\n      tag_63\n      jump\t// in\n    tag_62:\n      mload(0x40)\n      dup1\n      swap2\n      sub\n      swap1\n      revert\n    tag_61:\n        /* \"contracts/03_udemy_andrei_dumitrescu/challenges/02_Auction_Smart_Contract.sol\":1717:1732  State.Cancelled */\n      0x03\n        /* \"contracts/03_udemy_andrei_dumitrescu/challenges/02_Auction_Smart_Contract.sol\":1702:1714  auctionState */\n      0x04\n      0x00\n        /* \"contracts/03_udemy_andrei_dumitrescu/challenges/02_Auction_Smart_Contract.sol\":1702:1732  auctionState = State.Cancelled */\n      0x0100\n      exp\n      dup2\n      sload\n      dup2\n      0xff\n      mul\n      not\n      and\n      swap1\n      dup4\n      0x03\n      dup2\n      gt\n      iszero\n      tag_65\n      jumpi\n      mstore(0x00, 0x4e487b7100000000000000000000000000000000000000000000000000000000)\n      mstore(0x04, 0x21)\n      revert(0x00, 0x24)\n    tag_65:\n      mul\n      or\n      swap1\n      sstore\n      pop\n        /* \"contracts/03_udemy_andrei_dumitrescu/challenges/02_Auction_Smart_Contract.sol\":1649:1740  function cancelAuction() public onlyOwner {\r... */\n      jump\t// out\n        /* \"contracts/03_udemy_andrei_dumitrescu/challenges/02_Auction_Smart_Contract.sol\":587:623  address payable public highestBidder */\n    tag_44:\n      0x06\n      0x00\n      swap1\n      sload\n      swap1\n      0x0100\n      exp\n      swap1\n      div\n      0xffffffffffffffffffffffffffffffffffffffff\n      and\n      dup2\n      jump\t// out\n        /* \"contracts/03_udemy_andrei_dumitrescu/challenges/02_Auction_Smart_Contract.sol\":392:414  string public ipfsHash */\n    tag_48:\n      0x03\n      dup1\n      sload\n      tag_66\n      swap1\n      tag_67\n      jump\t// in\n    tag_66:\n      dup1\n      0x1f\n      add\n      0x20\n      dup1\n      swap2\n      div\n      mul\n      0x20\n      add\n      mload(0x40)\n      swap1\n      dup2\n      add\n      0x40\n      mstore\n      dup1\n      swap3\n      swap2\n      swap1\n      dup2\n      dup2\n      mstore\n      0x20\n      add\n      dup3\n      dup1\n      sload\n      tag_68\n      swap1\n      tag_67\n      jump\t// in\n    tag_68:\n      dup1\n      iszero\n      tag_69\n      jumpi\n      dup1\n      0x1f\n      lt\n      tag_70\n      jumpi\n      0x0100\n      dup1\n      dup4\n      sload\n      div\n      mul\n      dup4\n      mstore\n      swap2\n      0x20\n      add\n      swap2\n      jump(tag_69)\n    tag_70:\n      dup3\n      add\n      swap2\n      swap1\n      0x00\n      mstore\n      keccak256(0x00, 0x20)\n      swap1\n    tag_71:\n      dup2\n      sload\n      dup2\n      mstore\n      swap1\n      0x01\n      add\n      swap1\n      0x20\n      add\n      dup1\n      dup4\n      gt\n      tag_71\n      jumpi\n      dup3\n      swap1\n      sub\n      0x1f\n      and\n      dup3\n      add\n      swap2\n    tag_69:\n      pop\n      pop\n      pop\n      pop\n      pop\n      dup2\n      jump\t// out\n        /* \"contracts/03_udemy_andrei_dumitrescu/challenges/02_Auction_Smart_Contract.sol\":1922:2703  function placeBid() public payable notOwner afterStart beforeEnd {\r... */\n    tag_52:\n        /* \"contracts/03_udemy_andrei_dumitrescu/challenges/02_Auction_Smart_Contract.sol\":1369:1374  owner */\n      0x00\n      dup1\n      sload\n      swap1\n      0x0100\n      exp\n      swap1\n      div\n      0xffffffffffffffffffffffffffffffffffffffff\n      and\n        /* \"contracts/03_udemy_andrei_dumitrescu/challenges/02_Auction_Smart_Contract.sol\":1355:1374  msg.sender != owner */\n      0xffffffffffffffffffffffffffffffffffffffff\n      and\n        /* \"contracts/03_udemy_andrei_dumitrescu/challenges/02_Auction_Smart_Contract.sol\":1355:1365  msg.sender */\n      caller\n        /* \"contracts/03_udemy_andrei_dumitrescu/challenges/02_Auction_Smart_Contract.sol\":1355:1374  msg.sender != owner */\n      0xffffffffffffffffffffffffffffffffffffffff\n      and\n      eq\n      iszero\n        /* \"contracts/03_udemy_andrei_dumitrescu/challenges/02_Auction_Smart_Contract.sol\":1347:1405  require(msg.sender != owner, \"Owner cannot place the bid\") */\n      tag_73\n      jumpi\n      mload(0x40)\n      0x08c379a000000000000000000000000000000000000000000000000000000000\n      dup2\n      mstore\n      0x04\n      add\n      tag_74\n      swap1\n      tag_75\n      jump\t// in\n    tag_74:\n      mload(0x40)\n      dup1\n      swap2\n      sub\n      swap1\n      revert\n    tag_73:\n        /* \"contracts/03_udemy_andrei_dumitrescu/challenges/02_Auction_Smart_Contract.sol\":1490:1500  startBlock */\n      sload(0x01)\n        /* \"contracts/03_udemy_andrei_dumitrescu/challenges/02_Auction_Smart_Contract.sol\":1474:1486  block.number */\n      number\n        /* \"contracts/03_udemy_andrei_dumitrescu/challenges/02_Auction_Smart_Contract.sol\":1474:1500  block.number >= startBlock */\n      lt\n      iszero\n        /* \"contracts/03_udemy_andrei_dumitrescu/challenges/02_Auction_Smart_Contract.sol\":1466:1528  require(block.number >= startBlock, \"Its started after start\") */\n      tag_77\n      jumpi\n      mload(0x40)\n      0x08c379a000000000000000000000000000000000000000000000000000000000\n      dup2\n      mstore\n      0x04\n      add\n      tag_78\n      swap1\n      tag_79\n      jump\t// in\n    tag_78:\n      mload(0x40)\n      dup1\n      swap2\n      sub\n      swap1\n      revert\n    tag_77:\n        /* \"contracts/03_udemy_andrei_dumitrescu/challenges/02_Auction_Smart_Contract.sol\":1612:1620  endBlock */\n      sload(0x02)\n        /* \"contracts/03_udemy_andrei_dumitrescu/challenges/02_Auction_Smart_Contract.sol\":1596:1608  block.number */\n      number\n        /* \"contracts/03_udemy_andrei_dumitrescu/challenges/02_Auction_Smart_Contract.sol\":1596:1620  block.number <= endBlock */\n      gt\n      iszero\n        /* \"contracts/03_udemy_andrei_dumitrescu/challenges/02_Auction_Smart_Contract.sol\":1588:1621  require(block.number <= endBlock) */\n      tag_81\n      jumpi\n      0x00\n      dup1\n      revert\n    tag_81:\n        /* \"contracts/03_udemy_andrei_dumitrescu/challenges/02_Auction_Smart_Contract.sol\":2022:2035  State.Running */\n      0x01\n        /* \"contracts/03_udemy_andrei_dumitrescu/challenges/02_Auction_Smart_Contract.sol\":2006:2035  auctionState == State.Running */\n      0x03\n      dup2\n      gt\n      iszero\n      tag_83\n      jumpi\n      mstore(0x00, 0x4e487b7100000000000000000000000000000000000000000000000000000000)\n      mstore(0x04, 0x21)\n      revert(0x00, 0x24)\n    tag_83:\n        /* \"contracts/03_udemy_andrei_dumitrescu/challenges/02_Auction_Smart_Contract.sol\":2006:2018  auctionState */\n      0x04\n      0x00\n      swap1\n      sload\n      swap1\n      0x0100\n      exp\n      swap1\n      div\n      0xff\n      and\n        /* \"contracts/03_udemy_andrei_dumitrescu/challenges/02_Auction_Smart_Contract.sol\":2006:2035  auctionState == State.Running */\n      0x03\n      dup2\n      gt\n      iszero\n      tag_84\n      jumpi\n      mstore(0x00, 0x4e487b7100000000000000000000000000000000000000000000000000000000)\n      mstore(0x04, 0x21)\n      revert(0x00, 0x24)\n    tag_84:\n      eq\n        /* \"contracts/03_udemy_andrei_dumitrescu/challenges/02_Auction_Smart_Contract.sol\":1998:2070  require(auctionState == State.Running, \"Auction is not in runnig state\") */\n      tag_85\n      jumpi\n      mload(0x40)\n      0x08c379a000000000000000000000000000000000000000000000000000000000\n      dup2\n      mstore\n      0x04\n      add\n      tag_86\n      swap1\n      tag_87\n      jump\t// in\n    tag_86:\n      mload(0x40)\n      dup1\n      swap2\n      sub\n      swap1\n      revert\n    tag_85:\n        /* \"contracts/03_udemy_andrei_dumitrescu/challenges/02_Auction_Smart_Contract.sol\":2102:2105  100 */\n      0x64\n        /* \"contracts/03_udemy_andrei_dumitrescu/challenges/02_Auction_Smart_Contract.sol\":2089:2098  msg.value */\n      callvalue\n        /* \"contracts/03_udemy_andrei_dumitrescu/challenges/02_Auction_Smart_Contract.sol\":2089:2105  msg.value >= 100 */\n      lt\n      iszero\n        /* \"contracts/03_udemy_andrei_dumitrescu/challenges/02_Auction_Smart_Contract.sol\":2081:2142  require(msg.value >= 100, \"minimum amount should be 100 wei\") */\n      tag_88\n      jumpi\n      mload(0x40)\n      0x08c379a000000000000000000000000000000000000000000000000000000000\n      dup2\n      mstore\n      0x04\n      add\n      tag_89\n      swap1\n      tag_90\n      jump\t// in\n    tag_89:\n      mload(0x40)\n      dup1\n      swap2\n      sub\n      swap1\n      revert\n    tag_88:\n        /* \"contracts/03_udemy_andrei_dumitrescu/challenges/02_Auction_Smart_Contract.sol\":2155:2170  uint currentBid */\n      0x00\n        /* \"contracts/03_udemy_andrei_dumitrescu/challenges/02_Auction_Smart_Contract.sol\":2192:2201  msg.value */\n      callvalue\n        /* \"contracts/03_udemy_andrei_dumitrescu/challenges/02_Auction_Smart_Contract.sol\":2173:2177  bids */\n      0x07\n        /* \"contracts/03_udemy_andrei_dumitrescu/challenges/02_Auction_Smart_Contract.sol\":2173:2189  bids[msg.sender] */\n      0x00\n        /* \"contracts/03_udemy_andrei_dumitrescu/challenges/02_Auction_Smart_Contract.sol\":2178:2188  msg.sender */\n      caller\n        /* \"contracts/03_udemy_andrei_dumitrescu/challenges/02_Auction_Smart_Contract.sol\":2173:2189  bids[msg.sender] */\n      0xffffffffffffffffffffffffffffffffffffffff\n      and\n      0xffffffffffffffffffffffffffffffffffffffff\n      and\n      dup2\n      mstore\n      0x20\n      add\n      swap1\n      dup2\n      mstore\n      0x20\n      add\n      0x00\n      keccak256\n      sload\n        /* \"contracts/03_udemy_andrei_dumitrescu/challenges/02_Auction_Smart_Contract.sol\":2173:2201  bids[msg.sender] + msg.value */\n      tag_91\n      swap2\n      swap1\n      tag_92\n      jump\t// in\n    tag_91:\n        /* \"contracts/03_udemy_andrei_dumitrescu/challenges/02_Auction_Smart_Contract.sol\":2155:2201  uint currentBid = bids[msg.sender] + msg.value */\n      swap1\n      pop\n        /* \"contracts/03_udemy_andrei_dumitrescu/challenges/02_Auction_Smart_Contract.sol\":2247:2264  highestBindingBid */\n      sload(0x05)\n        /* \"contracts/03_udemy_andrei_dumitrescu/challenges/02_Auction_Smart_Contract.sol\":2234:2244  currentBid */\n      dup2\n        /* \"contracts/03_udemy_andrei_dumitrescu/challenges/02_Auction_Smart_Contract.sol\":2234:2264  currentBid > highestBindingBid */\n      gt\n        /* \"contracts/03_udemy_andrei_dumitrescu/challenges/02_Auction_Smart_Contract.sol\":2212:2343  require(\r... */\n      tag_93\n      jumpi\n      mload(0x40)\n      0x08c379a000000000000000000000000000000000000000000000000000000000\n      dup2\n      mstore\n      0x04\n      add\n      tag_94\n      swap1\n      tag_95\n      jump\t// in\n    tag_94:\n      mload(0x40)\n      dup1\n      swap2\n      sub\n      swap1\n      revert\n    tag_93:\n        /* \"contracts/03_udemy_andrei_dumitrescu/challenges/02_Auction_Smart_Contract.sol\":2375:2385  currentBid */\n      dup1\n        /* \"contracts/03_udemy_andrei_dumitrescu/challenges/02_Auction_Smart_Contract.sol\":2356:2360  bids */\n      0x07\n        /* \"contracts/03_udemy_andrei_dumitrescu/challenges/02_Auction_Smart_Contract.sol\":2356:2372  bids[msg.sender] */\n      0x00\n        /* \"contracts/03_udemy_andrei_dumitrescu/challenges/02_Auction_Smart_Contract.sol\":2361:2371  msg.sender */\n      caller\n        /* \"contracts/03_udemy_andrei_dumitrescu/challenges/02_Auction_Smart_Contract.sol\":2356:2372  bids[msg.sender] */\n      0xffffffffffffffffffffffffffffffffffffffff\n      and\n      0xffffffffffffffffffffffffffffffffffffffff\n      and\n      dup2\n      mstore\n      0x20\n      add\n      swap1\n      dup2\n      mstore\n      0x20\n      add\n      0x00\n      keccak256\n        /* \"contracts/03_udemy_andrei_dumitrescu/challenges/02_Auction_Smart_Contract.sol\":2356:2385  bids[msg.sender] = currentBid */\n      dup2\n      swap1\n      sstore\n      pop\n        /* \"contracts/03_udemy_andrei_dumitrescu/challenges/02_Auction_Smart_Contract.sol\":2415:2419  bids */\n      0x07\n        /* \"contracts/03_udemy_andrei_dumitrescu/challenges/02_Auction_Smart_Contract.sol\":2415:2434  bids[highestBidder] */\n      0x00\n        /* \"contracts/03_udemy_andrei_dumitrescu/challenges/02_Auction_Smart_Contract.sol\":2420:2433  highestBidder */\n      0x06\n      0x00\n      swap1\n      sload\n      swap1\n      0x0100\n      exp\n      swap1\n      div\n      0xffffffffffffffffffffffffffffffffffffffff\n      and\n        /* \"contracts/03_udemy_andrei_dumitrescu/challenges/02_Auction_Smart_Contract.sol\":2415:2434  bids[highestBidder] */\n      0xffffffffffffffffffffffffffffffffffffffff\n      and\n      0xffffffffffffffffffffffffffffffffffffffff\n      and\n      dup2\n      mstore\n      0x20\n      add\n      swap1\n      dup2\n      mstore\n      0x20\n      add\n      0x00\n      keccak256\n      sload\n        /* \"contracts/03_udemy_andrei_dumitrescu/challenges/02_Auction_Smart_Contract.sol\":2401:2411  currentBid */\n      dup2\n        /* \"contracts/03_udemy_andrei_dumitrescu/challenges/02_Auction_Smart_Contract.sol\":2401:2434  currentBid <= bids[highestBidder] */\n      gt\n        /* \"contracts/03_udemy_andrei_dumitrescu/challenges/02_Auction_Smart_Contract.sol\":2398:2696  if(currentBid <= bids[highestBidder]) {\r... */\n      tag_96\n      jumpi\n        /* \"contracts/03_udemy_andrei_dumitrescu/challenges/02_Auction_Smart_Contract.sol\":2471:2526  findMin(currentBid + bidIncrement, bids[highestBidder]) */\n      tag_97\n        /* \"contracts/03_udemy_andrei_dumitrescu/challenges/02_Auction_Smart_Contract.sol\":2492:2504  bidIncrement */\n      sload(0x08)\n        /* \"contracts/03_udemy_andrei_dumitrescu/challenges/02_Auction_Smart_Contract.sol\":2479:2489  currentBid */\n      dup3\n        /* \"contracts/03_udemy_andrei_dumitrescu/challenges/02_Auction_Smart_Contract.sol\":2479:2504  currentBid + bidIncrement */\n      tag_98\n      swap2\n      swap1\n      tag_92\n      jump\t// in\n    tag_98:\n        /* \"contracts/03_udemy_andrei_dumitrescu/challenges/02_Auction_Smart_Contract.sol\":2506:2510  bids */\n      0x07\n        /* \"contracts/03_udemy_andrei_dumitrescu/challenges/02_Auction_Smart_Contract.sol\":2506:2525  bids[highestBidder] */\n      0x00\n        /* \"contracts/03_udemy_andrei_dumitrescu/challenges/02_Auction_Smart_Contract.sol\":2511:2524  highestBidder */\n      0x06\n      0x00\n      swap1\n      sload\n      swap1\n      0x0100\n      exp\n      swap1\n      div\n      0xffffffffffffffffffffffffffffffffffffffff\n      and\n        /* \"contracts/03_udemy_andrei_dumitrescu/challenges/02_Auction_Smart_Contract.sol\":2506:2525  bids[highestBidder] */\n      0xffffffffffffffffffffffffffffffffffffffff\n      and\n      0xffffffffffffffffffffffffffffffffffffffff\n      and\n      dup2\n      mstore\n      0x20\n      add\n      swap1\n      dup2\n      mstore\n      0x20\n      add\n      0x00\n      keccak256\n      sload\n        /* \"contracts/03_udemy_andrei_dumitrescu/challenges/02_Auction_Smart_Contract.sol\":2471:2478  findMin */\n      tag_99\n        /* \"contracts/03_udemy_andrei_dumitrescu/challenges/02_Auction_Smart_Contract.sol\":2471:2526  findMin(currentBid + bidIncrement, bids[highestBidder]) */\n      jump\t// in\n    tag_97:\n        /* \"contracts/03_udemy_andrei_dumitrescu/challenges/02_Auction_Smart_Contract.sol\":2451:2468  highestBindingBid */\n      0x05\n        /* \"contracts/03_udemy_andrei_dumitrescu/challenges/02_Auction_Smart_Contract.sol\":2451:2526  highestBindingBid = findMin(currentBid + bidIncrement, bids[highestBidder]) */\n      dup2\n      swap1\n      sstore\n      pop\n        /* \"contracts/03_udemy_andrei_dumitrescu/challenges/02_Auction_Smart_Contract.sol\":2398:2696  if(currentBid <= bids[highestBidder]) {\r... */\n      jump(tag_100)\n    tag_96:\n        /* \"contracts/03_udemy_andrei_dumitrescu/challenges/02_Auction_Smart_Contract.sol\":2579:2634  findMin(currentBid, bids[highestBidder] + bidIncrement) */\n      tag_101\n        /* \"contracts/03_udemy_andrei_dumitrescu/challenges/02_Auction_Smart_Contract.sol\":2587:2597  currentBid */\n      dup2\n        /* \"contracts/03_udemy_andrei_dumitrescu/challenges/02_Auction_Smart_Contract.sol\":2621:2633  bidIncrement */\n      sload(0x08)\n        /* \"contracts/03_udemy_andrei_dumitrescu/challenges/02_Auction_Smart_Contract.sol\":2599:2603  bids */\n      0x07\n        /* \"contracts/03_udemy_andrei_dumitrescu/challenges/02_Auction_Smart_Contract.sol\":2599:2618  bids[highestBidder] */\n      0x00\n        /* \"contracts/03_udemy_andrei_dumitrescu/challenges/02_Auction_Smart_Contract.sol\":2604:2617  highestBidder */\n      0x06\n      0x00\n      swap1\n      sload\n      swap1\n      0x0100\n      exp\n      swap1\n      div\n      0xffffffffffffffffffffffffffffffffffffffff\n      and\n        /* \"contracts/03_udemy_andrei_dumitrescu/challenges/02_Auction_Smart_Contract.sol\":2599:2618  bids[highestBidder] */\n      0xffffffffffffffffffffffffffffffffffffffff\n      and\n      0xffffffffffffffffffffffffffffffffffffffff\n      and\n      dup2\n      mstore\n      0x20\n      add\n      swap1\n      dup2\n      mstore\n      0x20\n      add\n      0x00\n      keccak256\n      sload\n        /* \"contracts/03_udemy_andrei_dumitrescu/challenges/02_Auction_Smart_Contract.sol\":2599:2633  bids[highestBidder] + bidIncrement */\n      tag_102\n      swap2\n      swap1\n      tag_92\n      jump\t// in\n    tag_102:\n        /* \"contracts/03_udemy_andrei_dumitrescu/challenges/02_Auction_Smart_Contract.sol\":2579:2586  findMin */\n      tag_99\n        /* \"contracts/03_udemy_andrei_dumitrescu/challenges/02_Auction_Smart_Contract.sol\":2579:2634  findMin(currentBid, bids[highestBidder] + bidIncrement) */\n      jump\t// in\n    tag_101:\n        /* \"contracts/03_udemy_andrei_dumitrescu/challenges/02_Auction_Smart_Contract.sol\":2559:2576  highestBindingBid */\n      0x05\n        /* \"contracts/03_udemy_andrei_dumitrescu/challenges/02_Auction_Smart_Contract.sol\":2559:2634  highestBindingBid = findMin(currentBid, bids[highestBidder] + bidIncrement) */\n      dup2\n      swap1\n      sstore\n      pop\n        /* \"contracts/03_udemy_andrei_dumitrescu/challenges/02_Auction_Smart_Contract.sol\":2673:2683  msg.sender */\n      caller\n        /* \"contracts/03_udemy_andrei_dumitrescu/challenges/02_Auction_Smart_Contract.sol\":2649:2662  highestBidder */\n      0x06\n      0x00\n        /* \"contracts/03_udemy_andrei_dumitrescu/challenges/02_Auction_Smart_Contract.sol\":2649:2684  highestBidder = payable(msg.sender) */\n      0x0100\n      exp\n      dup2\n      sload\n      dup2\n      0xffffffffffffffffffffffffffffffffffffffff\n      mul\n      not\n      and\n      swap1\n      dup4\n      0xffffffffffffffffffffffffffffffffffffffff\n      and\n      mul\n      or\n      swap1\n      sstore\n      pop\n        /* \"contracts/03_udemy_andrei_dumitrescu/challenges/02_Auction_Smart_Contract.sol\":2398:2696  if(currentBid <= bids[highestBidder]) {\r... */\n    tag_100:\n        /* \"contracts/03_udemy_andrei_dumitrescu/challenges/02_Auction_Smart_Contract.sol\":1632:1633  _ */\n      pop\n        /* \"contracts/03_udemy_andrei_dumitrescu/challenges/02_Auction_Smart_Contract.sol\":1922:2703  function placeBid() public payable notOwner afterStart beforeEnd {\r... */\n      jump\t// out\n        /* \"contracts/03_udemy_andrei_dumitrescu/challenges/02_Auction_Smart_Contract.sol\":551:580  uint public highestBindingBid */\n    tag_55:\n      sload(0x05)\n      dup2\n      jump\t// out\n        /* \"contracts/03_udemy_andrei_dumitrescu/challenges/02_Auction_Smart_Contract.sol\":2711:4144  function finalizeAuction() public {\r... */\n    tag_59:\n        /* \"contracts/03_udemy_andrei_dumitrescu/challenges/02_Auction_Smart_Contract.sol\":2780:2795  State.Cancelled */\n      0x03\n        /* \"contracts/03_udemy_andrei_dumitrescu/challenges/02_Auction_Smart_Contract.sol\":2764:2795  auctionState == State.Cancelled */\n      dup1\n      dup2\n      gt\n      iszero\n      tag_104\n      jumpi\n      mstore(0x00, 0x4e487b7100000000000000000000000000000000000000000000000000000000)\n      mstore(0x04, 0x21)\n      revert(0x00, 0x24)\n    tag_104:\n        /* \"contracts/03_udemy_andrei_dumitrescu/challenges/02_Auction_Smart_Contract.sol\":2764:2776  auctionState */\n      0x04\n      0x00\n      swap1\n      sload\n      swap1\n      0x0100\n      exp\n      swap1\n      div\n      0xff\n      and\n        /* \"contracts/03_udemy_andrei_dumitrescu/challenges/02_Auction_Smart_Contract.sol\":2764:2795  auctionState == State.Cancelled */\n      0x03\n      dup2\n      gt\n      iszero\n      tag_105\n      jumpi\n      mstore(0x00, 0x4e487b7100000000000000000000000000000000000000000000000000000000)\n      mstore(0x04, 0x21)\n      revert(0x00, 0x24)\n    tag_105:\n      eq\n        /* \"contracts/03_udemy_andrei_dumitrescu/challenges/02_Auction_Smart_Contract.sol\":2764:2822  auctionState == State.Cancelled || block.number > endBlock */\n      dup1\n      tag_106\n      jumpi\n      pop\n        /* \"contracts/03_udemy_andrei_dumitrescu/challenges/02_Auction_Smart_Contract.sol\":2814:2822  endBlock */\n      sload(0x02)\n        /* \"contracts/03_udemy_andrei_dumitrescu/challenges/02_Auction_Smart_Contract.sol\":2799:2811  block.number */\n      number\n        /* \"contracts/03_udemy_andrei_dumitrescu/challenges/02_Auction_Smart_Contract.sol\":2799:2822  block.number > endBlock */\n      gt\n        /* \"contracts/03_udemy_andrei_dumitrescu/challenges/02_Auction_Smart_Contract.sol\":2764:2822  auctionState == State.Cancelled || block.number > endBlock */\n    tag_106:\n        /* \"contracts/03_udemy_andrei_dumitrescu/challenges/02_Auction_Smart_Contract.sol\":2756:2823  require(auctionState == State.Cancelled || block.number > endBlock) */\n      tag_107\n      jumpi\n      0x00\n      dup1\n      revert\n    tag_107:\n        /* \"contracts/03_udemy_andrei_dumitrescu/challenges/02_Auction_Smart_Contract.sol\":2870:2875  owner */\n      0x00\n      dup1\n      sload\n      swap1\n      0x0100\n      exp\n      swap1\n      div\n      0xffffffffffffffffffffffffffffffffffffffff\n      and\n        /* \"contracts/03_udemy_andrei_dumitrescu/challenges/02_Auction_Smart_Contract.sol\":2856:2875  msg.sender == owner */\n      0xffffffffffffffffffffffffffffffffffffffff\n      and\n        /* \"contracts/03_udemy_andrei_dumitrescu/challenges/02_Auction_Smart_Contract.sol\":2856:2866  msg.sender */\n      caller\n        /* \"contracts/03_udemy_andrei_dumitrescu/challenges/02_Auction_Smart_Contract.sol\":2856:2875  msg.sender == owner */\n      0xffffffffffffffffffffffffffffffffffffffff\n      and\n      eq\n        /* \"contracts/03_udemy_andrei_dumitrescu/challenges/02_Auction_Smart_Contract.sol\":2856:2899  msg.sender == owner || bids[msg.sender] > 0 */\n      dup1\n      tag_108\n      jumpi\n      pop\n        /* \"contracts/03_udemy_andrei_dumitrescu/challenges/02_Auction_Smart_Contract.sol\":2898:2899  0 */\n      0x00\n        /* \"contracts/03_udemy_andrei_dumitrescu/challenges/02_Auction_Smart_Contract.sol\":2879:2883  bids */\n      0x07\n        /* \"contracts/03_udemy_andrei_dumitrescu/challenges/02_Auction_Smart_Contract.sol\":2879:2895  bids[msg.sender] */\n      0x00\n        /* \"contracts/03_udemy_andrei_dumitrescu/challenges/02_Auction_Smart_Contract.sol\":2884:2894  msg.sender */\n      caller\n        /* \"contracts/03_udemy_andrei_dumitrescu/challenges/02_Auction_Smart_Contract.sol\":2879:2895  bids[msg.sender] */\n      0xffffffffffffffffffffffffffffffffffffffff\n      and\n      0xffffffffffffffffffffffffffffffffffffffff\n      and\n      dup2\n      mstore\n      0x20\n      add\n      swap1\n      dup2\n      mstore\n      0x20\n      add\n      0x00\n      keccak256\n      sload\n        /* \"contracts/03_udemy_andrei_dumitrescu/challenges/02_Auction_Smart_Contract.sol\":2879:2899  bids[msg.sender] > 0 */\n      gt\n        /* \"contracts/03_udemy_andrei_dumitrescu/challenges/02_Auction_Smart_Contract.sol\":2856:2899  msg.sender == owner || bids[msg.sender] > 0 */\n    tag_108:\n        /* \"contracts/03_udemy_andrei_dumitrescu/challenges/02_Auction_Smart_Contract.sol\":2834:2972  require(\r... */\n      tag_109\n      jumpi\n      mload(0x40)\n      0x08c379a000000000000000000000000000000000000000000000000000000000\n      dup2\n      mstore\n      0x04\n      add\n      tag_110\n      swap1\n      tag_111\n      jump\t// in\n    tag_110:\n      mload(0x40)\n      dup1\n      swap2\n      sub\n      swap1\n      revert\n    tag_109:\n        /* \"contracts/03_udemy_andrei_dumitrescu/challenges/02_Auction_Smart_Contract.sol\":2985:3010  address payable recipient */\n      0x00\n        /* \"contracts/03_udemy_andrei_dumitrescu/challenges/02_Auction_Smart_Contract.sol\":3021:3031  uint value */\n      dup1\n        /* \"contracts/03_udemy_andrei_dumitrescu/challenges/02_Auction_Smart_Contract.sol\":3100:3115  State.Cancelled */\n      0x03\n        /* \"contracts/03_udemy_andrei_dumitrescu/challenges/02_Auction_Smart_Contract.sol\":3084:3115  auctionState == State.Cancelled */\n      dup1\n      dup2\n      gt\n      iszero\n      tag_112\n      jumpi\n      mstore(0x00, 0x4e487b7100000000000000000000000000000000000000000000000000000000)\n      mstore(0x04, 0x21)\n      revert(0x00, 0x24)\n    tag_112:\n        /* \"contracts/03_udemy_andrei_dumitrescu/challenges/02_Auction_Smart_Contract.sol\":3084:3096  auctionState */\n      0x04\n      0x00\n      swap1\n      sload\n      swap1\n      0x0100\n      exp\n      swap1\n      div\n      0xff\n      and\n        /* \"contracts/03_udemy_andrei_dumitrescu/challenges/02_Auction_Smart_Contract.sol\":3084:3115  auctionState == State.Cancelled */\n      0x03\n      dup2\n      gt\n      iszero\n      tag_113\n      jumpi\n      mstore(0x00, 0x4e487b7100000000000000000000000000000000000000000000000000000000)\n      mstore(0x04, 0x21)\n      revert(0x00, 0x24)\n    tag_113:\n      eq\n        /* \"contracts/03_udemy_andrei_dumitrescu/challenges/02_Auction_Smart_Contract.sol\":3081:3872  if(auctionState == State.Cancelled) {\r... */\n      iszero\n      tag_114\n      jumpi\n        /* \"contracts/03_udemy_andrei_dumitrescu/challenges/02_Auction_Smart_Contract.sol\":3152:3162  msg.sender */\n      caller\n        /* \"contracts/03_udemy_andrei_dumitrescu/challenges/02_Auction_Smart_Contract.sol\":3132:3163  recipient = payable(msg.sender) */\n      swap2\n      pop\n        /* \"contracts/03_udemy_andrei_dumitrescu/challenges/02_Auction_Smart_Contract.sol\":3186:3190  bids */\n      0x07\n        /* \"contracts/03_udemy_andrei_dumitrescu/challenges/02_Auction_Smart_Contract.sol\":3186:3202  bids[msg.sender] */\n      0x00\n        /* \"contracts/03_udemy_andrei_dumitrescu/challenges/02_Auction_Smart_Contract.sol\":3191:3201  msg.sender */\n      caller\n        /* \"contracts/03_udemy_andrei_dumitrescu/challenges/02_Auction_Smart_Contract.sol\":3186:3202  bids[msg.sender] */\n      0xffffffffffffffffffffffffffffffffffffffff\n      and\n      0xffffffffffffffffffffffffffffffffffffffff\n      and\n      dup2\n      mstore\n      0x20\n      add\n      swap1\n      dup2\n      mstore\n      0x20\n      add\n      0x00\n      keccak256\n      sload\n        /* \"contracts/03_udemy_andrei_dumitrescu/challenges/02_Auction_Smart_Contract.sol\":3178:3202  value = bids[msg.sender] */\n      swap1\n      pop\n        /* \"contracts/03_udemy_andrei_dumitrescu/challenges/02_Auction_Smart_Contract.sol\":3081:3872  if(auctionState == State.Cancelled) {\r... */\n      jump(tag_115)\n    tag_114:\n        /* \"contracts/03_udemy_andrei_dumitrescu/challenges/02_Auction_Smart_Contract.sol\":3286:3291  owner */\n      0x00\n      dup1\n      sload\n      swap1\n      0x0100\n      exp\n      swap1\n      div\n      0xffffffffffffffffffffffffffffffffffffffff\n      and\n        /* \"contracts/03_udemy_andrei_dumitrescu/challenges/02_Auction_Smart_Contract.sol\":3272:3291  msg.sender == owner */\n      0xffffffffffffffffffffffffffffffffffffffff\n      and\n        /* \"contracts/03_udemy_andrei_dumitrescu/challenges/02_Auction_Smart_Contract.sol\":3272:3282  msg.sender */\n      caller\n        /* \"contracts/03_udemy_andrei_dumitrescu/challenges/02_Auction_Smart_Contract.sol\":3272:3291  msg.sender == owner */\n      0xffffffffffffffffffffffffffffffffffffffff\n      and\n      eq\n        /* \"contracts/03_udemy_andrei_dumitrescu/challenges/02_Auction_Smart_Contract.sol\":3269:3861  if(msg.sender == owner) { // this is the owner.\r... */\n      iszero\n      tag_116\n      jumpi\n        /* \"contracts/03_udemy_andrei_dumitrescu/challenges/02_Auction_Smart_Contract.sol\":3346:3351  owner */\n      0x00\n      dup1\n      sload\n      swap1\n      0x0100\n      exp\n      swap1\n      div\n      0xffffffffffffffffffffffffffffffffffffffff\n      and\n        /* \"contracts/03_udemy_andrei_dumitrescu/challenges/02_Auction_Smart_Contract.sol\":3334:3351  recipient = owner */\n      swap2\n      pop\n        /* \"contracts/03_udemy_andrei_dumitrescu/challenges/02_Auction_Smart_Contract.sol\":3378:3395  highestBindingBid */\n      sload(0x05)\n        /* \"contracts/03_udemy_andrei_dumitrescu/challenges/02_Auction_Smart_Contract.sol\":3370:3395  value = highestBindingBid */\n      swap1\n      pop\n        /* \"contracts/03_udemy_andrei_dumitrescu/challenges/02_Auction_Smart_Contract.sol\":3269:3861  if(msg.sender == owner) { // this is the owner.\r... */\n      jump(tag_117)\n    tag_116:\n        /* \"contracts/03_udemy_andrei_dumitrescu/challenges/02_Auction_Smart_Contract.sol\":3493:3506  highestBidder */\n      0x06\n      0x00\n      swap1\n      sload\n      swap1\n      0x0100\n      exp\n      swap1\n      div\n      0xffffffffffffffffffffffffffffffffffffffff\n      and\n        /* \"contracts/03_udemy_andrei_dumitrescu/challenges/02_Auction_Smart_Contract.sol\":3479:3506  msg.sender == highestBidder */\n      0xffffffffffffffffffffffffffffffffffffffff\n      and\n        /* \"contracts/03_udemy_andrei_dumitrescu/challenges/02_Auction_Smart_Contract.sol\":3479:3489  msg.sender */\n      caller\n        /* \"contracts/03_udemy_andrei_dumitrescu/challenges/02_Auction_Smart_Contract.sol\":3479:3506  msg.sender == highestBidder */\n      0xffffffffffffffffffffffffffffffffffffffff\n      and\n      eq\n        /* \"contracts/03_udemy_andrei_dumitrescu/challenges/02_Auction_Smart_Contract.sol\":3476:3846  if(msg.sender == highestBidder) {\r... */\n      iszero\n      tag_118\n      jumpi\n        /* \"contracts/03_udemy_andrei_dumitrescu/challenges/02_Auction_Smart_Contract.sol\":3543:3556  highestBidder */\n      0x06\n      0x00\n      swap1\n      sload\n      swap1\n      0x0100\n      exp\n      swap1\n      div\n      0xffffffffffffffffffffffffffffffffffffffff\n      and\n        /* \"contracts/03_udemy_andrei_dumitrescu/challenges/02_Auction_Smart_Contract.sol\":3531:3556  recipient = highestBidder */\n      swap2\n      pop\n        /* \"contracts/03_udemy_andrei_dumitrescu/challenges/02_Auction_Smart_Contract.sol\":3609:3626  highestBindingBid */\n      sload(0x05)\n        /* \"contracts/03_udemy_andrei_dumitrescu/challenges/02_Auction_Smart_Contract.sol\":3587:3591  bids */\n      0x07\n        /* \"contracts/03_udemy_andrei_dumitrescu/challenges/02_Auction_Smart_Contract.sol\":3587:3606  bids[highestBidder] */\n      0x00\n        /* \"contracts/03_udemy_andrei_dumitrescu/challenges/02_Auction_Smart_Contract.sol\":3592:3605  highestBidder */\n      0x06\n      0x00\n      swap1\n      sload\n      swap1\n      0x0100\n      exp\n      swap1\n      div\n      0xffffffffffffffffffffffffffffffffffffffff\n      and\n        /* \"contracts/03_udemy_andrei_dumitrescu/challenges/02_Auction_Smart_Contract.sol\":3587:3606  bids[highestBidder] */\n      0xffffffffffffffffffffffffffffffffffffffff\n      and\n      0xffffffffffffffffffffffffffffffffffffffff\n      and\n      dup2\n      mstore\n      0x20\n      add\n      swap1\n      dup2\n      mstore\n      0x20\n      add\n      0x00\n      keccak256\n      sload\n        /* \"contracts/03_udemy_andrei_dumitrescu/challenges/02_Auction_Smart_Contract.sol\":3587:3626  bids[highestBidder] - highestBindingBid */\n      tag_119\n      swap2\n      swap1\n      tag_120\n      jump\t// in\n    tag_119:\n        /* \"contracts/03_udemy_andrei_dumitrescu/challenges/02_Auction_Smart_Contract.sol\":3579:3626  value = bids[highestBidder] - highestBindingBid */\n      swap1\n      pop\n        /* \"contracts/03_udemy_andrei_dumitrescu/challenges/02_Auction_Smart_Contract.sol\":3476:3846  if(msg.sender == highestBidder) {\r... */\n      jump(tag_121)\n    tag_118:\n        /* \"contracts/03_udemy_andrei_dumitrescu/challenges/02_Auction_Smart_Contract.sol\":3768:3778  msg.sender */\n      caller\n        /* \"contracts/03_udemy_andrei_dumitrescu/challenges/02_Auction_Smart_Contract.sol\":3748:3779  recipient = payable(msg.sender) */\n      swap2\n      pop\n        /* \"contracts/03_udemy_andrei_dumitrescu/challenges/02_Auction_Smart_Contract.sol\":3810:3814  bids */\n      0x07\n        /* \"contracts/03_udemy_andrei_dumitrescu/challenges/02_Auction_Smart_Contract.sol\":3810:3826  bids[msg.sender] */\n      0x00\n        /* \"contracts/03_udemy_andrei_dumitrescu/challenges/02_Auction_Smart_Contract.sol\":3815:3825  msg.sender */\n      caller\n        /* \"contracts/03_udemy_andrei_dumitrescu/challenges/02_Auction_Smart_Contract.sol\":3810:3826  bids[msg.sender] */\n      0xffffffffffffffffffffffffffffffffffffffff\n      and\n      0xffffffffffffffffffffffffffffffffffffffff\n      and\n      dup2\n      mstore\n      0x20\n      add\n      swap1\n      dup2\n      mstore\n      0x20\n      add\n      0x00\n      keccak256\n      sload\n        /* \"contracts/03_udemy_andrei_dumitrescu/challenges/02_Auction_Smart_Contract.sol\":3802:3826  value = bids[msg.sender] */\n      swap1\n      pop\n        /* \"contracts/03_udemy_andrei_dumitrescu/challenges/02_Auction_Smart_Contract.sol\":3476:3846  if(msg.sender == highestBidder) {\r... */\n    tag_121:\n        /* \"contracts/03_udemy_andrei_dumitrescu/challenges/02_Auction_Smart_Contract.sol\":3269:3861  if(msg.sender == owner) { // this is the owner.\r... */\n    tag_117:\n        /* \"contracts/03_udemy_andrei_dumitrescu/challenges/02_Auction_Smart_Contract.sol\":3081:3872  if(auctionState == State.Cancelled) {\r... */\n    tag_115:\n        /* \"contracts/03_udemy_andrei_dumitrescu/challenges/02_Auction_Smart_Contract.sol\":4055:4056  0 */\n      0x00\n        /* \"contracts/03_udemy_andrei_dumitrescu/challenges/02_Auction_Smart_Contract.sol\":4037:4041  bids */\n      0x07\n        /* \"contracts/03_udemy_andrei_dumitrescu/challenges/02_Auction_Smart_Contract.sol\":4037:4052  bids[recipient] */\n      0x00\n        /* \"contracts/03_udemy_andrei_dumitrescu/challenges/02_Auction_Smart_Contract.sol\":4042:4051  recipient */\n      dup5\n        /* \"contracts/03_udemy_andrei_dumitrescu/challenges/02_Auction_Smart_Contract.sol\":4037:4052  bids[recipient] */\n      0xffffffffffffffffffffffffffffffffffffffff\n      and\n      0xffffffffffffffffffffffffffffffffffffffff\n      and\n      dup2\n      mstore\n      0x20\n      add\n      swap1\n      dup2\n      mstore\n      0x20\n      add\n      0x00\n      keccak256\n        /* \"contracts/03_udemy_andrei_dumitrescu/challenges/02_Auction_Smart_Contract.sol\":4037:4056  bids[recipient] = 0 */\n      dup2\n      swap1\n      sstore\n      pop\n        /* \"contracts/03_udemy_andrei_dumitrescu/challenges/02_Auction_Smart_Contract.sol\":4111:4120  recipient */\n      dup2\n        /* \"contracts/03_udemy_andrei_dumitrescu/challenges/02_Auction_Smart_Contract.sol\":4111:4129  recipient.transfer */\n      0xffffffffffffffffffffffffffffffffffffffff\n      and\n        /* \"contracts/03_udemy_andrei_dumitrescu/challenges/02_Auction_Smart_Contract.sol\":4111:4136  recipient.transfer(value) */\n      0x08fc\n        /* \"contracts/03_udemy_andrei_dumitrescu/challenges/02_Auction_Smart_Contract.sol\":4130:4135  value */\n      dup3\n        /* \"contracts/03_udemy_andrei_dumitrescu/challenges/02_Auction_Smart_Contract.sol\":4111:4136  recipient.transfer(value) */\n      swap1\n      dup2\n      iszero\n      mul\n      swap1\n      mload(0x40)\n      0x00\n      mload(0x40)\n      dup1\n      dup4\n      sub\n      dup2\n      dup6\n      dup9\n      dup9\n      call\n      swap4\n      pop\n      pop\n      pop\n      pop\n      iszero\n      dup1\n      iszero\n      tag_123\n      jumpi\n      returndatasize\n      0x00\n      dup1\n      returndatacopy\n      revert(0x00, returndatasize)\n    tag_123:\n      pop\n        /* \"contracts/03_udemy_andrei_dumitrescu/challenges/02_Auction_Smart_Contract.sol\":2711:4144  function finalizeAuction() public {\r... */\n      pop\n      pop\n      jump\t// out\n        /* \"contracts/03_udemy_andrei_dumitrescu/challenges/02_Auction_Smart_Contract.sol\":1748:1914  function findMin(uint a, uint b) internal pure returns(uint) {\r... */\n    tag_99:\n        /* \"contracts/03_udemy_andrei_dumitrescu/challenges/02_Auction_Smart_Contract.sol\":1803:1807  uint */\n      0x00\n        /* \"contracts/03_udemy_andrei_dumitrescu/challenges/02_Auction_Smart_Contract.sol\":1827:1828  b */\n      dup2\n        /* \"contracts/03_udemy_andrei_dumitrescu/challenges/02_Auction_Smart_Contract.sol\":1823:1824  a */\n      dup4\n        /* \"contracts/03_udemy_andrei_dumitrescu/challenges/02_Auction_Smart_Contract.sol\":1823:1828  a <=b */\n      gt\n        /* \"contracts/03_udemy_andrei_dumitrescu/challenges/02_Auction_Smart_Contract.sol\":1820:1907  if(a <=b ) {\r... */\n      tag_125\n      jumpi\n        /* \"contracts/03_udemy_andrei_dumitrescu/challenges/02_Auction_Smart_Contract.sol\":1853:1854  a */\n      dup3\n        /* \"contracts/03_udemy_andrei_dumitrescu/challenges/02_Auction_Smart_Contract.sol\":1846:1854  return a */\n      swap1\n      pop\n      jump(tag_124)\n        /* \"contracts/03_udemy_andrei_dumitrescu/challenges/02_Auction_Smart_Contract.sol\":1820:1907  if(a <=b ) {\r... */\n    tag_125:\n        /* \"contracts/03_udemy_andrei_dumitrescu/challenges/02_Auction_Smart_Contract.sol\":1894:1895  b */\n      dup2\n        /* \"contracts/03_udemy_andrei_dumitrescu/challenges/02_Auction_Smart_Contract.sol\":1887:1895  return b */\n      swap1\n      pop\n        /* \"contracts/03_udemy_andrei_dumitrescu/challenges/02_Auction_Smart_Contract.sol\":1748:1914  function findMin(uint a, uint b) internal pure returns(uint) {\r... */\n    tag_124:\n      swap3\n      swap2\n      pop\n      pop\n      jump\t// out\n        /* \"#utility.yul\":7:146   */\n    tag_128:\n      0x00\n        /* \"#utility.yul\":91:97   */\n      dup2\n        /* \"#utility.yul\":78:98   */\n      calldataload\n        /* \"#utility.yul\":69:98   */\n      swap1\n      pop\n        /* \"#utility.yul\":107:140   */\n      tag_130\n        /* \"#utility.yul\":134:139   */\n      dup2\n        /* \"#utility.yul\":107:140   */\n      tag_131\n      jump\t// in\n    tag_130:\n        /* \"#utility.yul\":59:146   */\n      swap3\n      swap2\n      pop\n      pop\n      jump\t// out\n        /* \"#utility.yul\":152:414   */\n    tag_26:\n      0x00\n        /* \"#utility.yul\":260:262   */\n      0x20\n        /* \"#utility.yul\":248:257   */\n      dup3\n        /* \"#utility.yul\":239:246   */\n      dup5\n        /* \"#utility.yul\":235:258   */\n      sub\n        /* \"#utility.yul\":231:263   */\n      slt\n        /* \"#utility.yul\":228:230   */\n      iszero\n      tag_133\n      jumpi\n        /* \"#utility.yul\":276:277   */\n      0x00\n        /* \"#utility.yul\":273:274   */\n      dup1\n        /* \"#utility.yul\":266:278   */\n      revert\n        /* \"#utility.yul\":228:230   */\n    tag_133:\n        /* \"#utility.yul\":319:320   */\n      0x00\n        /* \"#utility.yul\":344:397   */\n      tag_134\n        /* \"#utility.yul\":389:396   */\n      dup5\n        /* \"#utility.yul\":380:386   */\n      dup3\n        /* \"#utility.yul\":369:378   */\n      dup6\n        /* \"#utility.yul\":365:387   */\n      add\n        /* \"#utility.yul\":344:397   */\n      tag_128\n      jump\t// in\n    tag_134:\n        /* \"#utility.yul\":334:397   */\n      swap2\n      pop\n        /* \"#utility.yul\":290:407   */\n      pop\n        /* \"#utility.yul\":218:414   */\n      swap3\n      swap2\n      pop\n      pop\n      jump\t// out\n        /* \"#utility.yul\":420:562   */\n    tag_135:\n        /* \"#utility.yul\":523:555   */\n      tag_137\n        /* \"#utility.yul\":549:554   */\n      dup2\n        /* \"#utility.yul\":523:555   */\n      tag_138\n      jump\t// in\n    tag_137:\n        /* \"#utility.yul\":518:521   */\n      dup3\n        /* \"#utility.yul\":511:556   */\n      mstore\n        /* \"#utility.yul\":501:562   */\n      pop\n      pop\n      jump\t// out\n        /* \"#utility.yul\":568:711   */\n    tag_139:\n        /* \"#utility.yul\":661:704   */\n      tag_141\n        /* \"#utility.yul\":698:703   */\n      dup2\n        /* \"#utility.yul\":661:704   */\n      tag_142\n      jump\t// in\n    tag_141:\n        /* \"#utility.yul\":656:659   */\n      dup3\n        /* \"#utility.yul\":649:705   */\n      mstore\n        /* \"#utility.yul\":639:711   */\n      pop\n      pop\n      jump\t// out\n        /* \"#utility.yul\":717:1081   */\n    tag_143:\n      0x00\n        /* \"#utility.yul\":833:872   */\n      tag_145\n        /* \"#utility.yul\":866:871   */\n      dup3\n        /* \"#utility.yul\":833:872   */\n      tag_146\n      jump\t// in\n    tag_145:\n        /* \"#utility.yul\":888:959   */\n      tag_147\n        /* \"#utility.yul\":952:958   */\n      dup2\n        /* \"#utility.yul\":947:950   */\n      dup6\n        /* \"#utility.yul\":888:959   */\n      tag_148\n      jump\t// in\n    tag_147:\n        /* \"#utility.yul\":881:959   */\n      swap4\n      pop\n        /* \"#utility.yul\":968:1020   */\n      tag_149\n        /* \"#utility.yul\":1013:1019   */\n      dup2\n        /* \"#utility.yul\":1008:1011   */\n      dup6\n        /* \"#utility.yul\":1001:1005   */\n      0x20\n        /* \"#utility.yul\":994:999   */\n      dup7\n        /* \"#utility.yul\":990:1006   */\n      add\n        /* \"#utility.yul\":968:1020   */\n      tag_150\n      jump\t// in\n    tag_149:\n        /* \"#utility.yul\":1045:1074   */\n      tag_151\n        /* \"#utility.yul\":1067:1073   */\n      dup2\n        /* \"#utility.yul\":1045:1074   */\n      tag_152\n      jump\t// in\n    tag_151:\n        /* \"#utility.yul\":1040:1043   */\n      dup5\n        /* \"#utility.yul\":1036:1075   */\n      add\n        /* \"#utility.yul\":1029:1075   */\n      swap2\n      pop\n        /* \"#utility.yul\":809:1081   */\n      pop\n      swap3\n      swap2\n      pop\n      pop\n      jump\t// out\n        /* \"#utility.yul\":1087:1411   */\n    tag_153:\n      0x00\n        /* \"#utility.yul\":1250:1317   */\n      tag_155\n        /* \"#utility.yul\":1314:1316   */\n      0x1a\n        /* \"#utility.yul\":1309:1312   */\n      dup4\n        /* \"#utility.yul\":1250:1317   */\n      tag_148\n      jump\t// in\n    tag_155:\n        /* \"#utility.yul\":1243:1317   */\n      swap2\n      pop\n        /* \"#utility.yul\":1347:1375   */\n      0x4f776e65722063616e6e6f7420706c6163652074686520626964000000000000\n        /* \"#utility.yul\":1343:1344   */\n      0x00\n        /* \"#utility.yul\":1338:1341   */\n      dup4\n        /* \"#utility.yul\":1334:1345   */\n      add\n        /* \"#utility.yul\":1327:1376   */\n      mstore\n        /* \"#utility.yul\":1402:1404   */\n      0x20\n        /* \"#utility.yul\":1397:1400   */\n      dup3\n        /* \"#utility.yul\":1393:1405   */\n      add\n        /* \"#utility.yul\":1386:1405   */\n      swap1\n      pop\n        /* \"#utility.yul\":1233:1411   */\n      swap2\n      swap1\n      pop\n      jump\t// out\n        /* \"#utility.yul\":1417:1800   */\n    tag_156:\n      0x00\n        /* \"#utility.yul\":1580:1647   */\n      tag_158\n        /* \"#utility.yul\":1644:1646   */\n      0x33\n        /* \"#utility.yul\":1639:1642   */\n      dup4\n        /* \"#utility.yul\":1580:1647   */\n      tag_148\n      jump\t// in\n    tag_158:\n        /* \"#utility.yul\":1573:1647   */\n      swap2\n      pop\n        /* \"#utility.yul\":1677:1711   */\n      0x596f752061726520746865206f776e65722e20796f752063616e6e6f74207065\n        /* \"#utility.yul\":1673:1674   */\n      0x00\n        /* \"#utility.yul\":1668:1671   */\n      dup4\n        /* \"#utility.yul\":1664:1675   */\n      add\n        /* \"#utility.yul\":1657:1712   */\n      mstore\n        /* \"#utility.yul\":1743:1764   */\n      0x72666f726d207468697320616374696f6e732e00000000000000000000000000\n        /* \"#utility.yul\":1738:1740   */\n      0x20\n        /* \"#utility.yul\":1733:1736   */\n      dup4\n        /* \"#utility.yul\":1729:1741   */\n      add\n        /* \"#utility.yul\":1722:1765   */\n      mstore\n        /* \"#utility.yul\":1791:1793   */\n      0x40\n        /* \"#utility.yul\":1786:1789   */\n      dup3\n        /* \"#utility.yul\":1782:1794   */\n      add\n        /* \"#utility.yul\":1775:1794   */\n      swap1\n      pop\n        /* \"#utility.yul\":1563:1800   */\n      swap2\n      swap1\n      pop\n      jump\t// out\n        /* \"#utility.yul\":1806:2134   */\n    tag_159:\n      0x00\n        /* \"#utility.yul\":1969:2036   */\n      tag_161\n        /* \"#utility.yul\":2033:2035   */\n      0x1e\n        /* \"#utility.yul\":2028:2031   */\n      dup4\n        /* \"#utility.yul\":1969:2036   */\n      tag_148\n      jump\t// in\n    tag_161:\n        /* \"#utility.yul\":1962:2036   */\n      swap2\n      pop\n        /* \"#utility.yul\":2066:2098   */\n      0x41756374696f6e206973206e6f7420696e2072756e6e69672073746174650000\n        /* \"#utility.yul\":2062:2063   */\n      0x00\n        /* \"#utility.yul\":2057:2060   */\n      dup4\n        /* \"#utility.yul\":2053:2064   */\n      add\n        /* \"#utility.yul\":2046:2099   */\n      mstore\n        /* \"#utility.yul\":2125:2127   */\n      0x20\n        /* \"#utility.yul\":2120:2123   */\n      dup3\n        /* \"#utility.yul\":2116:2128   */\n      add\n        /* \"#utility.yul\":2109:2128   */\n      swap1\n      pop\n        /* \"#utility.yul\":1952:2134   */\n      swap2\n      swap1\n      pop\n      jump\t// out\n        /* \"#utility.yul\":2140:2461   */\n    tag_162:\n      0x00\n        /* \"#utility.yul\":2303:2370   */\n      tag_164\n        /* \"#utility.yul\":2367:2369   */\n      0x17\n        /* \"#utility.yul\":2362:2365   */\n      dup4\n        /* \"#utility.yul\":2303:2370   */\n      tag_148\n      jump\t// in\n    tag_164:\n        /* \"#utility.yul\":2296:2370   */\n      swap2\n      pop\n        /* \"#utility.yul\":2400:2425   */\n      0x4974732073746172746564206166746572207374617274000000000000000000\n        /* \"#utility.yul\":2396:2397   */\n      0x00\n        /* \"#utility.yul\":2391:2394   */\n      dup4\n        /* \"#utility.yul\":2387:2398   */\n      add\n        /* \"#utility.yul\":2380:2426   */\n      mstore\n        /* \"#utility.yul\":2452:2454   */\n      0x20\n        /* \"#utility.yul\":2447:2450   */\n      dup3\n        /* \"#utility.yul\":2443:2455   */\n      add\n        /* \"#utility.yul\":2436:2455   */\n      swap1\n      pop\n        /* \"#utility.yul\":2286:2461   */\n      swap2\n      swap1\n      pop\n      jump\t// out\n        /* \"#utility.yul\":2467:2844   */\n    tag_165:\n      0x00\n        /* \"#utility.yul\":2630:2697   */\n      tag_167\n        /* \"#utility.yul\":2694:2696   */\n      0x2d\n        /* \"#utility.yul\":2689:2692   */\n      dup4\n        /* \"#utility.yul\":2630:2697   */\n      tag_148\n      jump\t// in\n    tag_167:\n        /* \"#utility.yul\":2623:2697   */\n      swap2\n      pop\n        /* \"#utility.yul\":2727:2761   */\n      0x596f7520617265206e6f7420746865206f776e6572206f7220796f7572206269\n        /* \"#utility.yul\":2723:2724   */\n      0x00\n        /* \"#utility.yul\":2718:2721   */\n      dup4\n        /* \"#utility.yul\":2714:2725   */\n      add\n        /* \"#utility.yul\":2707:2762   */\n      mstore\n        /* \"#utility.yul\":2793:2808   */\n      0x6420616d6f756e74206973203000000000000000000000000000000000000000\n        /* \"#utility.yul\":2788:2790   */\n      0x20\n        /* \"#utility.yul\":2783:2786   */\n      dup4\n        /* \"#utility.yul\":2779:2791   */\n      add\n        /* \"#utility.yul\":2772:2809   */\n      mstore\n        /* \"#utility.yul\":2835:2837   */\n      0x40\n        /* \"#utility.yul\":2830:2833   */\n      dup3\n        /* \"#utility.yul\":2826:2838   */\n      add\n        /* \"#utility.yul\":2819:2838   */\n      swap1\n      pop\n        /* \"#utility.yul\":2613:2844   */\n      swap2\n      swap1\n      pop\n      jump\t// out\n        /* \"#utility.yul\":2850:3180   */\n    tag_168:\n      0x00\n        /* \"#utility.yul\":3013:3080   */\n      tag_170\n        /* \"#utility.yul\":3077:3079   */\n      0x20\n        /* \"#utility.yul\":3072:3075   */\n      dup4\n        /* \"#utility.yul\":3013:3080   */\n      tag_148\n      jump\t// in\n    tag_170:\n        /* \"#utility.yul\":3006:3080   */\n      swap2\n      pop\n        /* \"#utility.yul\":3110:3144   */\n      0x6d696e696d756d20616d6f756e742073686f756c642062652031303020776569\n        /* \"#utility.yul\":3106:3107   */\n      0x00\n        /* \"#utility.yul\":3101:3104   */\n      dup4\n        /* \"#utility.yul\":3097:3108   */\n      add\n        /* \"#utility.yul\":3090:3145   */\n      mstore\n        /* \"#utility.yul\":3171:3173   */\n      0x20\n        /* \"#utility.yul\":3166:3169   */\n      dup3\n        /* \"#utility.yul\":3162:3174   */\n      add\n        /* \"#utility.yul\":3155:3174   */\n      swap1\n      pop\n        /* \"#utility.yul\":2996:3180   */\n      swap2\n      swap1\n      pop\n      jump\t// out\n        /* \"#utility.yul\":3186:3569   */\n    tag_171:\n      0x00\n        /* \"#utility.yul\":3349:3416   */\n      tag_173\n        /* \"#utility.yul\":3413:3415   */\n      0x33\n        /* \"#utility.yul\":3408:3411   */\n      dup4\n        /* \"#utility.yul\":3349:3416   */\n      tag_148\n      jump\t// in\n    tag_173:\n        /* \"#utility.yul\":3342:3416   */\n      swap2\n      pop\n        /* \"#utility.yul\":3446:3480   */\n      0x42696420616d6f756e742073686f756c64206265206772656174657220746861\n        /* \"#utility.yul\":3442:3443   */\n      0x00\n        /* \"#utility.yul\":3437:3440   */\n      dup4\n        /* \"#utility.yul\":3433:3444   */\n      add\n        /* \"#utility.yul\":3426:3481   */\n      mstore\n        /* \"#utility.yul\":3512:3533   */\n      0x6e206869676865737442696e64696e6742696400000000000000000000000000\n        /* \"#utility.yul\":3507:3509   */\n      0x20\n        /* \"#utility.yul\":3502:3505   */\n      dup4\n        /* \"#utility.yul\":3498:3510   */\n      add\n        /* \"#utility.yul\":3491:3534   */\n      mstore\n        /* \"#utility.yul\":3560:3562   */\n      0x40\n        /* \"#utility.yul\":3555:3558   */\n      dup3\n        /* \"#utility.yul\":3551:3563   */\n      add\n        /* \"#utility.yul\":3544:3563   */\n      swap1\n      pop\n        /* \"#utility.yul\":3332:3569   */\n      swap2\n      swap1\n      pop\n      jump\t// out\n        /* \"#utility.yul\":3575:3693   */\n    tag_174:\n        /* \"#utility.yul\":3662:3686   */\n      tag_176\n        /* \"#utility.yul\":3680:3685   */\n      dup2\n        /* \"#utility.yul\":3662:3686   */\n      tag_177\n      jump\t// in\n    tag_176:\n        /* \"#utility.yul\":3657:3660   */\n      dup3\n        /* \"#utility.yul\":3650:3687   */\n      mstore\n        /* \"#utility.yul\":3640:3693   */\n      pop\n      pop\n      jump\t// out\n        /* \"#utility.yul\":3699:3953   */\n    tag_38:\n      0x00\n        /* \"#utility.yul\":3846:3848   */\n      0x20\n        /* \"#utility.yul\":3835:3844   */\n      dup3\n        /* \"#utility.yul\":3831:3849   */\n      add\n        /* \"#utility.yul\":3823:3849   */\n      swap1\n      pop\n        /* \"#utility.yul\":3859:3946   */\n      tag_179\n        /* \"#utility.yul\":3943:3944   */\n      0x00\n        /* \"#utility.yul\":3932:3941   */\n      dup4\n        /* \"#utility.yul\":3928:3945   */\n      add\n        /* \"#utility.yul\":3919:3925   */\n      dup5\n        /* \"#utility.yul\":3859:3946   */\n      tag_135\n      jump\t// in\n    tag_179:\n        /* \"#utility.yul\":3813:3953   */\n      swap3\n      swap2\n      pop\n      pop\n      jump\t// out\n        /* \"#utility.yul\":3959:4193   */\n    tag_33:\n      0x00\n        /* \"#utility.yul\":4096:4098   */\n      0x20\n        /* \"#utility.yul\":4085:4094   */\n      dup3\n        /* \"#utility.yul\":4081:4099   */\n      add\n        /* \"#utility.yul\":4073:4099   */\n      swap1\n      pop\n        /* \"#utility.yul\":4109:4186   */\n      tag_181\n        /* \"#utility.yul\":4183:4184   */\n      0x00\n        /* \"#utility.yul\":4172:4181   */\n      dup4\n        /* \"#utility.yul\":4168:4185   */\n      add\n        /* \"#utility.yul\":4159:4165   */\n      dup5\n        /* \"#utility.yul\":4109:4186   */\n      tag_139\n      jump\t// in\n    tag_181:\n        /* \"#utility.yul\":4063:4193   */\n      swap3\n      swap2\n      pop\n      pop\n      jump\t// out\n        /* \"#utility.yul\":4199:4512   */\n    tag_50:\n      0x00\n        /* \"#utility.yul\":4350:4352   */\n      0x20\n        /* \"#utility.yul\":4339:4348   */\n      dup3\n        /* \"#utility.yul\":4335:4353   */\n      add\n        /* \"#utility.yul\":4327:4353   */\n      swap1\n      pop\n        /* \"#utility.yul\":4399:4408   */\n      dup2\n        /* \"#utility.yul\":4393:4397   */\n      dup2\n        /* \"#utility.yul\":4389:4409   */\n      sub\n        /* \"#utility.yul\":4385:4386   */\n      0x00\n        /* \"#utility.yul\":4374:4383   */\n      dup4\n        /* \"#utility.yul\":4370:4387   */\n      add\n        /* \"#utility.yul\":4363:4410   */\n      mstore\n        /* \"#utility.yul\":4427:4505   */\n      tag_183\n        /* \"#utility.yul\":4500:4504   */\n      dup2\n        /* \"#utility.yul\":4491:4497   */\n      dup5\n        /* \"#utility.yul\":4427:4505   */\n      tag_143\n      jump\t// in\n    tag_183:\n        /* \"#utility.yul\":4419:4505   */\n      swap1\n      pop\n        /* \"#utility.yul\":4317:4512   */\n      swap3\n      swap2\n      pop\n      pop\n      jump\t// out\n        /* \"#utility.yul\":4518:4937   */\n    tag_75:\n      0x00\n        /* \"#utility.yul\":4722:4724   */\n      0x20\n        /* \"#utility.yul\":4711:4720   */\n      dup3\n        /* \"#utility.yul\":4707:4725   */\n      add\n        /* \"#utility.yul\":4699:4725   */\n      swap1\n      pop\n        /* \"#utility.yul\":4771:4780   */\n      dup2\n        /* \"#utility.yul\":4765:4769   */\n      dup2\n        /* \"#utility.yul\":4761:4781   */\n      sub\n        /* \"#utility.yul\":4757:4758   */\n      0x00\n        /* \"#utility.yul\":4746:4755   */\n      dup4\n        /* \"#utility.yul\":4742:4759   */\n      add\n        /* \"#utility.yul\":4735:4782   */\n      mstore\n        /* \"#utility.yul\":4799:4930   */\n      tag_185\n        /* \"#utility.yul\":4925:4929   */\n      dup2\n        /* \"#utility.yul\":4799:4930   */\n      tag_153\n      jump\t// in\n    tag_185:\n        /* \"#utility.yul\":4791:4930   */\n      swap1\n      pop\n        /* \"#utility.yul\":4689:4937   */\n      swap2\n      swap1\n      pop\n      jump\t// out\n        /* \"#utility.yul\":4943:5362   */\n    tag_63:\n      0x00\n        /* \"#utility.yul\":5147:5149   */\n      0x20\n        /* \"#utility.yul\":5136:5145   */\n      dup3\n        /* \"#utility.yul\":5132:5150   */\n      add\n        /* \"#utility.yul\":5124:5150   */\n      swap1\n      pop\n        /* \"#utility.yul\":5196:5205   */\n      dup2\n        /* \"#utility.yul\":5190:5194   */\n      dup2\n        /* \"#utility.yul\":5186:5206   */\n      sub\n        /* \"#utility.yul\":5182:5183   */\n      0x00\n        /* \"#utility.yul\":5171:5180   */\n      dup4\n        /* \"#utility.yul\":5167:5184   */\n      add\n        /* \"#utility.yul\":5160:5207   */\n      mstore\n        /* \"#utility.yul\":5224:5355   */\n      tag_187\n        /* \"#utility.yul\":5350:5354   */\n      dup2\n        /* \"#utility.yul\":5224:5355   */\n      tag_156\n      jump\t// in\n    tag_187:\n        /* \"#utility.yul\":5216:5355   */\n      swap1\n      pop\n        /* \"#utility.yul\":5114:5362   */\n      swap2\n      swap1\n      pop\n      jump\t// out\n        /* \"#utility.yul\":5368:5787   */\n    tag_87:\n      0x00\n        /* \"#utility.yul\":5572:5574   */\n      0x20\n        /* \"#utility.yul\":5561:5570   */\n      dup3\n        /* \"#utility.yul\":5557:5575   */\n      add\n        /* \"#utility.yul\":5549:5575   */\n      swap1\n      pop\n        /* \"#utility.yul\":5621:5630   */\n      dup2\n        /* \"#utility.yul\":5615:5619   */\n      dup2\n        /* \"#utility.yul\":5611:5631   */\n      sub\n        /* \"#utility.yul\":5607:5608   */\n      0x00\n        /* \"#utility.yul\":5596:5605   */\n      dup4\n        /* \"#utility.yul\":5592:5609   */\n      add\n        /* \"#utility.yul\":5585:5632   */\n      mstore\n        /* \"#utility.yul\":5649:5780   */\n      tag_189\n        /* \"#utility.yul\":5775:5779   */\n      dup2\n        /* \"#utility.yul\":5649:5780   */\n      tag_159\n      jump\t// in\n    tag_189:\n        /* \"#utility.yul\":5641:5780   */\n      swap1\n      pop\n        /* \"#utility.yul\":5539:5787   */\n      swap2\n      swap1\n      pop\n      jump\t// out\n        /* \"#utility.yul\":5793:6212   */\n    tag_79:\n      0x00\n        /* \"#utility.yul\":5997:5999   */\n      0x20\n        /* \"#utility.yul\":5986:5995   */\n      dup3\n        /* \"#utility.yul\":5982:6000   */\n      add\n        /* \"#utility.yul\":5974:6000   */\n      swap1\n      pop\n        /* \"#utility.yul\":6046:6055   */\n      dup2\n        /* \"#utility.yul\":6040:6044   */\n      dup2\n        /* \"#utility.yul\":6036:6056   */\n      sub\n        /* \"#utility.yul\":6032:6033   */\n      0x00\n        /* \"#utility.yul\":6021:6030   */\n      dup4\n        /* \"#utility.yul\":6017:6034   */\n      add\n        /* \"#utility.yul\":6010:6057   */\n      mstore\n        /* \"#utility.yul\":6074:6205   */\n      tag_191\n        /* \"#utility.yul\":6200:6204   */\n      dup2\n        /* \"#utility.yul\":6074:6205   */\n      tag_162\n      jump\t// in\n    tag_191:\n        /* \"#utility.yul\":6066:6205   */\n      swap1\n      pop\n        /* \"#utility.yul\":5964:6212   */\n      swap2\n      swap1\n      pop\n      jump\t// out\n        /* \"#utility.yul\":6218:6637   */\n    tag_111:\n      0x00\n        /* \"#utility.yul\":6422:6424   */\n      0x20\n        /* \"#utility.yul\":6411:6420   */\n      dup3\n        /* \"#utility.yul\":6407:6425   */\n      add\n        /* \"#utility.yul\":6399:6425   */\n      swap1\n      pop\n        /* \"#utility.yul\":6471:6480   */\n      dup2\n        /* \"#utility.yul\":6465:6469   */\n      dup2\n        /* \"#utility.yul\":6461:6481   */\n      sub\n        /* \"#utility.yul\":6457:6458   */\n      0x00\n        /* \"#utility.yul\":6446:6455   */\n      dup4\n        /* \"#utility.yul\":6442:6459   */\n      add\n        /* \"#utility.yul\":6435:6482   */\n      mstore\n        /* \"#utility.yul\":6499:6630   */\n      tag_193\n        /* \"#utility.yul\":6625:6629   */\n      dup2\n        /* \"#utility.yul\":6499:6630   */\n      tag_165\n      jump\t// in\n    tag_193:\n        /* \"#utility.yul\":6491:6630   */\n      swap1\n      pop\n        /* \"#utility.yul\":6389:6637   */\n      swap2\n      swap1\n      pop\n      jump\t// out\n        /* \"#utility.yul\":6643:7062   */\n    tag_90:\n      0x00\n        /* \"#utility.yul\":6847:6849   */\n      0x20\n        /* \"#utility.yul\":6836:6845   */\n      dup3\n        /* \"#utility.yul\":6832:6850   */\n      add\n        /* \"#utility.yul\":6824:6850   */\n      swap1\n      pop\n        /* \"#utility.yul\":6896:6905   */\n      dup2\n        /* \"#utility.yul\":6890:6894   */\n      dup2\n        /* \"#utility.yul\":6886:6906   */\n      sub\n        /* \"#utility.yul\":6882:6883   */\n      0x00\n        /* \"#utility.yul\":6871:6880   */\n      dup4\n        /* \"#utility.yul\":6867:6884   */\n      add\n        /* \"#utility.yul\":6860:6907   */\n      mstore\n        /* \"#utility.yul\":6924:7055   */\n      tag_195\n        /* \"#utility.yul\":7050:7054   */\n      dup2\n        /* \"#utility.yul\":6924:7055   */\n      tag_168\n      jump\t// in\n    tag_195:\n        /* \"#utility.yul\":6916:7055   */\n      swap1\n      pop\n        /* \"#utility.yul\":6814:7062   */\n      swap2\n      swap1\n      pop\n      jump\t// out\n        /* \"#utility.yul\":7068:7487   */\n    tag_95:\n      0x00\n        /* \"#utility.yul\":7272:7274   */\n      0x20\n        /* \"#utility.yul\":7261:7270   */\n      dup3\n        /* \"#utility.yul\":7257:7275   */\n      add\n        /* \"#utility.yul\":7249:7275   */\n      swap1\n      pop\n        /* \"#utility.yul\":7321:7330   */\n      dup2\n        /* \"#utility.yul\":7315:7319   */\n      dup2\n        /* \"#utility.yul\":7311:7331   */\n      sub\n        /* \"#utility.yul\":7307:7308   */\n      0x00\n        /* \"#utility.yul\":7296:7305   */\n      dup4\n        /* \"#utility.yul\":7292:7309   */\n      add\n        /* \"#utility.yul\":7285:7332   */\n      mstore\n        /* \"#utility.yul\":7349:7480   */\n      tag_197\n        /* \"#utility.yul\":7475:7479   */\n      dup2\n        /* \"#utility.yul\":7349:7480   */\n      tag_171\n      jump\t// in\n    tag_197:\n        /* \"#utility.yul\":7341:7480   */\n      swap1\n      pop\n        /* \"#utility.yul\":7239:7487   */\n      swap2\n      swap1\n      pop\n      jump\t// out\n        /* \"#utility.yul\":7493:7715   */\n    tag_18:\n      0x00\n        /* \"#utility.yul\":7624:7626   */\n      0x20\n        /* \"#utility.yul\":7613:7622   */\n      dup3\n        /* \"#utility.yul\":7609:7627   */\n      add\n        /* \"#utility.yul\":7601:7627   */\n      swap1\n      pop\n        /* \"#utility.yul\":7637:7708   */\n      tag_199\n        /* \"#utility.yul\":7705:7706   */\n      0x00\n        /* \"#utility.yul\":7694:7703   */\n      dup4\n        /* \"#utility.yul\":7690:7707   */\n      add\n        /* \"#utility.yul\":7681:7687   */\n      dup5\n        /* \"#utility.yul\":7637:7708   */\n      tag_174\n      jump\t// in\n    tag_199:\n        /* \"#utility.yul\":7591:7715   */\n      swap3\n      swap2\n      pop\n      pop\n      jump\t// out\n        /* \"#utility.yul\":7721:7820   */\n    tag_146:\n      0x00\n        /* \"#utility.yul\":7807:7812   */\n      dup2\n        /* \"#utility.yul\":7801:7813   */\n      mload\n        /* \"#utility.yul\":7791:7813   */\n      swap1\n      pop\n        /* \"#utility.yul\":7780:7820   */\n      swap2\n      swap1\n      pop\n      jump\t// out\n        /* \"#utility.yul\":7826:7995   */\n    tag_148:\n      0x00\n        /* \"#utility.yul\":7944:7950   */\n      dup3\n        /* \"#utility.yul\":7939:7942   */\n      dup3\n        /* \"#utility.yul\":7932:7951   */\n      mstore\n        /* \"#utility.yul\":7984:7988   */\n      0x20\n        /* \"#utility.yul\":7979:7982   */\n      dup3\n        /* \"#utility.yul\":7975:7989   */\n      add\n        /* \"#utility.yul\":7960:7989   */\n      swap1\n      pop\n        /* \"#utility.yul\":7922:7995   */\n      swap3\n      swap2\n      pop\n      pop\n      jump\t// out\n        /* \"#utility.yul\":8001:8306   */\n    tag_92:\n      0x00\n        /* \"#utility.yul\":8060:8080   */\n      tag_203\n        /* \"#utility.yul\":8078:8079   */\n      dup3\n        /* \"#utility.yul\":8060:8080   */\n      tag_177\n      jump\t// in\n    tag_203:\n        /* \"#utility.yul\":8055:8080   */\n      swap2\n      pop\n        /* \"#utility.yul\":8094:8114   */\n      tag_204\n        /* \"#utility.yul\":8112:8113   */\n      dup4\n        /* \"#utility.yul\":8094:8114   */\n      tag_177\n      jump\t// in\n    tag_204:\n        /* \"#utility.yul\":8089:8114   */\n      swap3\n      pop\n        /* \"#utility.yul\":8248:8249   */\n      dup3\n        /* \"#utility.yul\":8180:8246   */\n      0xffffffffffffffffffffffffffffffffffffffffffffffffffffffffffffffff\n        /* \"#utility.yul\":8176:8250   */\n      sub\n        /* \"#utility.yul\":8173:8174   */\n      dup3\n        /* \"#utility.yul\":8170:8251   */\n      gt\n        /* \"#utility.yul\":8167:8169   */\n      iszero\n      tag_205\n      jumpi\n        /* \"#utility.yul\":8254:8272   */\n      tag_206\n      tag_207\n      jump\t// in\n    tag_206:\n        /* \"#utility.yul\":8167:8169   */\n    tag_205:\n        /* \"#utility.yul\":8298:8299   */\n      dup3\n        /* \"#utility.yul\":8295:8296   */\n      dup3\n        /* \"#utility.yul\":8291:8300   */\n      add\n        /* \"#utility.yul\":8284:8300   */\n      swap1\n      pop\n        /* \"#utility.yul\":8045:8306   */\n      swap3\n      swap2\n      pop\n      pop\n      jump\t// out\n        /* \"#utility.yul\":8312:8503   */\n    tag_120:\n      0x00\n        /* \"#utility.yul\":8372:8392   */\n      tag_209\n        /* \"#utility.yul\":8390:8391   */\n      dup3\n        /* \"#utility.yul\":8372:8392   */\n      tag_177\n      jump\t// in\n    tag_209:\n        /* \"#utility.yul\":8367:8392   */\n      swap2\n      pop\n        /* \"#utility.yul\":8406:8426   */\n      tag_210\n        /* \"#utility.yul\":8424:8425   */\n      dup4\n        /* \"#utility.yul\":8406:8426   */\n      tag_177\n      jump\t// in\n    tag_210:\n        /* \"#utility.yul\":8401:8426   */\n      swap3\n      pop\n        /* \"#utility.yul\":8445:8446   */\n      dup3\n        /* \"#utility.yul\":8442:8443   */\n      dup3\n        /* \"#utility.yul\":8439:8447   */\n      lt\n        /* \"#utility.yul\":8436:8438   */\n      iszero\n      tag_211\n      jumpi\n        /* \"#utility.yul\":8450:8468   */\n      tag_212\n      tag_207\n      jump\t// in\n    tag_212:\n        /* \"#utility.yul\":8436:8438   */\n    tag_211:\n        /* \"#utility.yul\":8495:8496   */\n      dup3\n        /* \"#utility.yul\":8492:8493   */\n      dup3\n        /* \"#utility.yul\":8488:8497   */\n      sub\n        /* \"#utility.yul\":8480:8497   */\n      swap1\n      pop\n        /* \"#utility.yul\":8357:8503   */\n      swap3\n      swap2\n      pop\n      pop\n      jump\t// out\n        /* \"#utility.yul\":8509:8605   */\n    tag_213:\n      0x00\n        /* \"#utility.yul\":8575:8599   */\n      tag_215\n        /* \"#utility.yul\":8593:8598   */\n      dup3\n        /* \"#utility.yul\":8575:8599   */\n      tag_216\n      jump\t// in\n    tag_215:\n        /* \"#utility.yul\":8564:8599   */\n      swap1\n      pop\n        /* \"#utility.yul\":8554:8605   */\n      swap2\n      swap1\n      pop\n      jump\t// out\n        /* \"#utility.yul\":8611:8715   */\n    tag_138:\n      0x00\n        /* \"#utility.yul\":8685:8709   */\n      tag_218\n        /* \"#utility.yul\":8703:8708   */\n      dup3\n        /* \"#utility.yul\":8685:8709   */\n      tag_216\n      jump\t// in\n    tag_218:\n        /* \"#utility.yul\":8674:8709   */\n      swap1\n      pop\n        /* \"#utility.yul\":8664:8715   */\n      swap2\n      swap1\n      pop\n      jump\t// out\n        /* \"#utility.yul\":8721:8848   */\n    tag_219:\n      0x00\n        /* \"#utility.yul\":8795:8800   */\n      dup2\n        /* \"#utility.yul\":8784:8800   */\n      swap1\n      pop\n        /* \"#utility.yul\":8801:8842   */\n      tag_221\n        /* \"#utility.yul\":8836:8841   */\n      dup3\n        /* \"#utility.yul\":8801:8842   */\n      tag_222\n      jump\t// in\n    tag_221:\n        /* \"#utility.yul\":8774:8848   */\n      swap2\n      swap1\n      pop\n      jump\t// out\n        /* \"#utility.yul\":8854:8980   */\n    tag_216:\n      0x00\n        /* \"#utility.yul\":8931:8973   */\n      0xffffffffffffffffffffffffffffffffffffffff\n        /* \"#utility.yul\":8924:8929   */\n      dup3\n        /* \"#utility.yul\":8920:8974   */\n      and\n        /* \"#utility.yul\":8909:8974   */\n      swap1\n      pop\n        /* \"#utility.yul\":8899:8980   */\n      swap2\n      swap1\n      pop\n      jump\t// out\n        /* \"#utility.yul\":8986:9063   */\n    tag_177:\n      0x00\n        /* \"#utility.yul\":9052:9057   */\n      dup2\n        /* \"#utility.yul\":9041:9057   */\n      swap1\n      pop\n        /* \"#utility.yul\":9031:9063   */\n      swap2\n      swap1\n      pop\n      jump\t// out\n        /* \"#utility.yul\":9069:9196   */\n    tag_142:\n      0x00\n        /* \"#utility.yul\":9158:9190   */\n      tag_226\n        /* \"#utility.yul\":9184:9189   */\n      dup3\n        /* \"#utility.yul\":9158:9190   */\n      tag_219\n      jump\t// in\n    tag_226:\n        /* \"#utility.yul\":9145:9190   */\n      swap1\n      pop\n        /* \"#utility.yul\":9135:9196   */\n      swap2\n      swap1\n      pop\n      jump\t// out\n        /* \"#utility.yul\":9202:9509   */\n    tag_150:\n        /* \"#utility.yul\":9270:9271   */\n      0x00\n        /* \"#utility.yul\":9280:9393   */\n    tag_228:\n        /* \"#utility.yul\":9294:9300   */\n      dup4\n        /* \"#utility.yul\":9291:9292   */\n      dup2\n        /* \"#utility.yul\":9288:9301   */\n      lt\n        /* \"#utility.yul\":9280:9393   */\n      iszero\n      tag_230\n      jumpi\n        /* \"#utility.yul\":9379:9380   */\n      dup1\n        /* \"#utility.yul\":9374:9377   */\n      dup3\n        /* \"#utility.yul\":9370:9381   */\n      add\n        /* \"#utility.yul\":9364:9382   */\n      mload\n        /* \"#utility.yul\":9360:9361   */\n      dup2\n        /* \"#utility.yul\":9355:9358   */\n      dup5\n        /* \"#utility.yul\":9351:9362   */\n      add\n        /* \"#utility.yul\":9344:9383   */\n      mstore\n        /* \"#utility.yul\":9316:9318   */\n      0x20\n        /* \"#utility.yul\":9313:9314   */\n      dup2\n        /* \"#utility.yul\":9309:9319   */\n      add\n        /* \"#utility.yul\":9304:9319   */\n      swap1\n      pop\n        /* \"#utility.yul\":9280:9393   */\n      jump(tag_228)\n    tag_230:\n        /* \"#utility.yul\":9411:9417   */\n      dup4\n        /* \"#utility.yul\":9408:9409   */\n      dup2\n        /* \"#utility.yul\":9405:9418   */\n      gt\n        /* \"#utility.yul\":9402:9404   */\n      iszero\n      tag_231\n      jumpi\n        /* \"#utility.yul\":9491:9492   */\n      0x00\n        /* \"#utility.yul\":9482:9488   */\n      dup5\n        /* \"#utility.yul\":9477:9480   */\n      dup5\n        /* \"#utility.yul\":9473:9489   */\n      add\n        /* \"#utility.yul\":9466:9493   */\n      mstore\n        /* \"#utility.yul\":9402:9404   */\n    tag_231:\n        /* \"#utility.yul\":9251:9509   */\n      pop\n      pop\n      pop\n      pop\n      jump\t// out\n        /* \"#utility.yul\":9515:9835   */\n    tag_67:\n      0x00\n        /* \"#utility.yul\":9596:9597   */\n      0x02\n        /* \"#utility.yul\":9590:9594   */\n      dup3\n        /* \"#utility.yul\":9586:9598   */\n      div\n        /* \"#utility.yul\":9576:9598   */\n      swap1\n      pop\n        /* \"#utility.yul\":9643:9644   */\n      0x01\n        /* \"#utility.yul\":9637:9641   */\n      dup3\n        /* \"#utility.yul\":9633:9645   */\n      and\n        /* \"#utility.yul\":9664:9682   */\n      dup1\n        /* \"#utility.yul\":9654:9656   */\n      tag_233\n      jumpi\n        /* \"#utility.yul\":9720:9724   */\n      0x7f\n        /* \"#utility.yul\":9712:9718   */\n      dup3\n        /* \"#utility.yul\":9708:9725   */\n      and\n        /* \"#utility.yul\":9698:9725   */\n      swap2\n      pop\n        /* \"#utility.yul\":9654:9656   */\n    tag_233:\n        /* \"#utility.yul\":9782:9784   */\n      0x20\n        /* \"#utility.yul\":9774:9780   */\n      dup3\n        /* \"#utility.yul\":9771:9785   */\n      lt\n        /* \"#utility.yul\":9751:9769   */\n      dup2\n        /* \"#utility.yul\":9748:9786   */\n      eq\n        /* \"#utility.yul\":9745:9747   */\n      iszero\n      tag_234\n      jumpi\n        /* \"#utility.yul\":9801:9819   */\n      tag_235\n      tag_236\n      jump\t// in\n    tag_235:\n        /* \"#utility.yul\":9745:9747   */\n    tag_234:\n        /* \"#utility.yul\":9566:9835   */\n      pop\n      swap2\n      swap1\n      pop\n      jump\t// out\n        /* \"#utility.yul\":9841:10021   */\n    tag_207:\n        /* \"#utility.yul\":9889:9966   */\n      0x4e487b7100000000000000000000000000000000000000000000000000000000\n        /* \"#utility.yul\":9886:9887   */\n      0x00\n        /* \"#utility.yul\":9879:9967   */\n      mstore\n        /* \"#utility.yul\":9986:9990   */\n      0x11\n        /* \"#utility.yul\":9983:9984   */\n      0x04\n        /* \"#utility.yul\":9976:9991   */\n      mstore\n        /* \"#utility.yul\":10010:10014   */\n      0x24\n        /* \"#utility.yul\":10007:10008   */\n      0x00\n        /* \"#utility.yul\":10000:10015   */\n      revert\n        /* \"#utility.yul\":10027:10207   */\n    tag_238:\n        /* \"#utility.yul\":10075:10152   */\n      0x4e487b7100000000000000000000000000000000000000000000000000000000\n        /* \"#utility.yul\":10072:10073   */\n      0x00\n        /* \"#utility.yul\":10065:10153   */\n      mstore\n        /* \"#utility.yul\":10172:10176   */\n      0x21\n        /* \"#utility.yul\":10169:10170   */\n      0x04\n        /* \"#utility.yul\":10162:10177   */\n      mstore\n        /* \"#utility.yul\":10196:10200   */\n      0x24\n        /* \"#utility.yul\":10193:10194   */\n      0x00\n        /* \"#utility.yul\":10186:10201   */\n      revert\n        /* \"#utility.yul\":10213:10393   */\n    tag_236:\n        /* \"#utility.yul\":10261:10338   */\n      0x4e487b7100000000000000000000000000000000000000000000000000000000\n        /* \"#utility.yul\":10258:10259   */\n      0x00\n        /* \"#utility.yul\":10251:10339   */\n      mstore\n        /* \"#utility.yul\":10358:10362   */\n      0x22\n        /* \"#utility.yul\":10355:10356   */\n      0x04\n        /* \"#utility.yul\":10348:10363   */\n      mstore\n        /* \"#utility.yul\":10382:10386   */\n      0x24\n        /* \"#utility.yul\":10379:10380   */\n      0x00\n        /* \"#utility.yul\":10372:10387   */\n      revert\n        /* \"#utility.yul\":10399:10501   */\n    tag_152:\n      0x00\n        /* \"#utility.yul\":10491:10493   */\n      0x1f\n        /* \"#utility.yul\":10487:10494   */\n      not\n        /* \"#utility.yul\":10482:10484   */\n      0x1f\n        /* \"#utility.yul\":10475:10480   */\n      dup4\n        /* \"#utility.yul\":10471:10485   */\n      add\n        /* \"#utility.yul\":10467:10495   */\n      and\n        /* \"#utility.yul\":10457:10495   */\n      swap1\n      pop\n        /* \"#utility.yul\":10447:10501   */\n      swap2\n      swap1\n      pop\n      jump\t// out\n        /* \"#utility.yul\":10507:10620   */\n    tag_222:\n        /* \"#utility.yul\":10588:10589   */\n      0x04\n        /* \"#utility.yul\":10581:10586   */\n      dup2\n        /* \"#utility.yul\":10578:10590   */\n      lt\n        /* \"#utility.yul\":10568:10570   */\n      tag_243\n      jumpi\n        /* \"#utility.yul\":10594:10612   */\n      tag_244\n      tag_238\n      jump\t// in\n    tag_244:\n        /* \"#utility.yul\":10568:10570   */\n    tag_243:\n        /* \"#utility.yul\":10558:10620   */\n      pop\n      jump\t// out\n        /* \"#utility.yul\":10626:10748   */\n    tag_131:\n        /* \"#utility.yul\":10699:10723   */\n      tag_246\n        /* \"#utility.yul\":10717:10722   */\n      dup2\n        /* \"#utility.yul\":10699:10723   */\n      tag_213\n      jump\t// in\n    tag_246:\n        /* \"#utility.yul\":10692:10697   */\n      dup2\n        /* \"#utility.yul\":10689:10724   */\n      eq\n        /* \"#utility.yul\":10679:10681   */\n      tag_247\n      jumpi\n        /* \"#utility.yul\":10738:10739   */\n      0x00\n        /* \"#utility.yul\":10735:10736   */\n      dup1\n        /* \"#utility.yul\":10728:10740   */\n      revert\n        /* \"#utility.yul\":10679:10681   */\n    tag_247:\n        /* \"#utility.yul\":10669:10748   */\n      pop\n      jump\t// out\n\n    auxdata: 0xa264697066735822122090adfcf909d9e2c5b385532acdb6d1fec95e78d5d7c7bff2edc5f48d6dc7bf1464736f6c63430008000033\n}\n",
				"bytecode": {
					"linkReferences": {},
					"object": "60806040523480156200001157600080fd5b5060405162001766380380620017668339818101604052810190620000379190620001ec565b806000806101000a81548173ffffffffffffffffffffffffffffffffffffffff021916908373ffffffffffffffffffffffffffffffffffffffff1602179055506001600460006101000a81548160ff02191690836003811115620000c4577f4e487b7100000000000000000000000000000000000000000000000000000000600052602160045260246000fd5b0217905550436001819055506004600154620000e1919062000218565b60028190555060405180602001604052806000815250600390805190602001906200010e92919062000125565b50670de0b6b3a76400006008819055505062000361565b8280546200013390620002b3565b90600052602060002090601f016020900481019282620001575760008555620001a3565b82601f106200017257805160ff1916838001178555620001a3565b82800160010185558215620001a3579182015b82811115620001a257825182559160200191906001019062000185565b5b509050620001b29190620001b6565b5090565b5b80821115620001d1576000816000905550600101620001b7565b5090565b600081519050620001e68162000347565b92915050565b600060208284031215620001ff57600080fd5b60006200020f84828501620001d5565b91505092915050565b60006200022582620002a9565b91506200023283620002a9565b9250827fffffffffffffffffffffffffffffffffffffffffffffffffffffffffffffffff038211156200026a5762000269620002e9565b5b828201905092915050565b6000620002828262000289565b9050919050565b600073ffffffffffffffffffffffffffffffffffffffff82169050919050565b6000819050919050565b60006002820490506001821680620002cc57607f821691505b60208210811415620002e357620002e262000318565b5b50919050565b7f4e487b7100000000000000000000000000000000000000000000000000000000600052601160045260246000fd5b7f4e487b7100000000000000000000000000000000000000000000000000000000600052602260045260246000fd5b620003528162000275565b81146200035e57600080fd5b50565b6113f580620003716000396000f3fe60806040526004361061009c5760003560e01c80638fa8b790116100645780638fa8b7901461018a57806391f90157146101a1578063c623674f146101cc578063ecfc7ecc146101f7578063f5b56c5614610201578063f77282ab1461022c5761009c565b8063083c6323146100a157806348cd4cb1146100cc57806362ea82db146100f75780637fb45099146101345780638da5cb5b1461015f575b600080fd5b3480156100ad57600080fd5b506100b6610243565b6040516100c3919061115d565b60405180910390f35b3480156100d857600080fd5b506100e1610249565b6040516100ee919061115d565b60405180910390f35b34801561010357600080fd5b5061011e60048036038101906101199190610d64565b61024f565b60405161012b919061115d565b60405180910390f35b34801561014057600080fd5b50610149610267565b6040516101569190611040565b60405180910390f35b34801561016b57600080fd5b5061017461027a565b6040516101819190611025565b60405180910390f35b34801561019657600080fd5b5061019f61029e565b005b3480156101ad57600080fd5b506101b661037f565b6040516101c39190611025565b60405180910390f35b3480156101d857600080fd5b506101e16103a5565b6040516101ee919061105b565b60405180910390f35b6101ff610433565b005b34801561020d57600080fd5b506102166108a1565b604051610223919061115d565b60405180910390f35b34801561023857600080fd5b506102416108a7565b005b60025481565b60015481565b60076020528060005260406000206000915090505481565b600460009054906101000a900460ff1681565b60008054906101000a900473ffffffffffffffffffffffffffffffffffffffff1681565b3373ffffffffffffffffffffffffffffffffffffffff1660008054906101000a900473ffffffffffffffffffffffffffffffffffffffff1673ffffffffffffffffffffffffffffffffffffffff161461032c576040517f08c379a00000000000000000000000000000000000000000000000000000000081526004016103239061109d565b60405180910390fd5b6003600460006101000a81548160ff02191690836003811115610378577f4e487b7100000000000000000000000000000000000000000000000000000000600052602160045260246000fd5b0217905550565b600660009054906101000a900473ffffffffffffffffffffffffffffffffffffffff1681565b600380546103b2906112c4565b80601f01602080910402602001604051908101604052809291908181526020018280546103de906112c4565b801561042b5780601f106104005761010080835404028352916020019161042b565b820191906000526020600020905b81548152906001019060200180831161040e57829003601f168201915b505050505081565b60008054906101000a900473ffffffffffffffffffffffffffffffffffffffff1673ffffffffffffffffffffffffffffffffffffffff163373ffffffffffffffffffffffffffffffffffffffff1614156104c2576040517f08c379a00000000000000000000000000000000000000000000000000000000081526004016104b99061107d565b60405180910390fd5b600154431015610507576040517f08c379a00000000000000000000000000000000000000000000000000000000081526004016104fe906110dd565b60405180910390fd5b60025443111561051657600080fd5b60016003811115610550577f4e487b7100000000000000000000000000000000000000000000000000000000600052602160045260246000fd5b600460009054906101000a900460ff166003811115610598577f4e487b7100000000000000000000000000000000000000000000000000000000600052602160045260246000fd5b146105d8576040517f08c379a00000000000000000000000000000000000000000000000000000000081526004016105cf906110bd565b60405180910390fd5b606434101561061c576040517f08c379a00000000000000000000000000000000000000000000000000000000081526004016106139061111d565b60405180910390fd5b600034600760003373ffffffffffffffffffffffffffffffffffffffff1673ffffffffffffffffffffffffffffffffffffffff168152602001908152602001600020546106699190611194565b905060055481116106af576040517f08c379a00000000000000000000000000000000000000000000000000000000081526004016106a69061113d565b60405180910390fd5b80600760003373ffffffffffffffffffffffffffffffffffffffff1673ffffffffffffffffffffffffffffffffffffffff1681526020019081526020016000208190555060076000600660009054906101000a900473ffffffffffffffffffffffffffffffffffffffff1673ffffffffffffffffffffffffffffffffffffffff1673ffffffffffffffffffffffffffffffffffffffff1681526020019081526020016000205481116107de576107d36008548261076c9190611194565b60076000600660009054906101000a900473ffffffffffffffffffffffffffffffffffffffff1673ffffffffffffffffffffffffffffffffffffffff1673ffffffffffffffffffffffffffffffffffffffff16815260200190815260200160002054610d34565b60058190555061089e565b6108568160085460076000600660009054906101000a900473ffffffffffffffffffffffffffffffffffffffff1673ffffffffffffffffffffffffffffffffffffffff1673ffffffffffffffffffffffffffffffffffffffff168152602001908152602001600020546108519190611194565b610d34565b60058190555033600660006101000a81548173ffffffffffffffffffffffffffffffffffffffff021916908373ffffffffffffffffffffffffffffffffffffffff1602179055505b50565b60055481565b6003808111156108e0577f4e487b7100000000000000000000000000000000000000000000000000000000600052602160045260246000fd5b600460009054906101000a900460ff166003811115610928577f4e487b7100000000000000000000000000000000000000000000000000000000600052602160045260246000fd5b1480610935575060025443115b61093e57600080fd5b60008054906101000a900473ffffffffffffffffffffffffffffffffffffffff1673ffffffffffffffffffffffffffffffffffffffff163373ffffffffffffffffffffffffffffffffffffffff1614806109d757506000600760003373ffffffffffffffffffffffffffffffffffffffff1673ffffffffffffffffffffffffffffffffffffffff16815260200190815260200160002054115b610a16576040517f08c379a0000000000000000000000000000000000000000000000000000000008152600401610a0d906110fd565b60405180910390fd5b600080600380811115610a52577f4e487b7100000000000000000000000000000000000000000000000000000000600052602160045260246000fd5b600460009054906101000a900460ff166003811115610a9a577f4e487b7100000000000000000000000000000000000000000000000000000000600052602160045260246000fd5b1415610aea57339150600760003373ffffffffffffffffffffffffffffffffffffffff1673ffffffffffffffffffffffffffffffffffffffff168152602001908152602001600020549050610ca4565b60008054906101000a900473ffffffffffffffffffffffffffffffffffffffff1673ffffffffffffffffffffffffffffffffffffffff163373ffffffffffffffffffffffffffffffffffffffff161415610b6b5760008054906101000a900473ffffffffffffffffffffffffffffffffffffffff1691506005549050610ca3565b600660009054906101000a900473ffffffffffffffffffffffffffffffffffffffff1673ffffffffffffffffffffffffffffffffffffffff163373ffffffffffffffffffffffffffffffffffffffff161415610c5c57600660009054906101000a900473ffffffffffffffffffffffffffffffffffffffff16915060055460076000600660009054906101000a900473ffffffffffffffffffffffffffffffffffffffff1673ffffffffffffffffffffffffffffffffffffffff1673ffffffffffffffffffffffffffffffffffffffff16815260200190815260200160002054610c5591906111ea565b9050610ca2565b339150600760003373ffffffffffffffffffffffffffffffffffffffff1673ffffffffffffffffffffffffffffffffffffffff1681526020019081526020016000205490505b5b5b6000600760008473ffffffffffffffffffffffffffffffffffffffff1673ffffffffffffffffffffffffffffffffffffffff168152602001908152602001600020819055508173ffffffffffffffffffffffffffffffffffffffff166108fc829081150290604051600060405180830381858888f19350505050158015610d2f573d6000803e3d6000fd5b505050565b6000818311610d4557829050610d49565b8190505b92915050565b600081359050610d5e816113a8565b92915050565b600060208284031215610d7657600080fd5b6000610d8484828501610d4f565b91505092915050565b610d9681611230565b82525050565b610da58161127f565b82525050565b6000610db682611178565b610dc08185611183565b9350610dd0818560208601611291565b610dd981611383565b840191505092915050565b6000610df1601a83611183565b91507f4f776e65722063616e6e6f7420706c61636520746865206269640000000000006000830152602082019050919050565b6000610e31603383611183565b91507f596f752061726520746865206f776e65722e20796f752063616e6e6f7420706560008301527f72666f726d207468697320616374696f6e732e000000000000000000000000006020830152604082019050919050565b6000610e97601e83611183565b91507f41756374696f6e206973206e6f7420696e2072756e6e696720737461746500006000830152602082019050919050565b6000610ed7601783611183565b91507f49747320737461727465642061667465722073746172740000000000000000006000830152602082019050919050565b6000610f17602d83611183565b91507f596f7520617265206e6f7420746865206f776e6572206f7220796f757220626960008301527f6420616d6f756e742069732030000000000000000000000000000000000000006020830152604082019050919050565b6000610f7d602083611183565b91507f6d696e696d756d20616d6f756e742073686f756c6420626520313030207765696000830152602082019050919050565b6000610fbd603383611183565b91507f42696420616d6f756e742073686f756c6420626520677265617465722074686160008301527f6e206869676865737442696e64696e67426964000000000000000000000000006020830152604082019050919050565b61101f81611275565b82525050565b600060208201905061103a6000830184610d8d565b92915050565b60006020820190506110556000830184610d9c565b92915050565b600060208201905081810360008301526110758184610dab565b905092915050565b6000602082019050818103600083015261109681610de4565b9050919050565b600060208201905081810360008301526110b681610e24565b9050919050565b600060208201905081810360008301526110d681610e8a565b9050919050565b600060208201905081810360008301526110f681610eca565b9050919050565b6000602082019050818103600083015261111681610f0a565b9050919050565b6000602082019050818103600083015261113681610f70565b9050919050565b6000602082019050818103600083015261115681610fb0565b9050919050565b60006020820190506111726000830184611016565b92915050565b600081519050919050565b600082825260208201905092915050565b600061119f82611275565b91506111aa83611275565b9250827fffffffffffffffffffffffffffffffffffffffffffffffffffffffffffffffff038211156111df576111de6112f6565b5b828201905092915050565b60006111f582611275565b915061120083611275565b925082821015611213576112126112f6565b5b828203905092915050565b600061122982611255565b9050919050565b600061123b82611255565b9050919050565b600081905061125082611394565b919050565b600073ffffffffffffffffffffffffffffffffffffffff82169050919050565b6000819050919050565b600061128a82611242565b9050919050565b60005b838110156112af578082015181840152602081019050611294565b838111156112be576000848401525b50505050565b600060028204905060018216806112dc57607f821691505b602082108114156112f0576112ef611354565b5b50919050565b7f4e487b7100000000000000000000000000000000000000000000000000000000600052601160045260246000fd5b7f4e487b7100000000000000000000000000000000000000000000000000000000600052602160045260246000fd5b7f4e487b7100000000000000000000000000000000000000000000000000000000600052602260045260246000fd5b6000601f19601f8301169050919050565b600481106113a5576113a4611325565b5b50565b6113b18161121e565b81146113bc57600080fd5b5056fea264697066735822122090adfcf909d9e2c5b385532acdb6d1fec95e78d5d7c7bff2edc5f48d6dc7bf1464736f6c63430008000033",
					"opcodes": "PUSH1 0x80 PUSH1 0x40 MSTORE CALLVALUE DUP1 ISZERO PUSH3 0x11 JUMPI PUSH1 0x0 DUP1 REVERT JUMPDEST POP PUSH1 0x40 MLOAD PUSH3 0x1766 CODESIZE SUB DUP1 PUSH3 0x1766 DUP4 CODECOPY DUP2 DUP2 ADD PUSH1 0x40 MSTORE DUP2 ADD SWAP1 PUSH3 0x37 SWAP2 SWAP1 PUSH3 0x1EC JUMP JUMPDEST DUP1 PUSH1 0x0 DUP1 PUSH2 0x100 EXP DUP2 SLOAD DUP2 PUSH20 0xFFFFFFFFFFFFFFFFFFFFFFFFFFFFFFFFFFFFFFFF MUL NOT AND SWAP1 DUP4 PUSH20 0xFFFFFFFFFFFFFFFFFFFFFFFFFFFFFFFFFFFFFFFF AND MUL OR SWAP1 SSTORE POP PUSH1 0x1 PUSH1 0x4 PUSH1 0x0 PUSH2 0x100 EXP DUP2 SLOAD DUP2 PUSH1 0xFF MUL NOT AND SWAP1 DUP4 PUSH1 0x3 DUP2 GT ISZERO PUSH3 0xC4 JUMPI PUSH32 0x4E487B7100000000000000000000000000000000000000000000000000000000 PUSH1 0x0 MSTORE PUSH1 0x21 PUSH1 0x4 MSTORE PUSH1 0x24 PUSH1 0x0 REVERT JUMPDEST MUL OR SWAP1 SSTORE POP NUMBER PUSH1 0x1 DUP2 SWAP1 SSTORE POP PUSH1 0x4 PUSH1 0x1 SLOAD PUSH3 0xE1 SWAP2 SWAP1 PUSH3 0x218 JUMP JUMPDEST PUSH1 0x2 DUP2 SWAP1 SSTORE POP PUSH1 0x40 MLOAD DUP1 PUSH1 0x20 ADD PUSH1 0x40 MSTORE DUP1 PUSH1 0x0 DUP2 MSTORE POP PUSH1 0x3 SWAP1 DUP1 MLOAD SWAP1 PUSH1 0x20 ADD SWAP1 PUSH3 0x10E SWAP3 SWAP2 SWAP1 PUSH3 0x125 JUMP JUMPDEST POP PUSH8 0xDE0B6B3A7640000 PUSH1 0x8 DUP2 SWAP1 SSTORE POP POP PUSH3 0x361 JUMP JUMPDEST DUP3 DUP1 SLOAD PUSH3 0x133 SWAP1 PUSH3 0x2B3 JUMP JUMPDEST SWAP1 PUSH1 0x0 MSTORE PUSH1 0x20 PUSH1 0x0 KECCAK256 SWAP1 PUSH1 0x1F ADD PUSH1 0x20 SWAP1 DIV DUP2 ADD SWAP3 DUP3 PUSH3 0x157 JUMPI PUSH1 0x0 DUP6 SSTORE PUSH3 0x1A3 JUMP JUMPDEST DUP3 PUSH1 0x1F LT PUSH3 0x172 JUMPI DUP1 MLOAD PUSH1 0xFF NOT AND DUP4 DUP1 ADD OR DUP6 SSTORE PUSH3 0x1A3 JUMP JUMPDEST DUP3 DUP1 ADD PUSH1 0x1 ADD DUP6 SSTORE DUP3 ISZERO PUSH3 0x1A3 JUMPI SWAP2 DUP3 ADD JUMPDEST DUP3 DUP2 GT ISZERO PUSH3 0x1A2 JUMPI DUP3 MLOAD DUP3 SSTORE SWAP2 PUSH1 0x20 ADD SWAP2 SWAP1 PUSH1 0x1 ADD SWAP1 PUSH3 0x185 JUMP JUMPDEST JUMPDEST POP SWAP1 POP PUSH3 0x1B2 SWAP2 SWAP1 PUSH3 0x1B6 JUMP JUMPDEST POP SWAP1 JUMP JUMPDEST JUMPDEST DUP1 DUP3 GT ISZERO PUSH3 0x1D1 JUMPI PUSH1 0x0 DUP2 PUSH1 0x0 SWAP1 SSTORE POP PUSH1 0x1 ADD PUSH3 0x1B7 JUMP JUMPDEST POP SWAP1 JUMP JUMPDEST PUSH1 0x0 DUP2 MLOAD SWAP1 POP PUSH3 0x1E6 DUP2 PUSH3 0x347 JUMP JUMPDEST SWAP3 SWAP2 POP POP JUMP JUMPDEST PUSH1 0x0 PUSH1 0x20 DUP3 DUP5 SUB SLT ISZERO PUSH3 0x1FF JUMPI PUSH1 0x0 DUP1 REVERT JUMPDEST PUSH1 0x0 PUSH3 0x20F DUP5 DUP3 DUP6 ADD PUSH3 0x1D5 JUMP JUMPDEST SWAP2 POP POP SWAP3 SWAP2 POP POP JUMP JUMPDEST PUSH1 0x0 PUSH3 0x225 DUP3 PUSH3 0x2A9 JUMP JUMPDEST SWAP2 POP PUSH3 0x232 DUP4 PUSH3 0x2A9 JUMP JUMPDEST SWAP3 POP DUP3 PUSH32 0xFFFFFFFFFFFFFFFFFFFFFFFFFFFFFFFFFFFFFFFFFFFFFFFFFFFFFFFFFFFFFFFF SUB DUP3 GT ISZERO PUSH3 0x26A JUMPI PUSH3 0x269 PUSH3 0x2E9 JUMP JUMPDEST JUMPDEST DUP3 DUP3 ADD SWAP1 POP SWAP3 SWAP2 POP POP JUMP JUMPDEST PUSH1 0x0 PUSH3 0x282 DUP3 PUSH3 0x289 JUMP JUMPDEST SWAP1 POP SWAP2 SWAP1 POP JUMP JUMPDEST PUSH1 0x0 PUSH20 0xFFFFFFFFFFFFFFFFFFFFFFFFFFFFFFFFFFFFFFFF DUP3 AND SWAP1 POP SWAP2 SWAP1 POP JUMP JUMPDEST PUSH1 0x0 DUP2 SWAP1 POP SWAP2 SWAP1 POP JUMP JUMPDEST PUSH1 0x0 PUSH1 0x2 DUP3 DIV SWAP1 POP PUSH1 0x1 DUP3 AND DUP1 PUSH3 0x2CC JUMPI PUSH1 0x7F DUP3 AND SWAP2 POP JUMPDEST PUSH1 0x20 DUP3 LT DUP2 EQ ISZERO PUSH3 0x2E3 JUMPI PUSH3 0x2E2 PUSH3 0x318 JUMP JUMPDEST JUMPDEST POP SWAP2 SWAP1 POP JUMP JUMPDEST PUSH32 0x4E487B7100000000000000000000000000000000000000000000000000000000 PUSH1 0x0 MSTORE PUSH1 0x11 PUSH1 0x4 MSTORE PUSH1 0x24 PUSH1 0x0 REVERT JUMPDEST PUSH32 0x4E487B7100000000000000000000000000000000000000000000000000000000 PUSH1 0x0 MSTORE PUSH1 0x22 PUSH1 0x4 MSTORE PUSH1 0x24 PUSH1 0x0 REVERT JUMPDEST PUSH3 0x352 DUP2 PUSH3 0x275 JUMP JUMPDEST DUP2 EQ PUSH3 0x35E JUMPI PUSH1 0x0 DUP1 REVERT JUMPDEST POP JUMP JUMPDEST PUSH2 0x13F5 DUP1 PUSH3 0x371 PUSH1 0x0 CODECOPY PUSH1 0x0 RETURN INVALID PUSH1 0x80 PUSH1 0x40 MSTORE PUSH1 0x4 CALLDATASIZE LT PUSH2 0x9C JUMPI PUSH1 0x0 CALLDATALOAD PUSH1 0xE0 SHR DUP1 PUSH4 0x8FA8B790 GT PUSH2 0x64 JUMPI DUP1 PUSH4 0x8FA8B790 EQ PUSH2 0x18A JUMPI DUP1 PUSH4 0x91F90157 EQ PUSH2 0x1A1 JUMPI DUP1 PUSH4 0xC623674F EQ PUSH2 0x1CC JUMPI DUP1 PUSH4 0xECFC7ECC EQ PUSH2 0x1F7 JUMPI DUP1 PUSH4 0xF5B56C56 EQ PUSH2 0x201 JUMPI DUP1 PUSH4 0xF77282AB EQ PUSH2 0x22C JUMPI PUSH2 0x9C JUMP JUMPDEST DUP1 PUSH4 0x83C6323 EQ PUSH2 0xA1 JUMPI DUP1 PUSH4 0x48CD4CB1 EQ PUSH2 0xCC JUMPI DUP1 PUSH4 0x62EA82DB EQ PUSH2 0xF7 JUMPI DUP1 PUSH4 0x7FB45099 EQ PUSH2 0x134 JUMPI DUP1 PUSH4 0x8DA5CB5B EQ PUSH2 0x15F JUMPI JUMPDEST PUSH1 0x0 DUP1 REVERT JUMPDEST CALLVALUE DUP1 ISZERO PUSH2 0xAD JUMPI PUSH1 0x0 DUP1 REVERT JUMPDEST POP PUSH2 0xB6 PUSH2 0x243 JUMP JUMPDEST PUSH1 0x40 MLOAD PUSH2 0xC3 SWAP2 SWAP1 PUSH2 0x115D JUMP JUMPDEST PUSH1 0x40 MLOAD DUP1 SWAP2 SUB SWAP1 RETURN JUMPDEST CALLVALUE DUP1 ISZERO PUSH2 0xD8 JUMPI PUSH1 0x0 DUP1 REVERT JUMPDEST POP PUSH2 0xE1 PUSH2 0x249 JUMP JUMPDEST PUSH1 0x40 MLOAD PUSH2 0xEE SWAP2 SWAP1 PUSH2 0x115D JUMP JUMPDEST PUSH1 0x40 MLOAD DUP1 SWAP2 SUB SWAP1 RETURN JUMPDEST CALLVALUE DUP1 ISZERO PUSH2 0x103 JUMPI PUSH1 0x0 DUP1 REVERT JUMPDEST POP PUSH2 0x11E PUSH1 0x4 DUP1 CALLDATASIZE SUB DUP2 ADD SWAP1 PUSH2 0x119 SWAP2 SWAP1 PUSH2 0xD64 JUMP JUMPDEST PUSH2 0x24F JUMP JUMPDEST PUSH1 0x40 MLOAD PUSH2 0x12B SWAP2 SWAP1 PUSH2 0x115D JUMP JUMPDEST PUSH1 0x40 MLOAD DUP1 SWAP2 SUB SWAP1 RETURN JUMPDEST CALLVALUE DUP1 ISZERO PUSH2 0x140 JUMPI PUSH1 0x0 DUP1 REVERT JUMPDEST POP PUSH2 0x149 PUSH2 0x267 JUMP JUMPDEST PUSH1 0x40 MLOAD PUSH2 0x156 SWAP2 SWAP1 PUSH2 0x1040 JUMP JUMPDEST PUSH1 0x40 MLOAD DUP1 SWAP2 SUB SWAP1 RETURN JUMPDEST CALLVALUE DUP1 ISZERO PUSH2 0x16B JUMPI PUSH1 0x0 DUP1 REVERT JUMPDEST POP PUSH2 0x174 PUSH2 0x27A JUMP JUMPDEST PUSH1 0x40 MLOAD PUSH2 0x181 SWAP2 SWAP1 PUSH2 0x1025 JUMP JUMPDEST PUSH1 0x40 MLOAD DUP1 SWAP2 SUB SWAP1 RETURN JUMPDEST CALLVALUE DUP1 ISZERO PUSH2 0x196 JUMPI PUSH1 0x0 DUP1 REVERT JUMPDEST POP PUSH2 0x19F PUSH2 0x29E JUMP JUMPDEST STOP JUMPDEST CALLVALUE DUP1 ISZERO PUSH2 0x1AD JUMPI PUSH1 0x0 DUP1 REVERT JUMPDEST POP PUSH2 0x1B6 PUSH2 0x37F JUMP JUMPDEST PUSH1 0x40 MLOAD PUSH2 0x1C3 SWAP2 SWAP1 PUSH2 0x1025 JUMP JUMPDEST PUSH1 0x40 MLOAD DUP1 SWAP2 SUB SWAP1 RETURN JUMPDEST CALLVALUE DUP1 ISZERO PUSH2 0x1D8 JUMPI PUSH1 0x0 DUP1 REVERT JUMPDEST POP PUSH2 0x1E1 PUSH2 0x3A5 JUMP JUMPDEST PUSH1 0x40 MLOAD PUSH2 0x1EE SWAP2 SWAP1 PUSH2 0x105B JUMP JUMPDEST PUSH1 0x40 MLOAD DUP1 SWAP2 SUB SWAP1 RETURN JUMPDEST PUSH2 0x1FF PUSH2 0x433 JUMP JUMPDEST STOP JUMPDEST CALLVALUE DUP1 ISZERO PUSH2 0x20D JUMPI PUSH1 0x0 DUP1 REVERT JUMPDEST POP PUSH2 0x216 PUSH2 0x8A1 JUMP JUMPDEST PUSH1 0x40 MLOAD PUSH2 0x223 SWAP2 SWAP1 PUSH2 0x115D JUMP JUMPDEST PUSH1 0x40 MLOAD DUP1 SWAP2 SUB SWAP1 RETURN JUMPDEST CALLVALUE DUP1 ISZERO PUSH2 0x238 JUMPI PUSH1 0x0 DUP1 REVERT JUMPDEST POP PUSH2 0x241 PUSH2 0x8A7 JUMP JUMPDEST STOP JUMPDEST PUSH1 0x2 SLOAD DUP2 JUMP JUMPDEST PUSH1 0x1 SLOAD DUP2 JUMP JUMPDEST PUSH1 0x7 PUSH1 0x20 MSTORE DUP1 PUSH1 0x0 MSTORE PUSH1 0x40 PUSH1 0x0 KECCAK256 PUSH1 0x0 SWAP2 POP SWAP1 POP SLOAD DUP2 JUMP JUMPDEST PUSH1 0x4 PUSH1 0x0 SWAP1 SLOAD SWAP1 PUSH2 0x100 EXP SWAP1 DIV PUSH1 0xFF AND DUP2 JUMP JUMPDEST PUSH1 0x0 DUP1 SLOAD SWAP1 PUSH2 0x100 EXP SWAP1 DIV PUSH20 0xFFFFFFFFFFFFFFFFFFFFFFFFFFFFFFFFFFFFFFFF AND DUP2 JUMP JUMPDEST CALLER PUSH20 0xFFFFFFFFFFFFFFFFFFFFFFFFFFFFFFFFFFFFFFFF AND PUSH1 0x0 DUP1 SLOAD SWAP1 PUSH2 0x100 EXP SWAP1 DIV PUSH20 0xFFFFFFFFFFFFFFFFFFFFFFFFFFFFFFFFFFFFFFFF AND PUSH20 0xFFFFFFFFFFFFFFFFFFFFFFFFFFFFFFFFFFFFFFFF AND EQ PUSH2 0x32C JUMPI PUSH1 0x40 MLOAD PUSH32 0x8C379A000000000000000000000000000000000000000000000000000000000 DUP2 MSTORE PUSH1 0x4 ADD PUSH2 0x323 SWAP1 PUSH2 0x109D JUMP JUMPDEST PUSH1 0x40 MLOAD DUP1 SWAP2 SUB SWAP1 REVERT JUMPDEST PUSH1 0x3 PUSH1 0x4 PUSH1 0x0 PUSH2 0x100 EXP DUP2 SLOAD DUP2 PUSH1 0xFF MUL NOT AND SWAP1 DUP4 PUSH1 0x3 DUP2 GT ISZERO PUSH2 0x378 JUMPI PUSH32 0x4E487B7100000000000000000000000000000000000000000000000000000000 PUSH1 0x0 MSTORE PUSH1 0x21 PUSH1 0x4 MSTORE PUSH1 0x24 PUSH1 0x0 REVERT JUMPDEST MUL OR SWAP1 SSTORE POP JUMP JUMPDEST PUSH1 0x6 PUSH1 0x0 SWAP1 SLOAD SWAP1 PUSH2 0x100 EXP SWAP1 DIV PUSH20 0xFFFFFFFFFFFFFFFFFFFFFFFFFFFFFFFFFFFFFFFF AND DUP2 JUMP JUMPDEST PUSH1 0x3 DUP1 SLOAD PUSH2 0x3B2 SWAP1 PUSH2 0x12C4 JUMP JUMPDEST DUP1 PUSH1 0x1F ADD PUSH1 0x20 DUP1 SWAP2 DIV MUL PUSH1 0x20 ADD PUSH1 0x40 MLOAD SWAP1 DUP2 ADD PUSH1 0x40 MSTORE DUP1 SWAP3 SWAP2 SWAP1 DUP2 DUP2 MSTORE PUSH1 0x20 ADD DUP3 DUP1 SLOAD PUSH2 0x3DE SWAP1 PUSH2 0x12C4 JUMP JUMPDEST DUP1 ISZERO PUSH2 0x42B JUMPI DUP1 PUSH1 0x1F LT PUSH2 0x400 JUMPI PUSH2 0x100 DUP1 DUP4 SLOAD DIV MUL DUP4 MSTORE SWAP2 PUSH1 0x20 ADD SWAP2 PUSH2 0x42B JUMP JUMPDEST DUP3 ADD SWAP2 SWAP1 PUSH1 0x0 MSTORE PUSH1 0x20 PUSH1 0x0 KECCAK256 SWAP1 JUMPDEST DUP2 SLOAD DUP2 MSTORE SWAP1 PUSH1 0x1 ADD SWAP1 PUSH1 0x20 ADD DUP1 DUP4 GT PUSH2 0x40E JUMPI DUP3 SWAP1 SUB PUSH1 0x1F AND DUP3 ADD SWAP2 JUMPDEST POP POP POP POP POP DUP2 JUMP JUMPDEST PUSH1 0x0 DUP1 SLOAD SWAP1 PUSH2 0x100 EXP SWAP1 DIV PUSH20 0xFFFFFFFFFFFFFFFFFFFFFFFFFFFFFFFFFFFFFFFF AND PUSH20 0xFFFFFFFFFFFFFFFFFFFFFFFFFFFFFFFFFFFFFFFF AND CALLER PUSH20 0xFFFFFFFFFFFFFFFFFFFFFFFFFFFFFFFFFFFFFFFF AND EQ ISZERO PUSH2 0x4C2 JUMPI PUSH1 0x40 MLOAD PUSH32 0x8C379A000000000000000000000000000000000000000000000000000000000 DUP2 MSTORE PUSH1 0x4 ADD PUSH2 0x4B9 SWAP1 PUSH2 0x107D JUMP JUMPDEST PUSH1 0x40 MLOAD DUP1 SWAP2 SUB SWAP1 REVERT JUMPDEST PUSH1 0x1 SLOAD NUMBER LT ISZERO PUSH2 0x507 JUMPI PUSH1 0x40 MLOAD PUSH32 0x8C379A000000000000000000000000000000000000000000000000000000000 DUP2 MSTORE PUSH1 0x4 ADD PUSH2 0x4FE SWAP1 PUSH2 0x10DD JUMP JUMPDEST PUSH1 0x40 MLOAD DUP1 SWAP2 SUB SWAP1 REVERT JUMPDEST PUSH1 0x2 SLOAD NUMBER GT ISZERO PUSH2 0x516 JUMPI PUSH1 0x0 DUP1 REVERT JUMPDEST PUSH1 0x1 PUSH1 0x3 DUP2 GT ISZERO PUSH2 0x550 JUMPI PUSH32 0x4E487B7100000000000000000000000000000000000000000000000000000000 PUSH1 0x0 MSTORE PUSH1 0x21 PUSH1 0x4 MSTORE PUSH1 0x24 PUSH1 0x0 REVERT JUMPDEST PUSH1 0x4 PUSH1 0x0 SWAP1 SLOAD SWAP1 PUSH2 0x100 EXP SWAP1 DIV PUSH1 0xFF AND PUSH1 0x3 DUP2 GT ISZERO PUSH2 0x598 JUMPI PUSH32 0x4E487B7100000000000000000000000000000000000000000000000000000000 PUSH1 0x0 MSTORE PUSH1 0x21 PUSH1 0x4 MSTORE PUSH1 0x24 PUSH1 0x0 REVERT JUMPDEST EQ PUSH2 0x5D8 JUMPI PUSH1 0x40 MLOAD PUSH32 0x8C379A000000000000000000000000000000000000000000000000000000000 DUP2 MSTORE PUSH1 0x4 ADD PUSH2 0x5CF SWAP1 PUSH2 0x10BD JUMP JUMPDEST PUSH1 0x40 MLOAD DUP1 SWAP2 SUB SWAP1 REVERT JUMPDEST PUSH1 0x64 CALLVALUE LT ISZERO PUSH2 0x61C JUMPI PUSH1 0x40 MLOAD PUSH32 0x8C379A000000000000000000000000000000000000000000000000000000000 DUP2 MSTORE PUSH1 0x4 ADD PUSH2 0x613 SWAP1 PUSH2 0x111D JUMP JUMPDEST PUSH1 0x40 MLOAD DUP1 SWAP2 SUB SWAP1 REVERT JUMPDEST PUSH1 0x0 CALLVALUE PUSH1 0x7 PUSH1 0x0 CALLER PUSH20 0xFFFFFFFFFFFFFFFFFFFFFFFFFFFFFFFFFFFFFFFF AND PUSH20 0xFFFFFFFFFFFFFFFFFFFFFFFFFFFFFFFFFFFFFFFF AND DUP2 MSTORE PUSH1 0x20 ADD SWAP1 DUP2 MSTORE PUSH1 0x20 ADD PUSH1 0x0 KECCAK256 SLOAD PUSH2 0x669 SWAP2 SWAP1 PUSH2 0x1194 JUMP JUMPDEST SWAP1 POP PUSH1 0x5 SLOAD DUP2 GT PUSH2 0x6AF JUMPI PUSH1 0x40 MLOAD PUSH32 0x8C379A000000000000000000000000000000000000000000000000000000000 DUP2 MSTORE PUSH1 0x4 ADD PUSH2 0x6A6 SWAP1 PUSH2 0x113D JUMP JUMPDEST PUSH1 0x40 MLOAD DUP1 SWAP2 SUB SWAP1 REVERT JUMPDEST DUP1 PUSH1 0x7 PUSH1 0x0 CALLER PUSH20 0xFFFFFFFFFFFFFFFFFFFFFFFFFFFFFFFFFFFFFFFF AND PUSH20 0xFFFFFFFFFFFFFFFFFFFFFFFFFFFFFFFFFFFFFFFF AND DUP2 MSTORE PUSH1 0x20 ADD SWAP1 DUP2 MSTORE PUSH1 0x20 ADD PUSH1 0x0 KECCAK256 DUP2 SWAP1 SSTORE POP PUSH1 0x7 PUSH1 0x0 PUSH1 0x6 PUSH1 0x0 SWAP1 SLOAD SWAP1 PUSH2 0x100 EXP SWAP1 DIV PUSH20 0xFFFFFFFFFFFFFFFFFFFFFFFFFFFFFFFFFFFFFFFF AND PUSH20 0xFFFFFFFFFFFFFFFFFFFFFFFFFFFFFFFFFFFFFFFF AND PUSH20 0xFFFFFFFFFFFFFFFFFFFFFFFFFFFFFFFFFFFFFFFF AND DUP2 MSTORE PUSH1 0x20 ADD SWAP1 DUP2 MSTORE PUSH1 0x20 ADD PUSH1 0x0 KECCAK256 SLOAD DUP2 GT PUSH2 0x7DE JUMPI PUSH2 0x7D3 PUSH1 0x8 SLOAD DUP3 PUSH2 0x76C SWAP2 SWAP1 PUSH2 0x1194 JUMP JUMPDEST PUSH1 0x7 PUSH1 0x0 PUSH1 0x6 PUSH1 0x0 SWAP1 SLOAD SWAP1 PUSH2 0x100 EXP SWAP1 DIV PUSH20 0xFFFFFFFFFFFFFFFFFFFFFFFFFFFFFFFFFFFFFFFF AND PUSH20 0xFFFFFFFFFFFFFFFFFFFFFFFFFFFFFFFFFFFFFFFF AND PUSH20 0xFFFFFFFFFFFFFFFFFFFFFFFFFFFFFFFFFFFFFFFF AND DUP2 MSTORE PUSH1 0x20 ADD SWAP1 DUP2 MSTORE PUSH1 0x20 ADD PUSH1 0x0 KECCAK256 SLOAD PUSH2 0xD34 JUMP JUMPDEST PUSH1 0x5 DUP2 SWAP1 SSTORE POP PUSH2 0x89E JUMP JUMPDEST PUSH2 0x856 DUP2 PUSH1 0x8 SLOAD PUSH1 0x7 PUSH1 0x0 PUSH1 0x6 PUSH1 0x0 SWAP1 SLOAD SWAP1 PUSH2 0x100 EXP SWAP1 DIV PUSH20 0xFFFFFFFFFFFFFFFFFFFFFFFFFFFFFFFFFFFFFFFF AND PUSH20 0xFFFFFFFFFFFFFFFFFFFFFFFFFFFFFFFFFFFFFFFF AND PUSH20 0xFFFFFFFFFFFFFFFFFFFFFFFFFFFFFFFFFFFFFFFF AND DUP2 MSTORE PUSH1 0x20 ADD SWAP1 DUP2 MSTORE PUSH1 0x20 ADD PUSH1 0x0 KECCAK256 SLOAD PUSH2 0x851 SWAP2 SWAP1 PUSH2 0x1194 JUMP JUMPDEST PUSH2 0xD34 JUMP JUMPDEST PUSH1 0x5 DUP2 SWAP1 SSTORE POP CALLER PUSH1 0x6 PUSH1 0x0 PUSH2 0x100 EXP DUP2 SLOAD DUP2 PUSH20 0xFFFFFFFFFFFFFFFFFFFFFFFFFFFFFFFFFFFFFFFF MUL NOT AND SWAP1 DUP4 PUSH20 0xFFFFFFFFFFFFFFFFFFFFFFFFFFFFFFFFFFFFFFFF AND MUL OR SWAP1 SSTORE POP JUMPDEST POP JUMP JUMPDEST PUSH1 0x5 SLOAD DUP2 JUMP JUMPDEST PUSH1 0x3 DUP1 DUP2 GT ISZERO PUSH2 0x8E0 JUMPI PUSH32 0x4E487B7100000000000000000000000000000000000000000000000000000000 PUSH1 0x0 MSTORE PUSH1 0x21 PUSH1 0x4 MSTORE PUSH1 0x24 PUSH1 0x0 REVERT JUMPDEST PUSH1 0x4 PUSH1 0x0 SWAP1 SLOAD SWAP1 PUSH2 0x100 EXP SWAP1 DIV PUSH1 0xFF AND PUSH1 0x3 DUP2 GT ISZERO PUSH2 0x928 JUMPI PUSH32 0x4E487B7100000000000000000000000000000000000000000000000000000000 PUSH1 0x0 MSTORE PUSH1 0x21 PUSH1 0x4 MSTORE PUSH1 0x24 PUSH1 0x0 REVERT JUMPDEST EQ DUP1 PUSH2 0x935 JUMPI POP PUSH1 0x2 SLOAD NUMBER GT JUMPDEST PUSH2 0x93E JUMPI PUSH1 0x0 DUP1 REVERT JUMPDEST PUSH1 0x0 DUP1 SLOAD SWAP1 PUSH2 0x100 EXP SWAP1 DIV PUSH20 0xFFFFFFFFFFFFFFFFFFFFFFFFFFFFFFFFFFFFFFFF AND PUSH20 0xFFFFFFFFFFFFFFFFFFFFFFFFFFFFFFFFFFFFFFFF AND CALLER PUSH20 0xFFFFFFFFFFFFFFFFFFFFFFFFFFFFFFFFFFFFFFFF AND EQ DUP1 PUSH2 0x9D7 JUMPI POP PUSH1 0x0 PUSH1 0x7 PUSH1 0x0 CALLER PUSH20 0xFFFFFFFFFFFFFFFFFFFFFFFFFFFFFFFFFFFFFFFF AND PUSH20 0xFFFFFFFFFFFFFFFFFFFFFFFFFFFFFFFFFFFFFFFF AND DUP2 MSTORE PUSH1 0x20 ADD SWAP1 DUP2 MSTORE PUSH1 0x20 ADD PUSH1 0x0 KECCAK256 SLOAD GT JUMPDEST PUSH2 0xA16 JUMPI PUSH1 0x40 MLOAD PUSH32 0x8C379A000000000000000000000000000000000000000000000000000000000 DUP2 MSTORE PUSH1 0x4 ADD PUSH2 0xA0D SWAP1 PUSH2 0x10FD JUMP JUMPDEST PUSH1 0x40 MLOAD DUP1 SWAP2 SUB SWAP1 REVERT JUMPDEST PUSH1 0x0 DUP1 PUSH1 0x3 DUP1 DUP2 GT ISZERO PUSH2 0xA52 JUMPI PUSH32 0x4E487B7100000000000000000000000000000000000000000000000000000000 PUSH1 0x0 MSTORE PUSH1 0x21 PUSH1 0x4 MSTORE PUSH1 0x24 PUSH1 0x0 REVERT JUMPDEST PUSH1 0x4 PUSH1 0x0 SWAP1 SLOAD SWAP1 PUSH2 0x100 EXP SWAP1 DIV PUSH1 0xFF AND PUSH1 0x3 DUP2 GT ISZERO PUSH2 0xA9A JUMPI PUSH32 0x4E487B7100000000000000000000000000000000000000000000000000000000 PUSH1 0x0 MSTORE PUSH1 0x21 PUSH1 0x4 MSTORE PUSH1 0x24 PUSH1 0x0 REVERT JUMPDEST EQ ISZERO PUSH2 0xAEA JUMPI CALLER SWAP2 POP PUSH1 0x7 PUSH1 0x0 CALLER PUSH20 0xFFFFFFFFFFFFFFFFFFFFFFFFFFFFFFFFFFFFFFFF AND PUSH20 0xFFFFFFFFFFFFFFFFFFFFFFFFFFFFFFFFFFFFFFFF AND DUP2 MSTORE PUSH1 0x20 ADD SWAP1 DUP2 MSTORE PUSH1 0x20 ADD PUSH1 0x0 KECCAK256 SLOAD SWAP1 POP PUSH2 0xCA4 JUMP JUMPDEST PUSH1 0x0 DUP1 SLOAD SWAP1 PUSH2 0x100 EXP SWAP1 DIV PUSH20 0xFFFFFFFFFFFFFFFFFFFFFFFFFFFFFFFFFFFFFFFF AND PUSH20 0xFFFFFFFFFFFFFFFFFFFFFFFFFFFFFFFFFFFFFFFF AND CALLER PUSH20 0xFFFFFFFFFFFFFFFFFFFFFFFFFFFFFFFFFFFFFFFF AND EQ ISZERO PUSH2 0xB6B JUMPI PUSH1 0x0 DUP1 SLOAD SWAP1 PUSH2 0x100 EXP SWAP1 DIV PUSH20 0xFFFFFFFFFFFFFFFFFFFFFFFFFFFFFFFFFFFFFFFF AND SWAP2 POP PUSH1 0x5 SLOAD SWAP1 POP PUSH2 0xCA3 JUMP JUMPDEST PUSH1 0x6 PUSH1 0x0 SWAP1 SLOAD SWAP1 PUSH2 0x100 EXP SWAP1 DIV PUSH20 0xFFFFFFFFFFFFFFFFFFFFFFFFFFFFFFFFFFFFFFFF AND PUSH20 0xFFFFFFFFFFFFFFFFFFFFFFFFFFFFFFFFFFFFFFFF AND CALLER PUSH20 0xFFFFFFFFFFFFFFFFFFFFFFFFFFFFFFFFFFFFFFFF AND EQ ISZERO PUSH2 0xC5C JUMPI PUSH1 0x6 PUSH1 0x0 SWAP1 SLOAD SWAP1 PUSH2 0x100 EXP SWAP1 DIV PUSH20 0xFFFFFFFFFFFFFFFFFFFFFFFFFFFFFFFFFFFFFFFF AND SWAP2 POP PUSH1 0x5 SLOAD PUSH1 0x7 PUSH1 0x0 PUSH1 0x6 PUSH1 0x0 SWAP1 SLOAD SWAP1 PUSH2 0x100 EXP SWAP1 DIV PUSH20 0xFFFFFFFFFFFFFFFFFFFFFFFFFFFFFFFFFFFFFFFF AND PUSH20 0xFFFFFFFFFFFFFFFFFFFFFFFFFFFFFFFFFFFFFFFF AND PUSH20 0xFFFFFFFFFFFFFFFFFFFFFFFFFFFFFFFFFFFFFFFF AND DUP2 MSTORE PUSH1 0x20 ADD SWAP1 DUP2 MSTORE PUSH1 0x20 ADD PUSH1 0x0 KECCAK256 SLOAD PUSH2 0xC55 SWAP2 SWAP1 PUSH2 0x11EA JUMP JUMPDEST SWAP1 POP PUSH2 0xCA2 JUMP JUMPDEST CALLER SWAP2 POP PUSH1 0x7 PUSH1 0x0 CALLER PUSH20 0xFFFFFFFFFFFFFFFFFFFFFFFFFFFFFFFFFFFFFFFF AND PUSH20 0xFFFFFFFFFFFFFFFFFFFFFFFFFFFFFFFFFFFFFFFF AND DUP2 MSTORE PUSH1 0x20 ADD SWAP1 DUP2 MSTORE PUSH1 0x20 ADD PUSH1 0x0 KECCAK256 SLOAD SWAP1 POP JUMPDEST JUMPDEST JUMPDEST PUSH1 0x0 PUSH1 0x7 PUSH1 0x0 DUP5 PUSH20 0xFFFFFFFFFFFFFFFFFFFFFFFFFFFFFFFFFFFFFFFF AND PUSH20 0xFFFFFFFFFFFFFFFFFFFFFFFFFFFFFFFFFFFFFFFF AND DUP2 MSTORE PUSH1 0x20 ADD SWAP1 DUP2 MSTORE PUSH1 0x20 ADD PUSH1 0x0 KECCAK256 DUP2 SWAP1 SSTORE POP DUP2 PUSH20 0xFFFFFFFFFFFFFFFFFFFFFFFFFFFFFFFFFFFFFFFF AND PUSH2 0x8FC DUP3 SWAP1 DUP2 ISZERO MUL SWAP1 PUSH1 0x40 MLOAD PUSH1 0x0 PUSH1 0x40 MLOAD DUP1 DUP4 SUB DUP2 DUP6 DUP9 DUP9 CALL SWAP4 POP POP POP POP ISZERO DUP1 ISZERO PUSH2 0xD2F JUMPI RETURNDATASIZE PUSH1 0x0 DUP1 RETURNDATACOPY RETURNDATASIZE PUSH1 0x0 REVERT JUMPDEST POP POP POP JUMP JUMPDEST PUSH1 0x0 DUP2 DUP4 GT PUSH2 0xD45 JUMPI DUP3 SWAP1 POP PUSH2 0xD49 JUMP JUMPDEST DUP2 SWAP1 POP JUMPDEST SWAP3 SWAP2 POP POP JUMP JUMPDEST PUSH1 0x0 DUP2 CALLDATALOAD SWAP1 POP PUSH2 0xD5E DUP2 PUSH2 0x13A8 JUMP JUMPDEST SWAP3 SWAP2 POP POP JUMP JUMPDEST PUSH1 0x0 PUSH1 0x20 DUP3 DUP5 SUB SLT ISZERO PUSH2 0xD76 JUMPI PUSH1 0x0 DUP1 REVERT JUMPDEST PUSH1 0x0 PUSH2 0xD84 DUP5 DUP3 DUP6 ADD PUSH2 0xD4F JUMP JUMPDEST SWAP2 POP POP SWAP3 SWAP2 POP POP JUMP JUMPDEST PUSH2 0xD96 DUP2 PUSH2 0x1230 JUMP JUMPDEST DUP3 MSTORE POP POP JUMP JUMPDEST PUSH2 0xDA5 DUP2 PUSH2 0x127F JUMP JUMPDEST DUP3 MSTORE POP POP JUMP JUMPDEST PUSH1 0x0 PUSH2 0xDB6 DUP3 PUSH2 0x1178 JUMP JUMPDEST PUSH2 0xDC0 DUP2 DUP6 PUSH2 0x1183 JUMP JUMPDEST SWAP4 POP PUSH2 0xDD0 DUP2 DUP6 PUSH1 0x20 DUP7 ADD PUSH2 0x1291 JUMP JUMPDEST PUSH2 0xDD9 DUP2 PUSH2 0x1383 JUMP JUMPDEST DUP5 ADD SWAP2 POP POP SWAP3 SWAP2 POP POP JUMP JUMPDEST PUSH1 0x0 PUSH2 0xDF1 PUSH1 0x1A DUP4 PUSH2 0x1183 JUMP JUMPDEST SWAP2 POP PUSH32 0x4F776E65722063616E6E6F7420706C6163652074686520626964000000000000 PUSH1 0x0 DUP4 ADD MSTORE PUSH1 0x20 DUP3 ADD SWAP1 POP SWAP2 SWAP1 POP JUMP JUMPDEST PUSH1 0x0 PUSH2 0xE31 PUSH1 0x33 DUP4 PUSH2 0x1183 JUMP JUMPDEST SWAP2 POP PUSH32 0x596F752061726520746865206F776E65722E20796F752063616E6E6F74207065 PUSH1 0x0 DUP4 ADD MSTORE PUSH32 0x72666F726D207468697320616374696F6E732E00000000000000000000000000 PUSH1 0x20 DUP4 ADD MSTORE PUSH1 0x40 DUP3 ADD SWAP1 POP SWAP2 SWAP1 POP JUMP JUMPDEST PUSH1 0x0 PUSH2 0xE97 PUSH1 0x1E DUP4 PUSH2 0x1183 JUMP JUMPDEST SWAP2 POP PUSH32 0x41756374696F6E206973206E6F7420696E2072756E6E69672073746174650000 PUSH1 0x0 DUP4 ADD MSTORE PUSH1 0x20 DUP3 ADD SWAP1 POP SWAP2 SWAP1 POP JUMP JUMPDEST PUSH1 0x0 PUSH2 0xED7 PUSH1 0x17 DUP4 PUSH2 0x1183 JUMP JUMPDEST SWAP2 POP PUSH32 0x4974732073746172746564206166746572207374617274000000000000000000 PUSH1 0x0 DUP4 ADD MSTORE PUSH1 0x20 DUP3 ADD SWAP1 POP SWAP2 SWAP1 POP JUMP JUMPDEST PUSH1 0x0 PUSH2 0xF17 PUSH1 0x2D DUP4 PUSH2 0x1183 JUMP JUMPDEST SWAP2 POP PUSH32 0x596F7520617265206E6F7420746865206F776E6572206F7220796F7572206269 PUSH1 0x0 DUP4 ADD MSTORE PUSH32 0x6420616D6F756E74206973203000000000000000000000000000000000000000 PUSH1 0x20 DUP4 ADD MSTORE PUSH1 0x40 DUP3 ADD SWAP1 POP SWAP2 SWAP1 POP JUMP JUMPDEST PUSH1 0x0 PUSH2 0xF7D PUSH1 0x20 DUP4 PUSH2 0x1183 JUMP JUMPDEST SWAP2 POP PUSH32 0x6D696E696D756D20616D6F756E742073686F756C642062652031303020776569 PUSH1 0x0 DUP4 ADD MSTORE PUSH1 0x20 DUP3 ADD SWAP1 POP SWAP2 SWAP1 POP JUMP JUMPDEST PUSH1 0x0 PUSH2 0xFBD PUSH1 0x33 DUP4 PUSH2 0x1183 JUMP JUMPDEST SWAP2 POP PUSH32 0x42696420616D6F756E742073686F756C64206265206772656174657220746861 PUSH1 0x0 DUP4 ADD MSTORE PUSH32 0x6E206869676865737442696E64696E6742696400000000000000000000000000 PUSH1 0x20 DUP4 ADD MSTORE PUSH1 0x40 DUP3 ADD SWAP1 POP SWAP2 SWAP1 POP JUMP JUMPDEST PUSH2 0x101F DUP2 PUSH2 0x1275 JUMP JUMPDEST DUP3 MSTORE POP POP JUMP JUMPDEST PUSH1 0x0 PUSH1 0x20 DUP3 ADD SWAP1 POP PUSH2 0x103A PUSH1 0x0 DUP4 ADD DUP5 PUSH2 0xD8D JUMP JUMPDEST SWAP3 SWAP2 POP POP JUMP JUMPDEST PUSH1 0x0 PUSH1 0x20 DUP3 ADD SWAP1 POP PUSH2 0x1055 PUSH1 0x0 DUP4 ADD DUP5 PUSH2 0xD9C JUMP JUMPDEST SWAP3 SWAP2 POP POP JUMP JUMPDEST PUSH1 0x0 PUSH1 0x20 DUP3 ADD SWAP1 POP DUP2 DUP2 SUB PUSH1 0x0 DUP4 ADD MSTORE PUSH2 0x1075 DUP2 DUP5 PUSH2 0xDAB JUMP JUMPDEST SWAP1 POP SWAP3 SWAP2 POP POP JUMP JUMPDEST PUSH1 0x0 PUSH1 0x20 DUP3 ADD SWAP1 POP DUP2 DUP2 SUB PUSH1 0x0 DUP4 ADD MSTORE PUSH2 0x1096 DUP2 PUSH2 0xDE4 JUMP JUMPDEST SWAP1 POP SWAP2 SWAP1 POP JUMP JUMPDEST PUSH1 0x0 PUSH1 0x20 DUP3 ADD SWAP1 POP DUP2 DUP2 SUB PUSH1 0x0 DUP4 ADD MSTORE PUSH2 0x10B6 DUP2 PUSH2 0xE24 JUMP JUMPDEST SWAP1 POP SWAP2 SWAP1 POP JUMP JUMPDEST PUSH1 0x0 PUSH1 0x20 DUP3 ADD SWAP1 POP DUP2 DUP2 SUB PUSH1 0x0 DUP4 ADD MSTORE PUSH2 0x10D6 DUP2 PUSH2 0xE8A JUMP JUMPDEST SWAP1 POP SWAP2 SWAP1 POP JUMP JUMPDEST PUSH1 0x0 PUSH1 0x20 DUP3 ADD SWAP1 POP DUP2 DUP2 SUB PUSH1 0x0 DUP4 ADD MSTORE PUSH2 0x10F6 DUP2 PUSH2 0xECA JUMP JUMPDEST SWAP1 POP SWAP2 SWAP1 POP JUMP JUMPDEST PUSH1 0x0 PUSH1 0x20 DUP3 ADD SWAP1 POP DUP2 DUP2 SUB PUSH1 0x0 DUP4 ADD MSTORE PUSH2 0x1116 DUP2 PUSH2 0xF0A JUMP JUMPDEST SWAP1 POP SWAP2 SWAP1 POP JUMP JUMPDEST PUSH1 0x0 PUSH1 0x20 DUP3 ADD SWAP1 POP DUP2 DUP2 SUB PUSH1 0x0 DUP4 ADD MSTORE PUSH2 0x1136 DUP2 PUSH2 0xF70 JUMP JUMPDEST SWAP1 POP SWAP2 SWAP1 POP JUMP JUMPDEST PUSH1 0x0 PUSH1 0x20 DUP3 ADD SWAP1 POP DUP2 DUP2 SUB PUSH1 0x0 DUP4 ADD MSTORE PUSH2 0x1156 DUP2 PUSH2 0xFB0 JUMP JUMPDEST SWAP1 POP SWAP2 SWAP1 POP JUMP JUMPDEST PUSH1 0x0 PUSH1 0x20 DUP3 ADD SWAP1 POP PUSH2 0x1172 PUSH1 0x0 DUP4 ADD DUP5 PUSH2 0x1016 JUMP JUMPDEST SWAP3 SWAP2 POP POP JUMP JUMPDEST PUSH1 0x0 DUP2 MLOAD SWAP1 POP SWAP2 SWAP1 POP JUMP JUMPDEST PUSH1 0x0 DUP3 DUP3 MSTORE PUSH1 0x20 DUP3 ADD SWAP1 POP SWAP3 SWAP2 POP POP JUMP JUMPDEST PUSH1 0x0 PUSH2 0x119F DUP3 PUSH2 0x1275 JUMP JUMPDEST SWAP2 POP PUSH2 0x11AA DUP4 PUSH2 0x1275 JUMP JUMPDEST SWAP3 POP DUP3 PUSH32 0xFFFFFFFFFFFFFFFFFFFFFFFFFFFFFFFFFFFFFFFFFFFFFFFFFFFFFFFFFFFFFFFF SUB DUP3 GT ISZERO PUSH2 0x11DF JUMPI PUSH2 0x11DE PUSH2 0x12F6 JUMP JUMPDEST JUMPDEST DUP3 DUP3 ADD SWAP1 POP SWAP3 SWAP2 POP POP JUMP JUMPDEST PUSH1 0x0 PUSH2 0x11F5 DUP3 PUSH2 0x1275 JUMP JUMPDEST SWAP2 POP PUSH2 0x1200 DUP4 PUSH2 0x1275 JUMP JUMPDEST SWAP3 POP DUP3 DUP3 LT ISZERO PUSH2 0x1213 JUMPI PUSH2 0x1212 PUSH2 0x12F6 JUMP JUMPDEST JUMPDEST DUP3 DUP3 SUB SWAP1 POP SWAP3 SWAP2 POP POP JUMP JUMPDEST PUSH1 0x0 PUSH2 0x1229 DUP3 PUSH2 0x1255 JUMP JUMPDEST SWAP1 POP SWAP2 SWAP1 POP JUMP JUMPDEST PUSH1 0x0 PUSH2 0x123B DUP3 PUSH2 0x1255 JUMP JUMPDEST SWAP1 POP SWAP2 SWAP1 POP JUMP JUMPDEST PUSH1 0x0 DUP2 SWAP1 POP PUSH2 0x1250 DUP3 PUSH2 0x1394 JUMP JUMPDEST SWAP2 SWAP1 POP JUMP JUMPDEST PUSH1 0x0 PUSH20 0xFFFFFFFFFFFFFFFFFFFFFFFFFFFFFFFFFFFFFFFF DUP3 AND SWAP1 POP SWAP2 SWAP1 POP JUMP JUMPDEST PUSH1 0x0 DUP2 SWAP1 POP SWAP2 SWAP1 POP JUMP JUMPDEST PUSH1 0x0 PUSH2 0x128A DUP3 PUSH2 0x1242 JUMP JUMPDEST SWAP1 POP SWAP2 SWAP1 POP JUMP JUMPDEST PUSH1 0x0 JUMPDEST DUP4 DUP2 LT ISZERO PUSH2 0x12AF JUMPI DUP1 DUP3 ADD MLOAD DUP2 DUP5 ADD MSTORE PUSH1 0x20 DUP2 ADD SWAP1 POP PUSH2 0x1294 JUMP JUMPDEST DUP4 DUP2 GT ISZERO PUSH2 0x12BE JUMPI PUSH1 0x0 DUP5 DUP5 ADD MSTORE JUMPDEST POP POP POP POP JUMP JUMPDEST PUSH1 0x0 PUSH1 0x2 DUP3 DIV SWAP1 POP PUSH1 0x1 DUP3 AND DUP1 PUSH2 0x12DC JUMPI PUSH1 0x7F DUP3 AND SWAP2 POP JUMPDEST PUSH1 0x20 DUP3 LT DUP2 EQ ISZERO PUSH2 0x12F0 JUMPI PUSH2 0x12EF PUSH2 0x1354 JUMP JUMPDEST JUMPDEST POP SWAP2 SWAP1 POP JUMP JUMPDEST PUSH32 0x4E487B7100000000000000000000000000000000000000000000000000000000 PUSH1 0x0 MSTORE PUSH1 0x11 PUSH1 0x4 MSTORE PUSH1 0x24 PUSH1 0x0 REVERT JUMPDEST PUSH32 0x4E487B7100000000000000000000000000000000000000000000000000000000 PUSH1 0x0 MSTORE PUSH1 0x21 PUSH1 0x4 MSTORE PUSH1 0x24 PUSH1 0x0 REVERT JUMPDEST PUSH32 0x4E487B7100000000000000000000000000000000000000000000000000000000 PUSH1 0x0 MSTORE PUSH1 0x22 PUSH1 0x4 MSTORE PUSH1 0x24 PUSH1 0x0 REVERT JUMPDEST PUSH1 0x0 PUSH1 0x1F NOT PUSH1 0x1F DUP4 ADD AND SWAP1 POP SWAP2 SWAP1 POP JUMP JUMPDEST PUSH1 0x4 DUP2 LT PUSH2 0x13A5 JUMPI PUSH2 0x13A4 PUSH2 0x1325 JUMP JUMPDEST JUMPDEST POP JUMP JUMPDEST PUSH2 0x13B1 DUP2 PUSH2 0x121E JUMP JUMPDEST DUP2 EQ PUSH2 0x13BC JUMPI PUSH1 0x0 DUP1 REVERT JUMPDEST POP JUMP INVALID LOG2 PUSH5 0x6970667358 0x22 SLT KECCAK256 SWAP1 0xAD 0xFC 0xF9 MULMOD 0xD9 0xE2 0xC5 0xB3 DUP6 MSTORE8 0x2A 0xCD 0xB6 0xD1 INVALID 0xC9 0x5E PUSH25 0xD5D7C7BFF2EDC5F48D6DC7BF1464736F6C6343000800003300 "
				},
				"gasEstimates": {
					"creation": {
						"codeDepositCost": "1021800",
						"executionCost": "infinite",
						"totalCost": "infinite"
					},
					"external": {
						"auctionState()": "1327",
						"bids(address)": "1559",
						"cancelAuction()": "21898",
						"endBlock()": "1130",
						"finalizeAuction()": "infinite",
						"highestBidder()": "1236",
						"highestBindingBid()": "1217",
						"ipfsHash()": "infinite",
						"owner()": "1300",
						"placeBid()": "infinite",
						"startBlock()": "1152"
					},
					"internal": {
						"findMin(uint256,uint256)": "64"
					}
				},
				"methodIdentifiers": {
					"auctionState()": "7fb45099",
					"bids(address)": "62ea82db",
					"cancelAuction()": "8fa8b790",
					"endBlock()": "083c6323",
					"finalizeAuction()": "f77282ab",
					"highestBidder()": "91f90157",
					"highestBindingBid()": "f5b56c56",
					"ipfsHash()": "c623674f",
					"owner()": "8da5cb5b",
					"placeBid()": "ecfc7ecc",
					"startBlock()": "48cd4cb1"
				}
			},
			"storageLayout": {
				"storage": [
					{
						"astId": 28,
						"contract": "contracts/03_udemy_andrei_dumitrescu/challenges/02_Auction_Smart_Contract.sol:Auction",
						"label": "owner",
						"offset": 0,
						"slot": "0",
						"type": "t_address_payable"
					},
					{
						"astId": 30,
						"contract": "contracts/03_udemy_andrei_dumitrescu/challenges/02_Auction_Smart_Contract.sol:Auction",
						"label": "startBlock",
						"offset": 0,
						"slot": "1",
						"type": "t_uint256"
					},
					{
						"astId": 32,
						"contract": "contracts/03_udemy_andrei_dumitrescu/challenges/02_Auction_Smart_Contract.sol:Auction",
						"label": "endBlock",
						"offset": 0,
						"slot": "2",
						"type": "t_uint256"
					},
					{
						"astId": 34,
						"contract": "contracts/03_udemy_andrei_dumitrescu/challenges/02_Auction_Smart_Contract.sol:Auction",
						"label": "ipfsHash",
						"offset": 0,
						"slot": "3",
						"type": "t_string_storage"
					},
					{
						"astId": 42,
						"contract": "contracts/03_udemy_andrei_dumitrescu/challenges/02_Auction_Smart_Contract.sol:Auction",
						"label": "auctionState",
						"offset": 0,
						"slot": "4",
						"type": "t_enum(State)39"
					},
					{
						"astId": 44,
						"contract": "contracts/03_udemy_andrei_dumitrescu/challenges/02_Auction_Smart_Contract.sol:Auction",
						"label": "highestBindingBid",
						"offset": 0,
						"slot": "5",
						"type": "t_uint256"
					},
					{
						"astId": 46,
						"contract": "contracts/03_udemy_andrei_dumitrescu/challenges/02_Auction_Smart_Contract.sol:Auction",
						"label": "highestBidder",
						"offset": 0,
						"slot": "6",
						"type": "t_address_payable"
					},
					{
						"astId": 50,
						"contract": "contracts/03_udemy_andrei_dumitrescu/challenges/02_Auction_Smart_Contract.sol:Auction",
						"label": "bids",
						"offset": 0,
						"slot": "7",
						"type": "t_mapping(t_address,t_uint256)"
					},
					{
						"astId": 52,
						"contract": "contracts/03_udemy_andrei_dumitrescu/challenges/02_Auction_Smart_Contract.sol:Auction",
						"label": "bidIncrement",
						"offset": 0,
						"slot": "8",
						"type": "t_uint256"
					}
				],
				"types": {
					"t_address": {
						"encoding": "inplace",
						"label": "address",
						"numberOfBytes": "20"
					},
					"t_address_payable": {
						"encoding": "inplace",
						"label": "address payable",
						"numberOfBytes": "20"
					},
					"t_enum(State)39": {
						"encoding": "inplace",
						"label": "enum Auction.State",
						"numberOfBytes": "1"
					},
					"t_mapping(t_address,t_uint256)": {
						"encoding": "mapping",
						"key": "t_address",
						"label": "mapping(address => uint256)",
						"numberOfBytes": "32",
						"value": "t_uint256"
					},
					"t_string_storage": {
						"encoding": "bytes",
						"label": "string",
						"numberOfBytes": "32"
					},
					"t_uint256": {
						"encoding": "inplace",
						"label": "uint256",
						"numberOfBytes": "32"
					}
				}
			},
			"userdoc": {
				"kind": "user",
				"methods": {},
				"version": 1
			}
		}
	}
}