{
	"contracts/03_udemy_andrei_dumitrescu/09_visibility.sol": {
		"outsideContract": {
			"abi": [
				{
					"inputs": [],
					"name": "a",
					"outputs": [
						{
							"internalType": "uint256",
							"name": "",
							"type": "uint256"
						}
					],
					"stateMutability": "view",
					"type": "function"
				},
				{
					"inputs": [],
					"name": "contract_a",
					"outputs": [
						{
							"internalType": "contract A",
							"name": "",
							"type": "address"
						}
					],
					"stateMutability": "view",
					"type": "function"
				},
				{
					"inputs": [],
					"name": "outsideCaller",
					"outputs": [
						{
							"internalType": "string",
							"name": "",
							"type": "string"
						}
					],
					"stateMutability": "view",
					"type": "function"
				}
			],
			"devdoc": {
				"kind": "dev",
				"methods": {},
				"version": 1
			},
			"evm": {
				"assembly": "    /* \"contracts/03_udemy_andrei_dumitrescu/09_visibility.sol\":1527:2064  contract outsideContract {\r... */\n  mstore(0x40, 0x80)\n    /* \"contracts/03_udemy_andrei_dumitrescu/09_visibility.sol\":1779:1786  new A() */\n  mload(0x40)\n  tag_1\n  swap1\n  tag_2\n  jump\t// in\ntag_1:\n  mload(0x40)\n  dup1\n  swap2\n  sub\n  swap1\n  0x00\n  create\n  dup1\n  iszero\n  dup1\n  iszero\n  tag_3\n  jumpi\n  returndatasize\n  0x00\n  dup1\n  returndatacopy\n  revert(0x00, returndatasize)\ntag_3:\n  pop\n    /* \"contracts/03_udemy_andrei_dumitrescu/09_visibility.sol\":1771:1786  A obj = new A() */\n  0x00\n  dup1\n  0x0100\n  exp\n  dup2\n  sload\n  dup2\n  0xffffffffffffffffffffffffffffffffffffffff\n  mul\n  not\n  and\n  swap1\n  dup4\n  0xffffffffffffffffffffffffffffffffffffffff\n  and\n  mul\n  or\n  swap1\n  sstore\n  pop\n    /* \"contracts/03_udemy_andrei_dumitrescu/09_visibility.sol\":1870:1877  new A() */\n  mload(0x40)\n  tag_4\n  swap1\n  tag_2\n  jump\t// in\ntag_4:\n  mload(0x40)\n  dup1\n  swap2\n  sub\n  swap1\n  0x00\n  create\n  dup1\n  iszero\n  dup1\n  iszero\n  tag_5\n  jumpi\n  returndatasize\n  0x00\n  dup1\n  returndatacopy\n  revert(0x00, returndatasize)\ntag_5:\n  pop\n    /* \"contracts/03_udemy_andrei_dumitrescu/09_visibility.sol\":1848:1877  A public contract_a = new A() */\n  0x01\n  exp(0x0100, 0x00)\n  dup2\n  sload\n  dup2\n  0xffffffffffffffffffffffffffffffffffffffff\n  mul\n  not\n  and\n  swap1\n  dup4\n  0xffffffffffffffffffffffffffffffffffffffff\n  and\n  mul\n  or\n  swap1\n  sstore\n  pop\n    /* \"contracts/03_udemy_andrei_dumitrescu/09_visibility.sol\":1945:1948  obj */\n  0x00\n  dup1\n  sload\n  swap1\n  0x0100\n  exp\n  swap1\n  div\n  0xffffffffffffffffffffffffffffffffffffffff\n  and\n    /* \"contracts/03_udemy_andrei_dumitrescu/09_visibility.sol\":1945:1950  obj.z */\n  0xffffffffffffffffffffffffffffffffffffffff\n  and\n  0xc5d7802e\n    /* \"contracts/03_udemy_andrei_dumitrescu/09_visibility.sol\":1945:1952  obj.z() */\n  mload(0x40)\n  dup2\n  0xffffffff\n  and\n  0xe0\n  shl\n  dup2\n  mstore\n  0x04\n  add\n  0x20\n  mload(0x40)\n  dup1\n  dup4\n  sub\n  dup2\n  dup7\n  dup1\n  extcodesize\n  iszero\n  dup1\n  iszero\n  tag_6\n  jumpi\n  0x00\n  dup1\n  revert\ntag_6:\n  pop\n  gas\n  staticcall\n  iszero\n  dup1\n  iszero\n  tag_8\n  jumpi\n  returndatasize\n  0x00\n  dup1\n  returndatacopy\n  revert(0x00, returndatasize)\ntag_8:\n  pop\n  pop\n  pop\n  pop\n  mload(0x40)\n  returndatasize\n  not(0x1f)\n  0x1f\n  dup3\n  add\n  and\n  dup3\n  add\n  dup1\n  0x40\n  mstore\n  pop\n  dup2\n  add\n  swap1\n  tag_9\n  swap2\n  swap1\n  tag_10\n  jump\t// in\ntag_9:\n    /* \"contracts/03_udemy_andrei_dumitrescu/09_visibility.sol\":1929:1952  uint public a = obj.z() */\n  0x02\n  sstore\n    /* \"contracts/03_udemy_andrei_dumitrescu/09_visibility.sol\":1527:2064  contract outsideContract {\r... */\n  callvalue\n  dup1\n  iszero\n  tag_11\n  jumpi\n  0x00\n  dup1\n  revert\ntag_11:\n  pop\n  jump(tag_12)\ntag_2:\n  dataSize(sub_1)\n  dup1\n  dataOffset(sub_1)\n  dup4\n  codecopy\n  add\n  swap1\n  jump\t// out\n    /* \"#utility.yul\":7:150   */\ntag_14:\n  0x00\n    /* \"#utility.yul\":95:101   */\n  dup2\n    /* \"#utility.yul\":89:102   */\n  mload\n    /* \"#utility.yul\":80:102   */\n  swap1\n  pop\n    /* \"#utility.yul\":111:144   */\n  tag_16\n    /* \"#utility.yul\":138:143   */\n  dup2\n    /* \"#utility.yul\":111:144   */\n  tag_17\n  jump\t// in\ntag_16:\n    /* \"#utility.yul\":70:150   */\n  swap3\n  swap2\n  pop\n  pop\n  jump\t// out\n    /* \"#utility.yul\":156:440   */\ntag_10:\n  0x00\n    /* \"#utility.yul\":275:277   */\n  0x20\n    /* \"#utility.yul\":263:272   */\n  dup3\n    /* \"#utility.yul\":254:261   */\n  dup5\n    /* \"#utility.yul\":250:273   */\n  sub\n    /* \"#utility.yul\":246:278   */\n  slt\n    /* \"#utility.yul\":243:245   */\n  iszero\n  tag_19\n  jumpi\n    /* \"#utility.yul\":291:292   */\n  0x00\n    /* \"#utility.yul\":288:289   */\n  dup1\n    /* \"#utility.yul\":281:293   */\n  revert\n    /* \"#utility.yul\":243:245   */\ntag_19:\n    /* \"#utility.yul\":334:335   */\n  0x00\n    /* \"#utility.yul\":359:423   */\n  tag_20\n    /* \"#utility.yul\":415:422   */\n  dup5\n    /* \"#utility.yul\":406:412   */\n  dup3\n    /* \"#utility.yul\":395:404   */\n  dup6\n    /* \"#utility.yul\":391:413   */\n  add\n    /* \"#utility.yul\":359:423   */\n  tag_14\n  jump\t// in\ntag_20:\n    /* \"#utility.yul\":349:423   */\n  swap2\n  pop\n    /* \"#utility.yul\":305:433   */\n  pop\n    /* \"#utility.yul\":233:440   */\n  swap3\n  swap2\n  pop\n  pop\n  jump\t// out\n    /* \"#utility.yul\":446:523   */\ntag_21:\n  0x00\n    /* \"#utility.yul\":512:517   */\n  dup2\n    /* \"#utility.yul\":501:517   */\n  swap1\n  pop\n    /* \"#utility.yul\":491:523   */\n  swap2\n  swap1\n  pop\n  jump\t// out\n    /* \"#utility.yul\":529:651   */\ntag_17:\n    /* \"#utility.yul\":602:626   */\n  tag_24\n    /* \"#utility.yul\":620:625   */\n  dup2\n    /* \"#utility.yul\":602:626   */\n  tag_21\n  jump\t// in\ntag_24:\n    /* \"#utility.yul\":595:600   */\n  dup2\n    /* \"#utility.yul\":592:627   */\n  eq\n    /* \"#utility.yul\":582:584   */\n  tag_25\n  jumpi\n    /* \"#utility.yul\":641:642   */\n  0x00\n    /* \"#utility.yul\":638:639   */\n  dup1\n    /* \"#utility.yul\":631:643   */\n  revert\n    /* \"#utility.yul\":582:584   */\ntag_25:\n    /* \"#utility.yul\":572:651   */\n  pop\n  jump\t// out\n    /* \"contracts/03_udemy_andrei_dumitrescu/09_visibility.sol\":1527:2064  contract outsideContract {\r... */\ntag_12:\n  dataSize(sub_0)\n  dup1\n  dataOffset(sub_0)\n  0x00\n  codecopy\n  0x00\n  return\nstop\n\nsub_0: assembly {\n        /* \"contracts/03_udemy_andrei_dumitrescu/09_visibility.sol\":1527:2064  contract outsideContract {\r... */\n      mstore(0x40, 0x80)\n      callvalue\n      dup1\n      iszero\n      tag_1\n      jumpi\n      0x00\n      dup1\n      revert\n    tag_1:\n      pop\n      jumpi(tag_2, lt(calldatasize, 0x04))\n      shr(0xe0, calldataload(0x00))\n      dup1\n      0x0dbe671f\n      eq\n      tag_3\n      jumpi\n      dup1\n      0x605b85ad\n      eq\n      tag_4\n      jumpi\n      dup1\n      0xda68252a\n      eq\n      tag_5\n      jumpi\n    tag_2:\n      0x00\n      dup1\n      revert\n        /* \"contracts/03_udemy_andrei_dumitrescu/09_visibility.sol\":1929:1952  uint public a = obj.z() */\n    tag_3:\n      tag_6\n      tag_7\n      jump\t// in\n    tag_6:\n      mload(0x40)\n      tag_8\n      swap2\n      swap1\n      tag_9\n      jump\t// in\n    tag_8:\n      mload(0x40)\n      dup1\n      swap2\n      sub\n      swap1\n      return\n        /* \"contracts/03_udemy_andrei_dumitrescu/09_visibility.sol\":1848:1877  A public contract_a = new A() */\n    tag_4:\n      tag_10\n      tag_11\n      jump\t// in\n    tag_10:\n      mload(0x40)\n      tag_12\n      swap2\n      swap1\n      tag_13\n      jump\t// in\n    tag_12:\n      mload(0x40)\n      dup1\n      swap2\n      sub\n      swap1\n      return\n        /* \"contracts/03_udemy_andrei_dumitrescu/09_visibility.sol\":1961:2061  function outsideCaller() public view returns(string memory) {\r... */\n    tag_5:\n      tag_14\n      tag_15\n      jump\t// in\n    tag_14:\n      mload(0x40)\n      tag_16\n      swap2\n      swap1\n      tag_17\n      jump\t// in\n    tag_16:\n      mload(0x40)\n      dup1\n      swap2\n      sub\n      swap1\n      return\n        /* \"contracts/03_udemy_andrei_dumitrescu/09_visibility.sol\":1929:1952  uint public a = obj.z() */\n    tag_7:\n      sload(0x02)\n      dup2\n      jump\t// out\n        /* \"contracts/03_udemy_andrei_dumitrescu/09_visibility.sol\":1848:1877  A public contract_a = new A() */\n    tag_11:\n      0x01\n      0x00\n      swap1\n      sload\n      swap1\n      0x0100\n      exp\n      swap1\n      div\n      0xffffffffffffffffffffffffffffffffffffffff\n      and\n      dup2\n      jump\t// out\n        /* \"contracts/03_udemy_andrei_dumitrescu/09_visibility.sol\":1961:2061  function outsideCaller() public view returns(string memory) {\r... */\n    tag_15:\n        /* \"contracts/03_udemy_andrei_dumitrescu/09_visibility.sol\":2006:2019  string memory */\n      0x60\n        /* \"contracts/03_udemy_andrei_dumitrescu/09_visibility.sol\":2039:2042  obj */\n      0x00\n      dup1\n      sload\n      swap1\n      0x0100\n      exp\n      swap1\n      div\n      0xffffffffffffffffffffffffffffffffffffffff\n      and\n        /* \"contracts/03_udemy_andrei_dumitrescu/09_visibility.sol\":2039:2051  obj.External */\n      0xffffffffffffffffffffffffffffffffffffffff\n      and\n      0x78f15805\n        /* \"contracts/03_udemy_andrei_dumitrescu/09_visibility.sol\":2039:2053  obj.External() */\n      mload(0x40)\n      dup2\n      0xffffffff\n      and\n      0xe0\n      shl\n      dup2\n      mstore\n      0x04\n      add\n      0x00\n      mload(0x40)\n      dup1\n      dup4\n      sub\n      dup2\n      dup7\n      dup1\n      extcodesize\n      iszero\n      dup1\n      iszero\n      tag_19\n      jumpi\n      0x00\n      dup1\n      revert\n    tag_19:\n      pop\n      gas\n      staticcall\n      iszero\n      dup1\n      iszero\n      tag_21\n      jumpi\n      returndatasize\n      0x00\n      dup1\n      returndatacopy\n      revert(0x00, returndatasize)\n    tag_21:\n      pop\n      pop\n      pop\n      pop\n      mload(0x40)\n      returndatasize\n      0x00\n      dup3\n      returndatacopy\n      returndatasize\n      not(0x1f)\n      0x1f\n      dup3\n      add\n      and\n      dup3\n      add\n      dup1\n      0x40\n      mstore\n      pop\n      dup2\n      add\n      swap1\n      tag_22\n      swap2\n      swap1\n      tag_23\n      jump\t// in\n    tag_22:\n        /* \"contracts/03_udemy_andrei_dumitrescu/09_visibility.sol\":2032:2053  return obj.External() */\n      swap1\n      pop\n        /* \"contracts/03_udemy_andrei_dumitrescu/09_visibility.sol\":1961:2061  function outsideCaller() public view returns(string memory) {\r... */\n      swap1\n      jump\t// out\n        /* \"#utility.yul\":7:360   */\n    tag_25:\n      0x00\n        /* \"#utility.yul\":121:186   */\n      tag_27\n        /* \"#utility.yul\":136:185   */\n      tag_28\n        /* \"#utility.yul\":178:184   */\n      dup5\n        /* \"#utility.yul\":136:185   */\n      tag_29\n      jump\t// in\n    tag_28:\n        /* \"#utility.yul\":121:186   */\n      tag_30\n      jump\t// in\n    tag_27:\n        /* \"#utility.yul\":112:186   */\n      swap1\n      pop\n        /* \"#utility.yul\":209:215   */\n      dup3\n        /* \"#utility.yul\":202:207   */\n      dup2\n        /* \"#utility.yul\":195:216   */\n      mstore\n        /* \"#utility.yul\":247:251   */\n      0x20\n        /* \"#utility.yul\":240:245   */\n      dup2\n        /* \"#utility.yul\":236:252   */\n      add\n        /* \"#utility.yul\":285:288   */\n      dup5\n        /* \"#utility.yul\":276:282   */\n      dup5\n        /* \"#utility.yul\":271:274   */\n      dup5\n        /* \"#utility.yul\":267:283   */\n      add\n        /* \"#utility.yul\":264:289   */\n      gt\n        /* \"#utility.yul\":261:263   */\n      iszero\n      tag_31\n      jumpi\n        /* \"#utility.yul\":302:303   */\n      0x00\n        /* \"#utility.yul\":299:300   */\n      dup1\n        /* \"#utility.yul\":292:304   */\n      revert\n        /* \"#utility.yul\":261:263   */\n    tag_31:\n        /* \"#utility.yul\":315:354   */\n      tag_32\n        /* \"#utility.yul\":347:353   */\n      dup5\n        /* \"#utility.yul\":342:345   */\n      dup3\n        /* \"#utility.yul\":337:340   */\n      dup6\n        /* \"#utility.yul\":315:354   */\n      tag_33\n      jump\t// in\n    tag_32:\n        /* \"#utility.yul\":102:360   */\n      pop\n      swap4\n      swap3\n      pop\n      pop\n      pop\n      jump\t// out\n        /* \"#utility.yul\":380:668   */\n    tag_34:\n      0x00\n        /* \"#utility.yul\":496:499   */\n      dup3\n        /* \"#utility.yul\":489:493   */\n      0x1f\n        /* \"#utility.yul\":481:487   */\n      dup4\n        /* \"#utility.yul\":477:494   */\n      add\n        /* \"#utility.yul\":473:500   */\n      slt\n        /* \"#utility.yul\":463:465   */\n      tag_36\n      jumpi\n        /* \"#utility.yul\":514:515   */\n      0x00\n        /* \"#utility.yul\":511:512   */\n      dup1\n        /* \"#utility.yul\":504:516   */\n      revert\n        /* \"#utility.yul\":463:465   */\n    tag_36:\n        /* \"#utility.yul\":547:553   */\n      dup2\n        /* \"#utility.yul\":541:554   */\n      mload\n        /* \"#utility.yul\":572:662   */\n      tag_37\n        /* \"#utility.yul\":658:661   */\n      dup5\n        /* \"#utility.yul\":650:656   */\n      dup3\n        /* \"#utility.yul\":643:647   */\n      0x20\n        /* \"#utility.yul\":635:641   */\n      dup7\n        /* \"#utility.yul\":631:648   */\n      add\n        /* \"#utility.yul\":572:662   */\n      tag_25\n      jump\t// in\n    tag_37:\n        /* \"#utility.yul\":563:662   */\n      swap2\n      pop\n        /* \"#utility.yul\":453:668   */\n      pop\n      swap3\n      swap2\n      pop\n      pop\n      jump\t// out\n        /* \"#utility.yul\":674:1064   */\n    tag_23:\n      0x00\n        /* \"#utility.yul\":803:805   */\n      0x20\n        /* \"#utility.yul\":791:800   */\n      dup3\n        /* \"#utility.yul\":782:789   */\n      dup5\n        /* \"#utility.yul\":778:801   */\n      sub\n        /* \"#utility.yul\":774:806   */\n      slt\n        /* \"#utility.yul\":771:773   */\n      iszero\n      tag_39\n      jumpi\n        /* \"#utility.yul\":819:820   */\n      0x00\n        /* \"#utility.yul\":816:817   */\n      dup1\n        /* \"#utility.yul\":809:821   */\n      revert\n        /* \"#utility.yul\":771:773   */\n    tag_39:\n        /* \"#utility.yul\":883:884   */\n      0x00\n        /* \"#utility.yul\":872:881   */\n      dup3\n        /* \"#utility.yul\":868:885   */\n      add\n        /* \"#utility.yul\":862:886   */\n      mload\n        /* \"#utility.yul\":913:931   */\n      0xffffffffffffffff\n        /* \"#utility.yul\":905:911   */\n      dup2\n        /* \"#utility.yul\":902:932   */\n      gt\n        /* \"#utility.yul\":899:901   */\n      iszero\n      tag_40\n      jumpi\n        /* \"#utility.yul\":945:946   */\n      0x00\n        /* \"#utility.yul\":942:943   */\n      dup1\n        /* \"#utility.yul\":935:947   */\n      revert\n        /* \"#utility.yul\":899:901   */\n    tag_40:\n        /* \"#utility.yul\":973:1047   */\n      tag_41\n        /* \"#utility.yul\":1039:1046   */\n      dup5\n        /* \"#utility.yul\":1030:1036   */\n      dup3\n        /* \"#utility.yul\":1019:1028   */\n      dup6\n        /* \"#utility.yul\":1015:1037   */\n      add\n        /* \"#utility.yul\":973:1047   */\n      tag_34\n      jump\t// in\n    tag_41:\n        /* \"#utility.yul\":963:1047   */\n      swap2\n      pop\n        /* \"#utility.yul\":833:1057   */\n      pop\n        /* \"#utility.yul\":761:1064   */\n      swap3\n      swap2\n      pop\n      pop\n      jump\t// out\n        /* \"#utility.yul\":1070:1217   */\n    tag_42:\n        /* \"#utility.yul\":1165:1210   */\n      tag_44\n        /* \"#utility.yul\":1204:1209   */\n      dup2\n        /* \"#utility.yul\":1165:1210   */\n      tag_45\n      jump\t// in\n    tag_44:\n        /* \"#utility.yul\":1160:1163   */\n      dup3\n        /* \"#utility.yul\":1153:1211   */\n      mstore\n        /* \"#utility.yul\":1143:1217   */\n      pop\n      pop\n      jump\t// out\n        /* \"#utility.yul\":1223:1587   */\n    tag_46:\n      0x00\n        /* \"#utility.yul\":1339:1378   */\n      tag_48\n        /* \"#utility.yul\":1372:1377   */\n      dup3\n        /* \"#utility.yul\":1339:1378   */\n      tag_49\n      jump\t// in\n    tag_48:\n        /* \"#utility.yul\":1394:1465   */\n      tag_50\n        /* \"#utility.yul\":1458:1464   */\n      dup2\n        /* \"#utility.yul\":1453:1456   */\n      dup6\n        /* \"#utility.yul\":1394:1465   */\n      tag_51\n      jump\t// in\n    tag_50:\n        /* \"#utility.yul\":1387:1465   */\n      swap4\n      pop\n        /* \"#utility.yul\":1474:1526   */\n      tag_52\n        /* \"#utility.yul\":1519:1525   */\n      dup2\n        /* \"#utility.yul\":1514:1517   */\n      dup6\n        /* \"#utility.yul\":1507:1511   */\n      0x20\n        /* \"#utility.yul\":1500:1505   */\n      dup7\n        /* \"#utility.yul\":1496:1512   */\n      add\n        /* \"#utility.yul\":1474:1526   */\n      tag_33\n      jump\t// in\n    tag_52:\n        /* \"#utility.yul\":1551:1580   */\n      tag_53\n        /* \"#utility.yul\":1573:1579   */\n      dup2\n        /* \"#utility.yul\":1551:1580   */\n      tag_54\n      jump\t// in\n    tag_53:\n        /* \"#utility.yul\":1546:1549   */\n      dup5\n        /* \"#utility.yul\":1542:1581   */\n      add\n        /* \"#utility.yul\":1535:1581   */\n      swap2\n      pop\n        /* \"#utility.yul\":1315:1587   */\n      pop\n      swap3\n      swap2\n      pop\n      pop\n      jump\t// out\n        /* \"#utility.yul\":1593:1711   */\n    tag_55:\n        /* \"#utility.yul\":1680:1704   */\n      tag_57\n        /* \"#utility.yul\":1698:1703   */\n      dup2\n        /* \"#utility.yul\":1680:1704   */\n      tag_58\n      jump\t// in\n    tag_57:\n        /* \"#utility.yul\":1675:1678   */\n      dup3\n        /* \"#utility.yul\":1668:1705   */\n      mstore\n        /* \"#utility.yul\":1658:1711   */\n      pop\n      pop\n      jump\t// out\n        /* \"#utility.yul\":1717:1955   */\n    tag_13:\n      0x00\n        /* \"#utility.yul\":1856:1858   */\n      0x20\n        /* \"#utility.yul\":1845:1854   */\n      dup3\n        /* \"#utility.yul\":1841:1859   */\n      add\n        /* \"#utility.yul\":1833:1859   */\n      swap1\n      pop\n        /* \"#utility.yul\":1869:1948   */\n      tag_60\n        /* \"#utility.yul\":1945:1946   */\n      0x00\n        /* \"#utility.yul\":1934:1943   */\n      dup4\n        /* \"#utility.yul\":1930:1947   */\n      add\n        /* \"#utility.yul\":1921:1927   */\n      dup5\n        /* \"#utility.yul\":1869:1948   */\n      tag_42\n      jump\t// in\n    tag_60:\n        /* \"#utility.yul\":1823:1955   */\n      swap3\n      swap2\n      pop\n      pop\n      jump\t// out\n        /* \"#utility.yul\":1961:2274   */\n    tag_17:\n      0x00\n        /* \"#utility.yul\":2112:2114   */\n      0x20\n        /* \"#utility.yul\":2101:2110   */\n      dup3\n        /* \"#utility.yul\":2097:2115   */\n      add\n        /* \"#utility.yul\":2089:2115   */\n      swap1\n      pop\n        /* \"#utility.yul\":2161:2170   */\n      dup2\n        /* \"#utility.yul\":2155:2159   */\n      dup2\n        /* \"#utility.yul\":2151:2171   */\n      sub\n        /* \"#utility.yul\":2147:2148   */\n      0x00\n        /* \"#utility.yul\":2136:2145   */\n      dup4\n        /* \"#utility.yul\":2132:2149   */\n      add\n        /* \"#utility.yul\":2125:2172   */\n      mstore\n        /* \"#utility.yul\":2189:2267   */\n      tag_62\n        /* \"#utility.yul\":2262:2266   */\n      dup2\n        /* \"#utility.yul\":2253:2259   */\n      dup5\n        /* \"#utility.yul\":2189:2267   */\n      tag_46\n      jump\t// in\n    tag_62:\n        /* \"#utility.yul\":2181:2267   */\n      swap1\n      pop\n        /* \"#utility.yul\":2079:2274   */\n      swap3\n      swap2\n      pop\n      pop\n      jump\t// out\n        /* \"#utility.yul\":2280:2502   */\n    tag_9:\n      0x00\n        /* \"#utility.yul\":2411:2413   */\n      0x20\n        /* \"#utility.yul\":2400:2409   */\n      dup3\n        /* \"#utility.yul\":2396:2414   */\n      add\n        /* \"#utility.yul\":2388:2414   */\n      swap1\n      pop\n        /* \"#utility.yul\":2424:2495   */\n      tag_64\n        /* \"#utility.yul\":2492:2493   */\n      0x00\n        /* \"#utility.yul\":2481:2490   */\n      dup4\n        /* \"#utility.yul\":2477:2494   */\n      add\n        /* \"#utility.yul\":2468:2474   */\n      dup5\n        /* \"#utility.yul\":2424:2495   */\n      tag_55\n      jump\t// in\n    tag_64:\n        /* \"#utility.yul\":2378:2502   */\n      swap3\n      swap2\n      pop\n      pop\n      jump\t// out\n        /* \"#utility.yul\":2508:2791   */\n    tag_30:\n      0x00\n        /* \"#utility.yul\":2574:2576   */\n      0x40\n        /* \"#utility.yul\":2568:2577   */\n      mload\n        /* \"#utility.yul\":2558:2577   */\n      swap1\n      pop\n        /* \"#utility.yul\":2616:2620   */\n      dup2\n        /* \"#utility.yul\":2608:2614   */\n      dup2\n        /* \"#utility.yul\":2604:2621   */\n      add\n        /* \"#utility.yul\":2723:2729   */\n      dup2\n        /* \"#utility.yul\":2711:2721   */\n      dup2\n        /* \"#utility.yul\":2708:2730   */\n      lt\n        /* \"#utility.yul\":2687:2705   */\n      0xffffffffffffffff\n        /* \"#utility.yul\":2675:2685   */\n      dup3\n        /* \"#utility.yul\":2672:2706   */\n      gt\n        /* \"#utility.yul\":2669:2731   */\n      or\n        /* \"#utility.yul\":2666:2668   */\n      iszero\n      tag_66\n      jumpi\n        /* \"#utility.yul\":2734:2752   */\n      tag_67\n      tag_68\n      jump\t// in\n    tag_67:\n        /* \"#utility.yul\":2666:2668   */\n    tag_66:\n        /* \"#utility.yul\":2774:2784   */\n      dup1\n        /* \"#utility.yul\":2770:2772   */\n      0x40\n        /* \"#utility.yul\":2763:2785   */\n      mstore\n        /* \"#utility.yul\":2548:2791   */\n      pop\n      swap2\n      swap1\n      pop\n      jump\t// out\n        /* \"#utility.yul\":2797:3129   */\n    tag_29:\n      0x00\n        /* \"#utility.yul\":2949:2967   */\n      0xffffffffffffffff\n        /* \"#utility.yul\":2941:2947   */\n      dup3\n        /* \"#utility.yul\":2938:2968   */\n      gt\n        /* \"#utility.yul\":2935:2937   */\n      iszero\n      tag_70\n      jumpi\n        /* \"#utility.yul\":2971:2989   */\n      tag_71\n      tag_68\n      jump\t// in\n    tag_71:\n        /* \"#utility.yul\":2935:2937   */\n    tag_70:\n        /* \"#utility.yul\":3056:3060   */\n      0x1f\n        /* \"#utility.yul\":3052:3061   */\n      not\n        /* \"#utility.yul\":3045:3049   */\n      0x1f\n        /* \"#utility.yul\":3037:3043   */\n      dup4\n        /* \"#utility.yul\":3033:3050   */\n      add\n        /* \"#utility.yul\":3029:3062   */\n      and\n        /* \"#utility.yul\":3021:3062   */\n      swap1\n      pop\n        /* \"#utility.yul\":3117:3121   */\n      0x20\n        /* \"#utility.yul\":3111:3115   */\n      dup2\n        /* \"#utility.yul\":3107:3122   */\n      add\n        /* \"#utility.yul\":3099:3122   */\n      swap1\n      pop\n        /* \"#utility.yul\":2864:3129   */\n      swap2\n      swap1\n      pop\n      jump\t// out\n        /* \"#utility.yul\":3135:3234   */\n    tag_49:\n      0x00\n        /* \"#utility.yul\":3221:3226   */\n      dup2\n        /* \"#utility.yul\":3215:3227   */\n      mload\n        /* \"#utility.yul\":3205:3227   */\n      swap1\n      pop\n        /* \"#utility.yul\":3194:3234   */\n      swap2\n      swap1\n      pop\n      jump\t// out\n        /* \"#utility.yul\":3240:3409   */\n    tag_51:\n      0x00\n        /* \"#utility.yul\":3358:3364   */\n      dup3\n        /* \"#utility.yul\":3353:3356   */\n      dup3\n        /* \"#utility.yul\":3346:3365   */\n      mstore\n        /* \"#utility.yul\":3398:3402   */\n      0x20\n        /* \"#utility.yul\":3393:3396   */\n      dup3\n        /* \"#utility.yul\":3389:3403   */\n      add\n        /* \"#utility.yul\":3374:3403   */\n      swap1\n      pop\n        /* \"#utility.yul\":3336:3409   */\n      swap3\n      swap2\n      pop\n      pop\n      jump\t// out\n        /* \"#utility.yul\":3415:3541   */\n    tag_74:\n      0x00\n        /* \"#utility.yul\":3492:3534   */\n      0xffffffffffffffffffffffffffffffffffffffff\n        /* \"#utility.yul\":3485:3490   */\n      dup3\n        /* \"#utility.yul\":3481:3535   */\n      and\n        /* \"#utility.yul\":3470:3535   */\n      swap1\n      pop\n        /* \"#utility.yul\":3460:3541   */\n      swap2\n      swap1\n      pop\n      jump\t// out\n        /* \"#utility.yul\":3547:3624   */\n    tag_58:\n      0x00\n        /* \"#utility.yul\":3613:3618   */\n      dup2\n        /* \"#utility.yul\":3602:3618   */\n      swap1\n      pop\n        /* \"#utility.yul\":3592:3624   */\n      swap2\n      swap1\n      pop\n      jump\t// out\n        /* \"#utility.yul\":3630:3772   */\n    tag_45:\n      0x00\n        /* \"#utility.yul\":3721:3766   */\n      tag_78\n        /* \"#utility.yul\":3760:3765   */\n      dup3\n        /* \"#utility.yul\":3721:3766   */\n      tag_79\n      jump\t// in\n    tag_78:\n        /* \"#utility.yul\":3708:3766   */\n      swap1\n      pop\n        /* \"#utility.yul\":3698:3772   */\n      swap2\n      swap1\n      pop\n      jump\t// out\n        /* \"#utility.yul\":3778:3899   */\n    tag_79:\n      0x00\n        /* \"#utility.yul\":3869:3893   */\n      tag_81\n        /* \"#utility.yul\":3887:3892   */\n      dup3\n        /* \"#utility.yul\":3869:3893   */\n      tag_74\n      jump\t// in\n    tag_81:\n        /* \"#utility.yul\":3856:3893   */\n      swap1\n      pop\n        /* \"#utility.yul\":3846:3899   */\n      swap2\n      swap1\n      pop\n      jump\t// out\n        /* \"#utility.yul\":3905:4212   */\n    tag_33:\n        /* \"#utility.yul\":3973:3974   */\n      0x00\n        /* \"#utility.yul\":3983:4096   */\n    tag_83:\n        /* \"#utility.yul\":3997:4003   */\n      dup4\n        /* \"#utility.yul\":3994:3995   */\n      dup2\n        /* \"#utility.yul\":3991:4004   */\n      lt\n        /* \"#utility.yul\":3983:4096   */\n      iszero\n      tag_85\n      jumpi\n        /* \"#utility.yul\":4082:4083   */\n      dup1\n        /* \"#utility.yul\":4077:4080   */\n      dup3\n        /* \"#utility.yul\":4073:4084   */\n      add\n        /* \"#utility.yul\":4067:4085   */\n      mload\n        /* \"#utility.yul\":4063:4064   */\n      dup2\n        /* \"#utility.yul\":4058:4061   */\n      dup5\n        /* \"#utility.yul\":4054:4065   */\n      add\n        /* \"#utility.yul\":4047:4086   */\n      mstore\n        /* \"#utility.yul\":4019:4021   */\n      0x20\n        /* \"#utility.yul\":4016:4017   */\n      dup2\n        /* \"#utility.yul\":4012:4022   */\n      add\n        /* \"#utility.yul\":4007:4022   */\n      swap1\n      pop\n        /* \"#utility.yul\":3983:4096   */\n      jump(tag_83)\n    tag_85:\n        /* \"#utility.yul\":4114:4120   */\n      dup4\n        /* \"#utility.yul\":4111:4112   */\n      dup2\n        /* \"#utility.yul\":4108:4121   */\n      gt\n        /* \"#utility.yul\":4105:4107   */\n      iszero\n      tag_86\n      jumpi\n        /* \"#utility.yul\":4194:4195   */\n      0x00\n        /* \"#utility.yul\":4185:4191   */\n      dup5\n        /* \"#utility.yul\":4180:4183   */\n      dup5\n        /* \"#utility.yul\":4176:4192   */\n      add\n        /* \"#utility.yul\":4169:4196   */\n      mstore\n        /* \"#utility.yul\":4105:4107   */\n    tag_86:\n        /* \"#utility.yul\":3954:4212   */\n      pop\n      pop\n      pop\n      pop\n      jump\t// out\n        /* \"#utility.yul\":4218:4398   */\n    tag_68:\n        /* \"#utility.yul\":4266:4343   */\n      0x4e487b7100000000000000000000000000000000000000000000000000000000\n        /* \"#utility.yul\":4263:4264   */\n      0x00\n        /* \"#utility.yul\":4256:4344   */\n      mstore\n        /* \"#utility.yul\":4363:4367   */\n      0x41\n        /* \"#utility.yul\":4360:4361   */\n      0x04\n        /* \"#utility.yul\":4353:4368   */\n      mstore\n        /* \"#utility.yul\":4387:4391   */\n      0x24\n        /* \"#utility.yul\":4384:4385   */\n      0x00\n        /* \"#utility.yul\":4377:4392   */\n      revert\n        /* \"#utility.yul\":4404:4506   */\n    tag_54:\n      0x00\n        /* \"#utility.yul\":4496:4498   */\n      0x1f\n        /* \"#utility.yul\":4492:4499   */\n      not\n        /* \"#utility.yul\":4487:4489   */\n      0x1f\n        /* \"#utility.yul\":4480:4485   */\n      dup4\n        /* \"#utility.yul\":4476:4490   */\n      add\n        /* \"#utility.yul\":4472:4500   */\n      and\n        /* \"#utility.yul\":4462:4500   */\n      swap1\n      pop\n        /* \"#utility.yul\":4452:4506   */\n      swap2\n      swap1\n      pop\n      jump\t// out\n\n    auxdata: 0xa2646970667358221220dd37edafdc6d3ff7eb1eb0508206ec80c309e4dfd0a0050d2fa97d971ae9b91164736f6c63430008000033\n}\n\nsub_1: assembly {\n        /* \"contracts/03_udemy_andrei_dumitrescu/09_visibility.sol\":61:1122  contract A {\r... */\n      mstore(0x40, 0x80)\n        /* \"contracts/03_udemy_andrei_dumitrescu/09_visibility.sol\":96:98  10 */\n      0x0a\n        /* \"contracts/03_udemy_andrei_dumitrescu/09_visibility.sol\":79:98  uint private x = 10 */\n      0x00\n      sstore\n        /* \"contracts/03_udemy_andrei_dumitrescu/09_visibility.sol\":152:155  100 */\n      0x64\n        /* \"contracts/03_udemy_andrei_dumitrescu/09_visibility.sol\":134:155  uint internal y = 100 */\n      0x01\n      sstore\n        /* \"contracts/03_udemy_andrei_dumitrescu/09_visibility.sol\":224:228  1000 */\n      0x03e8\n        /* \"contracts/03_udemy_andrei_dumitrescu/09_visibility.sol\":208:228  uint public z = 1000 */\n      0x02\n      sstore\n        /* \"contracts/03_udemy_andrei_dumitrescu/09_visibility.sol\":250:279  string open = \"no visibility\" */\n      mload(0x40)\n      dup1\n      0x40\n      add\n      0x40\n      mstore\n      dup1\n      0x0d\n      dup2\n      mstore\n      0x20\n      add\n      0x6e6f207669736962696c69747900000000000000000000000000000000000000\n      dup2\n      mstore\n      pop\n      0x03\n      swap1\n      dup1\n      mload\n      swap1\n      0x20\n      add\n      swap1\n      tag_1\n      swap3\n      swap2\n      swap1\n      tag_2\n      jump\t// in\n    tag_1:\n      pop\n        /* \"contracts/03_udemy_andrei_dumitrescu/09_visibility.sol\":61:1122  contract A {\r... */\n      callvalue\n      dup1\n      iszero\n      tag_3\n      jumpi\n      0x00\n      dup1\n      revert\n    tag_3:\n      pop\n      jump(tag_4)\n    tag_2:\n      dup3\n      dup1\n      sload\n      tag_5\n      swap1\n      tag_6\n      jump\t// in\n    tag_5:\n      swap1\n      0x00\n      mstore\n      keccak256(0x00, 0x20)\n      swap1\n      0x1f\n      add\n      0x20\n      swap1\n      div\n      dup2\n      add\n      swap3\n      dup3\n      tag_8\n      jumpi\n      0x00\n      dup6\n      sstore\n      jump(tag_7)\n    tag_8:\n      dup3\n      0x1f\n      lt\n      tag_9\n      jumpi\n      dup1\n      mload\n      not(0xff)\n      and\n      dup4\n      dup1\n      add\n      or\n      dup6\n      sstore\n      jump(tag_7)\n    tag_9:\n      dup3\n      dup1\n      add\n      0x01\n      add\n      dup6\n      sstore\n      dup3\n      iszero\n      tag_7\n      jumpi\n      swap2\n      dup3\n      add\n    tag_10:\n      dup3\n      dup2\n      gt\n      iszero\n      tag_11\n      jumpi\n      dup3\n      mload\n      dup3\n      sstore\n      swap2\n      0x20\n      add\n      swap2\n      swap1\n      0x01\n      add\n      swap1\n      jump(tag_10)\n    tag_11:\n    tag_7:\n      pop\n      swap1\n      pop\n      tag_12\n      swap2\n      swap1\n      tag_13\n      jump\t// in\n    tag_12:\n      pop\n      swap1\n      jump\t// out\n    tag_13:\n    tag_14:\n      dup1\n      dup3\n      gt\n      iszero\n      tag_15\n      jumpi\n      0x00\n      dup2\n      0x00\n      swap1\n      sstore\n      pop\n      0x01\n      add\n      jump(tag_14)\n    tag_15:\n      pop\n      swap1\n      jump\t// out\n        /* \"#utility.yul\":7:327   */\n    tag_6:\n      0x00\n        /* \"#utility.yul\":88:89   */\n      0x02\n        /* \"#utility.yul\":82:86   */\n      dup3\n        /* \"#utility.yul\":78:90   */\n      div\n        /* \"#utility.yul\":68:90   */\n      swap1\n      pop\n        /* \"#utility.yul\":135:136   */\n      0x01\n        /* \"#utility.yul\":129:133   */\n      dup3\n        /* \"#utility.yul\":125:137   */\n      and\n        /* \"#utility.yul\":156:174   */\n      dup1\n        /* \"#utility.yul\":146:148   */\n      tag_18\n      jumpi\n        /* \"#utility.yul\":212:216   */\n      0x7f\n        /* \"#utility.yul\":204:210   */\n      dup3\n        /* \"#utility.yul\":200:217   */\n      and\n        /* \"#utility.yul\":190:217   */\n      swap2\n      pop\n        /* \"#utility.yul\":146:148   */\n    tag_18:\n        /* \"#utility.yul\":274:276   */\n      0x20\n        /* \"#utility.yul\":266:272   */\n      dup3\n        /* \"#utility.yul\":263:277   */\n      lt\n        /* \"#utility.yul\":243:261   */\n      dup2\n        /* \"#utility.yul\":240:278   */\n      eq\n        /* \"#utility.yul\":237:239   */\n      iszero\n      tag_19\n      jumpi\n        /* \"#utility.yul\":293:311   */\n      tag_20\n      tag_21\n      jump\t// in\n    tag_20:\n        /* \"#utility.yul\":237:239   */\n    tag_19:\n        /* \"#utility.yul\":58:327   */\n      pop\n      swap2\n      swap1\n      pop\n      jump\t// out\n        /* \"#utility.yul\":333:513   */\n    tag_21:\n        /* \"#utility.yul\":381:458   */\n      0x4e487b7100000000000000000000000000000000000000000000000000000000\n        /* \"#utility.yul\":378:379   */\n      0x00\n        /* \"#utility.yul\":371:459   */\n      mstore\n        /* \"#utility.yul\":478:482   */\n      0x22\n        /* \"#utility.yul\":475:476   */\n      0x04\n        /* \"#utility.yul\":468:483   */\n      mstore\n        /* \"#utility.yul\":502:506   */\n      0x24\n        /* \"#utility.yul\":499:500   */\n      0x00\n        /* \"#utility.yul\":492:507   */\n      revert\n        /* \"contracts/03_udemy_andrei_dumitrescu/09_visibility.sol\":61:1122  contract A {\r... */\n    tag_4:\n      dataSize(sub_0)\n      dup1\n      dataOffset(sub_0)\n      0x00\n      codecopy\n      0x00\n      return\n    stop\n\n    sub_0: assembly {\n            /* \"contracts/03_udemy_andrei_dumitrescu/09_visibility.sol\":61:1122  contract A {\r... */\n          mstore(0x40, 0x80)\n          callvalue\n          dup1\n          iszero\n          tag_1\n          jumpi\n          0x00\n          dup1\n          revert\n        tag_1:\n          pop\n          jumpi(tag_2, lt(calldatasize, 0x04))\n          shr(0xe0, calldataload(0x00))\n          dup1\n          0x1a6859fc\n          eq\n          tag_3\n          jumpi\n          dup1\n          0x5097e51f\n          eq\n          tag_4\n          jumpi\n          dup1\n          0x78f15805\n          eq\n          tag_5\n          jumpi\n          dup1\n          0xc5d7802e\n          eq\n          tag_6\n          jumpi\n          dup1\n          0xe6cdb78c\n          eq\n          tag_7\n          jumpi\n        tag_2:\n          0x00\n          dup1\n          revert\n            /* \"contracts/03_udemy_andrei_dumitrescu/09_visibility.sol\":683:864  function checkVariables() public pure returns(uint) {\r... */\n        tag_3:\n          tag_8\n          tag_9\n          jump\t// in\n        tag_8:\n          mload(0x40)\n          tag_10\n          swap2\n          swap1\n          tag_11\n          jump\t// in\n        tag_10:\n          mload(0x40)\n          dup1\n          swap2\n          sub\n          swap1\n          return\n            /* \"contracts/03_udemy_andrei_dumitrescu/09_visibility.sol\":588:675  function Public() public pure returns(string memory) {\r... */\n        tag_4:\n          tag_12\n          tag_13\n          jump\t// in\n        tag_12:\n          mload(0x40)\n          tag_14\n          swap2\n          swap1\n          tag_15\n          jump\t// in\n        tag_14:\n          mload(0x40)\n          dup1\n          swap2\n          sub\n          swap1\n          return\n            /* \"contracts/03_udemy_andrei_dumitrescu/09_visibility.sol\":487:580  function External() external pure returns(string memory) {\r... */\n        tag_5:\n          tag_16\n          tag_17\n          jump\t// in\n        tag_16:\n          mload(0x40)\n          tag_18\n          swap2\n          swap1\n          tag_15\n          jump\t// in\n        tag_18:\n          mload(0x40)\n          dup1\n          swap2\n          sub\n          swap1\n          return\n            /* \"contracts/03_udemy_andrei_dumitrescu/09_visibility.sol\":208:228  uint public z = 1000 */\n        tag_6:\n          tag_19\n          tag_20\n          jump\t// in\n        tag_19:\n          mload(0x40)\n          tag_21\n          swap2\n          swap1\n          tag_11\n          jump\t// in\n        tag_21:\n          mload(0x40)\n          dup1\n          swap2\n          sub\n          swap1\n          return\n            /* \"contracts/03_udemy_andrei_dumitrescu/09_visibility.sol\":872:1119  function checkFunctions() public pure returns(string memory) {\r... */\n        tag_7:\n          tag_22\n          tag_23\n          jump\t// in\n        tag_22:\n          mload(0x40)\n          tag_24\n          swap2\n          swap1\n          tag_15\n          jump\t// in\n        tag_24:\n          mload(0x40)\n          dup1\n          swap2\n          sub\n          swap1\n          return\n            /* \"contracts/03_udemy_andrei_dumitrescu/09_visibility.sol\":683:864  function checkVariables() public pure returns(uint) {\r... */\n        tag_9:\n            /* \"contracts/03_udemy_andrei_dumitrescu/09_visibility.sol\":729:733  uint */\n          0x00\n            /* \"contracts/03_udemy_andrei_dumitrescu/09_visibility.sol\":855:856  1 */\n          0x01\n            /* \"contracts/03_udemy_andrei_dumitrescu/09_visibility.sol\":848:856  return 1 */\n          swap1\n          pop\n            /* \"contracts/03_udemy_andrei_dumitrescu/09_visibility.sol\":683:864  function checkVariables() public pure returns(uint) {\r... */\n          swap1\n          jump\t// out\n            /* \"contracts/03_udemy_andrei_dumitrescu/09_visibility.sol\":588:675  function Public() public pure returns(string memory) {\r... */\n        tag_13:\n            /* \"contracts/03_udemy_andrei_dumitrescu/09_visibility.sol\":626:639  string memory */\n          0x60\n            /* \"contracts/03_udemy_andrei_dumitrescu/09_visibility.sol\":652:667  return \"public\" */\n          mload(0x40)\n          dup1\n          0x40\n          add\n          0x40\n          mstore\n          dup1\n          0x06\n          dup2\n          mstore\n          0x20\n          add\n          0x7075626c69630000000000000000000000000000000000000000000000000000\n          dup2\n          mstore\n          pop\n          swap1\n          pop\n            /* \"contracts/03_udemy_andrei_dumitrescu/09_visibility.sol\":588:675  function Public() public pure returns(string memory) {\r... */\n          swap1\n          jump\t// out\n            /* \"contracts/03_udemy_andrei_dumitrescu/09_visibility.sol\":487:580  function External() external pure returns(string memory) {\r... */\n        tag_17:\n            /* \"contracts/03_udemy_andrei_dumitrescu/09_visibility.sol\":529:542  string memory */\n          0x60\n            /* \"contracts/03_udemy_andrei_dumitrescu/09_visibility.sol\":555:572  return \"external\" */\n          mload(0x40)\n          dup1\n          0x40\n          add\n          0x40\n          mstore\n          dup1\n          0x08\n          dup2\n          mstore\n          0x20\n          add\n          0x65787465726e616c000000000000000000000000000000000000000000000000\n          dup2\n          mstore\n          pop\n          swap1\n          pop\n            /* \"contracts/03_udemy_andrei_dumitrescu/09_visibility.sol\":487:580  function External() external pure returns(string memory) {\r... */\n          swap1\n          jump\t// out\n            /* \"contracts/03_udemy_andrei_dumitrescu/09_visibility.sol\":208:228  uint public z = 1000 */\n        tag_20:\n          sload(0x02)\n          dup2\n          jump\t// out\n            /* \"contracts/03_udemy_andrei_dumitrescu/09_visibility.sol\":872:1119  function checkFunctions() public pure returns(string memory) {\r... */\n        tag_23:\n            /* \"contracts/03_udemy_andrei_dumitrescu/09_visibility.sol\":918:931  string memory */\n          0x60\n            /* \"contracts/03_udemy_andrei_dumitrescu/09_visibility.sol\":1091:1099  Public() */\n          tag_29\n            /* \"contracts/03_udemy_andrei_dumitrescu/09_visibility.sol\":1091:1097  Public */\n          tag_13\n            /* \"contracts/03_udemy_andrei_dumitrescu/09_visibility.sol\":1091:1099  Public() */\n          jump\t// in\n        tag_29:\n            /* \"contracts/03_udemy_andrei_dumitrescu/09_visibility.sol\":1084:1099  return Public() */\n          swap1\n          pop\n            /* \"contracts/03_udemy_andrei_dumitrescu/09_visibility.sol\":872:1119  function checkFunctions() public pure returns(string memory) {\r... */\n          swap1\n          jump\t// out\n            /* \"#utility.yul\":7:371   */\n        tag_31:\n          0x00\n            /* \"#utility.yul\":123:162   */\n          tag_33\n            /* \"#utility.yul\":156:161   */\n          dup3\n            /* \"#utility.yul\":123:162   */\n          tag_34\n          jump\t// in\n        tag_33:\n            /* \"#utility.yul\":178:249   */\n          tag_35\n            /* \"#utility.yul\":242:248   */\n          dup2\n            /* \"#utility.yul\":237:240   */\n          dup6\n            /* \"#utility.yul\":178:249   */\n          tag_36\n          jump\t// in\n        tag_35:\n            /* \"#utility.yul\":171:249   */\n          swap4\n          pop\n            /* \"#utility.yul\":258:310   */\n          tag_37\n            /* \"#utility.yul\":303:309   */\n          dup2\n            /* \"#utility.yul\":298:301   */\n          dup6\n            /* \"#utility.yul\":291:295   */\n          0x20\n            /* \"#utility.yul\":284:289   */\n          dup7\n            /* \"#utility.yul\":280:296   */\n          add\n            /* \"#utility.yul\":258:310   */\n          tag_38\n          jump\t// in\n        tag_37:\n            /* \"#utility.yul\":335:364   */\n          tag_39\n            /* \"#utility.yul\":357:363   */\n          dup2\n            /* \"#utility.yul\":335:364   */\n          tag_40\n          jump\t// in\n        tag_39:\n            /* \"#utility.yul\":330:333   */\n          dup5\n            /* \"#utility.yul\":326:365   */\n          add\n            /* \"#utility.yul\":319:365   */\n          swap2\n          pop\n            /* \"#utility.yul\":99:371   */\n          pop\n          swap3\n          swap2\n          pop\n          pop\n          jump\t// out\n            /* \"#utility.yul\":377:495   */\n        tag_41:\n            /* \"#utility.yul\":464:488   */\n          tag_43\n            /* \"#utility.yul\":482:487   */\n          dup2\n            /* \"#utility.yul\":464:488   */\n          tag_44\n          jump\t// in\n        tag_43:\n            /* \"#utility.yul\":459:462   */\n          dup3\n            /* \"#utility.yul\":452:489   */\n          mstore\n            /* \"#utility.yul\":442:495   */\n          pop\n          pop\n          jump\t// out\n            /* \"#utility.yul\":501:814   */\n        tag_15:\n          0x00\n            /* \"#utility.yul\":652:654   */\n          0x20\n            /* \"#utility.yul\":641:650   */\n          dup3\n            /* \"#utility.yul\":637:655   */\n          add\n            /* \"#utility.yul\":629:655   */\n          swap1\n          pop\n            /* \"#utility.yul\":701:710   */\n          dup2\n            /* \"#utility.yul\":695:699   */\n          dup2\n            /* \"#utility.yul\":691:711   */\n          sub\n            /* \"#utility.yul\":687:688   */\n          0x00\n            /* \"#utility.yul\":676:685   */\n          dup4\n            /* \"#utility.yul\":672:689   */\n          add\n            /* \"#utility.yul\":665:712   */\n          mstore\n            /* \"#utility.yul\":729:807   */\n          tag_46\n            /* \"#utility.yul\":802:806   */\n          dup2\n            /* \"#utility.yul\":793:799   */\n          dup5\n            /* \"#utility.yul\":729:807   */\n          tag_31\n          jump\t// in\n        tag_46:\n            /* \"#utility.yul\":721:807   */\n          swap1\n          pop\n            /* \"#utility.yul\":619:814   */\n          swap3\n          swap2\n          pop\n          pop\n          jump\t// out\n            /* \"#utility.yul\":820:1042   */\n        tag_11:\n          0x00\n            /* \"#utility.yul\":951:953   */\n          0x20\n            /* \"#utility.yul\":940:949   */\n          dup3\n            /* \"#utility.yul\":936:954   */\n          add\n            /* \"#utility.yul\":928:954   */\n          swap1\n          pop\n            /* \"#utility.yul\":964:1035   */\n          tag_48\n            /* \"#utility.yul\":1032:1033   */\n          0x00\n            /* \"#utility.yul\":1021:1030   */\n          dup4\n            /* \"#utility.yul\":1017:1034   */\n          add\n            /* \"#utility.yul\":1008:1014   */\n          dup5\n            /* \"#utility.yul\":964:1035   */\n          tag_41\n          jump\t// in\n        tag_48:\n            /* \"#utility.yul\":918:1042   */\n          swap3\n          swap2\n          pop\n          pop\n          jump\t// out\n            /* \"#utility.yul\":1048:1147   */\n        tag_34:\n          0x00\n            /* \"#utility.yul\":1134:1139   */\n          dup2\n            /* \"#utility.yul\":1128:1140   */\n          mload\n            /* \"#utility.yul\":1118:1140   */\n          swap1\n          pop\n            /* \"#utility.yul\":1107:1147   */\n          swap2\n          swap1\n          pop\n          jump\t// out\n            /* \"#utility.yul\":1153:1322   */\n        tag_36:\n          0x00\n            /* \"#utility.yul\":1271:1277   */\n          dup3\n            /* \"#utility.yul\":1266:1269   */\n          dup3\n            /* \"#utility.yul\":1259:1278   */\n          mstore\n            /* \"#utility.yul\":1311:1315   */\n          0x20\n            /* \"#utility.yul\":1306:1309   */\n          dup3\n            /* \"#utility.yul\":1302:1316   */\n          add\n            /* \"#utility.yul\":1287:1316   */\n          swap1\n          pop\n            /* \"#utility.yul\":1249:1322   */\n          swap3\n          swap2\n          pop\n          pop\n          jump\t// out\n            /* \"#utility.yul\":1328:1405   */\n        tag_44:\n          0x00\n            /* \"#utility.yul\":1394:1399   */\n          dup2\n            /* \"#utility.yul\":1383:1399   */\n          swap1\n          pop\n            /* \"#utility.yul\":1373:1405   */\n          swap2\n          swap1\n          pop\n          jump\t// out\n            /* \"#utility.yul\":1411:1718   */\n        tag_38:\n            /* \"#utility.yul\":1479:1480   */\n          0x00\n            /* \"#utility.yul\":1489:1602   */\n        tag_53:\n            /* \"#utility.yul\":1503:1509   */\n          dup4\n            /* \"#utility.yul\":1500:1501   */\n          dup2\n            /* \"#utility.yul\":1497:1510   */\n          lt\n            /* \"#utility.yul\":1489:1602   */\n          iszero\n          tag_55\n          jumpi\n            /* \"#utility.yul\":1588:1589   */\n          dup1\n            /* \"#utility.yul\":1583:1586   */\n          dup3\n            /* \"#utility.yul\":1579:1590   */\n          add\n            /* \"#utility.yul\":1573:1591   */\n          mload\n            /* \"#utility.yul\":1569:1570   */\n          dup2\n            /* \"#utility.yul\":1564:1567   */\n          dup5\n            /* \"#utility.yul\":1560:1571   */\n          add\n            /* \"#utility.yul\":1553:1592   */\n          mstore\n            /* \"#utility.yul\":1525:1527   */\n          0x20\n            /* \"#utility.yul\":1522:1523   */\n          dup2\n            /* \"#utility.yul\":1518:1528   */\n          add\n            /* \"#utility.yul\":1513:1528   */\n          swap1\n          pop\n            /* \"#utility.yul\":1489:1602   */\n          jump(tag_53)\n        tag_55:\n            /* \"#utility.yul\":1620:1626   */\n          dup4\n            /* \"#utility.yul\":1617:1618   */\n          dup2\n            /* \"#utility.yul\":1614:1627   */\n          gt\n            /* \"#utility.yul\":1611:1613   */\n          iszero\n          tag_56\n          jumpi\n            /* \"#utility.yul\":1700:1701   */\n          0x00\n            /* \"#utility.yul\":1691:1697   */\n          dup5\n            /* \"#utility.yul\":1686:1689   */\n          dup5\n            /* \"#utility.yul\":1682:1698   */\n          add\n            /* \"#utility.yul\":1675:1702   */\n          mstore\n            /* \"#utility.yul\":1611:1613   */\n        tag_56:\n            /* \"#utility.yul\":1460:1718   */\n          pop\n          pop\n          pop\n          pop\n          jump\t// out\n            /* \"#utility.yul\":1724:1826   */\n        tag_40:\n          0x00\n            /* \"#utility.yul\":1816:1818   */\n          0x1f\n            /* \"#utility.yul\":1812:1819   */\n          not\n            /* \"#utility.yul\":1807:1809   */\n          0x1f\n            /* \"#utility.yul\":1800:1805   */\n          dup4\n            /* \"#utility.yul\":1796:1810   */\n          add\n            /* \"#utility.yul\":1792:1820   */\n          and\n            /* \"#utility.yul\":1782:1820   */\n          swap1\n          pop\n            /* \"#utility.yul\":1772:1826   */\n          swap2\n          swap1\n          pop\n          jump\t// out\n\n        auxdata: 0xa2646970667358221220cc62944105a041dab9c8bbf5a348e5d5ba6ec99a58352d18b29ace85abffe34464736f6c63430008000033\n    }\n}\n",
				"bytecode": {
					"linkReferences": {},
					"object": "608060405260405161001090610188565b604051809103906000f08015801561002c573d6000803e3d6000fd5b506000806101000a81548173ffffffffffffffffffffffffffffffffffffffff021916908373ffffffffffffffffffffffffffffffffffffffff16021790555060405161007890610188565b604051809103906000f080158015610094573d6000803e3d6000fd5b50600160006101000a81548173ffffffffffffffffffffffffffffffffffffffff021916908373ffffffffffffffffffffffffffffffffffffffff16021790555060008054906101000a900473ffffffffffffffffffffffffffffffffffffffff1673ffffffffffffffffffffffffffffffffffffffff1663c5d7802e6040518163ffffffff1660e01b815260040160206040518083038186803b15801561013b57600080fd5b505afa15801561014f573d6000803e3d6000fd5b505050506040513d601f19601f8201168201806040525081019061017391906101aa565b60025534801561018257600080fd5b506101f4565b6104348061064583390190565b6000815190506101a4816101dd565b92915050565b6000602082840312156101bc57600080fd5b60006101ca84828501610195565b91505092915050565b6000819050919050565b6101e6816101d3565b81146101f157600080fd5b50565b610442806102036000396000f3fe608060405234801561001057600080fd5b50600436106100415760003560e01c80630dbe671f14610046578063605b85ad14610064578063da68252a14610082575b600080fd5b61004e6100a0565b60405161005b91906102b3565b60405180910390f35b61006c6100a6565b6040516100799190610276565b60405180910390f35b61008a6100cc565b6040516100979190610291565b60405180910390f35b60025481565b600160009054906101000a900473ffffffffffffffffffffffffffffffffffffffff1681565b606060008054906101000a900473ffffffffffffffffffffffffffffffffffffffff1673ffffffffffffffffffffffffffffffffffffffff166378f158056040518163ffffffff1660e01b815260040160006040518083038186803b15801561013457600080fd5b505afa158015610148573d6000803e3d6000fd5b505050506040513d6000823e3d601f19601f8201168201806040525081019061017191906101de565b905090565b6000610189610184846102ff565b6102ce565b9050828152602081018484840111156101a157600080fd5b6101ac848285610399565b509392505050565b600082601f8301126101c557600080fd5b81516101d5848260208601610176565b91505092915050565b6000602082840312156101f057600080fd5b600082015167ffffffffffffffff81111561020a57600080fd5b610216848285016101b4565b91505092915050565b61022881610375565b82525050565b60006102398261032f565b610243818561033a565b9350610253818560208601610399565b61025c816103fb565b840191505092915050565b6102708161036b565b82525050565b600060208201905061028b600083018461021f565b92915050565b600060208201905081810360008301526102ab818461022e565b905092915050565b60006020820190506102c86000830184610267565b92915050565b6000604051905081810181811067ffffffffffffffff821117156102f5576102f46103cc565b5b8060405250919050565b600067ffffffffffffffff82111561031a576103196103cc565b5b601f19601f8301169050602081019050919050565b600081519050919050565b600082825260208201905092915050565b600073ffffffffffffffffffffffffffffffffffffffff82169050919050565b6000819050919050565b600061038082610387565b9050919050565b60006103928261034b565b9050919050565b60005b838110156103b757808201518184015260208101905061039c565b838111156103c6576000848401525b50505050565b7f4e487b7100000000000000000000000000000000000000000000000000000000600052604160045260246000fd5b6000601f19601f830116905091905056fea2646970667358221220dd37edafdc6d3ff7eb1eb0508206ec80c309e4dfd0a0050d2fa97d971ae9b91164736f6c634300080000336080604052600a60005560646001556103e86002556040518060400160405280600d81526020017f6e6f207669736962696c697479000000000000000000000000000000000000008152506003908051906020019061005f929190610072565b5034801561006c57600080fd5b50610176565b82805461007e90610115565b90600052602060002090601f0160209004810192826100a057600085556100e7565b82601f106100b957805160ff19168380011785556100e7565b828001600101855582156100e7579182015b828111156100e65782518255916020019190600101906100cb565b5b5090506100f491906100f8565b5090565b5b808211156101115760008160009055506001016100f9565b5090565b6000600282049050600182168061012d57607f821691505b6020821081141561014157610140610147565b5b50919050565b7f4e487b7100000000000000000000000000000000000000000000000000000000600052602260045260246000fd5b6102af806101856000396000f3fe608060405234801561001057600080fd5b50600436106100575760003560e01c80631a6859fc1461005c5780635097e51f1461007a57806378f1580514610098578063c5d7802e146100b6578063e6cdb78c146100d4575b600080fd5b6100646100f2565b60405161007191906101f4565b60405180910390f35b6100826100fb565b60405161008f91906101d2565b60405180910390f35b6100a0610138565b6040516100ad91906101d2565b60405180910390f35b6100be610175565b6040516100cb91906101f4565b60405180910390f35b6100dc61017b565b6040516100e991906101d2565b60405180910390f35b60006001905090565b60606040518060400160405280600681526020017f7075626c69630000000000000000000000000000000000000000000000000000815250905090565b60606040518060400160405280600881526020017f65787465726e616c000000000000000000000000000000000000000000000000815250905090565b60025481565b60606101856100fb565b905090565b60006101958261020f565b61019f818561021a565b93506101af818560208601610235565b6101b881610268565b840191505092915050565b6101cc8161022b565b82525050565b600060208201905081810360008301526101ec818461018a565b905092915050565b600060208201905061020960008301846101c3565b92915050565b600081519050919050565b600082825260208201905092915050565b6000819050919050565b60005b83811015610253578082015181840152602081019050610238565b83811115610262576000848401525b50505050565b6000601f19601f830116905091905056fea2646970667358221220cc62944105a041dab9c8bbf5a348e5d5ba6ec99a58352d18b29ace85abffe34464736f6c63430008000033",
					"opcodes": "PUSH1 0x80 PUSH1 0x40 MSTORE PUSH1 0x40 MLOAD PUSH2 0x10 SWAP1 PUSH2 0x188 JUMP JUMPDEST PUSH1 0x40 MLOAD DUP1 SWAP2 SUB SWAP1 PUSH1 0x0 CREATE DUP1 ISZERO DUP1 ISZERO PUSH2 0x2C JUMPI RETURNDATASIZE PUSH1 0x0 DUP1 RETURNDATACOPY RETURNDATASIZE PUSH1 0x0 REVERT JUMPDEST POP PUSH1 0x0 DUP1 PUSH2 0x100 EXP DUP2 SLOAD DUP2 PUSH20 0xFFFFFFFFFFFFFFFFFFFFFFFFFFFFFFFFFFFFFFFF MUL NOT AND SWAP1 DUP4 PUSH20 0xFFFFFFFFFFFFFFFFFFFFFFFFFFFFFFFFFFFFFFFF AND MUL OR SWAP1 SSTORE POP PUSH1 0x40 MLOAD PUSH2 0x78 SWAP1 PUSH2 0x188 JUMP JUMPDEST PUSH1 0x40 MLOAD DUP1 SWAP2 SUB SWAP1 PUSH1 0x0 CREATE DUP1 ISZERO DUP1 ISZERO PUSH2 0x94 JUMPI RETURNDATASIZE PUSH1 0x0 DUP1 RETURNDATACOPY RETURNDATASIZE PUSH1 0x0 REVERT JUMPDEST POP PUSH1 0x1 PUSH1 0x0 PUSH2 0x100 EXP DUP2 SLOAD DUP2 PUSH20 0xFFFFFFFFFFFFFFFFFFFFFFFFFFFFFFFFFFFFFFFF MUL NOT AND SWAP1 DUP4 PUSH20 0xFFFFFFFFFFFFFFFFFFFFFFFFFFFFFFFFFFFFFFFF AND MUL OR SWAP1 SSTORE POP PUSH1 0x0 DUP1 SLOAD SWAP1 PUSH2 0x100 EXP SWAP1 DIV PUSH20 0xFFFFFFFFFFFFFFFFFFFFFFFFFFFFFFFFFFFFFFFF AND PUSH20 0xFFFFFFFFFFFFFFFFFFFFFFFFFFFFFFFFFFFFFFFF AND PUSH4 0xC5D7802E PUSH1 0x40 MLOAD DUP2 PUSH4 0xFFFFFFFF AND PUSH1 0xE0 SHL DUP2 MSTORE PUSH1 0x4 ADD PUSH1 0x20 PUSH1 0x40 MLOAD DUP1 DUP4 SUB DUP2 DUP7 DUP1 EXTCODESIZE ISZERO DUP1 ISZERO PUSH2 0x13B JUMPI PUSH1 0x0 DUP1 REVERT JUMPDEST POP GAS STATICCALL ISZERO DUP1 ISZERO PUSH2 0x14F JUMPI RETURNDATASIZE PUSH1 0x0 DUP1 RETURNDATACOPY RETURNDATASIZE PUSH1 0x0 REVERT JUMPDEST POP POP POP POP PUSH1 0x40 MLOAD RETURNDATASIZE PUSH1 0x1F NOT PUSH1 0x1F DUP3 ADD AND DUP3 ADD DUP1 PUSH1 0x40 MSTORE POP DUP2 ADD SWAP1 PUSH2 0x173 SWAP2 SWAP1 PUSH2 0x1AA JUMP JUMPDEST PUSH1 0x2 SSTORE CALLVALUE DUP1 ISZERO PUSH2 0x182 JUMPI PUSH1 0x0 DUP1 REVERT JUMPDEST POP PUSH2 0x1F4 JUMP JUMPDEST PUSH2 0x434 DUP1 PUSH2 0x645 DUP4 CODECOPY ADD SWAP1 JUMP JUMPDEST PUSH1 0x0 DUP2 MLOAD SWAP1 POP PUSH2 0x1A4 DUP2 PUSH2 0x1DD JUMP JUMPDEST SWAP3 SWAP2 POP POP JUMP JUMPDEST PUSH1 0x0 PUSH1 0x20 DUP3 DUP5 SUB SLT ISZERO PUSH2 0x1BC JUMPI PUSH1 0x0 DUP1 REVERT JUMPDEST PUSH1 0x0 PUSH2 0x1CA DUP5 DUP3 DUP6 ADD PUSH2 0x195 JUMP JUMPDEST SWAP2 POP POP SWAP3 SWAP2 POP POP JUMP JUMPDEST PUSH1 0x0 DUP2 SWAP1 POP SWAP2 SWAP1 POP JUMP JUMPDEST PUSH2 0x1E6 DUP2 PUSH2 0x1D3 JUMP JUMPDEST DUP2 EQ PUSH2 0x1F1 JUMPI PUSH1 0x0 DUP1 REVERT JUMPDEST POP JUMP JUMPDEST PUSH2 0x442 DUP1 PUSH2 0x203 PUSH1 0x0 CODECOPY PUSH1 0x0 RETURN INVALID PUSH1 0x80 PUSH1 0x40 MSTORE CALLVALUE DUP1 ISZERO PUSH2 0x10 JUMPI PUSH1 0x0 DUP1 REVERT JUMPDEST POP PUSH1 0x4 CALLDATASIZE LT PUSH2 0x41 JUMPI PUSH1 0x0 CALLDATALOAD PUSH1 0xE0 SHR DUP1 PUSH4 0xDBE671F EQ PUSH2 0x46 JUMPI DUP1 PUSH4 0x605B85AD EQ PUSH2 0x64 JUMPI DUP1 PUSH4 0xDA68252A EQ PUSH2 0x82 JUMPI JUMPDEST PUSH1 0x0 DUP1 REVERT JUMPDEST PUSH2 0x4E PUSH2 0xA0 JUMP JUMPDEST PUSH1 0x40 MLOAD PUSH2 0x5B SWAP2 SWAP1 PUSH2 0x2B3 JUMP JUMPDEST PUSH1 0x40 MLOAD DUP1 SWAP2 SUB SWAP1 RETURN JUMPDEST PUSH2 0x6C PUSH2 0xA6 JUMP JUMPDEST PUSH1 0x40 MLOAD PUSH2 0x79 SWAP2 SWAP1 PUSH2 0x276 JUMP JUMPDEST PUSH1 0x40 MLOAD DUP1 SWAP2 SUB SWAP1 RETURN JUMPDEST PUSH2 0x8A PUSH2 0xCC JUMP JUMPDEST PUSH1 0x40 MLOAD PUSH2 0x97 SWAP2 SWAP1 PUSH2 0x291 JUMP JUMPDEST PUSH1 0x40 MLOAD DUP1 SWAP2 SUB SWAP1 RETURN JUMPDEST PUSH1 0x2 SLOAD DUP2 JUMP JUMPDEST PUSH1 0x1 PUSH1 0x0 SWAP1 SLOAD SWAP1 PUSH2 0x100 EXP SWAP1 DIV PUSH20 0xFFFFFFFFFFFFFFFFFFFFFFFFFFFFFFFFFFFFFFFF AND DUP2 JUMP JUMPDEST PUSH1 0x60 PUSH1 0x0 DUP1 SLOAD SWAP1 PUSH2 0x100 EXP SWAP1 DIV PUSH20 0xFFFFFFFFFFFFFFFFFFFFFFFFFFFFFFFFFFFFFFFF AND PUSH20 0xFFFFFFFFFFFFFFFFFFFFFFFFFFFFFFFFFFFFFFFF AND PUSH4 0x78F15805 PUSH1 0x40 MLOAD DUP2 PUSH4 0xFFFFFFFF AND PUSH1 0xE0 SHL DUP2 MSTORE PUSH1 0x4 ADD PUSH1 0x0 PUSH1 0x40 MLOAD DUP1 DUP4 SUB DUP2 DUP7 DUP1 EXTCODESIZE ISZERO DUP1 ISZERO PUSH2 0x134 JUMPI PUSH1 0x0 DUP1 REVERT JUMPDEST POP GAS STATICCALL ISZERO DUP1 ISZERO PUSH2 0x148 JUMPI RETURNDATASIZE PUSH1 0x0 DUP1 RETURNDATACOPY RETURNDATASIZE PUSH1 0x0 REVERT JUMPDEST POP POP POP POP PUSH1 0x40 MLOAD RETURNDATASIZE PUSH1 0x0 DUP3 RETURNDATACOPY RETURNDATASIZE PUSH1 0x1F NOT PUSH1 0x1F DUP3 ADD AND DUP3 ADD DUP1 PUSH1 0x40 MSTORE POP DUP2 ADD SWAP1 PUSH2 0x171 SWAP2 SWAP1 PUSH2 0x1DE JUMP JUMPDEST SWAP1 POP SWAP1 JUMP JUMPDEST PUSH1 0x0 PUSH2 0x189 PUSH2 0x184 DUP5 PUSH2 0x2FF JUMP JUMPDEST PUSH2 0x2CE JUMP JUMPDEST SWAP1 POP DUP3 DUP2 MSTORE PUSH1 0x20 DUP2 ADD DUP5 DUP5 DUP5 ADD GT ISZERO PUSH2 0x1A1 JUMPI PUSH1 0x0 DUP1 REVERT JUMPDEST PUSH2 0x1AC DUP5 DUP3 DUP6 PUSH2 0x399 JUMP JUMPDEST POP SWAP4 SWAP3 POP POP POP JUMP JUMPDEST PUSH1 0x0 DUP3 PUSH1 0x1F DUP4 ADD SLT PUSH2 0x1C5 JUMPI PUSH1 0x0 DUP1 REVERT JUMPDEST DUP2 MLOAD PUSH2 0x1D5 DUP5 DUP3 PUSH1 0x20 DUP7 ADD PUSH2 0x176 JUMP JUMPDEST SWAP2 POP POP SWAP3 SWAP2 POP POP JUMP JUMPDEST PUSH1 0x0 PUSH1 0x20 DUP3 DUP5 SUB SLT ISZERO PUSH2 0x1F0 JUMPI PUSH1 0x0 DUP1 REVERT JUMPDEST PUSH1 0x0 DUP3 ADD MLOAD PUSH8 0xFFFFFFFFFFFFFFFF DUP2 GT ISZERO PUSH2 0x20A JUMPI PUSH1 0x0 DUP1 REVERT JUMPDEST PUSH2 0x216 DUP5 DUP3 DUP6 ADD PUSH2 0x1B4 JUMP JUMPDEST SWAP2 POP POP SWAP3 SWAP2 POP POP JUMP JUMPDEST PUSH2 0x228 DUP2 PUSH2 0x375 JUMP JUMPDEST DUP3 MSTORE POP POP JUMP JUMPDEST PUSH1 0x0 PUSH2 0x239 DUP3 PUSH2 0x32F JUMP JUMPDEST PUSH2 0x243 DUP2 DUP6 PUSH2 0x33A JUMP JUMPDEST SWAP4 POP PUSH2 0x253 DUP2 DUP6 PUSH1 0x20 DUP7 ADD PUSH2 0x399 JUMP JUMPDEST PUSH2 0x25C DUP2 PUSH2 0x3FB JUMP JUMPDEST DUP5 ADD SWAP2 POP POP SWAP3 SWAP2 POP POP JUMP JUMPDEST PUSH2 0x270 DUP2 PUSH2 0x36B JUMP JUMPDEST DUP3 MSTORE POP POP JUMP JUMPDEST PUSH1 0x0 PUSH1 0x20 DUP3 ADD SWAP1 POP PUSH2 0x28B PUSH1 0x0 DUP4 ADD DUP5 PUSH2 0x21F JUMP JUMPDEST SWAP3 SWAP2 POP POP JUMP JUMPDEST PUSH1 0x0 PUSH1 0x20 DUP3 ADD SWAP1 POP DUP2 DUP2 SUB PUSH1 0x0 DUP4 ADD MSTORE PUSH2 0x2AB DUP2 DUP5 PUSH2 0x22E JUMP JUMPDEST SWAP1 POP SWAP3 SWAP2 POP POP JUMP JUMPDEST PUSH1 0x0 PUSH1 0x20 DUP3 ADD SWAP1 POP PUSH2 0x2C8 PUSH1 0x0 DUP4 ADD DUP5 PUSH2 0x267 JUMP JUMPDEST SWAP3 SWAP2 POP POP JUMP JUMPDEST PUSH1 0x0 PUSH1 0x40 MLOAD SWAP1 POP DUP2 DUP2 ADD DUP2 DUP2 LT PUSH8 0xFFFFFFFFFFFFFFFF DUP3 GT OR ISZERO PUSH2 0x2F5 JUMPI PUSH2 0x2F4 PUSH2 0x3CC JUMP JUMPDEST JUMPDEST DUP1 PUSH1 0x40 MSTORE POP SWAP2 SWAP1 POP JUMP JUMPDEST PUSH1 0x0 PUSH8 0xFFFFFFFFFFFFFFFF DUP3 GT ISZERO PUSH2 0x31A JUMPI PUSH2 0x319 PUSH2 0x3CC JUMP JUMPDEST JUMPDEST PUSH1 0x1F NOT PUSH1 0x1F DUP4 ADD AND SWAP1 POP PUSH1 0x20 DUP2 ADD SWAP1 POP SWAP2 SWAP1 POP JUMP JUMPDEST PUSH1 0x0 DUP2 MLOAD SWAP1 POP SWAP2 SWAP1 POP JUMP JUMPDEST PUSH1 0x0 DUP3 DUP3 MSTORE PUSH1 0x20 DUP3 ADD SWAP1 POP SWAP3 SWAP2 POP POP JUMP JUMPDEST PUSH1 0x0 PUSH20 0xFFFFFFFFFFFFFFFFFFFFFFFFFFFFFFFFFFFFFFFF DUP3 AND SWAP1 POP SWAP2 SWAP1 POP JUMP JUMPDEST PUSH1 0x0 DUP2 SWAP1 POP SWAP2 SWAP1 POP JUMP JUMPDEST PUSH1 0x0 PUSH2 0x380 DUP3 PUSH2 0x387 JUMP JUMPDEST SWAP1 POP SWAP2 SWAP1 POP JUMP JUMPDEST PUSH1 0x0 PUSH2 0x392 DUP3 PUSH2 0x34B JUMP JUMPDEST SWAP1 POP SWAP2 SWAP1 POP JUMP JUMPDEST PUSH1 0x0 JUMPDEST DUP4 DUP2 LT ISZERO PUSH2 0x3B7 JUMPI DUP1 DUP3 ADD MLOAD DUP2 DUP5 ADD MSTORE PUSH1 0x20 DUP2 ADD SWAP1 POP PUSH2 0x39C JUMP JUMPDEST DUP4 DUP2 GT ISZERO PUSH2 0x3C6 JUMPI PUSH1 0x0 DUP5 DUP5 ADD MSTORE JUMPDEST POP POP POP POP JUMP JUMPDEST PUSH32 0x4E487B7100000000000000000000000000000000000000000000000000000000 PUSH1 0x0 MSTORE PUSH1 0x41 PUSH1 0x4 MSTORE PUSH1 0x24 PUSH1 0x0 REVERT JUMPDEST PUSH1 0x0 PUSH1 0x1F NOT PUSH1 0x1F DUP4 ADD AND SWAP1 POP SWAP2 SWAP1 POP JUMP INVALID LOG2 PUSH5 0x6970667358 0x22 SLT KECCAK256 0xDD CALLDATACOPY 0xED 0xAF 0xDC PUSH14 0x3FF7EB1EB0508206EC80C309E4DF 0xD0 LOG0 SDIV 0xD 0x2F 0xA9 PUSH30 0x971AE9B91164736F6C634300080000336080604052600A60005560646001 SSTORE PUSH2 0x3E8 PUSH1 0x2 SSTORE PUSH1 0x40 MLOAD DUP1 PUSH1 0x40 ADD PUSH1 0x40 MSTORE DUP1 PUSH1 0xD DUP2 MSTORE PUSH1 0x20 ADD PUSH32 0x6E6F207669736962696C69747900000000000000000000000000000000000000 DUP2 MSTORE POP PUSH1 0x3 SWAP1 DUP1 MLOAD SWAP1 PUSH1 0x20 ADD SWAP1 PUSH2 0x5F SWAP3 SWAP2 SWAP1 PUSH2 0x72 JUMP JUMPDEST POP CALLVALUE DUP1 ISZERO PUSH2 0x6C JUMPI PUSH1 0x0 DUP1 REVERT JUMPDEST POP PUSH2 0x176 JUMP JUMPDEST DUP3 DUP1 SLOAD PUSH2 0x7E SWAP1 PUSH2 0x115 JUMP JUMPDEST SWAP1 PUSH1 0x0 MSTORE PUSH1 0x20 PUSH1 0x0 KECCAK256 SWAP1 PUSH1 0x1F ADD PUSH1 0x20 SWAP1 DIV DUP2 ADD SWAP3 DUP3 PUSH2 0xA0 JUMPI PUSH1 0x0 DUP6 SSTORE PUSH2 0xE7 JUMP JUMPDEST DUP3 PUSH1 0x1F LT PUSH2 0xB9 JUMPI DUP1 MLOAD PUSH1 0xFF NOT AND DUP4 DUP1 ADD OR DUP6 SSTORE PUSH2 0xE7 JUMP JUMPDEST DUP3 DUP1 ADD PUSH1 0x1 ADD DUP6 SSTORE DUP3 ISZERO PUSH2 0xE7 JUMPI SWAP2 DUP3 ADD JUMPDEST DUP3 DUP2 GT ISZERO PUSH2 0xE6 JUMPI DUP3 MLOAD DUP3 SSTORE SWAP2 PUSH1 0x20 ADD SWAP2 SWAP1 PUSH1 0x1 ADD SWAP1 PUSH2 0xCB JUMP JUMPDEST JUMPDEST POP SWAP1 POP PUSH2 0xF4 SWAP2 SWAP1 PUSH2 0xF8 JUMP JUMPDEST POP SWAP1 JUMP JUMPDEST JUMPDEST DUP1 DUP3 GT ISZERO PUSH2 0x111 JUMPI PUSH1 0x0 DUP2 PUSH1 0x0 SWAP1 SSTORE POP PUSH1 0x1 ADD PUSH2 0xF9 JUMP JUMPDEST POP SWAP1 JUMP JUMPDEST PUSH1 0x0 PUSH1 0x2 DUP3 DIV SWAP1 POP PUSH1 0x1 DUP3 AND DUP1 PUSH2 0x12D JUMPI PUSH1 0x7F DUP3 AND SWAP2 POP JUMPDEST PUSH1 0x20 DUP3 LT DUP2 EQ ISZERO PUSH2 0x141 JUMPI PUSH2 0x140 PUSH2 0x147 JUMP JUMPDEST JUMPDEST POP SWAP2 SWAP1 POP JUMP JUMPDEST PUSH32 0x4E487B7100000000000000000000000000000000000000000000000000000000 PUSH1 0x0 MSTORE PUSH1 0x22 PUSH1 0x4 MSTORE PUSH1 0x24 PUSH1 0x0 REVERT JUMPDEST PUSH2 0x2AF DUP1 PUSH2 0x185 PUSH1 0x0 CODECOPY PUSH1 0x0 RETURN INVALID PUSH1 0x80 PUSH1 0x40 MSTORE CALLVALUE DUP1 ISZERO PUSH2 0x10 JUMPI PUSH1 0x0 DUP1 REVERT JUMPDEST POP PUSH1 0x4 CALLDATASIZE LT PUSH2 0x57 JUMPI PUSH1 0x0 CALLDATALOAD PUSH1 0xE0 SHR DUP1 PUSH4 0x1A6859FC EQ PUSH2 0x5C JUMPI DUP1 PUSH4 0x5097E51F EQ PUSH2 0x7A JUMPI DUP1 PUSH4 0x78F15805 EQ PUSH2 0x98 JUMPI DUP1 PUSH4 0xC5D7802E EQ PUSH2 0xB6 JUMPI DUP1 PUSH4 0xE6CDB78C EQ PUSH2 0xD4 JUMPI JUMPDEST PUSH1 0x0 DUP1 REVERT JUMPDEST PUSH2 0x64 PUSH2 0xF2 JUMP JUMPDEST PUSH1 0x40 MLOAD PUSH2 0x71 SWAP2 SWAP1 PUSH2 0x1F4 JUMP JUMPDEST PUSH1 0x40 MLOAD DUP1 SWAP2 SUB SWAP1 RETURN JUMPDEST PUSH2 0x82 PUSH2 0xFB JUMP JUMPDEST PUSH1 0x40 MLOAD PUSH2 0x8F SWAP2 SWAP1 PUSH2 0x1D2 JUMP JUMPDEST PUSH1 0x40 MLOAD DUP1 SWAP2 SUB SWAP1 RETURN JUMPDEST PUSH2 0xA0 PUSH2 0x138 JUMP JUMPDEST PUSH1 0x40 MLOAD PUSH2 0xAD SWAP2 SWAP1 PUSH2 0x1D2 JUMP JUMPDEST PUSH1 0x40 MLOAD DUP1 SWAP2 SUB SWAP1 RETURN JUMPDEST PUSH2 0xBE PUSH2 0x175 JUMP JUMPDEST PUSH1 0x40 MLOAD PUSH2 0xCB SWAP2 SWAP1 PUSH2 0x1F4 JUMP JUMPDEST PUSH1 0x40 MLOAD DUP1 SWAP2 SUB SWAP1 RETURN JUMPDEST PUSH2 0xDC PUSH2 0x17B JUMP JUMPDEST PUSH1 0x40 MLOAD PUSH2 0xE9 SWAP2 SWAP1 PUSH2 0x1D2 JUMP JUMPDEST PUSH1 0x40 MLOAD DUP1 SWAP2 SUB SWAP1 RETURN JUMPDEST PUSH1 0x0 PUSH1 0x1 SWAP1 POP SWAP1 JUMP JUMPDEST PUSH1 0x60 PUSH1 0x40 MLOAD DUP1 PUSH1 0x40 ADD PUSH1 0x40 MSTORE DUP1 PUSH1 0x6 DUP2 MSTORE PUSH1 0x20 ADD PUSH32 0x7075626C69630000000000000000000000000000000000000000000000000000 DUP2 MSTORE POP SWAP1 POP SWAP1 JUMP JUMPDEST PUSH1 0x60 PUSH1 0x40 MLOAD DUP1 PUSH1 0x40 ADD PUSH1 0x40 MSTORE DUP1 PUSH1 0x8 DUP2 MSTORE PUSH1 0x20 ADD PUSH32 0x65787465726E616C000000000000000000000000000000000000000000000000 DUP2 MSTORE POP SWAP1 POP SWAP1 JUMP JUMPDEST PUSH1 0x2 SLOAD DUP2 JUMP JUMPDEST PUSH1 0x60 PUSH2 0x185 PUSH2 0xFB JUMP JUMPDEST SWAP1 POP SWAP1 JUMP JUMPDEST PUSH1 0x0 PUSH2 0x195 DUP3 PUSH2 0x20F JUMP JUMPDEST PUSH2 0x19F DUP2 DUP6 PUSH2 0x21A JUMP JUMPDEST SWAP4 POP PUSH2 0x1AF DUP2 DUP6 PUSH1 0x20 DUP7 ADD PUSH2 0x235 JUMP JUMPDEST PUSH2 0x1B8 DUP2 PUSH2 0x268 JUMP JUMPDEST DUP5 ADD SWAP2 POP POP SWAP3 SWAP2 POP POP JUMP JUMPDEST PUSH2 0x1CC DUP2 PUSH2 0x22B JUMP JUMPDEST DUP3 MSTORE POP POP JUMP JUMPDEST PUSH1 0x0 PUSH1 0x20 DUP3 ADD SWAP1 POP DUP2 DUP2 SUB PUSH1 0x0 DUP4 ADD MSTORE PUSH2 0x1EC DUP2 DUP5 PUSH2 0x18A JUMP JUMPDEST SWAP1 POP SWAP3 SWAP2 POP POP JUMP JUMPDEST PUSH1 0x0 PUSH1 0x20 DUP3 ADD SWAP1 POP PUSH2 0x209 PUSH1 0x0 DUP4 ADD DUP5 PUSH2 0x1C3 JUMP JUMPDEST SWAP3 SWAP2 POP POP JUMP JUMPDEST PUSH1 0x0 DUP2 MLOAD SWAP1 POP SWAP2 SWAP1 POP JUMP JUMPDEST PUSH1 0x0 DUP3 DUP3 MSTORE PUSH1 0x20 DUP3 ADD SWAP1 POP SWAP3 SWAP2 POP POP JUMP JUMPDEST PUSH1 0x0 DUP2 SWAP1 POP SWAP2 SWAP1 POP JUMP JUMPDEST PUSH1 0x0 JUMPDEST DUP4 DUP2 LT ISZERO PUSH2 0x253 JUMPI DUP1 DUP3 ADD MLOAD DUP2 DUP5 ADD MSTORE PUSH1 0x20 DUP2 ADD SWAP1 POP PUSH2 0x238 JUMP JUMPDEST DUP4 DUP2 GT ISZERO PUSH2 0x262 JUMPI PUSH1 0x0 DUP5 DUP5 ADD MSTORE JUMPDEST POP POP POP POP JUMP JUMPDEST PUSH1 0x0 PUSH1 0x1F NOT PUSH1 0x1F DUP4 ADD AND SWAP1 POP SWAP2 SWAP1 POP JUMP INVALID LOG2 PUSH5 0x6970667358 0x22 SLT KECCAK256 0xCC PUSH3 0x944105 LOG0 COINBASE 0xDA 0xB9 0xC8 0xBB CREATE2 LOG3 0x48 0xE5 0xD5 0xBA PUSH15 0xC99A58352D18B29ACE85ABFFE34464 PUSH20 0x6F6C634300080000330000000000000000000000 "
				},
				"gasEstimates": {
					"creation": {
						"codeDepositCost": "218000",
						"executionCost": "infinite",
						"totalCost": "infinite"
					},
					"external": {
						"a()": "1107",
						"contract_a()": "1257",
						"outsideCaller()": "infinite"
					}
				},
				"methodIdentifiers": {
					"a()": "0dbe671f",
					"contract_a()": "605b85ad",
					"outsideCaller()": "da68252a"
				}
			},
			"storageLayout": {
				"storage": [
					{
						"astId": 90,
						"contract": "contracts/03_udemy_andrei_dumitrescu/09_visibility.sol:outsideContract",
						"label": "obj",
						"offset": 0,
						"slot": "0",
						"type": "t_contract(A)63"
					},
					{
						"astId": 97,
						"contract": "contracts/03_udemy_andrei_dumitrescu/09_visibility.sol:outsideContract",
						"label": "contract_a",
						"offset": 0,
						"slot": "1",
						"type": "t_contract(A)63"
					},
					{
						"astId": 102,
						"contract": "contracts/03_udemy_andrei_dumitrescu/09_visibility.sol:outsideContract",
						"label": "a",
						"offset": 0,
						"slot": "2",
						"type": "t_uint256"
					}
				],
				"types": {
					"t_contract(A)63": {
						"encoding": "inplace",
						"label": "contract A",
						"numberOfBytes": "20"
					},
					"t_uint256": {
						"encoding": "inplace",
						"label": "uint256",
						"numberOfBytes": "32"
					}
				}
			},
			"userdoc": {
				"kind": "user",
				"methods": {},
				"version": 1
			}
		}
	}
}