{
	"contracts/03_udemy_andrei_dumitrescu/09_visibility.sol": {
		"B": {
			"abi": [
				{
					"inputs": [],
					"name": "External",
					"outputs": [
						{
							"internalType": "string",
							"name": "",
							"type": "string"
						}
					],
					"stateMutability": "pure",
					"type": "function"
				},
				{
					"inputs": [],
					"name": "Public",
					"outputs": [
						{
							"internalType": "string",
							"name": "",
							"type": "string"
						}
					],
					"stateMutability": "pure",
					"type": "function"
				},
				{
					"inputs": [],
					"name": "a",
					"outputs": [
						{
							"internalType": "uint256",
							"name": "",
							"type": "uint256"
						}
					],
					"stateMutability": "view",
					"type": "function"
				},
				{
					"inputs": [],
					"name": "b",
					"outputs": [
						{
							"internalType": "uint256",
							"name": "",
							"type": "uint256"
						}
					],
					"stateMutability": "view",
					"type": "function"
				},
				{
					"inputs": [],
					"name": "checkFunctions",
					"outputs": [
						{
							"internalType": "string",
							"name": "",
							"type": "string"
						}
					],
					"stateMutability": "pure",
					"type": "function"
				},
				{
					"inputs": [],
					"name": "checkVariables",
					"outputs": [
						{
							"internalType": "uint256",
							"name": "",
							"type": "uint256"
						}
					],
					"stateMutability": "pure",
					"type": "function"
				},
				{
					"inputs": [],
					"name": "functions",
					"outputs": [
						{
							"internalType": "string",
							"name": "",
							"type": "string"
						}
					],
					"stateMutability": "view",
					"type": "function"
				},
				{
					"inputs": [],
					"name": "functions3",
					"outputs": [
						{
							"internalType": "string",
							"name": "",
							"type": "string"
						}
					],
					"stateMutability": "view",
					"type": "function"
				},
				{
					"inputs": [],
					"name": "newOpen",
					"outputs": [
						{
							"internalType": "string",
							"name": "",
							"type": "string"
						}
					],
					"stateMutability": "view",
					"type": "function"
				},
				{
					"inputs": [],
					"name": "z",
					"outputs": [
						{
							"internalType": "uint256",
							"name": "",
							"type": "uint256"
						}
					],
					"stateMutability": "view",
					"type": "function"
				}
			],
			"devdoc": {
				"kind": "dev",
				"methods": {},
				"version": 1
			},
			"evm": {
				"assembly": "    /* \"contracts/03_udemy_andrei_dumitrescu/09_visibility.sol\":1126:1523  contract B is A {\r... */\n  mstore(0x40, 0x80)\n    /* \"contracts/03_udemy_andrei_dumitrescu/09_visibility.sol\":96:98  10 */\n  0x0a\n    /* \"contracts/03_udemy_andrei_dumitrescu/09_visibility.sol\":79:98  uint private x = 10 */\n  0x00\n  sstore\n    /* \"contracts/03_udemy_andrei_dumitrescu/09_visibility.sol\":152:155  100 */\n  0x64\n    /* \"contracts/03_udemy_andrei_dumitrescu/09_visibility.sol\":134:155  uint internal y = 100 */\n  0x01\n  sstore\n    /* \"contracts/03_udemy_andrei_dumitrescu/09_visibility.sol\":224:228  1000 */\n  0x03e8\n    /* \"contracts/03_udemy_andrei_dumitrescu/09_visibility.sol\":208:228  uint public z = 1000 */\n  0x02\n  sstore\n    /* \"contracts/03_udemy_andrei_dumitrescu/09_visibility.sol\":250:279  string open = \"no visibility\" */\n  mload(0x40)\n  dup1\n  0x40\n  add\n  0x40\n  mstore\n  dup1\n  0x0d\n  dup2\n  mstore\n  0x20\n  add\n  0x6e6f207669736962696c69747900000000000000000000000000000000000000\n  dup2\n  mstore\n  pop\n  0x03\n  swap1\n  dup1\n  mload\n  swap1\n  0x20\n  add\n  swap1\n  tag_1\n  swap3\n  swap2\n  swap1\n  tag_2\n  jump\t// in\ntag_1:\n  pop\n    /* \"contracts/03_udemy_andrei_dumitrescu/09_visibility.sol\":1200:1201  y */\n  sload(0x01)\n    /* \"contracts/03_udemy_andrei_dumitrescu/09_visibility.sol\":1184:1201  uint public a = y */\n  0x04\n  sstore\n    /* \"contracts/03_udemy_andrei_dumitrescu/09_visibility.sol\":1236:1237  z */\n  sload(0x02)\n    /* \"contracts/03_udemy_andrei_dumitrescu/09_visibility.sol\":1220:1237  uint public b = z */\n  0x05\n  sstore\n    /* \"contracts/03_udemy_andrei_dumitrescu/09_visibility.sol\":1281:1285  open */\n  0x03\n    /* \"contracts/03_udemy_andrei_dumitrescu/09_visibility.sol\":1256:1285  string public newOpen =  open */\n  0x06\n  swap1\n  dup1\n  sload\n  tag_3\n  swap1\n  tag_4\n  jump\t// in\ntag_3:\n  tag_5\n  swap3\n  swap2\n  swap1\n  tag_6\n  jump\t// in\ntag_5:\n  pop\n    /* \"contracts/03_udemy_andrei_dumitrescu/09_visibility.sol\":1381:1391  Internal() */\n  tag_7\n    /* \"contracts/03_udemy_andrei_dumitrescu/09_visibility.sol\":1381:1389  Internal */\n  shl(0x20, tag_8)\n    /* \"contracts/03_udemy_andrei_dumitrescu/09_visibility.sol\":1381:1391  Internal() */\n  0x20\n  shr\n  jump\t// in\ntag_7:\n    /* \"contracts/03_udemy_andrei_dumitrescu/09_visibility.sol\":1355:1391  string public functions = Internal() */\n  0x07\n  swap1\n  dup1\n  mload\n  swap1\n  0x20\n  add\n  swap1\n  tag_9\n  swap3\n  swap2\n  swap1\n  tag_2\n  jump\t// in\ntag_9:\n  pop\n    /* \"contracts/03_udemy_andrei_dumitrescu/09_visibility.sol\":1499:1507  Public() */\n  tag_10\n    /* \"contracts/03_udemy_andrei_dumitrescu/09_visibility.sol\":1499:1505  Public */\n  shl(0x20, tag_11)\n    /* \"contracts/03_udemy_andrei_dumitrescu/09_visibility.sol\":1499:1507  Public() */\n  0x20\n  shr\n  jump\t// in\ntag_10:\n    /* \"contracts/03_udemy_andrei_dumitrescu/09_visibility.sol\":1472:1507  string public functions3 = Public() */\n  0x08\n  swap1\n  dup1\n  mload\n  swap1\n  0x20\n  add\n  swap1\n  tag_12\n  swap3\n  swap2\n  swap1\n  tag_2\n  jump\t// in\ntag_12:\n  pop\n    /* \"contracts/03_udemy_andrei_dumitrescu/09_visibility.sol\":1126:1523  contract B is A {\r... */\n  callvalue\n  dup1\n  iszero\n  tag_13\n  jumpi\n  0x00\n  dup1\n  revert\ntag_13:\n  pop\n  jump(tag_14)\n    /* \"contracts/03_udemy_andrei_dumitrescu/09_visibility.sol\":386:479  function Internal() internal pure returns(string memory) {\r... */\ntag_8:\n    /* \"contracts/03_udemy_andrei_dumitrescu/09_visibility.sol\":428:441  string memory */\n  0x60\n    /* \"contracts/03_udemy_andrei_dumitrescu/09_visibility.sol\":454:471  return \"internal\" */\n  mload(0x40)\n  dup1\n  0x40\n  add\n  0x40\n  mstore\n  dup1\n  0x08\n  dup2\n  mstore\n  0x20\n  add\n  0x696e7465726e616c000000000000000000000000000000000000000000000000\n  dup2\n  mstore\n  pop\n  swap1\n  pop\n    /* \"contracts/03_udemy_andrei_dumitrescu/09_visibility.sol\":386:479  function Internal() internal pure returns(string memory) {\r... */\n  swap1\n  jump\t// out\n    /* \"contracts/03_udemy_andrei_dumitrescu/09_visibility.sol\":588:675  function Public() public pure returns(string memory) {\r... */\ntag_11:\n    /* \"contracts/03_udemy_andrei_dumitrescu/09_visibility.sol\":626:639  string memory */\n  0x60\n    /* \"contracts/03_udemy_andrei_dumitrescu/09_visibility.sol\":652:667  return \"public\" */\n  mload(0x40)\n  dup1\n  0x40\n  add\n  0x40\n  mstore\n  dup1\n  0x06\n  dup2\n  mstore\n  0x20\n  add\n  0x7075626c69630000000000000000000000000000000000000000000000000000\n  dup2\n  mstore\n  pop\n  swap1\n  pop\n    /* \"contracts/03_udemy_andrei_dumitrescu/09_visibility.sol\":588:675  function Public() public pure returns(string memory) {\r... */\n  swap1\n  jump\t// out\n    /* \"contracts/03_udemy_andrei_dumitrescu/09_visibility.sol\":1126:1523  contract B is A {\r... */\ntag_2:\n  dup3\n  dup1\n  sload\n  tag_17\n  swap1\n  tag_4\n  jump\t// in\ntag_17:\n  swap1\n  0x00\n  mstore\n  keccak256(0x00, 0x20)\n  swap1\n  0x1f\n  add\n  0x20\n  swap1\n  div\n  dup2\n  add\n  swap3\n  dup3\n  tag_19\n  jumpi\n  0x00\n  dup6\n  sstore\n  jump(tag_18)\ntag_19:\n  dup3\n  0x1f\n  lt\n  tag_20\n  jumpi\n  dup1\n  mload\n  not(0xff)\n  and\n  dup4\n  dup1\n  add\n  or\n  dup6\n  sstore\n  jump(tag_18)\ntag_20:\n  dup3\n  dup1\n  add\n  0x01\n  add\n  dup6\n  sstore\n  dup3\n  iszero\n  tag_18\n  jumpi\n  swap2\n  dup3\n  add\ntag_21:\n  dup3\n  dup2\n  gt\n  iszero\n  tag_22\n  jumpi\n  dup3\n  mload\n  dup3\n  sstore\n  swap2\n  0x20\n  add\n  swap2\n  swap1\n  0x01\n  add\n  swap1\n  jump(tag_21)\ntag_22:\ntag_18:\n  pop\n  swap1\n  pop\n  tag_23\n  swap2\n  swap1\n  tag_24\n  jump\t// in\ntag_23:\n  pop\n  swap1\n  jump\t// out\ntag_6:\n  dup3\n  dup1\n  sload\n  tag_25\n  swap1\n  tag_4\n  jump\t// in\ntag_25:\n  swap1\n  0x00\n  mstore\n  keccak256(0x00, 0x20)\n  swap1\n  0x1f\n  add\n  0x20\n  swap1\n  div\n  dup2\n  add\n  swap3\n  dup3\n  tag_27\n  jumpi\n  0x00\n  dup6\n  sstore\n  jump(tag_26)\ntag_27:\n  dup3\n  0x1f\n  lt\n  tag_28\n  jumpi\n  dup1\n  sload\n  dup6\n  sstore\n  jump(tag_26)\ntag_28:\n  dup3\n  dup1\n  add\n  0x01\n  add\n  dup6\n  sstore\n  dup3\n  iszero\n  tag_26\n  jumpi\n  0x00\n  mstore\n  keccak256(0x00, 0x20)\n  swap2\n  0x1f\n  add\n  0x20\n  swap1\n  div\n  dup3\n  add\ntag_29:\n  dup3\n  dup2\n  gt\n  iszero\n  tag_30\n  jumpi\n  dup3\n  sload\n  dup3\n  sstore\n  swap2\n  0x01\n  add\n  swap2\n  swap1\n  0x01\n  add\n  swap1\n  jump(tag_29)\ntag_30:\ntag_26:\n  pop\n  swap1\n  pop\n  tag_31\n  swap2\n  swap1\n  tag_24\n  jump\t// in\ntag_31:\n  pop\n  swap1\n  jump\t// out\ntag_24:\ntag_32:\n  dup1\n  dup3\n  gt\n  iszero\n  tag_33\n  jumpi\n  0x00\n  dup2\n  0x00\n  swap1\n  sstore\n  pop\n  0x01\n  add\n  jump(tag_32)\ntag_33:\n  pop\n  swap1\n  jump\t// out\n    /* \"#utility.yul\":7:327   */\ntag_4:\n  0x00\n    /* \"#utility.yul\":88:89   */\n  0x02\n    /* \"#utility.yul\":82:86   */\n  dup3\n    /* \"#utility.yul\":78:90   */\n  div\n    /* \"#utility.yul\":68:90   */\n  swap1\n  pop\n    /* \"#utility.yul\":135:136   */\n  0x01\n    /* \"#utility.yul\":129:133   */\n  dup3\n    /* \"#utility.yul\":125:137   */\n  and\n    /* \"#utility.yul\":156:174   */\n  dup1\n    /* \"#utility.yul\":146:148   */\n  tag_36\n  jumpi\n    /* \"#utility.yul\":212:216   */\n  0x7f\n    /* \"#utility.yul\":204:210   */\n  dup3\n    /* \"#utility.yul\":200:217   */\n  and\n    /* \"#utility.yul\":190:217   */\n  swap2\n  pop\n    /* \"#utility.yul\":146:148   */\ntag_36:\n    /* \"#utility.yul\":274:276   */\n  0x20\n    /* \"#utility.yul\":266:272   */\n  dup3\n    /* \"#utility.yul\":263:277   */\n  lt\n    /* \"#utility.yul\":243:261   */\n  dup2\n    /* \"#utility.yul\":240:278   */\n  eq\n    /* \"#utility.yul\":237:239   */\n  iszero\n  tag_37\n  jumpi\n    /* \"#utility.yul\":293:311   */\n  tag_38\n  tag_39\n  jump\t// in\ntag_38:\n    /* \"#utility.yul\":237:239   */\ntag_37:\n    /* \"#utility.yul\":58:327   */\n  pop\n  swap2\n  swap1\n  pop\n  jump\t// out\n    /* \"#utility.yul\":333:513   */\ntag_39:\n    /* \"#utility.yul\":381:458   */\n  0x4e487b7100000000000000000000000000000000000000000000000000000000\n    /* \"#utility.yul\":378:379   */\n  0x00\n    /* \"#utility.yul\":371:459   */\n  mstore\n    /* \"#utility.yul\":478:482   */\n  0x22\n    /* \"#utility.yul\":475:476   */\n  0x04\n    /* \"#utility.yul\":468:483   */\n  mstore\n    /* \"#utility.yul\":502:506   */\n  0x24\n    /* \"#utility.yul\":499:500   */\n  0x00\n    /* \"#utility.yul\":492:507   */\n  revert\n    /* \"contracts/03_udemy_andrei_dumitrescu/09_visibility.sol\":1126:1523  contract B is A {\r... */\ntag_14:\n  dataSize(sub_0)\n  dup1\n  dataOffset(sub_0)\n  0x00\n  codecopy\n  0x00\n  return\nstop\n\nsub_0: assembly {\n        /* \"contracts/03_udemy_andrei_dumitrescu/09_visibility.sol\":1126:1523  contract B is A {\r... */\n      mstore(0x40, 0x80)\n      callvalue\n      dup1\n      iszero\n      tag_1\n      jumpi\n      0x00\n      dup1\n      revert\n    tag_1:\n      pop\n      jumpi(tag_2, lt(calldatasize, 0x04))\n      shr(0xe0, calldataload(0x00))\n      dup1\n      0x569560e8\n      gt\n      tag_13\n      jumpi\n      dup1\n      0x569560e8\n      eq\n      tag_8\n      jumpi\n      dup1\n      0x75a08adf\n      eq\n      tag_9\n      jumpi\n      dup1\n      0x78f15805\n      eq\n      tag_10\n      jumpi\n      dup1\n      0xc5d7802e\n      eq\n      tag_11\n      jumpi\n      dup1\n      0xe6cdb78c\n      eq\n      tag_12\n      jumpi\n      jump(tag_2)\n    tag_13:\n      dup1\n      0x0cd99d82\n      eq\n      tag_3\n      jumpi\n      dup1\n      0x0dbe671f\n      eq\n      tag_4\n      jumpi\n      dup1\n      0x1a6859fc\n      eq\n      tag_5\n      jumpi\n      dup1\n      0x4df7e3d0\n      eq\n      tag_6\n      jumpi\n      dup1\n      0x5097e51f\n      eq\n      tag_7\n      jumpi\n    tag_2:\n      0x00\n      dup1\n      revert\n        /* \"contracts/03_udemy_andrei_dumitrescu/09_visibility.sol\":1256:1285  string public newOpen =  open */\n    tag_3:\n      tag_14\n      tag_15\n      jump\t// in\n    tag_14:\n      mload(0x40)\n      tag_16\n      swap2\n      swap1\n      tag_17\n      jump\t// in\n    tag_16:\n      mload(0x40)\n      dup1\n      swap2\n      sub\n      swap1\n      return\n        /* \"contracts/03_udemy_andrei_dumitrescu/09_visibility.sol\":1184:1201  uint public a = y */\n    tag_4:\n      tag_18\n      tag_19\n      jump\t// in\n    tag_18:\n      mload(0x40)\n      tag_20\n      swap2\n      swap1\n      tag_21\n      jump\t// in\n    tag_20:\n      mload(0x40)\n      dup1\n      swap2\n      sub\n      swap1\n      return\n        /* \"contracts/03_udemy_andrei_dumitrescu/09_visibility.sol\":683:864  function checkVariables() public pure returns(uint) {\r... */\n    tag_5:\n      tag_22\n      tag_23\n      jump\t// in\n    tag_22:\n      mload(0x40)\n      tag_24\n      swap2\n      swap1\n      tag_21\n      jump\t// in\n    tag_24:\n      mload(0x40)\n      dup1\n      swap2\n      sub\n      swap1\n      return\n        /* \"contracts/03_udemy_andrei_dumitrescu/09_visibility.sol\":1220:1237  uint public b = z */\n    tag_6:\n      tag_25\n      tag_26\n      jump\t// in\n    tag_25:\n      mload(0x40)\n      tag_27\n      swap2\n      swap1\n      tag_21\n      jump\t// in\n    tag_27:\n      mload(0x40)\n      dup1\n      swap2\n      sub\n      swap1\n      return\n        /* \"contracts/03_udemy_andrei_dumitrescu/09_visibility.sol\":588:675  function Public() public pure returns(string memory) {\r... */\n    tag_7:\n      tag_28\n      tag_29\n      jump\t// in\n    tag_28:\n      mload(0x40)\n      tag_30\n      swap2\n      swap1\n      tag_17\n      jump\t// in\n    tag_30:\n      mload(0x40)\n      dup1\n      swap2\n      sub\n      swap1\n      return\n        /* \"contracts/03_udemy_andrei_dumitrescu/09_visibility.sol\":1355:1391  string public functions = Internal() */\n    tag_8:\n      tag_31\n      tag_32\n      jump\t// in\n    tag_31:\n      mload(0x40)\n      tag_33\n      swap2\n      swap1\n      tag_17\n      jump\t// in\n    tag_33:\n      mload(0x40)\n      dup1\n      swap2\n      sub\n      swap1\n      return\n        /* \"contracts/03_udemy_andrei_dumitrescu/09_visibility.sol\":1472:1507  string public functions3 = Public() */\n    tag_9:\n      tag_34\n      tag_35\n      jump\t// in\n    tag_34:\n      mload(0x40)\n      tag_36\n      swap2\n      swap1\n      tag_17\n      jump\t// in\n    tag_36:\n      mload(0x40)\n      dup1\n      swap2\n      sub\n      swap1\n      return\n        /* \"contracts/03_udemy_andrei_dumitrescu/09_visibility.sol\":487:580  function External() external pure returns(string memory) {\r... */\n    tag_10:\n      tag_37\n      tag_38\n      jump\t// in\n    tag_37:\n      mload(0x40)\n      tag_39\n      swap2\n      swap1\n      tag_17\n      jump\t// in\n    tag_39:\n      mload(0x40)\n      dup1\n      swap2\n      sub\n      swap1\n      return\n        /* \"contracts/03_udemy_andrei_dumitrescu/09_visibility.sol\":208:228  uint public z = 1000 */\n    tag_11:\n      tag_40\n      tag_41\n      jump\t// in\n    tag_40:\n      mload(0x40)\n      tag_42\n      swap2\n      swap1\n      tag_21\n      jump\t// in\n    tag_42:\n      mload(0x40)\n      dup1\n      swap2\n      sub\n      swap1\n      return\n        /* \"contracts/03_udemy_andrei_dumitrescu/09_visibility.sol\":872:1119  function checkFunctions() public pure returns(string memory) {\r... */\n    tag_12:\n      tag_43\n      tag_44\n      jump\t// in\n    tag_43:\n      mload(0x40)\n      tag_45\n      swap2\n      swap1\n      tag_17\n      jump\t// in\n    tag_45:\n      mload(0x40)\n      dup1\n      swap2\n      sub\n      swap1\n      return\n        /* \"contracts/03_udemy_andrei_dumitrescu/09_visibility.sol\":1256:1285  string public newOpen =  open */\n    tag_15:\n      0x06\n      dup1\n      sload\n      tag_46\n      swap1\n      tag_47\n      jump\t// in\n    tag_46:\n      dup1\n      0x1f\n      add\n      0x20\n      dup1\n      swap2\n      div\n      mul\n      0x20\n      add\n      mload(0x40)\n      swap1\n      dup2\n      add\n      0x40\n      mstore\n      dup1\n      swap3\n      swap2\n      swap1\n      dup2\n      dup2\n      mstore\n      0x20\n      add\n      dup3\n      dup1\n      sload\n      tag_48\n      swap1\n      tag_47\n      jump\t// in\n    tag_48:\n      dup1\n      iszero\n      tag_49\n      jumpi\n      dup1\n      0x1f\n      lt\n      tag_50\n      jumpi\n      0x0100\n      dup1\n      dup4\n      sload\n      div\n      mul\n      dup4\n      mstore\n      swap2\n      0x20\n      add\n      swap2\n      jump(tag_49)\n    tag_50:\n      dup3\n      add\n      swap2\n      swap1\n      0x00\n      mstore\n      keccak256(0x00, 0x20)\n      swap1\n    tag_51:\n      dup2\n      sload\n      dup2\n      mstore\n      swap1\n      0x01\n      add\n      swap1\n      0x20\n      add\n      dup1\n      dup4\n      gt\n      tag_51\n      jumpi\n      dup3\n      swap1\n      sub\n      0x1f\n      and\n      dup3\n      add\n      swap2\n    tag_49:\n      pop\n      pop\n      pop\n      pop\n      pop\n      dup2\n      jump\t// out\n        /* \"contracts/03_udemy_andrei_dumitrescu/09_visibility.sol\":1184:1201  uint public a = y */\n    tag_19:\n      sload(0x04)\n      dup2\n      jump\t// out\n        /* \"contracts/03_udemy_andrei_dumitrescu/09_visibility.sol\":683:864  function checkVariables() public pure returns(uint) {\r... */\n    tag_23:\n        /* \"contracts/03_udemy_andrei_dumitrescu/09_visibility.sol\":729:733  uint */\n      0x00\n        /* \"contracts/03_udemy_andrei_dumitrescu/09_visibility.sol\":855:856  1 */\n      0x01\n        /* \"contracts/03_udemy_andrei_dumitrescu/09_visibility.sol\":848:856  return 1 */\n      swap1\n      pop\n        /* \"contracts/03_udemy_andrei_dumitrescu/09_visibility.sol\":683:864  function checkVariables() public pure returns(uint) {\r... */\n      swap1\n      jump\t// out\n        /* \"contracts/03_udemy_andrei_dumitrescu/09_visibility.sol\":1220:1237  uint public b = z */\n    tag_26:\n      sload(0x05)\n      dup2\n      jump\t// out\n        /* \"contracts/03_udemy_andrei_dumitrescu/09_visibility.sol\":588:675  function Public() public pure returns(string memory) {\r... */\n    tag_29:\n        /* \"contracts/03_udemy_andrei_dumitrescu/09_visibility.sol\":626:639  string memory */\n      0x60\n        /* \"contracts/03_udemy_andrei_dumitrescu/09_visibility.sol\":652:667  return \"public\" */\n      mload(0x40)\n      dup1\n      0x40\n      add\n      0x40\n      mstore\n      dup1\n      0x06\n      dup2\n      mstore\n      0x20\n      add\n      0x7075626c69630000000000000000000000000000000000000000000000000000\n      dup2\n      mstore\n      pop\n      swap1\n      pop\n        /* \"contracts/03_udemy_andrei_dumitrescu/09_visibility.sol\":588:675  function Public() public pure returns(string memory) {\r... */\n      swap1\n      jump\t// out\n        /* \"contracts/03_udemy_andrei_dumitrescu/09_visibility.sol\":1355:1391  string public functions = Internal() */\n    tag_32:\n      0x07\n      dup1\n      sload\n      tag_54\n      swap1\n      tag_47\n      jump\t// in\n    tag_54:\n      dup1\n      0x1f\n      add\n      0x20\n      dup1\n      swap2\n      div\n      mul\n      0x20\n      add\n      mload(0x40)\n      swap1\n      dup2\n      add\n      0x40\n      mstore\n      dup1\n      swap3\n      swap2\n      swap1\n      dup2\n      dup2\n      mstore\n      0x20\n      add\n      dup3\n      dup1\n      sload\n      tag_55\n      swap1\n      tag_47\n      jump\t// in\n    tag_55:\n      dup1\n      iszero\n      tag_56\n      jumpi\n      dup1\n      0x1f\n      lt\n      tag_57\n      jumpi\n      0x0100\n      dup1\n      dup4\n      sload\n      div\n      mul\n      dup4\n      mstore\n      swap2\n      0x20\n      add\n      swap2\n      jump(tag_56)\n    tag_57:\n      dup3\n      add\n      swap2\n      swap1\n      0x00\n      mstore\n      keccak256(0x00, 0x20)\n      swap1\n    tag_58:\n      dup2\n      sload\n      dup2\n      mstore\n      swap1\n      0x01\n      add\n      swap1\n      0x20\n      add\n      dup1\n      dup4\n      gt\n      tag_58\n      jumpi\n      dup3\n      swap1\n      sub\n      0x1f\n      and\n      dup3\n      add\n      swap2\n    tag_56:\n      pop\n      pop\n      pop\n      pop\n      pop\n      dup2\n      jump\t// out\n        /* \"contracts/03_udemy_andrei_dumitrescu/09_visibility.sol\":1472:1507  string public functions3 = Public() */\n    tag_35:\n      0x08\n      dup1\n      sload\n      tag_59\n      swap1\n      tag_47\n      jump\t// in\n    tag_59:\n      dup1\n      0x1f\n      add\n      0x20\n      dup1\n      swap2\n      div\n      mul\n      0x20\n      add\n      mload(0x40)\n      swap1\n      dup2\n      add\n      0x40\n      mstore\n      dup1\n      swap3\n      swap2\n      swap1\n      dup2\n      dup2\n      mstore\n      0x20\n      add\n      dup3\n      dup1\n      sload\n      tag_60\n      swap1\n      tag_47\n      jump\t// in\n    tag_60:\n      dup1\n      iszero\n      tag_61\n      jumpi\n      dup1\n      0x1f\n      lt\n      tag_62\n      jumpi\n      0x0100\n      dup1\n      dup4\n      sload\n      div\n      mul\n      dup4\n      mstore\n      swap2\n      0x20\n      add\n      swap2\n      jump(tag_61)\n    tag_62:\n      dup3\n      add\n      swap2\n      swap1\n      0x00\n      mstore\n      keccak256(0x00, 0x20)\n      swap1\n    tag_63:\n      dup2\n      sload\n      dup2\n      mstore\n      swap1\n      0x01\n      add\n      swap1\n      0x20\n      add\n      dup1\n      dup4\n      gt\n      tag_63\n      jumpi\n      dup3\n      swap1\n      sub\n      0x1f\n      and\n      dup3\n      add\n      swap2\n    tag_61:\n      pop\n      pop\n      pop\n      pop\n      pop\n      dup2\n      jump\t// out\n        /* \"contracts/03_udemy_andrei_dumitrescu/09_visibility.sol\":487:580  function External() external pure returns(string memory) {\r... */\n    tag_38:\n        /* \"contracts/03_udemy_andrei_dumitrescu/09_visibility.sol\":529:542  string memory */\n      0x60\n        /* \"contracts/03_udemy_andrei_dumitrescu/09_visibility.sol\":555:572  return \"external\" */\n      mload(0x40)\n      dup1\n      0x40\n      add\n      0x40\n      mstore\n      dup1\n      0x08\n      dup2\n      mstore\n      0x20\n      add\n      0x65787465726e616c000000000000000000000000000000000000000000000000\n      dup2\n      mstore\n      pop\n      swap1\n      pop\n        /* \"contracts/03_udemy_andrei_dumitrescu/09_visibility.sol\":487:580  function External() external pure returns(string memory) {\r... */\n      swap1\n      jump\t// out\n        /* \"contracts/03_udemy_andrei_dumitrescu/09_visibility.sol\":208:228  uint public z = 1000 */\n    tag_41:\n      sload(0x02)\n      dup2\n      jump\t// out\n        /* \"contracts/03_udemy_andrei_dumitrescu/09_visibility.sol\":872:1119  function checkFunctions() public pure returns(string memory) {\r... */\n    tag_44:\n        /* \"contracts/03_udemy_andrei_dumitrescu/09_visibility.sol\":918:931  string memory */\n      0x60\n        /* \"contracts/03_udemy_andrei_dumitrescu/09_visibility.sol\":1091:1099  Public() */\n      tag_66\n        /* \"contracts/03_udemy_andrei_dumitrescu/09_visibility.sol\":1091:1097  Public */\n      tag_29\n        /* \"contracts/03_udemy_andrei_dumitrescu/09_visibility.sol\":1091:1099  Public() */\n      jump\t// in\n    tag_66:\n        /* \"contracts/03_udemy_andrei_dumitrescu/09_visibility.sol\":1084:1099  return Public() */\n      swap1\n      pop\n        /* \"contracts/03_udemy_andrei_dumitrescu/09_visibility.sol\":872:1119  function checkFunctions() public pure returns(string memory) {\r... */\n      swap1\n      jump\t// out\n        /* \"#utility.yul\":7:371   */\n    tag_68:\n      0x00\n        /* \"#utility.yul\":123:162   */\n      tag_70\n        /* \"#utility.yul\":156:161   */\n      dup3\n        /* \"#utility.yul\":123:162   */\n      tag_71\n      jump\t// in\n    tag_70:\n        /* \"#utility.yul\":178:249   */\n      tag_72\n        /* \"#utility.yul\":242:248   */\n      dup2\n        /* \"#utility.yul\":237:240   */\n      dup6\n        /* \"#utility.yul\":178:249   */\n      tag_73\n      jump\t// in\n    tag_72:\n        /* \"#utility.yul\":171:249   */\n      swap4\n      pop\n        /* \"#utility.yul\":258:310   */\n      tag_74\n        /* \"#utility.yul\":303:309   */\n      dup2\n        /* \"#utility.yul\":298:301   */\n      dup6\n        /* \"#utility.yul\":291:295   */\n      0x20\n        /* \"#utility.yul\":284:289   */\n      dup7\n        /* \"#utility.yul\":280:296   */\n      add\n        /* \"#utility.yul\":258:310   */\n      tag_75\n      jump\t// in\n    tag_74:\n        /* \"#utility.yul\":335:364   */\n      tag_76\n        /* \"#utility.yul\":357:363   */\n      dup2\n        /* \"#utility.yul\":335:364   */\n      tag_77\n      jump\t// in\n    tag_76:\n        /* \"#utility.yul\":330:333   */\n      dup5\n        /* \"#utility.yul\":326:365   */\n      add\n        /* \"#utility.yul\":319:365   */\n      swap2\n      pop\n        /* \"#utility.yul\":99:371   */\n      pop\n      swap3\n      swap2\n      pop\n      pop\n      jump\t// out\n        /* \"#utility.yul\":377:495   */\n    tag_78:\n        /* \"#utility.yul\":464:488   */\n      tag_80\n        /* \"#utility.yul\":482:487   */\n      dup2\n        /* \"#utility.yul\":464:488   */\n      tag_81\n      jump\t// in\n    tag_80:\n        /* \"#utility.yul\":459:462   */\n      dup3\n        /* \"#utility.yul\":452:489   */\n      mstore\n        /* \"#utility.yul\":442:495   */\n      pop\n      pop\n      jump\t// out\n        /* \"#utility.yul\":501:814   */\n    tag_17:\n      0x00\n        /* \"#utility.yul\":652:654   */\n      0x20\n        /* \"#utility.yul\":641:650   */\n      dup3\n        /* \"#utility.yul\":637:655   */\n      add\n        /* \"#utility.yul\":629:655   */\n      swap1\n      pop\n        /* \"#utility.yul\":701:710   */\n      dup2\n        /* \"#utility.yul\":695:699   */\n      dup2\n        /* \"#utility.yul\":691:711   */\n      sub\n        /* \"#utility.yul\":687:688   */\n      0x00\n        /* \"#utility.yul\":676:685   */\n      dup4\n        /* \"#utility.yul\":672:689   */\n      add\n        /* \"#utility.yul\":665:712   */\n      mstore\n        /* \"#utility.yul\":729:807   */\n      tag_83\n        /* \"#utility.yul\":802:806   */\n      dup2\n        /* \"#utility.yul\":793:799   */\n      dup5\n        /* \"#utility.yul\":729:807   */\n      tag_68\n      jump\t// in\n    tag_83:\n        /* \"#utility.yul\":721:807   */\n      swap1\n      pop\n        /* \"#utility.yul\":619:814   */\n      swap3\n      swap2\n      pop\n      pop\n      jump\t// out\n        /* \"#utility.yul\":820:1042   */\n    tag_21:\n      0x00\n        /* \"#utility.yul\":951:953   */\n      0x20\n        /* \"#utility.yul\":940:949   */\n      dup3\n        /* \"#utility.yul\":936:954   */\n      add\n        /* \"#utility.yul\":928:954   */\n      swap1\n      pop\n        /* \"#utility.yul\":964:1035   */\n      tag_85\n        /* \"#utility.yul\":1032:1033   */\n      0x00\n        /* \"#utility.yul\":1021:1030   */\n      dup4\n        /* \"#utility.yul\":1017:1034   */\n      add\n        /* \"#utility.yul\":1008:1014   */\n      dup5\n        /* \"#utility.yul\":964:1035   */\n      tag_78\n      jump\t// in\n    tag_85:\n        /* \"#utility.yul\":918:1042   */\n      swap3\n      swap2\n      pop\n      pop\n      jump\t// out\n        /* \"#utility.yul\":1048:1147   */\n    tag_71:\n      0x00\n        /* \"#utility.yul\":1134:1139   */\n      dup2\n        /* \"#utility.yul\":1128:1140   */\n      mload\n        /* \"#utility.yul\":1118:1140   */\n      swap1\n      pop\n        /* \"#utility.yul\":1107:1147   */\n      swap2\n      swap1\n      pop\n      jump\t// out\n        /* \"#utility.yul\":1153:1322   */\n    tag_73:\n      0x00\n        /* \"#utility.yul\":1271:1277   */\n      dup3\n        /* \"#utility.yul\":1266:1269   */\n      dup3\n        /* \"#utility.yul\":1259:1278   */\n      mstore\n        /* \"#utility.yul\":1311:1315   */\n      0x20\n        /* \"#utility.yul\":1306:1309   */\n      dup3\n        /* \"#utility.yul\":1302:1316   */\n      add\n        /* \"#utility.yul\":1287:1316   */\n      swap1\n      pop\n        /* \"#utility.yul\":1249:1322   */\n      swap3\n      swap2\n      pop\n      pop\n      jump\t// out\n        /* \"#utility.yul\":1328:1405   */\n    tag_81:\n      0x00\n        /* \"#utility.yul\":1394:1399   */\n      dup2\n        /* \"#utility.yul\":1383:1399   */\n      swap1\n      pop\n        /* \"#utility.yul\":1373:1405   */\n      swap2\n      swap1\n      pop\n      jump\t// out\n        /* \"#utility.yul\":1411:1718   */\n    tag_75:\n        /* \"#utility.yul\":1479:1480   */\n      0x00\n        /* \"#utility.yul\":1489:1602   */\n    tag_90:\n        /* \"#utility.yul\":1503:1509   */\n      dup4\n        /* \"#utility.yul\":1500:1501   */\n      dup2\n        /* \"#utility.yul\":1497:1510   */\n      lt\n        /* \"#utility.yul\":1489:1602   */\n      iszero\n      tag_92\n      jumpi\n        /* \"#utility.yul\":1588:1589   */\n      dup1\n        /* \"#utility.yul\":1583:1586   */\n      dup3\n        /* \"#utility.yul\":1579:1590   */\n      add\n        /* \"#utility.yul\":1573:1591   */\n      mload\n        /* \"#utility.yul\":1569:1570   */\n      dup2\n        /* \"#utility.yul\":1564:1567   */\n      dup5\n        /* \"#utility.yul\":1560:1571   */\n      add\n        /* \"#utility.yul\":1553:1592   */\n      mstore\n        /* \"#utility.yul\":1525:1527   */\n      0x20\n        /* \"#utility.yul\":1522:1523   */\n      dup2\n        /* \"#utility.yul\":1518:1528   */\n      add\n        /* \"#utility.yul\":1513:1528   */\n      swap1\n      pop\n        /* \"#utility.yul\":1489:1602   */\n      jump(tag_90)\n    tag_92:\n        /* \"#utility.yul\":1620:1626   */\n      dup4\n        /* \"#utility.yul\":1617:1618   */\n      dup2\n        /* \"#utility.yul\":1614:1627   */\n      gt\n        /* \"#utility.yul\":1611:1613   */\n      iszero\n      tag_93\n      jumpi\n        /* \"#utility.yul\":1700:1701   */\n      0x00\n        /* \"#utility.yul\":1691:1697   */\n      dup5\n        /* \"#utility.yul\":1686:1689   */\n      dup5\n        /* \"#utility.yul\":1682:1698   */\n      add\n        /* \"#utility.yul\":1675:1702   */\n      mstore\n        /* \"#utility.yul\":1611:1613   */\n    tag_93:\n        /* \"#utility.yul\":1460:1718   */\n      pop\n      pop\n      pop\n      pop\n      jump\t// out\n        /* \"#utility.yul\":1724:2044   */\n    tag_47:\n      0x00\n        /* \"#utility.yul\":1805:1806   */\n      0x02\n        /* \"#utility.yul\":1799:1803   */\n      dup3\n        /* \"#utility.yul\":1795:1807   */\n      div\n        /* \"#utility.yul\":1785:1807   */\n      swap1\n      pop\n        /* \"#utility.yul\":1852:1853   */\n      0x01\n        /* \"#utility.yul\":1846:1850   */\n      dup3\n        /* \"#utility.yul\":1842:1854   */\n      and\n        /* \"#utility.yul\":1873:1891   */\n      dup1\n        /* \"#utility.yul\":1863:1865   */\n      tag_95\n      jumpi\n        /* \"#utility.yul\":1929:1933   */\n      0x7f\n        /* \"#utility.yul\":1921:1927   */\n      dup3\n        /* \"#utility.yul\":1917:1934   */\n      and\n        /* \"#utility.yul\":1907:1934   */\n      swap2\n      pop\n        /* \"#utility.yul\":1863:1865   */\n    tag_95:\n        /* \"#utility.yul\":1991:1993   */\n      0x20\n        /* \"#utility.yul\":1983:1989   */\n      dup3\n        /* \"#utility.yul\":1980:1994   */\n      lt\n        /* \"#utility.yul\":1960:1978   */\n      dup2\n        /* \"#utility.yul\":1957:1995   */\n      eq\n        /* \"#utility.yul\":1954:1956   */\n      iszero\n      tag_96\n      jumpi\n        /* \"#utility.yul\":2010:2028   */\n      tag_97\n      tag_98\n      jump\t// in\n    tag_97:\n        /* \"#utility.yul\":1954:1956   */\n    tag_96:\n        /* \"#utility.yul\":1775:2044   */\n      pop\n      swap2\n      swap1\n      pop\n      jump\t// out\n        /* \"#utility.yul\":2050:2230   */\n    tag_98:\n        /* \"#utility.yul\":2098:2175   */\n      0x4e487b7100000000000000000000000000000000000000000000000000000000\n        /* \"#utility.yul\":2095:2096   */\n      0x00\n        /* \"#utility.yul\":2088:2176   */\n      mstore\n        /* \"#utility.yul\":2195:2199   */\n      0x22\n        /* \"#utility.yul\":2192:2193   */\n      0x04\n        /* \"#utility.yul\":2185:2200   */\n      mstore\n        /* \"#utility.yul\":2219:2223   */\n      0x24\n        /* \"#utility.yul\":2216:2217   */\n      0x00\n        /* \"#utility.yul\":2209:2224   */\n      revert\n        /* \"#utility.yul\":2236:2338   */\n    tag_77:\n      0x00\n        /* \"#utility.yul\":2328:2330   */\n      0x1f\n        /* \"#utility.yul\":2324:2331   */\n      not\n        /* \"#utility.yul\":2319:2321   */\n      0x1f\n        /* \"#utility.yul\":2312:2317   */\n      dup4\n        /* \"#utility.yul\":2308:2322   */\n      add\n        /* \"#utility.yul\":2304:2332   */\n      and\n        /* \"#utility.yul\":2294:2332   */\n      swap1\n      pop\n        /* \"#utility.yul\":2284:2338   */\n      swap2\n      swap1\n      pop\n      jump\t// out\n\n    auxdata: 0xa26469706673582212203a0e506f4ac876e81a7126cb99c9e77a8619777f5f0831a2127a71d81c52111a64736f6c63430008000033\n}\n",
				"bytecode": {
					"linkReferences": {},
					"object": "6080604052600a60005560646001556103e86002556040518060400160405280600d81526020017f6e6f207669736962696c697479000000000000000000000000000000000000008152506003908051906020019061005f92919061015c565b506001546004556002546005556003600690805461007c9061028c565b6100879291906101e2565b506100966100e260201b60201c565b600790805190602001906100ab92919061015c565b506100ba61011f60201b60201c565b600890805190602001906100cf92919061015c565b503480156100dc57600080fd5b506102ed565b60606040518060400160405280600881526020017f696e7465726e616c000000000000000000000000000000000000000000000000815250905090565b60606040518060400160405280600681526020017f7075626c69630000000000000000000000000000000000000000000000000000815250905090565b8280546101689061028c565b90600052602060002090601f01602090048101928261018a57600085556101d1565b82601f106101a357805160ff19168380011785556101d1565b828001600101855582156101d1579182015b828111156101d05782518255916020019190600101906101b5565b5b5090506101de919061026f565b5090565b8280546101ee9061028c565b90600052602060002090601f016020900481019282610210576000855561025e565b82601f10610221578054855561025e565b8280016001018555821561025e57600052602060002091601f016020900482015b8281111561025d578254825591600101919060010190610242565b5b50905061026b919061026f565b5090565b5b80821115610288576000816000905550600101610270565b5090565b600060028204905060018216806102a457607f821691505b602082108114156102b8576102b76102be565b5b50919050565b7f4e487b7100000000000000000000000000000000000000000000000000000000600052602260045260246000fd5b6105a3806102fc6000396000f3fe608060405234801561001057600080fd5b506004361061009e5760003560e01c8063569560e811610066578063569560e81461013957806375a08adf1461015757806378f1580514610175578063c5d7802e14610193578063e6cdb78c146101b15761009e565b80630cd99d82146100a35780630dbe671f146100c15780631a6859fc146100df5780634df7e3d0146100fd5780635097e51f1461011b575b600080fd5b6100ab6101cf565b6040516100b89190610465565b60405180910390f35b6100c961025d565b6040516100d69190610487565b60405180910390f35b6100e7610263565b6040516100f49190610487565b60405180910390f35b61010561026c565b6040516101129190610487565b60405180910390f35b610123610272565b6040516101309190610465565b60405180910390f35b6101416102af565b60405161014e9190610465565b60405180910390f35b61015f61033d565b60405161016c9190610465565b60405180910390f35b61017d6103cb565b60405161018a9190610465565b60405180910390f35b61019b610408565b6040516101a89190610487565b60405180910390f35b6101b961040e565b6040516101c69190610465565b60405180910390f35b600680546101dc906104fb565b80601f0160208091040260200160405190810160405280929190818152602001828054610208906104fb565b80156102555780601f1061022a57610100808354040283529160200191610255565b820191906000526020600020905b81548152906001019060200180831161023857829003601f168201915b505050505081565b60045481565b60006001905090565b60055481565b60606040518060400160405280600681526020017f7075626c69630000000000000000000000000000000000000000000000000000815250905090565b600780546102bc906104fb565b80601f01602080910402602001604051908101604052809291908181526020018280546102e8906104fb565b80156103355780601f1061030a57610100808354040283529160200191610335565b820191906000526020600020905b81548152906001019060200180831161031857829003601f168201915b505050505081565b6008805461034a906104fb565b80601f0160208091040260200160405190810160405280929190818152602001828054610376906104fb565b80156103c35780601f10610398576101008083540402835291602001916103c3565b820191906000526020600020905b8154815290600101906020018083116103a657829003601f168201915b505050505081565b60606040518060400160405280600881526020017f65787465726e616c000000000000000000000000000000000000000000000000815250905090565b60025481565b6060610418610272565b905090565b6000610428826104a2565b61043281856104ad565b93506104428185602086016104c8565b61044b8161055c565b840191505092915050565b61045f816104be565b82525050565b6000602082019050818103600083015261047f818461041d565b905092915050565b600060208201905061049c6000830184610456565b92915050565b600081519050919050565b600082825260208201905092915050565b6000819050919050565b60005b838110156104e65780820151818401526020810190506104cb565b838111156104f5576000848401525b50505050565b6000600282049050600182168061051357607f821691505b602082108114156105275761052661052d565b5b50919050565b7f4e487b7100000000000000000000000000000000000000000000000000000000600052602260045260246000fd5b6000601f19601f830116905091905056fea26469706673582212203a0e506f4ac876e81a7126cb99c9e77a8619777f5f0831a2127a71d81c52111a64736f6c63430008000033",
					"opcodes": "PUSH1 0x80 PUSH1 0x40 MSTORE PUSH1 0xA PUSH1 0x0 SSTORE PUSH1 0x64 PUSH1 0x1 SSTORE PUSH2 0x3E8 PUSH1 0x2 SSTORE PUSH1 0x40 MLOAD DUP1 PUSH1 0x40 ADD PUSH1 0x40 MSTORE DUP1 PUSH1 0xD DUP2 MSTORE PUSH1 0x20 ADD PUSH32 0x6E6F207669736962696C69747900000000000000000000000000000000000000 DUP2 MSTORE POP PUSH1 0x3 SWAP1 DUP1 MLOAD SWAP1 PUSH1 0x20 ADD SWAP1 PUSH2 0x5F SWAP3 SWAP2 SWAP1 PUSH2 0x15C JUMP JUMPDEST POP PUSH1 0x1 SLOAD PUSH1 0x4 SSTORE PUSH1 0x2 SLOAD PUSH1 0x5 SSTORE PUSH1 0x3 PUSH1 0x6 SWAP1 DUP1 SLOAD PUSH2 0x7C SWAP1 PUSH2 0x28C JUMP JUMPDEST PUSH2 0x87 SWAP3 SWAP2 SWAP1 PUSH2 0x1E2 JUMP JUMPDEST POP PUSH2 0x96 PUSH2 0xE2 PUSH1 0x20 SHL PUSH1 0x20 SHR JUMP JUMPDEST PUSH1 0x7 SWAP1 DUP1 MLOAD SWAP1 PUSH1 0x20 ADD SWAP1 PUSH2 0xAB SWAP3 SWAP2 SWAP1 PUSH2 0x15C JUMP JUMPDEST POP PUSH2 0xBA PUSH2 0x11F PUSH1 0x20 SHL PUSH1 0x20 SHR JUMP JUMPDEST PUSH1 0x8 SWAP1 DUP1 MLOAD SWAP1 PUSH1 0x20 ADD SWAP1 PUSH2 0xCF SWAP3 SWAP2 SWAP1 PUSH2 0x15C JUMP JUMPDEST POP CALLVALUE DUP1 ISZERO PUSH2 0xDC JUMPI PUSH1 0x0 DUP1 REVERT JUMPDEST POP PUSH2 0x2ED JUMP JUMPDEST PUSH1 0x60 PUSH1 0x40 MLOAD DUP1 PUSH1 0x40 ADD PUSH1 0x40 MSTORE DUP1 PUSH1 0x8 DUP2 MSTORE PUSH1 0x20 ADD PUSH32 0x696E7465726E616C000000000000000000000000000000000000000000000000 DUP2 MSTORE POP SWAP1 POP SWAP1 JUMP JUMPDEST PUSH1 0x60 PUSH1 0x40 MLOAD DUP1 PUSH1 0x40 ADD PUSH1 0x40 MSTORE DUP1 PUSH1 0x6 DUP2 MSTORE PUSH1 0x20 ADD PUSH32 0x7075626C69630000000000000000000000000000000000000000000000000000 DUP2 MSTORE POP SWAP1 POP SWAP1 JUMP JUMPDEST DUP3 DUP1 SLOAD PUSH2 0x168 SWAP1 PUSH2 0x28C JUMP JUMPDEST SWAP1 PUSH1 0x0 MSTORE PUSH1 0x20 PUSH1 0x0 KECCAK256 SWAP1 PUSH1 0x1F ADD PUSH1 0x20 SWAP1 DIV DUP2 ADD SWAP3 DUP3 PUSH2 0x18A JUMPI PUSH1 0x0 DUP6 SSTORE PUSH2 0x1D1 JUMP JUMPDEST DUP3 PUSH1 0x1F LT PUSH2 0x1A3 JUMPI DUP1 MLOAD PUSH1 0xFF NOT AND DUP4 DUP1 ADD OR DUP6 SSTORE PUSH2 0x1D1 JUMP JUMPDEST DUP3 DUP1 ADD PUSH1 0x1 ADD DUP6 SSTORE DUP3 ISZERO PUSH2 0x1D1 JUMPI SWAP2 DUP3 ADD JUMPDEST DUP3 DUP2 GT ISZERO PUSH2 0x1D0 JUMPI DUP3 MLOAD DUP3 SSTORE SWAP2 PUSH1 0x20 ADD SWAP2 SWAP1 PUSH1 0x1 ADD SWAP1 PUSH2 0x1B5 JUMP JUMPDEST JUMPDEST POP SWAP1 POP PUSH2 0x1DE SWAP2 SWAP1 PUSH2 0x26F JUMP JUMPDEST POP SWAP1 JUMP JUMPDEST DUP3 DUP1 SLOAD PUSH2 0x1EE SWAP1 PUSH2 0x28C JUMP JUMPDEST SWAP1 PUSH1 0x0 MSTORE PUSH1 0x20 PUSH1 0x0 KECCAK256 SWAP1 PUSH1 0x1F ADD PUSH1 0x20 SWAP1 DIV DUP2 ADD SWAP3 DUP3 PUSH2 0x210 JUMPI PUSH1 0x0 DUP6 SSTORE PUSH2 0x25E JUMP JUMPDEST DUP3 PUSH1 0x1F LT PUSH2 0x221 JUMPI DUP1 SLOAD DUP6 SSTORE PUSH2 0x25E JUMP JUMPDEST DUP3 DUP1 ADD PUSH1 0x1 ADD DUP6 SSTORE DUP3 ISZERO PUSH2 0x25E JUMPI PUSH1 0x0 MSTORE PUSH1 0x20 PUSH1 0x0 KECCAK256 SWAP2 PUSH1 0x1F ADD PUSH1 0x20 SWAP1 DIV DUP3 ADD JUMPDEST DUP3 DUP2 GT ISZERO PUSH2 0x25D JUMPI DUP3 SLOAD DUP3 SSTORE SWAP2 PUSH1 0x1 ADD SWAP2 SWAP1 PUSH1 0x1 ADD SWAP1 PUSH2 0x242 JUMP JUMPDEST JUMPDEST POP SWAP1 POP PUSH2 0x26B SWAP2 SWAP1 PUSH2 0x26F JUMP JUMPDEST POP SWAP1 JUMP JUMPDEST JUMPDEST DUP1 DUP3 GT ISZERO PUSH2 0x288 JUMPI PUSH1 0x0 DUP2 PUSH1 0x0 SWAP1 SSTORE POP PUSH1 0x1 ADD PUSH2 0x270 JUMP JUMPDEST POP SWAP1 JUMP JUMPDEST PUSH1 0x0 PUSH1 0x2 DUP3 DIV SWAP1 POP PUSH1 0x1 DUP3 AND DUP1 PUSH2 0x2A4 JUMPI PUSH1 0x7F DUP3 AND SWAP2 POP JUMPDEST PUSH1 0x20 DUP3 LT DUP2 EQ ISZERO PUSH2 0x2B8 JUMPI PUSH2 0x2B7 PUSH2 0x2BE JUMP JUMPDEST JUMPDEST POP SWAP2 SWAP1 POP JUMP JUMPDEST PUSH32 0x4E487B7100000000000000000000000000000000000000000000000000000000 PUSH1 0x0 MSTORE PUSH1 0x22 PUSH1 0x4 MSTORE PUSH1 0x24 PUSH1 0x0 REVERT JUMPDEST PUSH2 0x5A3 DUP1 PUSH2 0x2FC PUSH1 0x0 CODECOPY PUSH1 0x0 RETURN INVALID PUSH1 0x80 PUSH1 0x40 MSTORE CALLVALUE DUP1 ISZERO PUSH2 0x10 JUMPI PUSH1 0x0 DUP1 REVERT JUMPDEST POP PUSH1 0x4 CALLDATASIZE LT PUSH2 0x9E JUMPI PUSH1 0x0 CALLDATALOAD PUSH1 0xE0 SHR DUP1 PUSH4 0x569560E8 GT PUSH2 0x66 JUMPI DUP1 PUSH4 0x569560E8 EQ PUSH2 0x139 JUMPI DUP1 PUSH4 0x75A08ADF EQ PUSH2 0x157 JUMPI DUP1 PUSH4 0x78F15805 EQ PUSH2 0x175 JUMPI DUP1 PUSH4 0xC5D7802E EQ PUSH2 0x193 JUMPI DUP1 PUSH4 0xE6CDB78C EQ PUSH2 0x1B1 JUMPI PUSH2 0x9E JUMP JUMPDEST DUP1 PUSH4 0xCD99D82 EQ PUSH2 0xA3 JUMPI DUP1 PUSH4 0xDBE671F EQ PUSH2 0xC1 JUMPI DUP1 PUSH4 0x1A6859FC EQ PUSH2 0xDF JUMPI DUP1 PUSH4 0x4DF7E3D0 EQ PUSH2 0xFD JUMPI DUP1 PUSH4 0x5097E51F EQ PUSH2 0x11B JUMPI JUMPDEST PUSH1 0x0 DUP1 REVERT JUMPDEST PUSH2 0xAB PUSH2 0x1CF JUMP JUMPDEST PUSH1 0x40 MLOAD PUSH2 0xB8 SWAP2 SWAP1 PUSH2 0x465 JUMP JUMPDEST PUSH1 0x40 MLOAD DUP1 SWAP2 SUB SWAP1 RETURN JUMPDEST PUSH2 0xC9 PUSH2 0x25D JUMP JUMPDEST PUSH1 0x40 MLOAD PUSH2 0xD6 SWAP2 SWAP1 PUSH2 0x487 JUMP JUMPDEST PUSH1 0x40 MLOAD DUP1 SWAP2 SUB SWAP1 RETURN JUMPDEST PUSH2 0xE7 PUSH2 0x263 JUMP JUMPDEST PUSH1 0x40 MLOAD PUSH2 0xF4 SWAP2 SWAP1 PUSH2 0x487 JUMP JUMPDEST PUSH1 0x40 MLOAD DUP1 SWAP2 SUB SWAP1 RETURN JUMPDEST PUSH2 0x105 PUSH2 0x26C JUMP JUMPDEST PUSH1 0x40 MLOAD PUSH2 0x112 SWAP2 SWAP1 PUSH2 0x487 JUMP JUMPDEST PUSH1 0x40 MLOAD DUP1 SWAP2 SUB SWAP1 RETURN JUMPDEST PUSH2 0x123 PUSH2 0x272 JUMP JUMPDEST PUSH1 0x40 MLOAD PUSH2 0x130 SWAP2 SWAP1 PUSH2 0x465 JUMP JUMPDEST PUSH1 0x40 MLOAD DUP1 SWAP2 SUB SWAP1 RETURN JUMPDEST PUSH2 0x141 PUSH2 0x2AF JUMP JUMPDEST PUSH1 0x40 MLOAD PUSH2 0x14E SWAP2 SWAP1 PUSH2 0x465 JUMP JUMPDEST PUSH1 0x40 MLOAD DUP1 SWAP2 SUB SWAP1 RETURN JUMPDEST PUSH2 0x15F PUSH2 0x33D JUMP JUMPDEST PUSH1 0x40 MLOAD PUSH2 0x16C SWAP2 SWAP1 PUSH2 0x465 JUMP JUMPDEST PUSH1 0x40 MLOAD DUP1 SWAP2 SUB SWAP1 RETURN JUMPDEST PUSH2 0x17D PUSH2 0x3CB JUMP JUMPDEST PUSH1 0x40 MLOAD PUSH2 0x18A SWAP2 SWAP1 PUSH2 0x465 JUMP JUMPDEST PUSH1 0x40 MLOAD DUP1 SWAP2 SUB SWAP1 RETURN JUMPDEST PUSH2 0x19B PUSH2 0x408 JUMP JUMPDEST PUSH1 0x40 MLOAD PUSH2 0x1A8 SWAP2 SWAP1 PUSH2 0x487 JUMP JUMPDEST PUSH1 0x40 MLOAD DUP1 SWAP2 SUB SWAP1 RETURN JUMPDEST PUSH2 0x1B9 PUSH2 0x40E JUMP JUMPDEST PUSH1 0x40 MLOAD PUSH2 0x1C6 SWAP2 SWAP1 PUSH2 0x465 JUMP JUMPDEST PUSH1 0x40 MLOAD DUP1 SWAP2 SUB SWAP1 RETURN JUMPDEST PUSH1 0x6 DUP1 SLOAD PUSH2 0x1DC SWAP1 PUSH2 0x4FB JUMP JUMPDEST DUP1 PUSH1 0x1F ADD PUSH1 0x20 DUP1 SWAP2 DIV MUL PUSH1 0x20 ADD PUSH1 0x40 MLOAD SWAP1 DUP2 ADD PUSH1 0x40 MSTORE DUP1 SWAP3 SWAP2 SWAP1 DUP2 DUP2 MSTORE PUSH1 0x20 ADD DUP3 DUP1 SLOAD PUSH2 0x208 SWAP1 PUSH2 0x4FB JUMP JUMPDEST DUP1 ISZERO PUSH2 0x255 JUMPI DUP1 PUSH1 0x1F LT PUSH2 0x22A JUMPI PUSH2 0x100 DUP1 DUP4 SLOAD DIV MUL DUP4 MSTORE SWAP2 PUSH1 0x20 ADD SWAP2 PUSH2 0x255 JUMP JUMPDEST DUP3 ADD SWAP2 SWAP1 PUSH1 0x0 MSTORE PUSH1 0x20 PUSH1 0x0 KECCAK256 SWAP1 JUMPDEST DUP2 SLOAD DUP2 MSTORE SWAP1 PUSH1 0x1 ADD SWAP1 PUSH1 0x20 ADD DUP1 DUP4 GT PUSH2 0x238 JUMPI DUP3 SWAP1 SUB PUSH1 0x1F AND DUP3 ADD SWAP2 JUMPDEST POP POP POP POP POP DUP2 JUMP JUMPDEST PUSH1 0x4 SLOAD DUP2 JUMP JUMPDEST PUSH1 0x0 PUSH1 0x1 SWAP1 POP SWAP1 JUMP JUMPDEST PUSH1 0x5 SLOAD DUP2 JUMP JUMPDEST PUSH1 0x60 PUSH1 0x40 MLOAD DUP1 PUSH1 0x40 ADD PUSH1 0x40 MSTORE DUP1 PUSH1 0x6 DUP2 MSTORE PUSH1 0x20 ADD PUSH32 0x7075626C69630000000000000000000000000000000000000000000000000000 DUP2 MSTORE POP SWAP1 POP SWAP1 JUMP JUMPDEST PUSH1 0x7 DUP1 SLOAD PUSH2 0x2BC SWAP1 PUSH2 0x4FB JUMP JUMPDEST DUP1 PUSH1 0x1F ADD PUSH1 0x20 DUP1 SWAP2 DIV MUL PUSH1 0x20 ADD PUSH1 0x40 MLOAD SWAP1 DUP2 ADD PUSH1 0x40 MSTORE DUP1 SWAP3 SWAP2 SWAP1 DUP2 DUP2 MSTORE PUSH1 0x20 ADD DUP3 DUP1 SLOAD PUSH2 0x2E8 SWAP1 PUSH2 0x4FB JUMP JUMPDEST DUP1 ISZERO PUSH2 0x335 JUMPI DUP1 PUSH1 0x1F LT PUSH2 0x30A JUMPI PUSH2 0x100 DUP1 DUP4 SLOAD DIV MUL DUP4 MSTORE SWAP2 PUSH1 0x20 ADD SWAP2 PUSH2 0x335 JUMP JUMPDEST DUP3 ADD SWAP2 SWAP1 PUSH1 0x0 MSTORE PUSH1 0x20 PUSH1 0x0 KECCAK256 SWAP1 JUMPDEST DUP2 SLOAD DUP2 MSTORE SWAP1 PUSH1 0x1 ADD SWAP1 PUSH1 0x20 ADD DUP1 DUP4 GT PUSH2 0x318 JUMPI DUP3 SWAP1 SUB PUSH1 0x1F AND DUP3 ADD SWAP2 JUMPDEST POP POP POP POP POP DUP2 JUMP JUMPDEST PUSH1 0x8 DUP1 SLOAD PUSH2 0x34A SWAP1 PUSH2 0x4FB JUMP JUMPDEST DUP1 PUSH1 0x1F ADD PUSH1 0x20 DUP1 SWAP2 DIV MUL PUSH1 0x20 ADD PUSH1 0x40 MLOAD SWAP1 DUP2 ADD PUSH1 0x40 MSTORE DUP1 SWAP3 SWAP2 SWAP1 DUP2 DUP2 MSTORE PUSH1 0x20 ADD DUP3 DUP1 SLOAD PUSH2 0x376 SWAP1 PUSH2 0x4FB JUMP JUMPDEST DUP1 ISZERO PUSH2 0x3C3 JUMPI DUP1 PUSH1 0x1F LT PUSH2 0x398 JUMPI PUSH2 0x100 DUP1 DUP4 SLOAD DIV MUL DUP4 MSTORE SWAP2 PUSH1 0x20 ADD SWAP2 PUSH2 0x3C3 JUMP JUMPDEST DUP3 ADD SWAP2 SWAP1 PUSH1 0x0 MSTORE PUSH1 0x20 PUSH1 0x0 KECCAK256 SWAP1 JUMPDEST DUP2 SLOAD DUP2 MSTORE SWAP1 PUSH1 0x1 ADD SWAP1 PUSH1 0x20 ADD DUP1 DUP4 GT PUSH2 0x3A6 JUMPI DUP3 SWAP1 SUB PUSH1 0x1F AND DUP3 ADD SWAP2 JUMPDEST POP POP POP POP POP DUP2 JUMP JUMPDEST PUSH1 0x60 PUSH1 0x40 MLOAD DUP1 PUSH1 0x40 ADD PUSH1 0x40 MSTORE DUP1 PUSH1 0x8 DUP2 MSTORE PUSH1 0x20 ADD PUSH32 0x65787465726E616C000000000000000000000000000000000000000000000000 DUP2 MSTORE POP SWAP1 POP SWAP1 JUMP JUMPDEST PUSH1 0x2 SLOAD DUP2 JUMP JUMPDEST PUSH1 0x60 PUSH2 0x418 PUSH2 0x272 JUMP JUMPDEST SWAP1 POP SWAP1 JUMP JUMPDEST PUSH1 0x0 PUSH2 0x428 DUP3 PUSH2 0x4A2 JUMP JUMPDEST PUSH2 0x432 DUP2 DUP6 PUSH2 0x4AD JUMP JUMPDEST SWAP4 POP PUSH2 0x442 DUP2 DUP6 PUSH1 0x20 DUP7 ADD PUSH2 0x4C8 JUMP JUMPDEST PUSH2 0x44B DUP2 PUSH2 0x55C JUMP JUMPDEST DUP5 ADD SWAP2 POP POP SWAP3 SWAP2 POP POP JUMP JUMPDEST PUSH2 0x45F DUP2 PUSH2 0x4BE JUMP JUMPDEST DUP3 MSTORE POP POP JUMP JUMPDEST PUSH1 0x0 PUSH1 0x20 DUP3 ADD SWAP1 POP DUP2 DUP2 SUB PUSH1 0x0 DUP4 ADD MSTORE PUSH2 0x47F DUP2 DUP5 PUSH2 0x41D JUMP JUMPDEST SWAP1 POP SWAP3 SWAP2 POP POP JUMP JUMPDEST PUSH1 0x0 PUSH1 0x20 DUP3 ADD SWAP1 POP PUSH2 0x49C PUSH1 0x0 DUP4 ADD DUP5 PUSH2 0x456 JUMP JUMPDEST SWAP3 SWAP2 POP POP JUMP JUMPDEST PUSH1 0x0 DUP2 MLOAD SWAP1 POP SWAP2 SWAP1 POP JUMP JUMPDEST PUSH1 0x0 DUP3 DUP3 MSTORE PUSH1 0x20 DUP3 ADD SWAP1 POP SWAP3 SWAP2 POP POP JUMP JUMPDEST PUSH1 0x0 DUP2 SWAP1 POP SWAP2 SWAP1 POP JUMP JUMPDEST PUSH1 0x0 JUMPDEST DUP4 DUP2 LT ISZERO PUSH2 0x4E6 JUMPI DUP1 DUP3 ADD MLOAD DUP2 DUP5 ADD MSTORE PUSH1 0x20 DUP2 ADD SWAP1 POP PUSH2 0x4CB JUMP JUMPDEST DUP4 DUP2 GT ISZERO PUSH2 0x4F5 JUMPI PUSH1 0x0 DUP5 DUP5 ADD MSTORE JUMPDEST POP POP POP POP JUMP JUMPDEST PUSH1 0x0 PUSH1 0x2 DUP3 DIV SWAP1 POP PUSH1 0x1 DUP3 AND DUP1 PUSH2 0x513 JUMPI PUSH1 0x7F DUP3 AND SWAP2 POP JUMPDEST PUSH1 0x20 DUP3 LT DUP2 EQ ISZERO PUSH2 0x527 JUMPI PUSH2 0x526 PUSH2 0x52D JUMP JUMPDEST JUMPDEST POP SWAP2 SWAP1 POP JUMP JUMPDEST PUSH32 0x4E487B7100000000000000000000000000000000000000000000000000000000 PUSH1 0x0 MSTORE PUSH1 0x22 PUSH1 0x4 MSTORE PUSH1 0x24 PUSH1 0x0 REVERT JUMPDEST PUSH1 0x0 PUSH1 0x1F NOT PUSH1 0x1F DUP4 ADD AND SWAP1 POP SWAP2 SWAP1 POP JUMP INVALID LOG2 PUSH5 0x6970667358 0x22 SLT KECCAK256 GASPRICE 0xE POP PUSH16 0x4AC876E81A7126CB99C9E77A8619777F 0x5F ADDMOD BALANCE LOG2 SLT PUSH27 0x71D81C52111A64736F6C6343000800003300000000000000000000 "
				},
				"gasEstimates": {
					"creation": {
						"codeDepositCost": "288600",
						"executionCost": "infinite",
						"totalCost": "infinite"
					},
					"external": {
						"External()": "infinite",
						"Public()": "infinite",
						"a()": "1152",
						"b()": "1196",
						"checkFunctions()": "infinite",
						"checkVariables()": "382",
						"functions()": "infinite",
						"functions3()": "infinite",
						"newOpen()": "infinite",
						"z()": "1195"
					}
				},
				"methodIdentifiers": {
					"External()": "78f15805",
					"Public()": "5097e51f",
					"a()": "0dbe671f",
					"b()": "4df7e3d0",
					"checkFunctions()": "e6cdb78c",
					"checkVariables()": "1a6859fc",
					"functions()": "569560e8",
					"functions3()": "75a08adf",
					"newOpen()": "0cd99d82",
					"z()": "c5d7802e"
				}
			},
			"storageLayout": {
				"storage": [
					{
						"astId": 4,
						"contract": "contracts/03_udemy_andrei_dumitrescu/09_visibility.sol:B",
						"label": "x",
						"offset": 0,
						"slot": "0",
						"type": "t_uint256"
					},
					{
						"astId": 7,
						"contract": "contracts/03_udemy_andrei_dumitrescu/09_visibility.sol:B",
						"label": "y",
						"offset": 0,
						"slot": "1",
						"type": "t_uint256"
					},
					{
						"astId": 10,
						"contract": "contracts/03_udemy_andrei_dumitrescu/09_visibility.sol:B",
						"label": "z",
						"offset": 0,
						"slot": "2",
						"type": "t_uint256"
					},
					{
						"astId": 13,
						"contract": "contracts/03_udemy_andrei_dumitrescu/09_visibility.sol:B",
						"label": "open",
						"offset": 0,
						"slot": "3",
						"type": "t_string_storage"
					},
					{
						"astId": 68,
						"contract": "contracts/03_udemy_andrei_dumitrescu/09_visibility.sol:B",
						"label": "a",
						"offset": 0,
						"slot": "4",
						"type": "t_uint256"
					},
					{
						"astId": 71,
						"contract": "contracts/03_udemy_andrei_dumitrescu/09_visibility.sol:B",
						"label": "b",
						"offset": 0,
						"slot": "5",
						"type": "t_uint256"
					},
					{
						"astId": 74,
						"contract": "contracts/03_udemy_andrei_dumitrescu/09_visibility.sol:B",
						"label": "newOpen",
						"offset": 0,
						"slot": "6",
						"type": "t_string_storage"
					},
					{
						"astId": 78,
						"contract": "contracts/03_udemy_andrei_dumitrescu/09_visibility.sol:B",
						"label": "functions",
						"offset": 0,
						"slot": "7",
						"type": "t_string_storage"
					},
					{
						"astId": 82,
						"contract": "contracts/03_udemy_andrei_dumitrescu/09_visibility.sol:B",
						"label": "functions3",
						"offset": 0,
						"slot": "8",
						"type": "t_string_storage"
					}
				],
				"types": {
					"t_string_storage": {
						"encoding": "bytes",
						"label": "string",
						"numberOfBytes": "32"
					},
					"t_uint256": {
						"encoding": "inplace",
						"label": "uint256",
						"numberOfBytes": "32"
					}
				}
			},
			"userdoc": {
				"kind": "user",
				"methods": {},
				"version": 1
			}
		}
	}
}