{
	"contracts/03_udemy_andrei_dumitrescu/08_fallback_transfer.sol": {
		"Deposite": {
			"abi": [
				{
					"inputs": [],
					"stateMutability": "nonpayable",
					"type": "constructor"
				},
				{
					"stateMutability": "payable",
					"type": "fallback"
				},
				{
					"inputs": [],
					"name": "getBalance",
					"outputs": [
						{
							"internalType": "uint256",
							"name": "",
							"type": "uint256"
						}
					],
					"stateMutability": "view",
					"type": "function"
				},
				{
					"inputs": [],
					"name": "owner",
					"outputs": [
						{
							"internalType": "address",
							"name": "",
							"type": "address"
						}
					],
					"stateMutability": "view",
					"type": "function"
				},
				{
					"inputs": [],
					"name": "sendEther",
					"outputs": [],
					"stateMutability": "payable",
					"type": "function"
				},
				{
					"inputs": [
						{
							"internalType": "address payable",
							"name": "recipient",
							"type": "address"
						},
						{
							"internalType": "uint256",
							"name": "amount",
							"type": "uint256"
						}
					],
					"name": "transferEther",
					"outputs": [
						{
							"internalType": "bool",
							"name": "",
							"type": "bool"
						}
					],
					"stateMutability": "nonpayable",
					"type": "function"
				},
				{
					"stateMutability": "payable",
					"type": "receive"
				}
			],
			"devdoc": {
				"kind": "dev",
				"methods": {},
				"version": 1
			},
			"evm": {
				"assembly": "    /* \"contracts/03_udemy_andrei_dumitrescu/08_fallback_transfer.sol\":61:789  contract Deposite {\r... */\n  mstore(0x40, 0x80)\n    /* \"contracts/03_udemy_andrei_dumitrescu/08_fallback_transfer.sol\":115:166  constructor() {\r... */\n  callvalue\n  dup1\n  iszero\n  tag_1\n  jumpi\n  0x00\n  dup1\n  revert\ntag_1:\n  pop\n    /* \"contracts/03_udemy_andrei_dumitrescu/08_fallback_transfer.sol\":148:158  msg.sender */\n  caller\n    /* \"contracts/03_udemy_andrei_dumitrescu/08_fallback_transfer.sol\":140:145  owner */\n  0x00\n  dup1\n    /* \"contracts/03_udemy_andrei_dumitrescu/08_fallback_transfer.sol\":140:158  owner = msg.sender */\n  0x0100\n  exp\n  dup2\n  sload\n  dup2\n  0xffffffffffffffffffffffffffffffffffffffff\n  mul\n  not\n  and\n  swap1\n  dup4\n  0xffffffffffffffffffffffffffffffffffffffff\n  and\n  mul\n  or\n  swap1\n  sstore\n  pop\n    /* \"contracts/03_udemy_andrei_dumitrescu/08_fallback_transfer.sol\":61:789  contract Deposite {\r... */\n  dataSize(sub_0)\n  dup1\n  dataOffset(sub_0)\n  0x00\n  codecopy\n  0x00\n  return\nstop\n\nsub_0: assembly {\n        /* \"contracts/03_udemy_andrei_dumitrescu/08_fallback_transfer.sol\":61:789  contract Deposite {\r... */\n      mstore(0x40, 0x80)\n      jumpi(tag_1, lt(calldatasize, 0x04))\n      shr(0xe0, calldataload(0x00))\n      dup1\n      0x05b1137b\n      eq\n      tag_3\n      jumpi\n      dup1\n      0x0e29df22\n      eq\n      tag_4\n      jumpi\n      dup1\n      0x12065fe0\n      eq\n      tag_5\n      jumpi\n      dup1\n      0x8da5cb5b\n      eq\n      tag_6\n      jumpi\n      jump(tag_2)\n    tag_1:\n      jumpi(tag_2, calldatasize)\n      stop\n    tag_2:\n      stop\n        /* \"contracts/03_udemy_andrei_dumitrescu/08_fallback_transfer.sol\":453:786  function transferEther(address payable recipient, uint amount) public returns(bool) {\r... */\n    tag_3:\n      callvalue\n      dup1\n      iszero\n      tag_11\n      jumpi\n      0x00\n      dup1\n      revert\n    tag_11:\n      pop\n      tag_12\n      0x04\n      dup1\n      calldatasize\n      sub\n      dup2\n      add\n      swap1\n      tag_13\n      swap2\n      swap1\n      tag_14\n      jump\t// in\n    tag_13:\n      tag_15\n      jump\t// in\n    tag_12:\n      mload(0x40)\n      tag_16\n      swap2\n      swap1\n      tag_17\n      jump\t// in\n    tag_16:\n      mload(0x40)\n      dup1\n      swap2\n      sub\n      swap1\n      return\n        /* \"contracts/03_udemy_andrei_dumitrescu/08_fallback_transfer.sol\":385:445  function sendEther() public payable {\r... */\n    tag_4:\n      tag_18\n      tag_19\n      jump\t// in\n    tag_18:\n      stop\n        /* \"contracts/03_udemy_andrei_dumitrescu/08_fallback_transfer.sol\":247:342  function getBalance() public view returns(uint) {\r... */\n    tag_5:\n      callvalue\n      dup1\n      iszero\n      tag_20\n      jumpi\n      0x00\n      dup1\n      revert\n    tag_20:\n      pop\n      tag_21\n      tag_22\n      jump\t// in\n    tag_21:\n      mload(0x40)\n      tag_23\n      swap2\n      swap1\n      tag_24\n      jump\t// in\n    tag_23:\n      mload(0x40)\n      dup1\n      swap2\n      sub\n      swap1\n      return\n        /* \"contracts/03_udemy_andrei_dumitrescu/08_fallback_transfer.sol\":86:106  address public owner */\n    tag_6:\n      callvalue\n      dup1\n      iszero\n      tag_25\n      jumpi\n      0x00\n      dup1\n      revert\n    tag_25:\n      pop\n      tag_26\n      tag_27\n      jump\t// in\n    tag_26:\n      mload(0x40)\n      tag_28\n      swap2\n      swap1\n      tag_29\n      jump\t// in\n    tag_28:\n      mload(0x40)\n      dup1\n      swap2\n      sub\n      swap1\n      return\n        /* \"contracts/03_udemy_andrei_dumitrescu/08_fallback_transfer.sol\":453:786  function transferEther(address payable recipient, uint amount) public returns(bool) {\r... */\n    tag_15:\n        /* \"contracts/03_udemy_andrei_dumitrescu/08_fallback_transfer.sol\":531:535  bool */\n      0x00\n        /* \"contracts/03_udemy_andrei_dumitrescu/08_fallback_transfer.sol\":565:575  msg.sender */\n      caller\n        /* \"contracts/03_udemy_andrei_dumitrescu/08_fallback_transfer.sol\":556:575  owner == msg.sender */\n      0xffffffffffffffffffffffffffffffffffffffff\n      and\n        /* \"contracts/03_udemy_andrei_dumitrescu/08_fallback_transfer.sol\":556:561  owner */\n      0x00\n      dup1\n      sload\n      swap1\n      0x0100\n      exp\n      swap1\n      div\n      0xffffffffffffffffffffffffffffffffffffffff\n      and\n        /* \"contracts/03_udemy_andrei_dumitrescu/08_fallback_transfer.sol\":556:575  owner == msg.sender */\n      0xffffffffffffffffffffffffffffffffffffffff\n      and\n      eq\n        /* \"contracts/03_udemy_andrei_dumitrescu/08_fallback_transfer.sol\":548:617  require(owner == msg.sender, \"Transfer failed,You are not the owner\") */\n      tag_31\n      jumpi\n      mload(0x40)\n      0x08c379a000000000000000000000000000000000000000000000000000000000\n      dup2\n      mstore\n      0x04\n      add\n      tag_32\n      swap1\n      tag_33\n      jump\t// in\n    tag_32:\n      mload(0x40)\n      dup1\n      swap2\n      sub\n      swap1\n      revert\n    tag_31:\n        /* \"contracts/03_udemy_andrei_dumitrescu/08_fallback_transfer.sol\":641:653  getBalance() */\n      tag_34\n        /* \"contracts/03_udemy_andrei_dumitrescu/08_fallback_transfer.sol\":641:651  getBalance */\n      tag_22\n        /* \"contracts/03_udemy_andrei_dumitrescu/08_fallback_transfer.sol\":641:653  getBalance() */\n      jump\t// in\n    tag_34:\n        /* \"contracts/03_udemy_andrei_dumitrescu/08_fallback_transfer.sol\":631:637  amount */\n      dup3\n        /* \"contracts/03_udemy_andrei_dumitrescu/08_fallback_transfer.sol\":631:653  amount <= getBalance() */\n      gt\n        /* \"contracts/03_udemy_andrei_dumitrescu/08_fallback_transfer.sol\":628:779  if(amount <= getBalance()) {\r... */\n      tag_35\n      jumpi\n        /* \"contracts/03_udemy_andrei_dumitrescu/08_fallback_transfer.sol\":670:679  recipient */\n      dup3\n        /* \"contracts/03_udemy_andrei_dumitrescu/08_fallback_transfer.sol\":670:688  recipient.transfer */\n      0xffffffffffffffffffffffffffffffffffffffff\n      and\n        /* \"contracts/03_udemy_andrei_dumitrescu/08_fallback_transfer.sol\":670:696  recipient.transfer(amount) */\n      0x08fc\n        /* \"contracts/03_udemy_andrei_dumitrescu/08_fallback_transfer.sol\":689:695  amount */\n      dup4\n        /* \"contracts/03_udemy_andrei_dumitrescu/08_fallback_transfer.sol\":670:696  recipient.transfer(amount) */\n      swap1\n      dup2\n      iszero\n      mul\n      swap1\n      mload(0x40)\n      0x00\n      mload(0x40)\n      dup1\n      dup4\n      sub\n      dup2\n      dup6\n      dup9\n      dup9\n      call\n      swap4\n      pop\n      pop\n      pop\n      pop\n      iszero\n      dup1\n      iszero\n      tag_37\n      jumpi\n      returndatasize\n      0x00\n      dup1\n      returndatacopy\n      revert(0x00, returndatasize)\n    tag_37:\n      pop\n        /* \"contracts/03_udemy_andrei_dumitrescu/08_fallback_transfer.sol\":718:722  true */\n      0x01\n        /* \"contracts/03_udemy_andrei_dumitrescu/08_fallback_transfer.sol\":711:722  return true */\n      swap1\n      pop\n      jump(tag_30)\n        /* \"contracts/03_udemy_andrei_dumitrescu/08_fallback_transfer.sol\":628:779  if(amount <= getBalance()) {\r... */\n    tag_35:\n        /* \"contracts/03_udemy_andrei_dumitrescu/08_fallback_transfer.sol\":762:767  false */\n      0x00\n        /* \"contracts/03_udemy_andrei_dumitrescu/08_fallback_transfer.sol\":755:767  return false */\n      swap1\n      pop\n        /* \"contracts/03_udemy_andrei_dumitrescu/08_fallback_transfer.sol\":453:786  function transferEther(address payable recipient, uint amount) public returns(bool) {\r... */\n    tag_30:\n      swap3\n      swap2\n      pop\n      pop\n      jump\t// out\n        /* \"contracts/03_udemy_andrei_dumitrescu/08_fallback_transfer.sol\":385:445  function sendEther() public payable {\r... */\n    tag_19:\n      jump\t// out\n        /* \"contracts/03_udemy_andrei_dumitrescu/08_fallback_transfer.sol\":247:342  function getBalance() public view returns(uint) {\r... */\n    tag_22:\n        /* \"contracts/03_udemy_andrei_dumitrescu/08_fallback_transfer.sol\":289:293  uint */\n      0x00\n        /* \"contracts/03_udemy_andrei_dumitrescu/08_fallback_transfer.sol\":313:334  address(this).balance */\n      selfbalance\n        /* \"contracts/03_udemy_andrei_dumitrescu/08_fallback_transfer.sol\":306:334  return address(this).balance */\n      swap1\n      pop\n        /* \"contracts/03_udemy_andrei_dumitrescu/08_fallback_transfer.sol\":247:342  function getBalance() public view returns(uint) {\r... */\n      swap1\n      jump\t// out\n        /* \"contracts/03_udemy_andrei_dumitrescu/08_fallback_transfer.sol\":86:106  address public owner */\n    tag_27:\n      0x00\n      dup1\n      sload\n      swap1\n      0x0100\n      exp\n      swap1\n      div\n      0xffffffffffffffffffffffffffffffffffffffff\n      and\n      dup2\n      jump\t// out\n        /* \"#utility.yul\":7:162   */\n    tag_42:\n      0x00\n        /* \"#utility.yul\":99:105   */\n      dup2\n        /* \"#utility.yul\":86:106   */\n      calldataload\n        /* \"#utility.yul\":77:106   */\n      swap1\n      pop\n        /* \"#utility.yul\":115:156   */\n      tag_44\n        /* \"#utility.yul\":150:155   */\n      dup2\n        /* \"#utility.yul\":115:156   */\n      tag_45\n      jump\t// in\n    tag_44:\n        /* \"#utility.yul\":67:162   */\n      swap3\n      swap2\n      pop\n      pop\n      jump\t// out\n        /* \"#utility.yul\":168:307   */\n    tag_46:\n      0x00\n        /* \"#utility.yul\":252:258   */\n      dup2\n        /* \"#utility.yul\":239:259   */\n      calldataload\n        /* \"#utility.yul\":230:259   */\n      swap1\n      pop\n        /* \"#utility.yul\":268:301   */\n      tag_48\n        /* \"#utility.yul\":295:300   */\n      dup2\n        /* \"#utility.yul\":268:301   */\n      tag_49\n      jump\t// in\n    tag_48:\n        /* \"#utility.yul\":220:307   */\n      swap3\n      swap2\n      pop\n      pop\n      jump\t// out\n        /* \"#utility.yul\":313:736   */\n    tag_14:\n      0x00\n      dup1\n        /* \"#utility.yul\":446:448   */\n      0x40\n        /* \"#utility.yul\":434:443   */\n      dup4\n        /* \"#utility.yul\":425:432   */\n      dup6\n        /* \"#utility.yul\":421:444   */\n      sub\n        /* \"#utility.yul\":417:449   */\n      slt\n        /* \"#utility.yul\":414:416   */\n      iszero\n      tag_51\n      jumpi\n        /* \"#utility.yul\":462:463   */\n      0x00\n        /* \"#utility.yul\":459:460   */\n      dup1\n        /* \"#utility.yul\":452:464   */\n      revert\n        /* \"#utility.yul\":414:416   */\n    tag_51:\n        /* \"#utility.yul\":505:506   */\n      0x00\n        /* \"#utility.yul\":530:591   */\n      tag_52\n        /* \"#utility.yul\":583:590   */\n      dup6\n        /* \"#utility.yul\":574:580   */\n      dup3\n        /* \"#utility.yul\":563:572   */\n      dup7\n        /* \"#utility.yul\":559:581   */\n      add\n        /* \"#utility.yul\":530:591   */\n      tag_42\n      jump\t// in\n    tag_52:\n        /* \"#utility.yul\":520:591   */\n      swap3\n      pop\n        /* \"#utility.yul\":476:601   */\n      pop\n        /* \"#utility.yul\":640:642   */\n      0x20\n        /* \"#utility.yul\":666:719   */\n      tag_53\n        /* \"#utility.yul\":711:718   */\n      dup6\n        /* \"#utility.yul\":702:708   */\n      dup3\n        /* \"#utility.yul\":691:700   */\n      dup7\n        /* \"#utility.yul\":687:709   */\n      add\n        /* \"#utility.yul\":666:719   */\n      tag_46\n      jump\t// in\n    tag_53:\n        /* \"#utility.yul\":656:719   */\n      swap2\n      pop\n        /* \"#utility.yul\":611:729   */\n      pop\n        /* \"#utility.yul\":404:736   */\n      swap3\n      pop\n      swap3\n      swap1\n      pop\n      jump\t// out\n        /* \"#utility.yul\":742:860   */\n    tag_54:\n        /* \"#utility.yul\":829:853   */\n      tag_56\n        /* \"#utility.yul\":847:852   */\n      dup2\n        /* \"#utility.yul\":829:853   */\n      tag_57\n      jump\t// in\n    tag_56:\n        /* \"#utility.yul\":824:827   */\n      dup3\n        /* \"#utility.yul\":817:854   */\n      mstore\n        /* \"#utility.yul\":807:860   */\n      pop\n      pop\n      jump\t// out\n        /* \"#utility.yul\":866:975   */\n    tag_58:\n        /* \"#utility.yul\":947:968   */\n      tag_60\n        /* \"#utility.yul\":962:967   */\n      dup2\n        /* \"#utility.yul\":947:968   */\n      tag_61\n      jump\t// in\n    tag_60:\n        /* \"#utility.yul\":942:945   */\n      dup3\n        /* \"#utility.yul\":935:969   */\n      mstore\n        /* \"#utility.yul\":925:975   */\n      pop\n      pop\n      jump\t// out\n        /* \"#utility.yul\":981:1350   */\n    tag_62:\n      0x00\n        /* \"#utility.yul\":1144:1211   */\n      tag_64\n        /* \"#utility.yul\":1208:1210   */\n      0x25\n        /* \"#utility.yul\":1203:1206   */\n      dup4\n        /* \"#utility.yul\":1144:1211   */\n      tag_65\n      jump\t// in\n    tag_64:\n        /* \"#utility.yul\":1137:1211   */\n      swap2\n      pop\n        /* \"#utility.yul\":1241:1275   */\n      0x5472616e73666572206661696c65642c596f7520617265206e6f742074686520\n        /* \"#utility.yul\":1237:1238   */\n      0x00\n        /* \"#utility.yul\":1232:1235   */\n      dup4\n        /* \"#utility.yul\":1228:1239   */\n      add\n        /* \"#utility.yul\":1221:1276   */\n      mstore\n        /* \"#utility.yul\":1307:1314   */\n      0x6f776e6572000000000000000000000000000000000000000000000000000000\n        /* \"#utility.yul\":1302:1304   */\n      0x20\n        /* \"#utility.yul\":1297:1300   */\n      dup4\n        /* \"#utility.yul\":1293:1305   */\n      add\n        /* \"#utility.yul\":1286:1315   */\n      mstore\n        /* \"#utility.yul\":1341:1343   */\n      0x40\n        /* \"#utility.yul\":1336:1339   */\n      dup3\n        /* \"#utility.yul\":1332:1344   */\n      add\n        /* \"#utility.yul\":1325:1344   */\n      swap1\n      pop\n        /* \"#utility.yul\":1127:1350   */\n      swap2\n      swap1\n      pop\n      jump\t// out\n        /* \"#utility.yul\":1356:1474   */\n    tag_66:\n        /* \"#utility.yul\":1443:1467   */\n      tag_68\n        /* \"#utility.yul\":1461:1466   */\n      dup2\n        /* \"#utility.yul\":1443:1467   */\n      tag_69\n      jump\t// in\n    tag_68:\n        /* \"#utility.yul\":1438:1441   */\n      dup3\n        /* \"#utility.yul\":1431:1468   */\n      mstore\n        /* \"#utility.yul\":1421:1474   */\n      pop\n      pop\n      jump\t// out\n        /* \"#utility.yul\":1480:1702   */\n    tag_29:\n      0x00\n        /* \"#utility.yul\":1611:1613   */\n      0x20\n        /* \"#utility.yul\":1600:1609   */\n      dup3\n        /* \"#utility.yul\":1596:1614   */\n      add\n        /* \"#utility.yul\":1588:1614   */\n      swap1\n      pop\n        /* \"#utility.yul\":1624:1695   */\n      tag_71\n        /* \"#utility.yul\":1692:1693   */\n      0x00\n        /* \"#utility.yul\":1681:1690   */\n      dup4\n        /* \"#utility.yul\":1677:1694   */\n      add\n        /* \"#utility.yul\":1668:1674   */\n      dup5\n        /* \"#utility.yul\":1624:1695   */\n      tag_54\n      jump\t// in\n    tag_71:\n        /* \"#utility.yul\":1578:1702   */\n      swap3\n      swap2\n      pop\n      pop\n      jump\t// out\n        /* \"#utility.yul\":1708:1918   */\n    tag_17:\n      0x00\n        /* \"#utility.yul\":1833:1835   */\n      0x20\n        /* \"#utility.yul\":1822:1831   */\n      dup3\n        /* \"#utility.yul\":1818:1836   */\n      add\n        /* \"#utility.yul\":1810:1836   */\n      swap1\n      pop\n        /* \"#utility.yul\":1846:1911   */\n      tag_73\n        /* \"#utility.yul\":1908:1909   */\n      0x00\n        /* \"#utility.yul\":1897:1906   */\n      dup4\n        /* \"#utility.yul\":1893:1910   */\n      add\n        /* \"#utility.yul\":1884:1890   */\n      dup5\n        /* \"#utility.yul\":1846:1911   */\n      tag_58\n      jump\t// in\n    tag_73:\n        /* \"#utility.yul\":1800:1918   */\n      swap3\n      swap2\n      pop\n      pop\n      jump\t// out\n        /* \"#utility.yul\":1924:2343   */\n    tag_33:\n      0x00\n        /* \"#utility.yul\":2128:2130   */\n      0x20\n        /* \"#utility.yul\":2117:2126   */\n      dup3\n        /* \"#utility.yul\":2113:2131   */\n      add\n        /* \"#utility.yul\":2105:2131   */\n      swap1\n      pop\n        /* \"#utility.yul\":2177:2186   */\n      dup2\n        /* \"#utility.yul\":2171:2175   */\n      dup2\n        /* \"#utility.yul\":2167:2187   */\n      sub\n        /* \"#utility.yul\":2163:2164   */\n      0x00\n        /* \"#utility.yul\":2152:2161   */\n      dup4\n        /* \"#utility.yul\":2148:2165   */\n      add\n        /* \"#utility.yul\":2141:2188   */\n      mstore\n        /* \"#utility.yul\":2205:2336   */\n      tag_75\n        /* \"#utility.yul\":2331:2335   */\n      dup2\n        /* \"#utility.yul\":2205:2336   */\n      tag_62\n      jump\t// in\n    tag_75:\n        /* \"#utility.yul\":2197:2336   */\n      swap1\n      pop\n        /* \"#utility.yul\":2095:2343   */\n      swap2\n      swap1\n      pop\n      jump\t// out\n        /* \"#utility.yul\":2349:2571   */\n    tag_24:\n      0x00\n        /* \"#utility.yul\":2480:2482   */\n      0x20\n        /* \"#utility.yul\":2469:2478   */\n      dup3\n        /* \"#utility.yul\":2465:2483   */\n      add\n        /* \"#utility.yul\":2457:2483   */\n      swap1\n      pop\n        /* \"#utility.yul\":2493:2564   */\n      tag_77\n        /* \"#utility.yul\":2561:2562   */\n      0x00\n        /* \"#utility.yul\":2550:2559   */\n      dup4\n        /* \"#utility.yul\":2546:2563   */\n      add\n        /* \"#utility.yul\":2537:2543   */\n      dup5\n        /* \"#utility.yul\":2493:2564   */\n      tag_66\n      jump\t// in\n    tag_77:\n        /* \"#utility.yul\":2447:2571   */\n      swap3\n      swap2\n      pop\n      pop\n      jump\t// out\n        /* \"#utility.yul\":2577:2746   */\n    tag_65:\n      0x00\n        /* \"#utility.yul\":2695:2701   */\n      dup3\n        /* \"#utility.yul\":2690:2693   */\n      dup3\n        /* \"#utility.yul\":2683:2702   */\n      mstore\n        /* \"#utility.yul\":2735:2739   */\n      0x20\n        /* \"#utility.yul\":2730:2733   */\n      dup3\n        /* \"#utility.yul\":2726:2740   */\n      add\n        /* \"#utility.yul\":2711:2740   */\n      swap1\n      pop\n        /* \"#utility.yul\":2673:2746   */\n      swap3\n      swap2\n      pop\n      pop\n      jump\t// out\n        /* \"#utility.yul\":2752:2848   */\n    tag_57:\n      0x00\n        /* \"#utility.yul\":2818:2842   */\n      tag_80\n        /* \"#utility.yul\":2836:2841   */\n      dup3\n        /* \"#utility.yul\":2818:2842   */\n      tag_81\n      jump\t// in\n    tag_80:\n        /* \"#utility.yul\":2807:2842   */\n      swap1\n      pop\n        /* \"#utility.yul\":2797:2848   */\n      swap2\n      swap1\n      pop\n      jump\t// out\n        /* \"#utility.yul\":2854:2958   */\n    tag_82:\n      0x00\n        /* \"#utility.yul\":2928:2952   */\n      tag_84\n        /* \"#utility.yul\":2946:2951   */\n      dup3\n        /* \"#utility.yul\":2928:2952   */\n      tag_81\n      jump\t// in\n    tag_84:\n        /* \"#utility.yul\":2917:2952   */\n      swap1\n      pop\n        /* \"#utility.yul\":2907:2958   */\n      swap2\n      swap1\n      pop\n      jump\t// out\n        /* \"#utility.yul\":2964:3054   */\n    tag_61:\n      0x00\n        /* \"#utility.yul\":3041:3046   */\n      dup2\n        /* \"#utility.yul\":3034:3047   */\n      iszero\n        /* \"#utility.yul\":3027:3048   */\n      iszero\n        /* \"#utility.yul\":3016:3048   */\n      swap1\n      pop\n        /* \"#utility.yul\":3006:3054   */\n      swap2\n      swap1\n      pop\n      jump\t// out\n        /* \"#utility.yul\":3060:3186   */\n    tag_81:\n      0x00\n        /* \"#utility.yul\":3137:3179   */\n      0xffffffffffffffffffffffffffffffffffffffff\n        /* \"#utility.yul\":3130:3135   */\n      dup3\n        /* \"#utility.yul\":3126:3180   */\n      and\n        /* \"#utility.yul\":3115:3180   */\n      swap1\n      pop\n        /* \"#utility.yul\":3105:3186   */\n      swap2\n      swap1\n      pop\n      jump\t// out\n        /* \"#utility.yul\":3192:3269   */\n    tag_69:\n      0x00\n        /* \"#utility.yul\":3258:3263   */\n      dup2\n        /* \"#utility.yul\":3247:3263   */\n      swap1\n      pop\n        /* \"#utility.yul\":3237:3269   */\n      swap2\n      swap1\n      pop\n      jump\t// out\n        /* \"#utility.yul\":3275:3413   */\n    tag_45:\n        /* \"#utility.yul\":3356:3388   */\n      tag_89\n        /* \"#utility.yul\":3382:3387   */\n      dup2\n        /* \"#utility.yul\":3356:3388   */\n      tag_82\n      jump\t// in\n    tag_89:\n        /* \"#utility.yul\":3349:3354   */\n      dup2\n        /* \"#utility.yul\":3346:3389   */\n      eq\n        /* \"#utility.yul\":3336:3338   */\n      tag_90\n      jumpi\n        /* \"#utility.yul\":3403:3404   */\n      0x00\n        /* \"#utility.yul\":3400:3401   */\n      dup1\n        /* \"#utility.yul\":3393:3405   */\n      revert\n        /* \"#utility.yul\":3336:3338   */\n    tag_90:\n        /* \"#utility.yul\":3326:3413   */\n      pop\n      jump\t// out\n        /* \"#utility.yul\":3419:3541   */\n    tag_49:\n        /* \"#utility.yul\":3492:3516   */\n      tag_92\n        /* \"#utility.yul\":3510:3515   */\n      dup2\n        /* \"#utility.yul\":3492:3516   */\n      tag_69\n      jump\t// in\n    tag_92:\n        /* \"#utility.yul\":3485:3490   */\n      dup2\n        /* \"#utility.yul\":3482:3517   */\n      eq\n        /* \"#utility.yul\":3472:3474   */\n      tag_93\n      jumpi\n        /* \"#utility.yul\":3531:3532   */\n      0x00\n        /* \"#utility.yul\":3528:3529   */\n      dup1\n        /* \"#utility.yul\":3521:3533   */\n      revert\n        /* \"#utility.yul\":3472:3474   */\n    tag_93:\n        /* \"#utility.yul\":3462:3541   */\n      pop\n      jump\t// out\n\n    auxdata: 0xa2646970667358221220033d7c01f3d75f750e0bf5d43ca45a5488d12673a1a97591a18ebaa45038dbb564736f6c63430008000033\n}\n",
				"bytecode": {
					"linkReferences": {},
					"object": "608060405234801561001057600080fd5b50336000806101000a81548173ffffffffffffffffffffffffffffffffffffffff021916908373ffffffffffffffffffffffffffffffffffffffff160217905550610449806100606000396000f3fe6080604052600436106100435760003560e01c806305b1137b1461004c5780630e29df221461008957806312065fe0146100935780638da5cb5b146100be5761004a565b3661004a57005b005b34801561005857600080fd5b50610073600480360381019061006e919061023a565b6100e9565b6040516100809190610324565b60405180910390f35b6100916101e2565b005b34801561009f57600080fd5b506100a86101e4565b6040516100b5919061035f565b60405180910390f35b3480156100ca57600080fd5b506100d36101ec565b6040516100e09190610309565b60405180910390f35b60003373ffffffffffffffffffffffffffffffffffffffff1660008054906101000a900473ffffffffffffffffffffffffffffffffffffffff1673ffffffffffffffffffffffffffffffffffffffff1614610179576040517f08c379a00000000000000000000000000000000000000000000000000000000081526004016101709061033f565b60405180910390fd5b6101816101e4565b82116101d7578273ffffffffffffffffffffffffffffffffffffffff166108fc839081150290604051600060405180830381858888f193505050501580156101cd573d6000803e3d6000fd5b50600190506101dc565b600090505b92915050565b565b600047905090565b60008054906101000a900473ffffffffffffffffffffffffffffffffffffffff1681565b60008135905061021f816103e5565b92915050565b600081359050610234816103fc565b92915050565b6000806040838503121561024d57600080fd5b600061025b85828601610210565b925050602061026c85828601610225565b9150509250929050565b61027f8161038b565b82525050565b61028e816103af565b82525050565b60006102a160258361037a565b91507f5472616e73666572206661696c65642c596f7520617265206e6f74207468652060008301527f6f776e65720000000000000000000000000000000000000000000000000000006020830152604082019050919050565b610303816103db565b82525050565b600060208201905061031e6000830184610276565b92915050565b60006020820190506103396000830184610285565b92915050565b6000602082019050818103600083015261035881610294565b9050919050565b600060208201905061037460008301846102fa565b92915050565b600082825260208201905092915050565b6000610396826103bb565b9050919050565b60006103a8826103bb565b9050919050565b60008115159050919050565b600073ffffffffffffffffffffffffffffffffffffffff82169050919050565b6000819050919050565b6103ee8161039d565b81146103f957600080fd5b50565b610405816103db565b811461041057600080fd5b5056fea2646970667358221220033d7c01f3d75f750e0bf5d43ca45a5488d12673a1a97591a18ebaa45038dbb564736f6c63430008000033",
					"opcodes": "PUSH1 0x80 PUSH1 0x40 MSTORE CALLVALUE DUP1 ISZERO PUSH2 0x10 JUMPI PUSH1 0x0 DUP1 REVERT JUMPDEST POP CALLER PUSH1 0x0 DUP1 PUSH2 0x100 EXP DUP2 SLOAD DUP2 PUSH20 0xFFFFFFFFFFFFFFFFFFFFFFFFFFFFFFFFFFFFFFFF MUL NOT AND SWAP1 DUP4 PUSH20 0xFFFFFFFFFFFFFFFFFFFFFFFFFFFFFFFFFFFFFFFF AND MUL OR SWAP1 SSTORE POP PUSH2 0x449 DUP1 PUSH2 0x60 PUSH1 0x0 CODECOPY PUSH1 0x0 RETURN INVALID PUSH1 0x80 PUSH1 0x40 MSTORE PUSH1 0x4 CALLDATASIZE LT PUSH2 0x43 JUMPI PUSH1 0x0 CALLDATALOAD PUSH1 0xE0 SHR DUP1 PUSH4 0x5B1137B EQ PUSH2 0x4C JUMPI DUP1 PUSH4 0xE29DF22 EQ PUSH2 0x89 JUMPI DUP1 PUSH4 0x12065FE0 EQ PUSH2 0x93 JUMPI DUP1 PUSH4 0x8DA5CB5B EQ PUSH2 0xBE JUMPI PUSH2 0x4A JUMP JUMPDEST CALLDATASIZE PUSH2 0x4A JUMPI STOP JUMPDEST STOP JUMPDEST CALLVALUE DUP1 ISZERO PUSH2 0x58 JUMPI PUSH1 0x0 DUP1 REVERT JUMPDEST POP PUSH2 0x73 PUSH1 0x4 DUP1 CALLDATASIZE SUB DUP2 ADD SWAP1 PUSH2 0x6E SWAP2 SWAP1 PUSH2 0x23A JUMP JUMPDEST PUSH2 0xE9 JUMP JUMPDEST PUSH1 0x40 MLOAD PUSH2 0x80 SWAP2 SWAP1 PUSH2 0x324 JUMP JUMPDEST PUSH1 0x40 MLOAD DUP1 SWAP2 SUB SWAP1 RETURN JUMPDEST PUSH2 0x91 PUSH2 0x1E2 JUMP JUMPDEST STOP JUMPDEST CALLVALUE DUP1 ISZERO PUSH2 0x9F JUMPI PUSH1 0x0 DUP1 REVERT JUMPDEST POP PUSH2 0xA8 PUSH2 0x1E4 JUMP JUMPDEST PUSH1 0x40 MLOAD PUSH2 0xB5 SWAP2 SWAP1 PUSH2 0x35F JUMP JUMPDEST PUSH1 0x40 MLOAD DUP1 SWAP2 SUB SWAP1 RETURN JUMPDEST CALLVALUE DUP1 ISZERO PUSH2 0xCA JUMPI PUSH1 0x0 DUP1 REVERT JUMPDEST POP PUSH2 0xD3 PUSH2 0x1EC JUMP JUMPDEST PUSH1 0x40 MLOAD PUSH2 0xE0 SWAP2 SWAP1 PUSH2 0x309 JUMP JUMPDEST PUSH1 0x40 MLOAD DUP1 SWAP2 SUB SWAP1 RETURN JUMPDEST PUSH1 0x0 CALLER PUSH20 0xFFFFFFFFFFFFFFFFFFFFFFFFFFFFFFFFFFFFFFFF AND PUSH1 0x0 DUP1 SLOAD SWAP1 PUSH2 0x100 EXP SWAP1 DIV PUSH20 0xFFFFFFFFFFFFFFFFFFFFFFFFFFFFFFFFFFFFFFFF AND PUSH20 0xFFFFFFFFFFFFFFFFFFFFFFFFFFFFFFFFFFFFFFFF AND EQ PUSH2 0x179 JUMPI PUSH1 0x40 MLOAD PUSH32 0x8C379A000000000000000000000000000000000000000000000000000000000 DUP2 MSTORE PUSH1 0x4 ADD PUSH2 0x170 SWAP1 PUSH2 0x33F JUMP JUMPDEST PUSH1 0x40 MLOAD DUP1 SWAP2 SUB SWAP1 REVERT JUMPDEST PUSH2 0x181 PUSH2 0x1E4 JUMP JUMPDEST DUP3 GT PUSH2 0x1D7 JUMPI DUP3 PUSH20 0xFFFFFFFFFFFFFFFFFFFFFFFFFFFFFFFFFFFFFFFF AND PUSH2 0x8FC DUP4 SWAP1 DUP2 ISZERO MUL SWAP1 PUSH1 0x40 MLOAD PUSH1 0x0 PUSH1 0x40 MLOAD DUP1 DUP4 SUB DUP2 DUP6 DUP9 DUP9 CALL SWAP4 POP POP POP POP ISZERO DUP1 ISZERO PUSH2 0x1CD JUMPI RETURNDATASIZE PUSH1 0x0 DUP1 RETURNDATACOPY RETURNDATASIZE PUSH1 0x0 REVERT JUMPDEST POP PUSH1 0x1 SWAP1 POP PUSH2 0x1DC JUMP JUMPDEST PUSH1 0x0 SWAP1 POP JUMPDEST SWAP3 SWAP2 POP POP JUMP JUMPDEST JUMP JUMPDEST PUSH1 0x0 SELFBALANCE SWAP1 POP SWAP1 JUMP JUMPDEST PUSH1 0x0 DUP1 SLOAD SWAP1 PUSH2 0x100 EXP SWAP1 DIV PUSH20 0xFFFFFFFFFFFFFFFFFFFFFFFFFFFFFFFFFFFFFFFF AND DUP2 JUMP JUMPDEST PUSH1 0x0 DUP2 CALLDATALOAD SWAP1 POP PUSH2 0x21F DUP2 PUSH2 0x3E5 JUMP JUMPDEST SWAP3 SWAP2 POP POP JUMP JUMPDEST PUSH1 0x0 DUP2 CALLDATALOAD SWAP1 POP PUSH2 0x234 DUP2 PUSH2 0x3FC JUMP JUMPDEST SWAP3 SWAP2 POP POP JUMP JUMPDEST PUSH1 0x0 DUP1 PUSH1 0x40 DUP4 DUP6 SUB SLT ISZERO PUSH2 0x24D JUMPI PUSH1 0x0 DUP1 REVERT JUMPDEST PUSH1 0x0 PUSH2 0x25B DUP6 DUP3 DUP7 ADD PUSH2 0x210 JUMP JUMPDEST SWAP3 POP POP PUSH1 0x20 PUSH2 0x26C DUP6 DUP3 DUP7 ADD PUSH2 0x225 JUMP JUMPDEST SWAP2 POP POP SWAP3 POP SWAP3 SWAP1 POP JUMP JUMPDEST PUSH2 0x27F DUP2 PUSH2 0x38B JUMP JUMPDEST DUP3 MSTORE POP POP JUMP JUMPDEST PUSH2 0x28E DUP2 PUSH2 0x3AF JUMP JUMPDEST DUP3 MSTORE POP POP JUMP JUMPDEST PUSH1 0x0 PUSH2 0x2A1 PUSH1 0x25 DUP4 PUSH2 0x37A JUMP JUMPDEST SWAP2 POP PUSH32 0x5472616E73666572206661696C65642C596F7520617265206E6F742074686520 PUSH1 0x0 DUP4 ADD MSTORE PUSH32 0x6F776E6572000000000000000000000000000000000000000000000000000000 PUSH1 0x20 DUP4 ADD MSTORE PUSH1 0x40 DUP3 ADD SWAP1 POP SWAP2 SWAP1 POP JUMP JUMPDEST PUSH2 0x303 DUP2 PUSH2 0x3DB JUMP JUMPDEST DUP3 MSTORE POP POP JUMP JUMPDEST PUSH1 0x0 PUSH1 0x20 DUP3 ADD SWAP1 POP PUSH2 0x31E PUSH1 0x0 DUP4 ADD DUP5 PUSH2 0x276 JUMP JUMPDEST SWAP3 SWAP2 POP POP JUMP JUMPDEST PUSH1 0x0 PUSH1 0x20 DUP3 ADD SWAP1 POP PUSH2 0x339 PUSH1 0x0 DUP4 ADD DUP5 PUSH2 0x285 JUMP JUMPDEST SWAP3 SWAP2 POP POP JUMP JUMPDEST PUSH1 0x0 PUSH1 0x20 DUP3 ADD SWAP1 POP DUP2 DUP2 SUB PUSH1 0x0 DUP4 ADD MSTORE PUSH2 0x358 DUP2 PUSH2 0x294 JUMP JUMPDEST SWAP1 POP SWAP2 SWAP1 POP JUMP JUMPDEST PUSH1 0x0 PUSH1 0x20 DUP3 ADD SWAP1 POP PUSH2 0x374 PUSH1 0x0 DUP4 ADD DUP5 PUSH2 0x2FA JUMP JUMPDEST SWAP3 SWAP2 POP POP JUMP JUMPDEST PUSH1 0x0 DUP3 DUP3 MSTORE PUSH1 0x20 DUP3 ADD SWAP1 POP SWAP3 SWAP2 POP POP JUMP JUMPDEST PUSH1 0x0 PUSH2 0x396 DUP3 PUSH2 0x3BB JUMP JUMPDEST SWAP1 POP SWAP2 SWAP1 POP JUMP JUMPDEST PUSH1 0x0 PUSH2 0x3A8 DUP3 PUSH2 0x3BB JUMP JUMPDEST SWAP1 POP SWAP2 SWAP1 POP JUMP JUMPDEST PUSH1 0x0 DUP2 ISZERO ISZERO SWAP1 POP SWAP2 SWAP1 POP JUMP JUMPDEST PUSH1 0x0 PUSH20 0xFFFFFFFFFFFFFFFFFFFFFFFFFFFFFFFFFFFFFFFF DUP3 AND SWAP1 POP SWAP2 SWAP1 POP JUMP JUMPDEST PUSH1 0x0 DUP2 SWAP1 POP SWAP2 SWAP1 POP JUMP JUMPDEST PUSH2 0x3EE DUP2 PUSH2 0x39D JUMP JUMPDEST DUP2 EQ PUSH2 0x3F9 JUMPI PUSH1 0x0 DUP1 REVERT JUMPDEST POP JUMP JUMPDEST PUSH2 0x405 DUP2 PUSH2 0x3DB JUMP JUMPDEST DUP2 EQ PUSH2 0x410 JUMPI PUSH1 0x0 DUP1 REVERT JUMPDEST POP JUMP INVALID LOG2 PUSH5 0x6970667358 0x22 SLT KECCAK256 SUB RETURNDATASIZE PUSH29 0x1F3D75F750E0BF5D43CA45A5488D12673A1A97591A18EBAA45038DBB5 PUSH5 0x736F6C6343 STOP ADDMOD STOP STOP CALLER "
				},
				"gasEstimates": {
					"creation": {
						"codeDepositCost": "219400",
						"executionCost": "21129",
						"totalCost": "240529"
					},
					"external": {
						"": "151",
						"getBalance()": "361",
						"owner()": "1255",
						"sendEther()": "120",
						"transferEther(address,uint256)": "infinite"
					}
				},
				"methodIdentifiers": {
					"getBalance()": "12065fe0",
					"owner()": "8da5cb5b",
					"sendEther()": "0e29df22",
					"transferEther(address,uint256)": "05b1137b"
				}
			},
			"storageLayout": {
				"storage": [
					{
						"astId": 3,
						"contract": "contracts/03_udemy_andrei_dumitrescu/08_fallback_transfer.sol:Deposite",
						"label": "owner",
						"offset": 0,
						"slot": "0",
						"type": "t_address"
					}
				],
				"types": {
					"t_address": {
						"encoding": "inplace",
						"label": "address",
						"numberOfBytes": "20"
					}
				}
			},
			"userdoc": {
				"kind": "user",
				"methods": {},
				"version": 1
			}
		}
	}
}