{
	"contracts/Unsingned_Integers.sol": {
		"ExampleUnit": {
			"abi": [
				{
					"inputs": [],
					"name": "decrementMyUintNew8",
					"outputs": [],
					"stateMutability": "nonpayable",
					"type": "function"
				},
				{
					"inputs": [],
					"name": "incrementInt",
					"outputs": [],
					"stateMutability": "nonpayable",
					"type": "function"
				},
				{
					"inputs": [],
					"name": "incrementMyUintNew8",
					"outputs": [],
					"stateMutability": "nonpayable",
					"type": "function"
				},
				{
					"inputs": [],
					"name": "myInt",
					"outputs": [
						{
							"internalType": "int256",
							"name": "",
							"type": "int256"
						}
					],
					"stateMutability": "view",
					"type": "function"
				},
				{
					"inputs": [],
					"name": "myUint",
					"outputs": [
						{
							"internalType": "uint256",
							"name": "",
							"type": "uint256"
						}
					],
					"stateMutability": "view",
					"type": "function"
				},
				{
					"inputs": [],
					"name": "myuint8",
					"outputs": [
						{
							"internalType": "uint8",
							"name": "",
							"type": "uint8"
						}
					],
					"stateMutability": "view",
					"type": "function"
				},
				{
					"inputs": [],
					"name": "myuintNew8",
					"outputs": [
						{
							"internalType": "uint8",
							"name": "",
							"type": "uint8"
						}
					],
					"stateMutability": "view",
					"type": "function"
				},
				{
					"inputs": [
						{
							"internalType": "uint256",
							"name": "_myUint",
							"type": "uint256"
						}
					],
					"name": "setMyUint",
					"outputs": [],
					"stateMutability": "nonpayable",
					"type": "function"
				},
				{
					"inputs": [
						{
							"internalType": "uint8",
							"name": "_myUint8",
							"type": "uint8"
						}
					],
					"name": "setMyUint8",
					"outputs": [],
					"stateMutability": "nonpayable",
					"type": "function"
				}
			],
			"devdoc": {
				"kind": "dev",
				"methods": {},
				"version": 1
			},
			"evm": {
				"assembly": "    /* \"contracts/Unsingned_Integers.sol\":60:1054  contract ExampleUnit {... */\n  mstore(0x40, 0x80)\n    /* \"contracts/Unsingned_Integers.sol\":346:349  250 */\n  0xfa\n    /* \"contracts/Unsingned_Integers.sol\":320:349  uint8 public myuintNew8 = 250 */\n  0x01\n  dup1\n  0x0100\n  exp\n  dup2\n  sload\n  dup2\n  0xff\n  mul\n  not\n  and\n  swap1\n  dup4\n  0xff\n  and\n  mul\n  or\n  swap1\n  sstore\n  pop\n    /* \"contracts/Unsingned_Integers.sol\":552:555  -10 */\n  0xfffffffffffffffffffffffffffffffffffffffffffffffffffffffffffffff6\n    /* \"contracts/Unsingned_Integers.sol\":533:555  int public myInt = -10 */\n  0x02\n  sstore\n    /* \"contracts/Unsingned_Integers.sol\":60:1054  contract ExampleUnit {... */\n  callvalue\n  dup1\n  iszero\n  tag_1\n  jumpi\n  0x00\n  dup1\n  revert\ntag_1:\n  pop\n  dataSize(sub_0)\n  dup1\n  dataOffset(sub_0)\n  0x00\n  codecopy\n  0x00\n  return\nstop\n\nsub_0: assembly {\n        /* \"contracts/Unsingned_Integers.sol\":60:1054  contract ExampleUnit {... */\n      mstore(0x40, 0x80)\n      callvalue\n      dup1\n      iszero\n      tag_1\n      jumpi\n      0x00\n      dup1\n      revert\n    tag_1:\n      pop\n      jumpi(tag_2, lt(calldatasize, 0x04))\n      shr(0xe0, calldataload(0x00))\n      dup1\n      0x8400449c\n      gt\n      tag_12\n      jumpi\n      dup1\n      0x8400449c\n      eq\n      tag_7\n      jumpi\n      dup1\n      0x93d0c231\n      eq\n      tag_8\n      jumpi\n      dup1\n      0xb3421de4\n      eq\n      tag_9\n      jumpi\n      dup1\n      0xe492fd84\n      eq\n      tag_10\n      jumpi\n      dup1\n      0xf102a71d\n      eq\n      tag_11\n      jumpi\n      jump(tag_2)\n    tag_12:\n      dup1\n      0x06540f7e\n      eq\n      tag_3\n      jumpi\n      dup1\n      0x12c0dfc3\n      eq\n      tag_4\n      jumpi\n      dup1\n      0x2cb777a6\n      eq\n      tag_5\n      jumpi\n      dup1\n      0x4f25eada\n      eq\n      tag_6\n      jumpi\n    tag_2:\n      0x00\n      dup1\n      revert\n        /* \"contracts/Unsingned_Integers.sol\":211:229  uint public myUint */\n    tag_3:\n      tag_13\n      tag_14\n      jump\t// in\n    tag_13:\n      mload(0x40)\n      tag_15\n      swap2\n      swap1\n      tag_16\n      jump\t// in\n    tag_15:\n      mload(0x40)\n      dup1\n      swap2\n      sub\n      swap1\n      return\n        /* \"contracts/Unsingned_Integers.sol\":238:258  uint8 public myuint8 */\n    tag_4:\n      tag_17\n      tag_18\n      jump\t// in\n    tag_17:\n      mload(0x40)\n      tag_19\n      swap2\n      swap1\n      tag_20\n      jump\t// in\n    tag_19:\n      mload(0x40)\n      dup1\n      swap2\n      sub\n      swap1\n      return\n        /* \"contracts/Unsingned_Integers.sol\":533:555  int public myInt = -10 */\n    tag_5:\n      tag_21\n      tag_22\n      jump\t// in\n    tag_21:\n      mload(0x40)\n      tag_23\n      swap2\n      swap1\n      tag_24\n      jump\t// in\n    tag_23:\n      mload(0x40)\n      dup1\n      swap2\n      sub\n      swap1\n      return\n        /* \"contracts/Unsingned_Integers.sol\":672:752  function setMyUint8(uint8 _myUint8) public {... */\n    tag_6:\n      tag_25\n      0x04\n      dup1\n      calldatasize\n      sub\n      dup2\n      add\n      swap1\n      tag_26\n      swap2\n      swap1\n      tag_27\n      jump\t// in\n    tag_26:\n      tag_28\n      jump\t// in\n    tag_25:\n      stop\n        /* \"contracts/Unsingned_Integers.sol\":320:349  uint8 public myuintNew8 = 250 */\n    tag_7:\n      tag_29\n      tag_30\n      jump\t// in\n    tag_29:\n      mload(0x40)\n      tag_31\n      swap2\n      swap1\n      tag_20\n      jump\t// in\n    tag_31:\n      mload(0x40)\n      dup1\n      swap2\n      sub\n      swap1\n      return\n        /* \"contracts/Unsingned_Integers.sol\":760:829  function incrementMyUintNew8() public {... */\n    tag_8:\n      tag_32\n      tag_33\n      jump\t// in\n    tag_32:\n      stop\n        /* \"contracts/Unsingned_Integers.sol\":837:902  function decrementMyUintNew8() public {... */\n    tag_9:\n      tag_34\n      tag_35\n      jump\t// in\n    tag_34:\n      stop\n        /* \"contracts/Unsingned_Integers.sol\":589:664  function setMyUint(uint _myUint) public {... */\n    tag_10:\n      tag_36\n      0x04\n      dup1\n      calldatasize\n      sub\n      dup2\n      add\n      swap1\n      tag_37\n      swap2\n      swap1\n      tag_38\n      jump\t// in\n    tag_37:\n      tag_39\n      jump\t// in\n    tag_36:\n      stop\n        /* \"contracts/Unsingned_Integers.sol\":987:1044  function incrementInt() public {... */\n    tag_11:\n      tag_40\n      tag_41\n      jump\t// in\n    tag_40:\n      stop\n        /* \"contracts/Unsingned_Integers.sol\":211:229  uint public myUint */\n    tag_14:\n      sload(0x00)\n      dup2\n      jump\t// out\n        /* \"contracts/Unsingned_Integers.sol\":238:258  uint8 public myuint8 */\n    tag_18:\n      0x01\n      0x00\n      swap1\n      sload\n      swap1\n      0x0100\n      exp\n      swap1\n      div\n      0xff\n      and\n      dup2\n      jump\t// out\n        /* \"contracts/Unsingned_Integers.sol\":533:555  int public myInt = -10 */\n    tag_22:\n      sload(0x02)\n      dup2\n      jump\t// out\n        /* \"contracts/Unsingned_Integers.sol\":672:752  function setMyUint8(uint8 _myUint8) public {... */\n    tag_28:\n        /* \"contracts/Unsingned_Integers.sol\":736:744  _myUint8 */\n      dup1\n        /* \"contracts/Unsingned_Integers.sol\":726:733  myuint8 */\n      0x01\n      0x00\n        /* \"contracts/Unsingned_Integers.sol\":726:744  myuint8 = _myUint8 */\n      0x0100\n      exp\n      dup2\n      sload\n      dup2\n      0xff\n      mul\n      not\n      and\n      swap1\n      dup4\n      0xff\n      and\n      mul\n      or\n      swap1\n      sstore\n      pop\n        /* \"contracts/Unsingned_Integers.sol\":672:752  function setMyUint8(uint8 _myUint8) public {... */\n      pop\n      jump\t// out\n        /* \"contracts/Unsingned_Integers.sol\":320:349  uint8 public myuintNew8 = 250 */\n    tag_30:\n      0x01\n      dup1\n      sload\n      swap1\n      0x0100\n      exp\n      swap1\n      div\n      0xff\n      and\n      dup2\n      jump\t// out\n        /* \"contracts/Unsingned_Integers.sol\":760:829  function incrementMyUintNew8() public {... */\n    tag_33:\n        /* \"contracts/Unsingned_Integers.sol\":809:819  myuintNew8 */\n      0x01\n      dup1\n        /* \"contracts/Unsingned_Integers.sol\":809:821  myuintNew8++ */\n      dup2\n      dup2\n      swap1\n      sload\n      swap1\n      0x0100\n      exp\n      swap1\n      div\n      0xff\n      and\n      dup1\n      swap3\n      swap2\n      swap1\n      tag_44\n      swap1\n      tag_45\n      jump\t// in\n    tag_44:\n      swap2\n      swap1\n      0x0100\n      exp\n      dup2\n      sload\n      dup2\n      0xff\n      mul\n      not\n      and\n      swap1\n      dup4\n      0xff\n      and\n      mul\n      or\n      swap1\n      sstore\n      pop\n      pop\n        /* \"contracts/Unsingned_Integers.sol\":760:829  function incrementMyUintNew8() public {... */\n      jump\t// out\n        /* \"contracts/Unsingned_Integers.sol\":837:902  function decrementMyUintNew8() public {... */\n    tag_35:\n        /* \"contracts/Unsingned_Integers.sol\":886:892  myUint */\n      0x00\n      dup1\n        /* \"contracts/Unsingned_Integers.sol\":886:894  myUint-- */\n      dup2\n      sload\n      dup1\n      swap3\n      swap2\n      swap1\n      tag_47\n      swap1\n      tag_48\n      jump\t// in\n    tag_47:\n      swap2\n      swap1\n      pop\n      sstore\n      pop\n        /* \"contracts/Unsingned_Integers.sol\":837:902  function decrementMyUintNew8() public {... */\n      jump\t// out\n        /* \"contracts/Unsingned_Integers.sol\":589:664  function setMyUint(uint _myUint) public {... */\n    tag_39:\n        /* \"contracts/Unsingned_Integers.sol\":649:656  _myUint */\n      dup1\n        /* \"contracts/Unsingned_Integers.sol\":640:646  myUint */\n      0x00\n        /* \"contracts/Unsingned_Integers.sol\":640:656  myUint = _myUint */\n      dup2\n      swap1\n      sstore\n      pop\n        /* \"contracts/Unsingned_Integers.sol\":589:664  function setMyUint(uint _myUint) public {... */\n      pop\n      jump\t// out\n        /* \"contracts/Unsingned_Integers.sol\":987:1044  function incrementInt() public {... */\n    tag_41:\n        /* \"contracts/Unsingned_Integers.sol\":1029:1034  myInt */\n      0x02\n      0x00\n        /* \"contracts/Unsingned_Integers.sol\":1029:1036  myInt++ */\n      dup2\n      sload\n      dup1\n      swap3\n      swap2\n      swap1\n      tag_51\n      swap1\n      tag_52\n      jump\t// in\n    tag_51:\n      swap2\n      swap1\n      pop\n      sstore\n      pop\n        /* \"contracts/Unsingned_Integers.sol\":987:1044  function incrementInt() public {... */\n      jump\t// out\n        /* \"#utility.yul\":7:84   */\n    tag_53:\n        /* \"#utility.yul\":44:51   */\n      0x00\n        /* \"#utility.yul\":73:78   */\n      dup2\n        /* \"#utility.yul\":62:78   */\n      swap1\n      pop\n        /* \"#utility.yul\":7:84   */\n      swap2\n      swap1\n      pop\n      jump\t// out\n        /* \"#utility.yul\":90:208   */\n    tag_54:\n        /* \"#utility.yul\":177:201   */\n      tag_70\n        /* \"#utility.yul\":195:200   */\n      dup2\n        /* \"#utility.yul\":177:201   */\n      tag_53\n      jump\t// in\n    tag_70:\n        /* \"#utility.yul\":172:175   */\n      dup3\n        /* \"#utility.yul\":165:202   */\n      mstore\n        /* \"#utility.yul\":90:208   */\n      pop\n      pop\n      jump\t// out\n        /* \"#utility.yul\":214:436   */\n    tag_16:\n        /* \"#utility.yul\":307:311   */\n      0x00\n        /* \"#utility.yul\":345:347   */\n      0x20\n        /* \"#utility.yul\":334:343   */\n      dup3\n        /* \"#utility.yul\":330:348   */\n      add\n        /* \"#utility.yul\":322:348   */\n      swap1\n      pop\n        /* \"#utility.yul\":358:429   */\n      tag_72\n        /* \"#utility.yul\":426:427   */\n      0x00\n        /* \"#utility.yul\":415:424   */\n      dup4\n        /* \"#utility.yul\":411:428   */\n      add\n        /* \"#utility.yul\":402:408   */\n      dup5\n        /* \"#utility.yul\":358:429   */\n      tag_54\n      jump\t// in\n    tag_72:\n        /* \"#utility.yul\":214:436   */\n      swap3\n      swap2\n      pop\n      pop\n      jump\t// out\n        /* \"#utility.yul\":442:528   */\n    tag_55:\n        /* \"#utility.yul\":477:484   */\n      0x00\n        /* \"#utility.yul\":517:521   */\n      0xff\n        /* \"#utility.yul\":510:515   */\n      dup3\n        /* \"#utility.yul\":506:522   */\n      and\n        /* \"#utility.yul\":495:522   */\n      swap1\n      pop\n        /* \"#utility.yul\":442:528   */\n      swap2\n      swap1\n      pop\n      jump\t// out\n        /* \"#utility.yul\":534:646   */\n    tag_56:\n        /* \"#utility.yul\":617:639   */\n      tag_75\n        /* \"#utility.yul\":633:638   */\n      dup2\n        /* \"#utility.yul\":617:639   */\n      tag_55\n      jump\t// in\n    tag_75:\n        /* \"#utility.yul\":612:615   */\n      dup3\n        /* \"#utility.yul\":605:640   */\n      mstore\n        /* \"#utility.yul\":534:646   */\n      pop\n      pop\n      jump\t// out\n        /* \"#utility.yul\":652:866   */\n    tag_20:\n        /* \"#utility.yul\":741:745   */\n      0x00\n        /* \"#utility.yul\":779:781   */\n      0x20\n        /* \"#utility.yul\":768:777   */\n      dup3\n        /* \"#utility.yul\":764:782   */\n      add\n        /* \"#utility.yul\":756:782   */\n      swap1\n      pop\n        /* \"#utility.yul\":792:859   */\n      tag_77\n        /* \"#utility.yul\":856:857   */\n      0x00\n        /* \"#utility.yul\":845:854   */\n      dup4\n        /* \"#utility.yul\":841:858   */\n      add\n        /* \"#utility.yul\":832:838   */\n      dup5\n        /* \"#utility.yul\":792:859   */\n      tag_56\n      jump\t// in\n    tag_77:\n        /* \"#utility.yul\":652:866   */\n      swap3\n      swap2\n      pop\n      pop\n      jump\t// out\n        /* \"#utility.yul\":872:948   */\n    tag_57:\n        /* \"#utility.yul\":908:915   */\n      0x00\n        /* \"#utility.yul\":937:942   */\n      dup2\n        /* \"#utility.yul\":926:942   */\n      swap1\n      pop\n        /* \"#utility.yul\":872:948   */\n      swap2\n      swap1\n      pop\n      jump\t// out\n        /* \"#utility.yul\":954:1069   */\n    tag_58:\n        /* \"#utility.yul\":1039:1062   */\n      tag_80\n        /* \"#utility.yul\":1056:1061   */\n      dup2\n        /* \"#utility.yul\":1039:1062   */\n      tag_57\n      jump\t// in\n    tag_80:\n        /* \"#utility.yul\":1034:1037   */\n      dup3\n        /* \"#utility.yul\":1027:1063   */\n      mstore\n        /* \"#utility.yul\":954:1069   */\n      pop\n      pop\n      jump\t// out\n        /* \"#utility.yul\":1075:1293   */\n    tag_24:\n        /* \"#utility.yul\":1166:1170   */\n      0x00\n        /* \"#utility.yul\":1204:1206   */\n      0x20\n        /* \"#utility.yul\":1193:1202   */\n      dup3\n        /* \"#utility.yul\":1189:1207   */\n      add\n        /* \"#utility.yul\":1181:1207   */\n      swap1\n      pop\n        /* \"#utility.yul\":1217:1286   */\n      tag_82\n        /* \"#utility.yul\":1283:1284   */\n      0x00\n        /* \"#utility.yul\":1272:1281   */\n      dup4\n        /* \"#utility.yul\":1268:1285   */\n      add\n        /* \"#utility.yul\":1259:1265   */\n      dup5\n        /* \"#utility.yul\":1217:1286   */\n      tag_58\n      jump\t// in\n    tag_82:\n        /* \"#utility.yul\":1075:1293   */\n      swap3\n      swap2\n      pop\n      pop\n      jump\t// out\n        /* \"#utility.yul\":1380:1497   */\n    tag_60:\n        /* \"#utility.yul\":1489:1490   */\n      0x00\n        /* \"#utility.yul\":1486:1487   */\n      dup1\n        /* \"#utility.yul\":1479:1491   */\n      revert\n        /* \"#utility.yul\":1626:1744   */\n    tag_62:\n        /* \"#utility.yul\":1697:1719   */\n      tag_87\n        /* \"#utility.yul\":1713:1718   */\n      dup2\n        /* \"#utility.yul\":1697:1719   */\n      tag_55\n      jump\t// in\n    tag_87:\n        /* \"#utility.yul\":1690:1695   */\n      dup2\n        /* \"#utility.yul\":1687:1720   */\n      eq\n        /* \"#utility.yul\":1677:1738   */\n      tag_88\n      jumpi\n        /* \"#utility.yul\":1734:1735   */\n      0x00\n        /* \"#utility.yul\":1731:1732   */\n      dup1\n        /* \"#utility.yul\":1724:1736   */\n      revert\n        /* \"#utility.yul\":1677:1738   */\n    tag_88:\n        /* \"#utility.yul\":1626:1744   */\n      pop\n      jump\t// out\n        /* \"#utility.yul\":1750:1885   */\n    tag_63:\n        /* \"#utility.yul\":1794:1799   */\n      0x00\n        /* \"#utility.yul\":1832:1838   */\n      dup2\n        /* \"#utility.yul\":1819:1839   */\n      calldataload\n        /* \"#utility.yul\":1810:1839   */\n      swap1\n      pop\n        /* \"#utility.yul\":1848:1879   */\n      tag_90\n        /* \"#utility.yul\":1873:1878   */\n      dup2\n        /* \"#utility.yul\":1848:1879   */\n      tag_62\n      jump\t// in\n    tag_90:\n        /* \"#utility.yul\":1750:1885   */\n      swap3\n      swap2\n      pop\n      pop\n      jump\t// out\n        /* \"#utility.yul\":1891:2216   */\n    tag_27:\n        /* \"#utility.yul\":1948:1954   */\n      0x00\n        /* \"#utility.yul\":1997:1999   */\n      0x20\n        /* \"#utility.yul\":1985:1994   */\n      dup3\n        /* \"#utility.yul\":1976:1983   */\n      dup5\n        /* \"#utility.yul\":1972:1995   */\n      sub\n        /* \"#utility.yul\":1968:2000   */\n      slt\n        /* \"#utility.yul\":1965:2084   */\n      iszero\n      tag_92\n      jumpi\n        /* \"#utility.yul\":2003:2082   */\n      tag_93\n      tag_60\n      jump\t// in\n    tag_93:\n        /* \"#utility.yul\":1965:2084   */\n    tag_92:\n        /* \"#utility.yul\":2123:2124   */\n      0x00\n        /* \"#utility.yul\":2148:2199   */\n      tag_94\n        /* \"#utility.yul\":2191:2198   */\n      dup5\n        /* \"#utility.yul\":2182:2188   */\n      dup3\n        /* \"#utility.yul\":2171:2180   */\n      dup6\n        /* \"#utility.yul\":2167:2189   */\n      add\n        /* \"#utility.yul\":2148:2199   */\n      tag_63\n      jump\t// in\n    tag_94:\n        /* \"#utility.yul\":2138:2199   */\n      swap2\n      pop\n        /* \"#utility.yul\":2094:2209   */\n      pop\n        /* \"#utility.yul\":1891:2216   */\n      swap3\n      swap2\n      pop\n      pop\n      jump\t// out\n        /* \"#utility.yul\":2222:2344   */\n    tag_64:\n        /* \"#utility.yul\":2295:2319   */\n      tag_96\n        /* \"#utility.yul\":2313:2318   */\n      dup2\n        /* \"#utility.yul\":2295:2319   */\n      tag_53\n      jump\t// in\n    tag_96:\n        /* \"#utility.yul\":2288:2293   */\n      dup2\n        /* \"#utility.yul\":2285:2320   */\n      eq\n        /* \"#utility.yul\":2275:2338   */\n      tag_97\n      jumpi\n        /* \"#utility.yul\":2334:2335   */\n      0x00\n        /* \"#utility.yul\":2331:2332   */\n      dup1\n        /* \"#utility.yul\":2324:2336   */\n      revert\n        /* \"#utility.yul\":2275:2338   */\n    tag_97:\n        /* \"#utility.yul\":2222:2344   */\n      pop\n      jump\t// out\n        /* \"#utility.yul\":2350:2489   */\n    tag_65:\n        /* \"#utility.yul\":2396:2401   */\n      0x00\n        /* \"#utility.yul\":2434:2440   */\n      dup2\n        /* \"#utility.yul\":2421:2441   */\n      calldataload\n        /* \"#utility.yul\":2412:2441   */\n      swap1\n      pop\n        /* \"#utility.yul\":2450:2483   */\n      tag_99\n        /* \"#utility.yul\":2477:2482   */\n      dup2\n        /* \"#utility.yul\":2450:2483   */\n      tag_64\n      jump\t// in\n    tag_99:\n        /* \"#utility.yul\":2350:2489   */\n      swap3\n      swap2\n      pop\n      pop\n      jump\t// out\n        /* \"#utility.yul\":2495:2824   */\n    tag_38:\n        /* \"#utility.yul\":2554:2560   */\n      0x00\n        /* \"#utility.yul\":2603:2605   */\n      0x20\n        /* \"#utility.yul\":2591:2600   */\n      dup3\n        /* \"#utility.yul\":2582:2589   */\n      dup5\n        /* \"#utility.yul\":2578:2601   */\n      sub\n        /* \"#utility.yul\":2574:2606   */\n      slt\n        /* \"#utility.yul\":2571:2690   */\n      iszero\n      tag_101\n      jumpi\n        /* \"#utility.yul\":2609:2688   */\n      tag_102\n      tag_60\n      jump\t// in\n    tag_102:\n        /* \"#utility.yul\":2571:2690   */\n    tag_101:\n        /* \"#utility.yul\":2729:2730   */\n      0x00\n        /* \"#utility.yul\":2754:2807   */\n      tag_103\n        /* \"#utility.yul\":2799:2806   */\n      dup5\n        /* \"#utility.yul\":2790:2796   */\n      dup3\n        /* \"#utility.yul\":2779:2788   */\n      dup6\n        /* \"#utility.yul\":2775:2797   */\n      add\n        /* \"#utility.yul\":2754:2807   */\n      tag_65\n      jump\t// in\n    tag_103:\n        /* \"#utility.yul\":2744:2807   */\n      swap2\n      pop\n        /* \"#utility.yul\":2700:2817   */\n      pop\n        /* \"#utility.yul\":2495:2824   */\n      swap3\n      swap2\n      pop\n      pop\n      jump\t// out\n        /* \"#utility.yul\":2830:3010   */\n    tag_66:\n        /* \"#utility.yul\":2878:2955   */\n      0x4e487b7100000000000000000000000000000000000000000000000000000000\n        /* \"#utility.yul\":2875:2876   */\n      0x00\n        /* \"#utility.yul\":2868:2956   */\n      mstore\n        /* \"#utility.yul\":2975:2979   */\n      0x11\n        /* \"#utility.yul\":2972:2973   */\n      0x04\n        /* \"#utility.yul\":2965:2980   */\n      mstore\n        /* \"#utility.yul\":2999:3003   */\n      0x24\n        /* \"#utility.yul\":2996:2997   */\n      0x00\n        /* \"#utility.yul\":2989:3004   */\n      revert\n        /* \"#utility.yul\":3016:3183   */\n    tag_45:\n        /* \"#utility.yul\":3053:3056   */\n      0x00\n        /* \"#utility.yul\":3076:3098   */\n      tag_106\n        /* \"#utility.yul\":3092:3097   */\n      dup3\n        /* \"#utility.yul\":3076:3098   */\n      tag_55\n      jump\t// in\n    tag_106:\n        /* \"#utility.yul\":3067:3098   */\n      swap2\n      pop\n        /* \"#utility.yul\":3120:3124   */\n      0xff\n        /* \"#utility.yul\":3113:3118   */\n      dup3\n        /* \"#utility.yul\":3110:3125   */\n      sub\n        /* \"#utility.yul\":3107:3148   */\n      tag_107\n      jumpi\n        /* \"#utility.yul\":3128:3146   */\n      tag_108\n      tag_66\n      jump\t// in\n    tag_108:\n        /* \"#utility.yul\":3107:3148   */\n    tag_107:\n        /* \"#utility.yul\":3175:3176   */\n      0x01\n        /* \"#utility.yul\":3168:3173   */\n      dup3\n        /* \"#utility.yul\":3164:3177   */\n      add\n        /* \"#utility.yul\":3157:3177   */\n      swap1\n      pop\n        /* \"#utility.yul\":3016:3183   */\n      swap2\n      swap1\n      pop\n      jump\t// out\n        /* \"#utility.yul\":3189:3360   */\n    tag_48:\n        /* \"#utility.yul\":3228:3231   */\n      0x00\n        /* \"#utility.yul\":3251:3275   */\n      tag_110\n        /* \"#utility.yul\":3269:3274   */\n      dup3\n        /* \"#utility.yul\":3251:3275   */\n      tag_53\n      jump\t// in\n    tag_110:\n        /* \"#utility.yul\":3242:3275   */\n      swap2\n      pop\n        /* \"#utility.yul\":3297:3301   */\n      0x00\n        /* \"#utility.yul\":3290:3295   */\n      dup3\n        /* \"#utility.yul\":3287:3302   */\n      sub\n        /* \"#utility.yul\":3284:3325   */\n      tag_111\n      jumpi\n        /* \"#utility.yul\":3305:3323   */\n      tag_112\n      tag_66\n      jump\t// in\n    tag_112:\n        /* \"#utility.yul\":3284:3325   */\n    tag_111:\n        /* \"#utility.yul\":3352:3353   */\n      0x01\n        /* \"#utility.yul\":3345:3350   */\n      dup3\n        /* \"#utility.yul\":3341:3354   */\n      sub\n        /* \"#utility.yul\":3334:3354   */\n      swap1\n      pop\n        /* \"#utility.yul\":3189:3360   */\n      swap2\n      swap1\n      pop\n      jump\t// out\n        /* \"#utility.yul\":3366:3597   */\n    tag_52:\n        /* \"#utility.yul\":3404:3407   */\n      0x00\n        /* \"#utility.yul\":3427:3450   */\n      tag_114\n        /* \"#utility.yul\":3444:3449   */\n      dup3\n        /* \"#utility.yul\":3427:3450   */\n      tag_57\n      jump\t// in\n    tag_114:\n        /* \"#utility.yul\":3418:3450   */\n      swap2\n      pop\n        /* \"#utility.yul\":3472:3538   */\n      0x7fffffffffffffffffffffffffffffffffffffffffffffffffffffffffffffff\n        /* \"#utility.yul\":3465:3470   */\n      dup3\n        /* \"#utility.yul\":3462:3539   */\n      sub\n        /* \"#utility.yul\":3459:3562   */\n      tag_115\n      jumpi\n        /* \"#utility.yul\":3542:3560   */\n      tag_116\n      tag_66\n      jump\t// in\n    tag_116:\n        /* \"#utility.yul\":3459:3562   */\n    tag_115:\n        /* \"#utility.yul\":3589:3590   */\n      0x01\n        /* \"#utility.yul\":3582:3587   */\n      dup3\n        /* \"#utility.yul\":3578:3591   */\n      add\n        /* \"#utility.yul\":3571:3591   */\n      swap1\n      pop\n        /* \"#utility.yul\":3366:3597   */\n      swap2\n      swap1\n      pop\n      jump\t// out\n\n    auxdata: 0xa264697066735822122002a6710a6aac871c68290a901c96a4702876e53c304378a90076c3b1633ffb8c64736f6c634300080e0033\n}\n",
				"bytecode": {
					"linkReferences": {},
					"object": "608060405260fa6001806101000a81548160ff021916908360ff1602179055507ffffffffffffffffffffffffffffffffffffffffffffffffffffffffffffffff660025534801561004f57600080fd5b5061047f8061005f6000396000f3fe608060405234801561001057600080fd5b50600436106100935760003560e01c80638400449c116100665780638400449c1461010e57806393d0c2311461012c578063b3421de414610136578063e492fd8414610140578063f102a71d1461015c57610093565b806306540f7e1461009857806312c0dfc3146100b65780632cb777a6146100d45780634f25eada146100f2575b600080fd5b6100a0610166565b6040516100ad9190610243565b60405180910390f35b6100be61016c565b6040516100cb919061027a565b60405180910390f35b6100dc61017f565b6040516100e991906102ae565b60405180910390f35b61010c600480360381019061010791906102fa565b610185565b005b6101166101a3565b604051610123919061027a565b60405180910390f35b6101346101b4565b005b61013e6101ed565b005b61015a60048036038101906101559190610353565b610206565b005b610164610210565b005b60005481565b600160009054906101000a900460ff1681565b60025481565b80600160006101000a81548160ff021916908360ff16021790555050565b60018054906101000a900460ff1681565b60018081819054906101000a900460ff16809291906101d2906103af565b91906101000a81548160ff021916908360ff16021790555050565b6000808154809291906101ff906103d8565b9190505550565b8060008190555050565b6002600081548092919061022390610401565b9190505550565b6000819050919050565b61023d8161022a565b82525050565b60006020820190506102586000830184610234565b92915050565b600060ff82169050919050565b6102748161025e565b82525050565b600060208201905061028f600083018461026b565b92915050565b6000819050919050565b6102a881610295565b82525050565b60006020820190506102c3600083018461029f565b92915050565b600080fd5b6102d78161025e565b81146102e257600080fd5b50565b6000813590506102f4816102ce565b92915050565b6000602082840312156103105761030f6102c9565b5b600061031e848285016102e5565b91505092915050565b6103308161022a565b811461033b57600080fd5b50565b60008135905061034d81610327565b92915050565b600060208284031215610369576103686102c9565b5b60006103778482850161033e565b91505092915050565b7f4e487b7100000000000000000000000000000000000000000000000000000000600052601160045260246000fd5b60006103ba8261025e565b915060ff82036103cd576103cc610380565b5b600182019050919050565b60006103e38261022a565b9150600082036103f6576103f5610380565b5b600182039050919050565b600061040c82610295565b91507f7fffffffffffffffffffffffffffffffffffffffffffffffffffffffffffffff820361043e5761043d610380565b5b60018201905091905056fea264697066735822122002a6710a6aac871c68290a901c96a4702876e53c304378a90076c3b1633ffb8c64736f6c634300080e0033",
					"opcodes": "PUSH1 0x80 PUSH1 0x40 MSTORE PUSH1 0xFA PUSH1 0x1 DUP1 PUSH2 0x100 EXP DUP2 SLOAD DUP2 PUSH1 0xFF MUL NOT AND SWAP1 DUP4 PUSH1 0xFF AND MUL OR SWAP1 SSTORE POP PUSH32 0xFFFFFFFFFFFFFFFFFFFFFFFFFFFFFFFFFFFFFFFFFFFFFFFFFFFFFFFFFFFFFFF6 PUSH1 0x2 SSTORE CALLVALUE DUP1 ISZERO PUSH2 0x4F JUMPI PUSH1 0x0 DUP1 REVERT JUMPDEST POP PUSH2 0x47F DUP1 PUSH2 0x5F PUSH1 0x0 CODECOPY PUSH1 0x0 RETURN INVALID PUSH1 0x80 PUSH1 0x40 MSTORE CALLVALUE DUP1 ISZERO PUSH2 0x10 JUMPI PUSH1 0x0 DUP1 REVERT JUMPDEST POP PUSH1 0x4 CALLDATASIZE LT PUSH2 0x93 JUMPI PUSH1 0x0 CALLDATALOAD PUSH1 0xE0 SHR DUP1 PUSH4 0x8400449C GT PUSH2 0x66 JUMPI DUP1 PUSH4 0x8400449C EQ PUSH2 0x10E JUMPI DUP1 PUSH4 0x93D0C231 EQ PUSH2 0x12C JUMPI DUP1 PUSH4 0xB3421DE4 EQ PUSH2 0x136 JUMPI DUP1 PUSH4 0xE492FD84 EQ PUSH2 0x140 JUMPI DUP1 PUSH4 0xF102A71D EQ PUSH2 0x15C JUMPI PUSH2 0x93 JUMP JUMPDEST DUP1 PUSH4 0x6540F7E EQ PUSH2 0x98 JUMPI DUP1 PUSH4 0x12C0DFC3 EQ PUSH2 0xB6 JUMPI DUP1 PUSH4 0x2CB777A6 EQ PUSH2 0xD4 JUMPI DUP1 PUSH4 0x4F25EADA EQ PUSH2 0xF2 JUMPI JUMPDEST PUSH1 0x0 DUP1 REVERT JUMPDEST PUSH2 0xA0 PUSH2 0x166 JUMP JUMPDEST PUSH1 0x40 MLOAD PUSH2 0xAD SWAP2 SWAP1 PUSH2 0x243 JUMP JUMPDEST PUSH1 0x40 MLOAD DUP1 SWAP2 SUB SWAP1 RETURN JUMPDEST PUSH2 0xBE PUSH2 0x16C JUMP JUMPDEST PUSH1 0x40 MLOAD PUSH2 0xCB SWAP2 SWAP1 PUSH2 0x27A JUMP JUMPDEST PUSH1 0x40 MLOAD DUP1 SWAP2 SUB SWAP1 RETURN JUMPDEST PUSH2 0xDC PUSH2 0x17F JUMP JUMPDEST PUSH1 0x40 MLOAD PUSH2 0xE9 SWAP2 SWAP1 PUSH2 0x2AE JUMP JUMPDEST PUSH1 0x40 MLOAD DUP1 SWAP2 SUB SWAP1 RETURN JUMPDEST PUSH2 0x10C PUSH1 0x4 DUP1 CALLDATASIZE SUB DUP2 ADD SWAP1 PUSH2 0x107 SWAP2 SWAP1 PUSH2 0x2FA JUMP JUMPDEST PUSH2 0x185 JUMP JUMPDEST STOP JUMPDEST PUSH2 0x116 PUSH2 0x1A3 JUMP JUMPDEST PUSH1 0x40 MLOAD PUSH2 0x123 SWAP2 SWAP1 PUSH2 0x27A JUMP JUMPDEST PUSH1 0x40 MLOAD DUP1 SWAP2 SUB SWAP1 RETURN JUMPDEST PUSH2 0x134 PUSH2 0x1B4 JUMP JUMPDEST STOP JUMPDEST PUSH2 0x13E PUSH2 0x1ED JUMP JUMPDEST STOP JUMPDEST PUSH2 0x15A PUSH1 0x4 DUP1 CALLDATASIZE SUB DUP2 ADD SWAP1 PUSH2 0x155 SWAP2 SWAP1 PUSH2 0x353 JUMP JUMPDEST PUSH2 0x206 JUMP JUMPDEST STOP JUMPDEST PUSH2 0x164 PUSH2 0x210 JUMP JUMPDEST STOP JUMPDEST PUSH1 0x0 SLOAD DUP2 JUMP JUMPDEST PUSH1 0x1 PUSH1 0x0 SWAP1 SLOAD SWAP1 PUSH2 0x100 EXP SWAP1 DIV PUSH1 0xFF AND DUP2 JUMP JUMPDEST PUSH1 0x2 SLOAD DUP2 JUMP JUMPDEST DUP1 PUSH1 0x1 PUSH1 0x0 PUSH2 0x100 EXP DUP2 SLOAD DUP2 PUSH1 0xFF MUL NOT AND SWAP1 DUP4 PUSH1 0xFF AND MUL OR SWAP1 SSTORE POP POP JUMP JUMPDEST PUSH1 0x1 DUP1 SLOAD SWAP1 PUSH2 0x100 EXP SWAP1 DIV PUSH1 0xFF AND DUP2 JUMP JUMPDEST PUSH1 0x1 DUP1 DUP2 DUP2 SWAP1 SLOAD SWAP1 PUSH2 0x100 EXP SWAP1 DIV PUSH1 0xFF AND DUP1 SWAP3 SWAP2 SWAP1 PUSH2 0x1D2 SWAP1 PUSH2 0x3AF JUMP JUMPDEST SWAP2 SWAP1 PUSH2 0x100 EXP DUP2 SLOAD DUP2 PUSH1 0xFF MUL NOT AND SWAP1 DUP4 PUSH1 0xFF AND MUL OR SWAP1 SSTORE POP POP JUMP JUMPDEST PUSH1 0x0 DUP1 DUP2 SLOAD DUP1 SWAP3 SWAP2 SWAP1 PUSH2 0x1FF SWAP1 PUSH2 0x3D8 JUMP JUMPDEST SWAP2 SWAP1 POP SSTORE POP JUMP JUMPDEST DUP1 PUSH1 0x0 DUP2 SWAP1 SSTORE POP POP JUMP JUMPDEST PUSH1 0x2 PUSH1 0x0 DUP2 SLOAD DUP1 SWAP3 SWAP2 SWAP1 PUSH2 0x223 SWAP1 PUSH2 0x401 JUMP JUMPDEST SWAP2 SWAP1 POP SSTORE POP JUMP JUMPDEST PUSH1 0x0 DUP2 SWAP1 POP SWAP2 SWAP1 POP JUMP JUMPDEST PUSH2 0x23D DUP2 PUSH2 0x22A JUMP JUMPDEST DUP3 MSTORE POP POP JUMP JUMPDEST PUSH1 0x0 PUSH1 0x20 DUP3 ADD SWAP1 POP PUSH2 0x258 PUSH1 0x0 DUP4 ADD DUP5 PUSH2 0x234 JUMP JUMPDEST SWAP3 SWAP2 POP POP JUMP JUMPDEST PUSH1 0x0 PUSH1 0xFF DUP3 AND SWAP1 POP SWAP2 SWAP1 POP JUMP JUMPDEST PUSH2 0x274 DUP2 PUSH2 0x25E JUMP JUMPDEST DUP3 MSTORE POP POP JUMP JUMPDEST PUSH1 0x0 PUSH1 0x20 DUP3 ADD SWAP1 POP PUSH2 0x28F PUSH1 0x0 DUP4 ADD DUP5 PUSH2 0x26B JUMP JUMPDEST SWAP3 SWAP2 POP POP JUMP JUMPDEST PUSH1 0x0 DUP2 SWAP1 POP SWAP2 SWAP1 POP JUMP JUMPDEST PUSH2 0x2A8 DUP2 PUSH2 0x295 JUMP JUMPDEST DUP3 MSTORE POP POP JUMP JUMPDEST PUSH1 0x0 PUSH1 0x20 DUP3 ADD SWAP1 POP PUSH2 0x2C3 PUSH1 0x0 DUP4 ADD DUP5 PUSH2 0x29F JUMP JUMPDEST SWAP3 SWAP2 POP POP JUMP JUMPDEST PUSH1 0x0 DUP1 REVERT JUMPDEST PUSH2 0x2D7 DUP2 PUSH2 0x25E JUMP JUMPDEST DUP2 EQ PUSH2 0x2E2 JUMPI PUSH1 0x0 DUP1 REVERT JUMPDEST POP JUMP JUMPDEST PUSH1 0x0 DUP2 CALLDATALOAD SWAP1 POP PUSH2 0x2F4 DUP2 PUSH2 0x2CE JUMP JUMPDEST SWAP3 SWAP2 POP POP JUMP JUMPDEST PUSH1 0x0 PUSH1 0x20 DUP3 DUP5 SUB SLT ISZERO PUSH2 0x310 JUMPI PUSH2 0x30F PUSH2 0x2C9 JUMP JUMPDEST JUMPDEST PUSH1 0x0 PUSH2 0x31E DUP5 DUP3 DUP6 ADD PUSH2 0x2E5 JUMP JUMPDEST SWAP2 POP POP SWAP3 SWAP2 POP POP JUMP JUMPDEST PUSH2 0x330 DUP2 PUSH2 0x22A JUMP JUMPDEST DUP2 EQ PUSH2 0x33B JUMPI PUSH1 0x0 DUP1 REVERT JUMPDEST POP JUMP JUMPDEST PUSH1 0x0 DUP2 CALLDATALOAD SWAP1 POP PUSH2 0x34D DUP2 PUSH2 0x327 JUMP JUMPDEST SWAP3 SWAP2 POP POP JUMP JUMPDEST PUSH1 0x0 PUSH1 0x20 DUP3 DUP5 SUB SLT ISZERO PUSH2 0x369 JUMPI PUSH2 0x368 PUSH2 0x2C9 JUMP JUMPDEST JUMPDEST PUSH1 0x0 PUSH2 0x377 DUP5 DUP3 DUP6 ADD PUSH2 0x33E JUMP JUMPDEST SWAP2 POP POP SWAP3 SWAP2 POP POP JUMP JUMPDEST PUSH32 0x4E487B7100000000000000000000000000000000000000000000000000000000 PUSH1 0x0 MSTORE PUSH1 0x11 PUSH1 0x4 MSTORE PUSH1 0x24 PUSH1 0x0 REVERT JUMPDEST PUSH1 0x0 PUSH2 0x3BA DUP3 PUSH2 0x25E JUMP JUMPDEST SWAP2 POP PUSH1 0xFF DUP3 SUB PUSH2 0x3CD JUMPI PUSH2 0x3CC PUSH2 0x380 JUMP JUMPDEST JUMPDEST PUSH1 0x1 DUP3 ADD SWAP1 POP SWAP2 SWAP1 POP JUMP JUMPDEST PUSH1 0x0 PUSH2 0x3E3 DUP3 PUSH2 0x22A JUMP JUMPDEST SWAP2 POP PUSH1 0x0 DUP3 SUB PUSH2 0x3F6 JUMPI PUSH2 0x3F5 PUSH2 0x380 JUMP JUMPDEST JUMPDEST PUSH1 0x1 DUP3 SUB SWAP1 POP SWAP2 SWAP1 POP JUMP JUMPDEST PUSH1 0x0 PUSH2 0x40C DUP3 PUSH2 0x295 JUMP JUMPDEST SWAP2 POP PUSH32 0x7FFFFFFFFFFFFFFFFFFFFFFFFFFFFFFFFFFFFFFFFFFFFFFFFFFFFFFFFFFFFFFF DUP3 SUB PUSH2 0x43E JUMPI PUSH2 0x43D PUSH2 0x380 JUMP JUMPDEST JUMPDEST PUSH1 0x1 DUP3 ADD SWAP1 POP SWAP2 SWAP1 POP JUMP INVALID LOG2 PUSH5 0x6970667358 0x22 SLT KECCAK256 MUL 0xA6 PUSH18 0xA6AAC871C68290A901C96A4702876E53C30 NUMBER PUSH25 0xA90076C3B1633FFB8C64736F6C634300080E00330000000000 "
				},
				"gasEstimates": {
					"creation": {
						"codeDepositCost": "230200",
						"executionCost": "46692",
						"totalCost": "276892"
					},
					"external": {
						"decrementMyUintNew8()": "24545",
						"incrementInt()": "24589",
						"incrementMyUintNew8()": "26821",
						"myInt()": "2474",
						"myUint()": "2430",
						"myuint8()": "2494",
						"myuintNew8()": "2518",
						"setMyUint(uint256)": "22586",
						"setMyUint8(uint8)": "24746"
					}
				},
				"methodIdentifiers": {
					"decrementMyUintNew8()": "b3421de4",
					"incrementInt()": "f102a71d",
					"incrementMyUintNew8()": "93d0c231",
					"myInt()": "2cb777a6",
					"myUint()": "06540f7e",
					"myuint8()": "12c0dfc3",
					"myuintNew8()": "8400449c",
					"setMyUint(uint256)": "e492fd84",
					"setMyUint8(uint8)": "4f25eada"
				}
			},
			"storageLayout": {
				"storage": [
					{
						"astId": 3,
						"contract": "contracts/Unsingned_Integers.sol:ExampleUnit",
						"label": "myUint",
						"offset": 0,
						"slot": "0",
						"type": "t_uint256"
					},
					{
						"astId": 5,
						"contract": "contracts/Unsingned_Integers.sol:ExampleUnit",
						"label": "myuint8",
						"offset": 0,
						"slot": "1",
						"type": "t_uint8"
					},
					{
						"astId": 8,
						"contract": "contracts/Unsingned_Integers.sol:ExampleUnit",
						"label": "myuintNew8",
						"offset": 1,
						"slot": "1",
						"type": "t_uint8"
					},
					{
						"astId": 12,
						"contract": "contracts/Unsingned_Integers.sol:ExampleUnit",
						"label": "myInt",
						"offset": 0,
						"slot": "2",
						"type": "t_int256"
					}
				],
				"types": {
					"t_int256": {
						"encoding": "inplace",
						"label": "int256",
						"numberOfBytes": "32"
					},
					"t_uint256": {
						"encoding": "inplace",
						"label": "uint256",
						"numberOfBytes": "32"
					},
					"t_uint8": {
						"encoding": "inplace",
						"label": "uint8",
						"numberOfBytes": "1"
					}
				}
			},
			"userdoc": {
				"kind": "user",
				"methods": {},
				"version": 1
			}
		}
	}
}