{
	"contracts/02_peepCoding/03_functions.sol": {
		"functionIntro": {
			"abi": [
				{
					"inputs": [
						{
							"internalType": "uint256",
							"name": "_x",
							"type": "uint256"
						},
						{
							"internalType": "uint256",
							"name": "_y",
							"type": "uint256"
						}
					],
					"name": "add",
					"outputs": [
						{
							"internalType": "uint256",
							"name": "",
							"type": "uint256"
						}
					],
					"stateMutability": "pure",
					"type": "function"
				},
				{
					"inputs": [],
					"name": "age1",
					"outputs": [
						{
							"internalType": "uint256",
							"name": "",
							"type": "uint256"
						}
					],
					"stateMutability": "view",
					"type": "function"
				},
				{
					"inputs": [],
					"name": "changeAge",
					"outputs": [],
					"stateMutability": "nonpayable",
					"type": "function"
				},
				{
					"inputs": [
						{
							"internalType": "uint256",
							"name": "_newValue",
							"type": "uint256"
						}
					],
					"name": "getAddedAge",
					"outputs": [
						{
							"internalType": "uint256",
							"name": "",
							"type": "uint256"
						}
					],
					"stateMutability": "view",
					"type": "function"
				},
				{
					"inputs": [],
					"name": "getAge",
					"outputs": [
						{
							"internalType": "uint256",
							"name": "",
							"type": "uint256"
						}
					],
					"stateMutability": "view",
					"type": "function"
				},
				{
					"inputs": [],
					"name": "getAge1",
					"outputs": [
						{
							"internalType": "uint256",
							"name": "",
							"type": "uint256"
						}
					],
					"stateMutability": "view",
					"type": "function"
				},
				{
					"inputs": [
						{
							"internalType": "uint256",
							"name": "number2",
							"type": "uint256"
						},
						{
							"internalType": "uint256",
							"name": "number3",
							"type": "uint256"
						}
					],
					"name": "getSumAge",
					"outputs": [
						{
							"internalType": "uint256",
							"name": "",
							"type": "uint256"
						}
					],
					"stateMutability": "view",
					"type": "function"
				},
				{
					"inputs": [
						{
							"internalType": "uint256",
							"name": "_a",
							"type": "uint256"
						},
						{
							"internalType": "uint256",
							"name": "_b",
							"type": "uint256"
						}
					],
					"name": "pure1",
					"outputs": [
						{
							"internalType": "uint256",
							"name": "",
							"type": "uint256"
						}
					],
					"stateMutability": "pure",
					"type": "function"
				}
			],
			"devdoc": {
				"kind": "dev",
				"methods": {},
				"version": 1
			},
			"evm": {
				"assembly": "    /* \"contracts/02_peepCoding/03_functions.sol\":59:819  contract functionIntro {\r... */\n  mstore(0x40, 0x80)\n    /* \"contracts/02_peepCoding/03_functions.sol\":102:104  20 */\n  0x14\n    /* \"contracts/02_peepCoding/03_functions.sol\":91:104  uint age = 20 */\n  0x00\n  sstore\n    /* \"contracts/02_peepCoding/03_functions.sol\":130:132  25 */\n  0x19\n    /* \"contracts/02_peepCoding/03_functions.sol\":111:132  uint public age1 = 25 */\n  0x01\n  sstore\n    /* \"contracts/02_peepCoding/03_functions.sol\":59:819  contract functionIntro {\r... */\n  callvalue\n  dup1\n  iszero\n  tag_1\n  jumpi\n  0x00\n  dup1\n  revert\ntag_1:\n  pop\n  dataSize(sub_0)\n  dup1\n  dataOffset(sub_0)\n  0x00\n  codecopy\n  0x00\n  return\nstop\n\nsub_0: assembly {\n        /* \"contracts/02_peepCoding/03_functions.sol\":59:819  contract functionIntro {\r... */\n      mstore(0x40, 0x80)\n      callvalue\n      dup1\n      iszero\n      tag_1\n      jumpi\n      0x00\n      dup1\n      revert\n    tag_1:\n      pop\n      jumpi(tag_2, lt(calldatasize, 0x04))\n      shr(0xe0, calldataload(0x00))\n      dup1\n      0x7d73dd34\n      gt\n      tag_11\n      jumpi\n      dup1\n      0x7d73dd34\n      eq\n      tag_7\n      jumpi\n      dup1\n      0x967e6e65\n      eq\n      tag_8\n      jumpi\n      dup1\n      0xb6ae41c0\n      eq\n      tag_9\n      jumpi\n      dup1\n      0xe025f008\n      eq\n      tag_10\n      jumpi\n      jump(tag_2)\n    tag_11:\n      dup1\n      0x25beba0f\n      eq\n      tag_3\n      jumpi\n      dup1\n      0x2bc2f58d\n      eq\n      tag_4\n      jumpi\n      dup1\n      0x5ab3889a\n      eq\n      tag_5\n      jumpi\n      dup1\n      0x771602f7\n      eq\n      tag_6\n      jumpi\n    tag_2:\n      0x00\n      dup1\n      revert\n        /* \"contracts/02_peepCoding/03_functions.sol\":302:397  function getAddedAge(uint _newValue) public view returns(uint) {\r... */\n    tag_3:\n      tag_12\n      0x04\n      dup1\n      calldatasize\n      sub\n      dup2\n      add\n      swap1\n      tag_13\n      swap2\n      swap1\n      tag_14\n      jump\t// in\n    tag_13:\n      tag_15\n      jump\t// in\n    tag_12:\n      mload(0x40)\n      tag_16\n      swap2\n      swap1\n      tag_17\n      jump\t// in\n    tag_16:\n      mload(0x40)\n      dup1\n      swap2\n      sub\n      swap1\n      return\n        /* \"contracts/02_peepCoding/03_functions.sol\":111:132  uint public age1 = 25 */\n    tag_4:\n      tag_18\n      tag_19\n      jump\t// in\n    tag_18:\n      mload(0x40)\n      tag_20\n      swap2\n      swap1\n      tag_17\n      jump\t// in\n    tag_20:\n      mload(0x40)\n      dup1\n      swap2\n      sub\n      swap1\n      return\n        /* \"contracts/02_peepCoding/03_functions.sol\":239:294  function changeAge() public {\r... */\n    tag_5:\n      tag_21\n      tag_22\n      jump\t// in\n    tag_21:\n      stop\n        /* \"contracts/02_peepCoding/03_functions.sol\":141:231  function add(uint _x, uint _y) public pure returns(uint) {\r... */\n    tag_6:\n      tag_23\n      0x04\n      dup1\n      calldatasize\n      sub\n      dup2\n      add\n      swap1\n      tag_24\n      swap2\n      swap1\n      tag_25\n      jump\t// in\n    tag_24:\n      tag_26\n      jump\t// in\n    tag_23:\n      mload(0x40)\n      tag_27\n      swap2\n      swap1\n      tag_17\n      jump\t// in\n    tag_27:\n      mload(0x40)\n      dup1\n      swap2\n      sub\n      swap1\n      return\n        /* \"contracts/02_peepCoding/03_functions.sol\":486:561  function getAge1() public view returns(uint) {\r... */\n    tag_7:\n      tag_28\n      tag_29\n      jump\t// in\n    tag_28:\n      mload(0x40)\n      tag_30\n      swap2\n      swap1\n      tag_17\n      jump\t// in\n    tag_30:\n      mload(0x40)\n      dup1\n      swap2\n      sub\n      swap1\n      return\n        /* \"contracts/02_peepCoding/03_functions.sol\":405:478  function getAge() public view returns(uint) {\r... */\n    tag_8:\n      tag_31\n      tag_32\n      jump\t// in\n    tag_31:\n      mload(0x40)\n      tag_33\n      swap2\n      swap1\n      tag_17\n      jump\t// in\n    tag_33:\n      mload(0x40)\n      dup1\n      swap2\n      sub\n      swap1\n      return\n        /* \"contracts/02_peepCoding/03_functions.sol\":669:816  function getSumAge(uint number2, uint number3) public view returns(uint) {\r... */\n    tag_9:\n      tag_34\n      0x04\n      dup1\n      calldatasize\n      sub\n      dup2\n      add\n      swap1\n      tag_35\n      swap2\n      swap1\n      tag_25\n      jump\t// in\n    tag_35:\n      tag_36\n      jump\t// in\n    tag_34:\n      mload(0x40)\n      tag_37\n      swap2\n      swap1\n      tag_17\n      jump\t// in\n    tag_37:\n      mload(0x40)\n      dup1\n      swap2\n      sub\n      swap1\n      return\n        /* \"contracts/02_peepCoding/03_functions.sol\":569:661  function pure1(uint _a, uint _b) public pure returns(uint) {\r... */\n    tag_10:\n      tag_38\n      0x04\n      dup1\n      calldatasize\n      sub\n      dup2\n      add\n      swap1\n      tag_39\n      swap2\n      swap1\n      tag_25\n      jump\t// in\n    tag_39:\n      tag_40\n      jump\t// in\n    tag_38:\n      mload(0x40)\n      tag_41\n      swap2\n      swap1\n      tag_17\n      jump\t// in\n    tag_41:\n      mload(0x40)\n      dup1\n      swap2\n      sub\n      swap1\n      return\n        /* \"contracts/02_peepCoding/03_functions.sol\":302:397  function getAddedAge(uint _newValue) public view returns(uint) {\r... */\n    tag_15:\n        /* \"contracts/02_peepCoding/03_functions.sol\":359:363  uint */\n      0x00\n        /* \"contracts/02_peepCoding/03_functions.sol\":384:393  _newValue */\n      dup2\n        /* \"contracts/02_peepCoding/03_functions.sol\":379:383  age1 */\n      sload(0x01)\n        /* \"contracts/02_peepCoding/03_functions.sol\":379:393  age1+_newValue */\n      tag_43\n      swap2\n      swap1\n      tag_44\n      jump\t// in\n    tag_43:\n        /* \"contracts/02_peepCoding/03_functions.sol\":372:393  return age1+_newValue */\n      swap1\n      pop\n        /* \"contracts/02_peepCoding/03_functions.sol\":302:397  function getAddedAge(uint _newValue) public view returns(uint) {\r... */\n      swap2\n      swap1\n      pop\n      jump\t// out\n        /* \"contracts/02_peepCoding/03_functions.sol\":111:132  uint public age1 = 25 */\n    tag_19:\n      sload(0x01)\n      dup2\n      jump\t// out\n        /* \"contracts/02_peepCoding/03_functions.sol\":239:294  function changeAge() public {\r... */\n    tag_22:\n        /* \"contracts/02_peepCoding/03_functions.sol\":285:286  1 */\n      0x01\n        /* \"contracts/02_peepCoding/03_functions.sol\":278:281  age */\n      0x00\n      dup1\n        /* \"contracts/02_peepCoding/03_functions.sol\":278:286  age += 1 */\n      dup3\n      dup3\n      sload\n      tag_46\n      swap2\n      swap1\n      tag_44\n      jump\t// in\n    tag_46:\n      swap3\n      pop\n      pop\n      dup2\n      swap1\n      sstore\n      pop\n        /* \"contracts/02_peepCoding/03_functions.sol\":239:294  function changeAge() public {\r... */\n      jump\t// out\n        /* \"contracts/02_peepCoding/03_functions.sol\":141:231  function add(uint _x, uint _y) public pure returns(uint) {\r... */\n    tag_26:\n        /* \"contracts/02_peepCoding/03_functions.sol\":192:196  uint */\n      0x00\n        /* \"contracts/02_peepCoding/03_functions.sol\":221:223  _y */\n      dup2\n        /* \"contracts/02_peepCoding/03_functions.sol\":216:218  _x */\n      dup4\n        /* \"contracts/02_peepCoding/03_functions.sol\":216:223  _x + _y */\n      tag_48\n      swap2\n      swap1\n      tag_44\n      jump\t// in\n    tag_48:\n        /* \"contracts/02_peepCoding/03_functions.sol\":209:223  return _x + _y */\n      swap1\n      pop\n        /* \"contracts/02_peepCoding/03_functions.sol\":141:231  function add(uint _x, uint _y) public pure returns(uint) {\r... */\n      swap3\n      swap2\n      pop\n      pop\n      jump\t// out\n        /* \"contracts/02_peepCoding/03_functions.sol\":486:561  function getAge1() public view returns(uint) {\r... */\n    tag_29:\n        /* \"contracts/02_peepCoding/03_functions.sol\":525:529  uint */\n      0x00\n        /* \"contracts/02_peepCoding/03_functions.sol\":549:553  age1 */\n      sload(0x01)\n        /* \"contracts/02_peepCoding/03_functions.sol\":542:553  return age1 */\n      swap1\n      pop\n        /* \"contracts/02_peepCoding/03_functions.sol\":486:561  function getAge1() public view returns(uint) {\r... */\n      swap1\n      jump\t// out\n        /* \"contracts/02_peepCoding/03_functions.sol\":405:478  function getAge() public view returns(uint) {\r... */\n    tag_32:\n        /* \"contracts/02_peepCoding/03_functions.sol\":443:447  uint */\n      0x00\n        /* \"contracts/02_peepCoding/03_functions.sol\":467:470  age */\n      dup1\n      sload\n        /* \"contracts/02_peepCoding/03_functions.sol\":460:470  return age */\n      swap1\n      pop\n        /* \"contracts/02_peepCoding/03_functions.sol\":405:478  function getAge() public view returns(uint) {\r... */\n      swap1\n      jump\t// out\n        /* \"contracts/02_peepCoding/03_functions.sol\":669:816  function getSumAge(uint number2, uint number3) public view returns(uint) {\r... */\n    tag_36:\n        /* \"contracts/02_peepCoding/03_functions.sol\":736:740  uint */\n      0x00\n        /* \"contracts/02_peepCoding/03_functions.sol\":753:761  uint sum */\n      dup1\n        /* \"contracts/02_peepCoding/03_functions.sol\":780:787  number3 */\n      dup3\n        /* \"contracts/02_peepCoding/03_functions.sol\":770:777  number2 */\n      dup5\n        /* \"contracts/02_peepCoding/03_functions.sol\":764:767  age */\n      sload(0x00)\n        /* \"contracts/02_peepCoding/03_functions.sol\":764:777  age + number2 */\n      tag_52\n      swap2\n      swap1\n      tag_44\n      jump\t// in\n    tag_52:\n        /* \"contracts/02_peepCoding/03_functions.sol\":764:787  age + number2 + number3 */\n      tag_53\n      swap2\n      swap1\n      tag_44\n      jump\t// in\n    tag_53:\n        /* \"contracts/02_peepCoding/03_functions.sol\":753:787  uint sum = age + number2 + number3 */\n      swap1\n      pop\n        /* \"contracts/02_peepCoding/03_functions.sol\":805:808  sum */\n      dup1\n        /* \"contracts/02_peepCoding/03_functions.sol\":798:808  return sum */\n      swap2\n      pop\n      pop\n        /* \"contracts/02_peepCoding/03_functions.sol\":669:816  function getSumAge(uint number2, uint number3) public view returns(uint) {\r... */\n      swap3\n      swap2\n      pop\n      pop\n      jump\t// out\n        /* \"contracts/02_peepCoding/03_functions.sol\":569:661  function pure1(uint _a, uint _b) public pure returns(uint) {\r... */\n    tag_40:\n        /* \"contracts/02_peepCoding/03_functions.sol\":622:626  uint */\n      0x00\n        /* \"contracts/02_peepCoding/03_functions.sol\":651:653  _b */\n      dup2\n        /* \"contracts/02_peepCoding/03_functions.sol\":646:648  _a */\n      dup4\n        /* \"contracts/02_peepCoding/03_functions.sol\":646:653  _a + _b */\n      tag_55\n      swap2\n      swap1\n      tag_44\n      jump\t// in\n    tag_55:\n        /* \"contracts/02_peepCoding/03_functions.sol\":639:653  return _a + _b */\n      swap1\n      pop\n        /* \"contracts/02_peepCoding/03_functions.sol\":569:661  function pure1(uint _a, uint _b) public pure returns(uint) {\r... */\n      swap3\n      swap2\n      pop\n      pop\n      jump\t// out\n        /* \"#utility.yul\":7:146   */\n    tag_57:\n        /* \"#utility.yul\":53:58   */\n      0x00\n        /* \"#utility.yul\":91:97   */\n      dup2\n        /* \"#utility.yul\":78:98   */\n      calldataload\n        /* \"#utility.yul\":69:98   */\n      swap1\n      pop\n        /* \"#utility.yul\":107:140   */\n      tag_59\n        /* \"#utility.yul\":134:139   */\n      dup2\n        /* \"#utility.yul\":107:140   */\n      tag_60\n      jump\t// in\n    tag_59:\n        /* \"#utility.yul\":7:146   */\n      swap3\n      swap2\n      pop\n      pop\n      jump\t// out\n        /* \"#utility.yul\":152:481   */\n    tag_14:\n        /* \"#utility.yul\":211:217   */\n      0x00\n        /* \"#utility.yul\":260:262   */\n      0x20\n        /* \"#utility.yul\":248:257   */\n      dup3\n        /* \"#utility.yul\":239:246   */\n      dup5\n        /* \"#utility.yul\":235:258   */\n      sub\n        /* \"#utility.yul\":231:263   */\n      slt\n        /* \"#utility.yul\":228:347   */\n      iszero\n      tag_62\n      jumpi\n        /* \"#utility.yul\":266:345   */\n      tag_63\n      tag_64\n      jump\t// in\n    tag_63:\n        /* \"#utility.yul\":228:347   */\n    tag_62:\n        /* \"#utility.yul\":386:387   */\n      0x00\n        /* \"#utility.yul\":411:464   */\n      tag_65\n        /* \"#utility.yul\":456:463   */\n      dup5\n        /* \"#utility.yul\":447:453   */\n      dup3\n        /* \"#utility.yul\":436:445   */\n      dup6\n        /* \"#utility.yul\":432:454   */\n      add\n        /* \"#utility.yul\":411:464   */\n      tag_57\n      jump\t// in\n    tag_65:\n        /* \"#utility.yul\":401:464   */\n      swap2\n      pop\n        /* \"#utility.yul\":357:474   */\n      pop\n        /* \"#utility.yul\":152:481   */\n      swap3\n      swap2\n      pop\n      pop\n      jump\t// out\n        /* \"#utility.yul\":487:961   */\n    tag_25:\n        /* \"#utility.yul\":555:561   */\n      0x00\n        /* \"#utility.yul\":563:569   */\n      dup1\n        /* \"#utility.yul\":612:614   */\n      0x40\n        /* \"#utility.yul\":600:609   */\n      dup4\n        /* \"#utility.yul\":591:598   */\n      dup6\n        /* \"#utility.yul\":587:610   */\n      sub\n        /* \"#utility.yul\":583:615   */\n      slt\n        /* \"#utility.yul\":580:699   */\n      iszero\n      tag_67\n      jumpi\n        /* \"#utility.yul\":618:697   */\n      tag_68\n      tag_64\n      jump\t// in\n    tag_68:\n        /* \"#utility.yul\":580:699   */\n    tag_67:\n        /* \"#utility.yul\":738:739   */\n      0x00\n        /* \"#utility.yul\":763:816   */\n      tag_69\n        /* \"#utility.yul\":808:815   */\n      dup6\n        /* \"#utility.yul\":799:805   */\n      dup3\n        /* \"#utility.yul\":788:797   */\n      dup7\n        /* \"#utility.yul\":784:806   */\n      add\n        /* \"#utility.yul\":763:816   */\n      tag_57\n      jump\t// in\n    tag_69:\n        /* \"#utility.yul\":753:816   */\n      swap3\n      pop\n        /* \"#utility.yul\":709:826   */\n      pop\n        /* \"#utility.yul\":865:867   */\n      0x20\n        /* \"#utility.yul\":891:944   */\n      tag_70\n        /* \"#utility.yul\":936:943   */\n      dup6\n        /* \"#utility.yul\":927:933   */\n      dup3\n        /* \"#utility.yul\":916:925   */\n      dup7\n        /* \"#utility.yul\":912:934   */\n      add\n        /* \"#utility.yul\":891:944   */\n      tag_57\n      jump\t// in\n    tag_70:\n        /* \"#utility.yul\":881:944   */\n      swap2\n      pop\n        /* \"#utility.yul\":836:954   */\n      pop\n        /* \"#utility.yul\":487:961   */\n      swap3\n      pop\n      swap3\n      swap1\n      pop\n      jump\t// out\n        /* \"#utility.yul\":967:1085   */\n    tag_71:\n        /* \"#utility.yul\":1054:1078   */\n      tag_73\n        /* \"#utility.yul\":1072:1077   */\n      dup2\n        /* \"#utility.yul\":1054:1078   */\n      tag_74\n      jump\t// in\n    tag_73:\n        /* \"#utility.yul\":1049:1052   */\n      dup3\n        /* \"#utility.yul\":1042:1079   */\n      mstore\n        /* \"#utility.yul\":967:1085   */\n      pop\n      pop\n      jump\t// out\n        /* \"#utility.yul\":1091:1313   */\n    tag_17:\n        /* \"#utility.yul\":1184:1188   */\n      0x00\n        /* \"#utility.yul\":1222:1224   */\n      0x20\n        /* \"#utility.yul\":1211:1220   */\n      dup3\n        /* \"#utility.yul\":1207:1225   */\n      add\n        /* \"#utility.yul\":1199:1225   */\n      swap1\n      pop\n        /* \"#utility.yul\":1235:1306   */\n      tag_76\n        /* \"#utility.yul\":1303:1304   */\n      0x00\n        /* \"#utility.yul\":1292:1301   */\n      dup4\n        /* \"#utility.yul\":1288:1305   */\n      add\n        /* \"#utility.yul\":1279:1285   */\n      dup5\n        /* \"#utility.yul\":1235:1306   */\n      tag_71\n      jump\t// in\n    tag_76:\n        /* \"#utility.yul\":1091:1313   */\n      swap3\n      swap2\n      pop\n      pop\n      jump\t// out\n        /* \"#utility.yul\":1400:1705   */\n    tag_44:\n        /* \"#utility.yul\":1440:1443   */\n      0x00\n        /* \"#utility.yul\":1459:1479   */\n      tag_80\n        /* \"#utility.yul\":1477:1478   */\n      dup3\n        /* \"#utility.yul\":1459:1479   */\n      tag_74\n      jump\t// in\n    tag_80:\n        /* \"#utility.yul\":1454:1479   */\n      swap2\n      pop\n        /* \"#utility.yul\":1493:1513   */\n      tag_81\n        /* \"#utility.yul\":1511:1512   */\n      dup4\n        /* \"#utility.yul\":1493:1513   */\n      tag_74\n      jump\t// in\n    tag_81:\n        /* \"#utility.yul\":1488:1513   */\n      swap3\n      pop\n        /* \"#utility.yul\":1647:1648   */\n      dup3\n        /* \"#utility.yul\":1579:1645   */\n      0xffffffffffffffffffffffffffffffffffffffffffffffffffffffffffffffff\n        /* \"#utility.yul\":1575:1649   */\n      sub\n        /* \"#utility.yul\":1572:1573   */\n      dup3\n        /* \"#utility.yul\":1569:1650   */\n      gt\n        /* \"#utility.yul\":1566:1673   */\n      iszero\n      tag_82\n      jumpi\n        /* \"#utility.yul\":1653:1671   */\n      tag_83\n      tag_84\n      jump\t// in\n    tag_83:\n        /* \"#utility.yul\":1566:1673   */\n    tag_82:\n        /* \"#utility.yul\":1697:1698   */\n      dup3\n        /* \"#utility.yul\":1694:1695   */\n      dup3\n        /* \"#utility.yul\":1690:1699   */\n      add\n        /* \"#utility.yul\":1683:1699   */\n      swap1\n      pop\n        /* \"#utility.yul\":1400:1705   */\n      swap3\n      swap2\n      pop\n      pop\n      jump\t// out\n        /* \"#utility.yul\":1711:1788   */\n    tag_74:\n        /* \"#utility.yul\":1748:1755   */\n      0x00\n        /* \"#utility.yul\":1777:1782   */\n      dup2\n        /* \"#utility.yul\":1766:1782   */\n      swap1\n      pop\n        /* \"#utility.yul\":1711:1788   */\n      swap2\n      swap1\n      pop\n      jump\t// out\n        /* \"#utility.yul\":1794:1974   */\n    tag_84:\n        /* \"#utility.yul\":1842:1919   */\n      0x4e487b7100000000000000000000000000000000000000000000000000000000\n        /* \"#utility.yul\":1839:1840   */\n      0x00\n        /* \"#utility.yul\":1832:1920   */\n      mstore\n        /* \"#utility.yul\":1939:1943   */\n      0x11\n        /* \"#utility.yul\":1936:1937   */\n      0x04\n        /* \"#utility.yul\":1929:1944   */\n      mstore\n        /* \"#utility.yul\":1963:1967   */\n      0x24\n        /* \"#utility.yul\":1960:1961   */\n      0x00\n        /* \"#utility.yul\":1953:1968   */\n      revert\n        /* \"#utility.yul\":2103:2220   */\n    tag_64:\n        /* \"#utility.yul\":2212:2213   */\n      0x00\n        /* \"#utility.yul\":2209:2210   */\n      dup1\n        /* \"#utility.yul\":2202:2214   */\n      revert\n        /* \"#utility.yul\":2226:2348   */\n    tag_60:\n        /* \"#utility.yul\":2299:2323   */\n      tag_91\n        /* \"#utility.yul\":2317:2322   */\n      dup2\n        /* \"#utility.yul\":2299:2323   */\n      tag_74\n      jump\t// in\n    tag_91:\n        /* \"#utility.yul\":2292:2297   */\n      dup2\n        /* \"#utility.yul\":2289:2324   */\n      eq\n        /* \"#utility.yul\":2279:2342   */\n      tag_92\n      jumpi\n        /* \"#utility.yul\":2338:2339   */\n      0x00\n        /* \"#utility.yul\":2335:2336   */\n      dup1\n        /* \"#utility.yul\":2328:2340   */\n      revert\n        /* \"#utility.yul\":2279:2342   */\n    tag_92:\n        /* \"#utility.yul\":2226:2348   */\n      pop\n      jump\t// out\n\n    auxdata: 0xa26469706673582212208a32ed99698c53e41fa4bc317a077c2003b4d83a7b8508cf03af4e38fdcd00f464736f6c63430008070033\n}\n",
				"bytecode": {
					"linkReferences": {},
					"object": "60806040526014600055601960015534801561001a57600080fd5b506103dd8061002a6000396000f3fe608060405234801561001057600080fd5b50600436106100885760003560e01c80637d73dd341161005b5780637d73dd3414610115578063967e6e6514610133578063b6ae41c014610151578063e025f0081461018157610088565b806325beba0f1461008d5780632bc2f58d146100bd5780635ab3889a146100db578063771602f7146100e5575b600080fd5b6100a760048036038101906100a29190610265565b6101b1565b6040516100b491906102e1565b60405180910390f35b6100c56101c8565b6040516100d291906102e1565b60405180910390f35b6100e36101ce565b005b6100ff60048036038101906100fa9190610292565b6101e9565b60405161010c91906102e1565b60405180910390f35b61011d6101ff565b60405161012a91906102e1565b60405180910390f35b61013b610209565b60405161014891906102e1565b60405180910390f35b61016b60048036038101906101669190610292565b610212565b60405161017891906102e1565b60405180910390f35b61019b60048036038101906101969190610292565b61023a565b6040516101a891906102e1565b60405180910390f35b6000816001546101c191906102fc565b9050919050565b60015481565b60016000808282546101e091906102fc565b92505081905550565b600081836101f791906102fc565b905092915050565b6000600154905090565b60008054905090565b600080828460005461022491906102fc565b61022e91906102fc565b90508091505092915050565b6000818361024891906102fc565b905092915050565b60008135905061025f81610390565b92915050565b60006020828403121561027b5761027a61038b565b5b600061028984828501610250565b91505092915050565b600080604083850312156102a9576102a861038b565b5b60006102b785828601610250565b92505060206102c885828601610250565b9150509250929050565b6102db81610352565b82525050565b60006020820190506102f660008301846102d2565b92915050565b600061030782610352565b915061031283610352565b9250827fffffffffffffffffffffffffffffffffffffffffffffffffffffffffffffffff038211156103475761034661035c565b5b828201905092915050565b6000819050919050565b7f4e487b7100000000000000000000000000000000000000000000000000000000600052601160045260246000fd5b600080fd5b61039981610352565b81146103a457600080fd5b5056fea26469706673582212208a32ed99698c53e41fa4bc317a077c2003b4d83a7b8508cf03af4e38fdcd00f464736f6c63430008070033",
					"opcodes": "PUSH1 0x80 PUSH1 0x40 MSTORE PUSH1 0x14 PUSH1 0x0 SSTORE PUSH1 0x19 PUSH1 0x1 SSTORE CALLVALUE DUP1 ISZERO PUSH2 0x1A JUMPI PUSH1 0x0 DUP1 REVERT JUMPDEST POP PUSH2 0x3DD DUP1 PUSH2 0x2A PUSH1 0x0 CODECOPY PUSH1 0x0 RETURN INVALID PUSH1 0x80 PUSH1 0x40 MSTORE CALLVALUE DUP1 ISZERO PUSH2 0x10 JUMPI PUSH1 0x0 DUP1 REVERT JUMPDEST POP PUSH1 0x4 CALLDATASIZE LT PUSH2 0x88 JUMPI PUSH1 0x0 CALLDATALOAD PUSH1 0xE0 SHR DUP1 PUSH4 0x7D73DD34 GT PUSH2 0x5B JUMPI DUP1 PUSH4 0x7D73DD34 EQ PUSH2 0x115 JUMPI DUP1 PUSH4 0x967E6E65 EQ PUSH2 0x133 JUMPI DUP1 PUSH4 0xB6AE41C0 EQ PUSH2 0x151 JUMPI DUP1 PUSH4 0xE025F008 EQ PUSH2 0x181 JUMPI PUSH2 0x88 JUMP JUMPDEST DUP1 PUSH4 0x25BEBA0F EQ PUSH2 0x8D JUMPI DUP1 PUSH4 0x2BC2F58D EQ PUSH2 0xBD JUMPI DUP1 PUSH4 0x5AB3889A EQ PUSH2 0xDB JUMPI DUP1 PUSH4 0x771602F7 EQ PUSH2 0xE5 JUMPI JUMPDEST PUSH1 0x0 DUP1 REVERT JUMPDEST PUSH2 0xA7 PUSH1 0x4 DUP1 CALLDATASIZE SUB DUP2 ADD SWAP1 PUSH2 0xA2 SWAP2 SWAP1 PUSH2 0x265 JUMP JUMPDEST PUSH2 0x1B1 JUMP JUMPDEST PUSH1 0x40 MLOAD PUSH2 0xB4 SWAP2 SWAP1 PUSH2 0x2E1 JUMP JUMPDEST PUSH1 0x40 MLOAD DUP1 SWAP2 SUB SWAP1 RETURN JUMPDEST PUSH2 0xC5 PUSH2 0x1C8 JUMP JUMPDEST PUSH1 0x40 MLOAD PUSH2 0xD2 SWAP2 SWAP1 PUSH2 0x2E1 JUMP JUMPDEST PUSH1 0x40 MLOAD DUP1 SWAP2 SUB SWAP1 RETURN JUMPDEST PUSH2 0xE3 PUSH2 0x1CE JUMP JUMPDEST STOP JUMPDEST PUSH2 0xFF PUSH1 0x4 DUP1 CALLDATASIZE SUB DUP2 ADD SWAP1 PUSH2 0xFA SWAP2 SWAP1 PUSH2 0x292 JUMP JUMPDEST PUSH2 0x1E9 JUMP JUMPDEST PUSH1 0x40 MLOAD PUSH2 0x10C SWAP2 SWAP1 PUSH2 0x2E1 JUMP JUMPDEST PUSH1 0x40 MLOAD DUP1 SWAP2 SUB SWAP1 RETURN JUMPDEST PUSH2 0x11D PUSH2 0x1FF JUMP JUMPDEST PUSH1 0x40 MLOAD PUSH2 0x12A SWAP2 SWAP1 PUSH2 0x2E1 JUMP JUMPDEST PUSH1 0x40 MLOAD DUP1 SWAP2 SUB SWAP1 RETURN JUMPDEST PUSH2 0x13B PUSH2 0x209 JUMP JUMPDEST PUSH1 0x40 MLOAD PUSH2 0x148 SWAP2 SWAP1 PUSH2 0x2E1 JUMP JUMPDEST PUSH1 0x40 MLOAD DUP1 SWAP2 SUB SWAP1 RETURN JUMPDEST PUSH2 0x16B PUSH1 0x4 DUP1 CALLDATASIZE SUB DUP2 ADD SWAP1 PUSH2 0x166 SWAP2 SWAP1 PUSH2 0x292 JUMP JUMPDEST PUSH2 0x212 JUMP JUMPDEST PUSH1 0x40 MLOAD PUSH2 0x178 SWAP2 SWAP1 PUSH2 0x2E1 JUMP JUMPDEST PUSH1 0x40 MLOAD DUP1 SWAP2 SUB SWAP1 RETURN JUMPDEST PUSH2 0x19B PUSH1 0x4 DUP1 CALLDATASIZE SUB DUP2 ADD SWAP1 PUSH2 0x196 SWAP2 SWAP1 PUSH2 0x292 JUMP JUMPDEST PUSH2 0x23A JUMP JUMPDEST PUSH1 0x40 MLOAD PUSH2 0x1A8 SWAP2 SWAP1 PUSH2 0x2E1 JUMP JUMPDEST PUSH1 0x40 MLOAD DUP1 SWAP2 SUB SWAP1 RETURN JUMPDEST PUSH1 0x0 DUP2 PUSH1 0x1 SLOAD PUSH2 0x1C1 SWAP2 SWAP1 PUSH2 0x2FC JUMP JUMPDEST SWAP1 POP SWAP2 SWAP1 POP JUMP JUMPDEST PUSH1 0x1 SLOAD DUP2 JUMP JUMPDEST PUSH1 0x1 PUSH1 0x0 DUP1 DUP3 DUP3 SLOAD PUSH2 0x1E0 SWAP2 SWAP1 PUSH2 0x2FC JUMP JUMPDEST SWAP3 POP POP DUP2 SWAP1 SSTORE POP JUMP JUMPDEST PUSH1 0x0 DUP2 DUP4 PUSH2 0x1F7 SWAP2 SWAP1 PUSH2 0x2FC JUMP JUMPDEST SWAP1 POP SWAP3 SWAP2 POP POP JUMP JUMPDEST PUSH1 0x0 PUSH1 0x1 SLOAD SWAP1 POP SWAP1 JUMP JUMPDEST PUSH1 0x0 DUP1 SLOAD SWAP1 POP SWAP1 JUMP JUMPDEST PUSH1 0x0 DUP1 DUP3 DUP5 PUSH1 0x0 SLOAD PUSH2 0x224 SWAP2 SWAP1 PUSH2 0x2FC JUMP JUMPDEST PUSH2 0x22E SWAP2 SWAP1 PUSH2 0x2FC JUMP JUMPDEST SWAP1 POP DUP1 SWAP2 POP POP SWAP3 SWAP2 POP POP JUMP JUMPDEST PUSH1 0x0 DUP2 DUP4 PUSH2 0x248 SWAP2 SWAP1 PUSH2 0x2FC JUMP JUMPDEST SWAP1 POP SWAP3 SWAP2 POP POP JUMP JUMPDEST PUSH1 0x0 DUP2 CALLDATALOAD SWAP1 POP PUSH2 0x25F DUP2 PUSH2 0x390 JUMP JUMPDEST SWAP3 SWAP2 POP POP JUMP JUMPDEST PUSH1 0x0 PUSH1 0x20 DUP3 DUP5 SUB SLT ISZERO PUSH2 0x27B JUMPI PUSH2 0x27A PUSH2 0x38B JUMP JUMPDEST JUMPDEST PUSH1 0x0 PUSH2 0x289 DUP5 DUP3 DUP6 ADD PUSH2 0x250 JUMP JUMPDEST SWAP2 POP POP SWAP3 SWAP2 POP POP JUMP JUMPDEST PUSH1 0x0 DUP1 PUSH1 0x40 DUP4 DUP6 SUB SLT ISZERO PUSH2 0x2A9 JUMPI PUSH2 0x2A8 PUSH2 0x38B JUMP JUMPDEST JUMPDEST PUSH1 0x0 PUSH2 0x2B7 DUP6 DUP3 DUP7 ADD PUSH2 0x250 JUMP JUMPDEST SWAP3 POP POP PUSH1 0x20 PUSH2 0x2C8 DUP6 DUP3 DUP7 ADD PUSH2 0x250 JUMP JUMPDEST SWAP2 POP POP SWAP3 POP SWAP3 SWAP1 POP JUMP JUMPDEST PUSH2 0x2DB DUP2 PUSH2 0x352 JUMP JUMPDEST DUP3 MSTORE POP POP JUMP JUMPDEST PUSH1 0x0 PUSH1 0x20 DUP3 ADD SWAP1 POP PUSH2 0x2F6 PUSH1 0x0 DUP4 ADD DUP5 PUSH2 0x2D2 JUMP JUMPDEST SWAP3 SWAP2 POP POP JUMP JUMPDEST PUSH1 0x0 PUSH2 0x307 DUP3 PUSH2 0x352 JUMP JUMPDEST SWAP2 POP PUSH2 0x312 DUP4 PUSH2 0x352 JUMP JUMPDEST SWAP3 POP DUP3 PUSH32 0xFFFFFFFFFFFFFFFFFFFFFFFFFFFFFFFFFFFFFFFFFFFFFFFFFFFFFFFFFFFFFFFF SUB DUP3 GT ISZERO PUSH2 0x347 JUMPI PUSH2 0x346 PUSH2 0x35C JUMP JUMPDEST JUMPDEST DUP3 DUP3 ADD SWAP1 POP SWAP3 SWAP2 POP POP JUMP JUMPDEST PUSH1 0x0 DUP2 SWAP1 POP SWAP2 SWAP1 POP JUMP JUMPDEST PUSH32 0x4E487B7100000000000000000000000000000000000000000000000000000000 PUSH1 0x0 MSTORE PUSH1 0x11 PUSH1 0x4 MSTORE PUSH1 0x24 PUSH1 0x0 REVERT JUMPDEST PUSH1 0x0 DUP1 REVERT JUMPDEST PUSH2 0x399 DUP2 PUSH2 0x352 JUMP JUMPDEST DUP2 EQ PUSH2 0x3A4 JUMPI PUSH1 0x0 DUP1 REVERT JUMPDEST POP JUMP INVALID LOG2 PUSH5 0x6970667358 0x22 SLT KECCAK256 DUP11 ORIGIN 0xED SWAP10 PUSH10 0x8C53E41FA4BC317A077C KECCAK256 SUB 0xB4 0xD8 GASPRICE PUSH28 0x8508CF03AF4E38FDCD00F464736F6C63430008070033000000000000 "
				},
				"gasEstimates": {
					"creation": {
						"codeDepositCost": "197800",
						"executionCost": "44450",
						"totalCost": "242250"
					},
					"external": {
						"add(uint256,uint256)": "infinite",
						"age1()": "2452",
						"changeAge()": "infinite",
						"getAddedAge(uint256)": "infinite",
						"getAge()": "2459",
						"getAge1()": "2437",
						"getSumAge(uint256,uint256)": "infinite",
						"pure1(uint256,uint256)": "infinite"
					}
				},
				"methodIdentifiers": {
					"add(uint256,uint256)": "771602f7",
					"age1()": "2bc2f58d",
					"changeAge()": "5ab3889a",
					"getAddedAge(uint256)": "25beba0f",
					"getAge()": "967e6e65",
					"getAge1()": "7d73dd34",
					"getSumAge(uint256,uint256)": "b6ae41c0",
					"pure1(uint256,uint256)": "e025f008"
				}
			},
			"storageLayout": {
				"storage": [
					{
						"astId": 4,
						"contract": "contracts/02_peepCoding/03_functions.sol:functionIntro",
						"label": "age",
						"offset": 0,
						"slot": "0",
						"type": "t_uint256"
					},
					{
						"astId": 7,
						"contract": "contracts/02_peepCoding/03_functions.sol:functionIntro",
						"label": "age1",
						"offset": 0,
						"slot": "1",
						"type": "t_uint256"
					}
				],
				"types": {
					"t_uint256": {
						"encoding": "inplace",
						"label": "uint256",
						"numberOfBytes": "32"
					}
				}
			},
			"userdoc": {
				"kind": "user",
				"methods": {},
				"version": 1
			}
		}
	}
}